{
  "abi": [
    {
      "inputs": [
        {
          "internalType": "string",
          "name": "_name",
          "type": "string"
        }
      ],
      "name": "createElection",
      "outputs": [],
      "stateMutability": "nonpayable",
      "type": "function"
    },
    {
      "inputs": [
        {
          "internalType": "uint256",
          "name": "",
          "type": "uint256"
        }
      ],
      "name": "deployedElections",
      "outputs": [
        {
          "internalType": "address",
          "name": "",
          "type": "address"
        }
      ],
      "stateMutability": "view",
      "type": "function"
    },
    {
      "inputs": [],
      "name": "getDeployedElections",
      "outputs": [
        {
          "internalType": "address[]",
          "name": "",
          "type": "address[]"
        }
      ],
      "stateMutability": "view",
      "type": "function"
    }
  ],
  "devdoc": {
    "kind": "dev",
    "methods": {},
    "version": 1
  },
  "evm": {
    "assembly": "    /* \"Election.sol\":35:422  contract ElectionFactory {\r... */\n  mstore(0x40, 0x80)\n  callvalue\n  dup1\n  iszero\n  tag_1\n  jumpi\n  0x00\n  dup1\n  revert\ntag_1:\n  pop\n  dataSize(sub_0)\n  dup1\n  dataOffset(sub_0)\n  0x00\n  codecopy\n  0x00\n  return\nstop\n\nsub_0: assembly {\n        /* \"Election.sol\":35:422  contract ElectionFactory {\r... */\n      mstore(0x40, 0x80)\n      callvalue\n      dup1\n      iszero\n      tag_1\n      jumpi\n      0x00\n      dup1\n      revert\n    tag_1:\n      pop\n      jumpi(tag_2, lt(calldatasize, 0x04))\n      shr(0xe0, calldataload(0x00))\n      dup1\n      0x15cf4a5f\n      eq\n      tag_3\n      jumpi\n      dup1\n      0xca306594\n      eq\n      tag_4\n      jumpi\n      dup1\n      0xf18b4f8e\n      eq\n      tag_5\n      jumpi\n    tag_2:\n      0x00\n      dup1\n      revert\n        /* \"Election.sol\":114:293  function createElection(string memory _name) public {\r... */\n    tag_3:\n      tag_6\n      0x04\n      dup1\n      calldatasize\n      sub\n      dup2\n      add\n      swap1\n      tag_7\n      swap2\n      swap1\n      tag_8\n      jump\t// in\n    tag_7:\n      tag_9\n      jump\t// in\n    tag_6:\n      stop\n        /* \"Election.sol\":305:419  function getDeployedElections() public view returns (address[] memory) {\r... */\n    tag_4:\n      tag_10\n      tag_11\n      jump\t// in\n    tag_10:\n      mload(0x40)\n      tag_12\n      swap2\n      swap1\n      tag_13\n      jump\t// in\n    tag_12:\n      mload(0x40)\n      dup1\n      swap2\n      sub\n      swap1\n      return\n        /* \"Election.sol\":67:101  address[] public deployedElections */\n    tag_5:\n      tag_14\n      0x04\n      dup1\n      calldatasize\n      sub\n      dup2\n      add\n      swap1\n      tag_15\n      swap2\n      swap1\n      tag_16\n      jump\t// in\n    tag_15:\n      tag_17\n      jump\t// in\n    tag_14:\n      mload(0x40)\n      tag_18\n      swap2\n      swap1\n      tag_19\n      jump\t// in\n    tag_18:\n      mload(0x40)\n      dup1\n      swap2\n      sub\n      swap1\n      return\n        /* \"Election.sol\":114:293  function createElection(string memory _name) public {\r... */\n    tag_9:\n        /* \"Election.sol\":177:196  address newElection */\n      0x00\n        /* \"Election.sol\":220:225  _name */\n      dup2\n        /* \"Election.sol\":227:237  msg.sender */\n      caller\n        /* \"Election.sol\":207:238  new Election(_name, msg.sender) */\n      mload(0x40)\n      tag_21\n      swap1\n      tag_22\n      jump\t// in\n    tag_21:\n      tag_23\n      swap3\n      swap2\n      swap1\n      tag_24\n      jump\t// in\n    tag_23:\n      mload(0x40)\n      dup1\n      swap2\n      sub\n      swap1\n      0x00\n      create\n      dup1\n      iszero\n      dup1\n      iszero\n      tag_25\n      jumpi\n      returndatasize\n      0x00\n      dup1\n      returndatacopy\n      revert(0x00, returndatasize)\n    tag_25:\n      pop\n        /* \"Election.sol\":177:239  address newElection = address(new Election(_name, msg.sender)) */\n      swap1\n      pop\n        /* \"Election.sol\":250:267  deployedElections */\n      0x00\n        /* \"Election.sol\":273:284  newElection */\n      dup2\n        /* \"Election.sol\":250:285  deployedElections.push(newElection) */\n      swap1\n      dup1\n      0x01\n      dup2\n      sload\n      add\n      dup1\n      dup3\n      sstore\n      dup1\n      swap2\n      pop\n      pop\n      0x01\n      swap1\n      sub\n      swap1\n      0x00\n      mstore\n      keccak256(0x00, 0x20)\n      add\n      0x00\n      swap1\n      swap2\n      swap1\n      swap2\n      swap1\n      swap2\n      0x0100\n      exp\n      dup2\n      sload\n      dup2\n      0xffffffffffffffffffffffffffffffffffffffff\n      mul\n      not\n      and\n      swap1\n      dup4\n      0xffffffffffffffffffffffffffffffffffffffff\n      and\n      mul\n      or\n      swap1\n      sstore\n      pop\n        /* \"Election.sol\":166:293  {\r... */\n      pop\n        /* \"Election.sol\":114:293  function createElection(string memory _name) public {\r... */\n      pop\n      jump\t// out\n        /* \"Election.sol\":305:419  function getDeployedElections() public view returns (address[] memory) {\r... */\n    tag_11:\n        /* \"Election.sol\":358:374  address[] memory */\n      0x60\n        /* \"Election.sol\":394:411  deployedElections */\n      0x00\n        /* \"Election.sol\":387:411  return deployedElections */\n      dup1\n      sload\n      dup1\n      0x20\n      mul\n      0x20\n      add\n      mload(0x40)\n      swap1\n      dup2\n      add\n      0x40\n      mstore\n      dup1\n      swap3\n      swap2\n      swap1\n      dup2\n      dup2\n      mstore\n      0x20\n      add\n      dup3\n      dup1\n      sload\n      dup1\n      iszero\n      tag_28\n      jumpi\n      0x20\n      mul\n      dup3\n      add\n      swap2\n      swap1\n      0x00\n      mstore\n      keccak256(0x00, 0x20)\n      swap1\n    tag_29:\n      dup2\n      0x00\n      swap1\n      sload\n      swap1\n      0x0100\n      exp\n      swap1\n      div\n      0xffffffffffffffffffffffffffffffffffffffff\n      and\n      0xffffffffffffffffffffffffffffffffffffffff\n      and\n      dup2\n      mstore\n      0x20\n      add\n      swap1\n      0x01\n      add\n      swap1\n      dup1\n      dup4\n      gt\n      tag_29\n      jumpi\n    tag_28:\n      pop\n      pop\n      pop\n      pop\n      pop\n      swap1\n      pop\n        /* \"Election.sol\":305:419  function getDeployedElections() public view returns (address[] memory) {\r... */\n      swap1\n      jump\t// out\n        /* \"Election.sol\":67:101  address[] public deployedElections */\n    tag_17:\n      0x00\n      dup2\n      dup2\n      sload\n      dup2\n      lt\n      tag_30\n      jumpi\n      0x00\n      dup1\n      revert\n    tag_30:\n      swap1\n      0x00\n      mstore\n      keccak256(0x00, 0x20)\n      add\n      0x00\n      swap2\n      pop\n      sload\n      swap1\n      0x0100\n      exp\n      swap1\n      div\n      0xffffffffffffffffffffffffffffffffffffffff\n      and\n      dup2\n      jump\t// out\n    tag_22:\n      dataSize(sub_0)\n      dup1\n      dataOffset(sub_0)\n      dup4\n      codecopy\n      add\n      swap1\n      jump\t// out\n        /* \"#utility.yul\":7:419   */\n    tag_33:\n        /* \"#utility.yul\":85:90   */\n      0x00\n        /* \"#utility.yul\":110:176   */\n      tag_35\n        /* \"#utility.yul\":126:175   */\n      tag_36\n        /* \"#utility.yul\":168:174   */\n      dup5\n        /* \"#utility.yul\":126:175   */\n      tag_37\n      jump\t// in\n    tag_36:\n        /* \"#utility.yul\":110:176   */\n      tag_38\n      jump\t// in\n    tag_35:\n        /* \"#utility.yul\":101:176   */\n      swap1\n      pop\n        /* \"#utility.yul\":199:205   */\n      dup3\n        /* \"#utility.yul\":192:197   */\n      dup2\n        /* \"#utility.yul\":185:206   */\n      mstore\n        /* \"#utility.yul\":237:241   */\n      0x20\n        /* \"#utility.yul\":230:235   */\n      dup2\n        /* \"#utility.yul\":226:242   */\n      add\n        /* \"#utility.yul\":275:278   */\n      dup5\n        /* \"#utility.yul\":266:272   */\n      dup5\n        /* \"#utility.yul\":261:264   */\n      dup5\n        /* \"#utility.yul\":257:273   */\n      add\n        /* \"#utility.yul\":254:279   */\n      gt\n        /* \"#utility.yul\":251:363   */\n      iszero\n      tag_39\n      jumpi\n        /* \"#utility.yul\":282:361   */\n      tag_40\n      tag_41\n      jump\t// in\n    tag_40:\n        /* \"#utility.yul\":251:363   */\n    tag_39:\n        /* \"#utility.yul\":372:413   */\n      tag_42\n        /* \"#utility.yul\":406:412   */\n      dup5\n        /* \"#utility.yul\":401:404   */\n      dup3\n        /* \"#utility.yul\":396:399   */\n      dup6\n        /* \"#utility.yul\":372:413   */\n      tag_43\n      jump\t// in\n    tag_42:\n        /* \"#utility.yul\":91:419   */\n      pop\n        /* \"#utility.yul\":7:419   */\n      swap4\n      swap3\n      pop\n      pop\n      pop\n      jump\t// out\n        /* \"#utility.yul\":439:779   */\n    tag_44:\n        /* \"#utility.yul\":495:500   */\n      0x00\n        /* \"#utility.yul\":544:547   */\n      dup3\n        /* \"#utility.yul\":537:541   */\n      0x1f\n        /* \"#utility.yul\":529:535   */\n      dup4\n        /* \"#utility.yul\":525:542   */\n      add\n        /* \"#utility.yul\":521:548   */\n      slt\n        /* \"#utility.yul\":511:633   */\n      tag_46\n      jumpi\n        /* \"#utility.yul\":552:631   */\n      tag_47\n      tag_48\n      jump\t// in\n    tag_47:\n        /* \"#utility.yul\":511:633   */\n    tag_46:\n        /* \"#utility.yul\":669:675   */\n      dup2\n        /* \"#utility.yul\":656:676   */\n      calldataload\n        /* \"#utility.yul\":694:773   */\n      tag_49\n        /* \"#utility.yul\":769:772   */\n      dup5\n        /* \"#utility.yul\":761:767   */\n      dup3\n        /* \"#utility.yul\":754:758   */\n      0x20\n        /* \"#utility.yul\":746:752   */\n      dup7\n        /* \"#utility.yul\":742:759   */\n      add\n        /* \"#utility.yul\":694:773   */\n      tag_33\n      jump\t// in\n    tag_49:\n        /* \"#utility.yul\":685:773   */\n      swap2\n      pop\n        /* \"#utility.yul\":501:779   */\n      pop\n        /* \"#utility.yul\":439:779   */\n      swap3\n      swap2\n      pop\n      pop\n      jump\t// out\n        /* \"#utility.yul\":785:924   */\n    tag_50:\n        /* \"#utility.yul\":831:836   */\n      0x00\n        /* \"#utility.yul\":869:875   */\n      dup2\n        /* \"#utility.yul\":856:876   */\n      calldataload\n        /* \"#utility.yul\":847:876   */\n      swap1\n      pop\n        /* \"#utility.yul\":885:918   */\n      tag_52\n        /* \"#utility.yul\":912:917   */\n      dup2\n        /* \"#utility.yul\":885:918   */\n      tag_53\n      jump\t// in\n    tag_52:\n        /* \"#utility.yul\":785:924   */\n      swap3\n      swap2\n      pop\n      pop\n      jump\t// out\n        /* \"#utility.yul\":930:1439   */\n    tag_8:\n        /* \"#utility.yul\":999:1005   */\n      0x00\n        /* \"#utility.yul\":1048:1050   */\n      0x20\n        /* \"#utility.yul\":1036:1045   */\n      dup3\n        /* \"#utility.yul\":1027:1034   */\n      dup5\n        /* \"#utility.yul\":1023:1046   */\n      sub\n        /* \"#utility.yul\":1019:1051   */\n      slt\n        /* \"#utility.yul\":1016:1135   */\n      iszero\n      tag_55\n      jumpi\n        /* \"#utility.yul\":1054:1133   */\n      tag_56\n      tag_57\n      jump\t// in\n    tag_56:\n        /* \"#utility.yul\":1016:1135   */\n    tag_55:\n        /* \"#utility.yul\":1202:1203   */\n      0x00\n        /* \"#utility.yul\":1191:1200   */\n      dup3\n        /* \"#utility.yul\":1187:1204   */\n      add\n        /* \"#utility.yul\":1174:1205   */\n      calldataload\n        /* \"#utility.yul\":1232:1250   */\n      0xffffffffffffffff\n        /* \"#utility.yul\":1224:1230   */\n      dup2\n        /* \"#utility.yul\":1221:1251   */\n      gt\n        /* \"#utility.yul\":1218:1335   */\n      iszero\n      tag_58\n      jumpi\n        /* \"#utility.yul\":1254:1333   */\n      tag_59\n      tag_60\n      jump\t// in\n    tag_59:\n        /* \"#utility.yul\":1218:1335   */\n    tag_58:\n        /* \"#utility.yul\":1359:1422   */\n      tag_61\n        /* \"#utility.yul\":1414:1421   */\n      dup5\n        /* \"#utility.yul\":1405:1411   */\n      dup3\n        /* \"#utility.yul\":1394:1403   */\n      dup6\n        /* \"#utility.yul\":1390:1412   */\n      add\n        /* \"#utility.yul\":1359:1422   */\n      tag_44\n      jump\t// in\n    tag_61:\n        /* \"#utility.yul\":1349:1422   */\n      swap2\n      pop\n        /* \"#utility.yul\":1145:1432   */\n      pop\n        /* \"#utility.yul\":930:1439   */\n      swap3\n      swap2\n      pop\n      pop\n      jump\t// out\n        /* \"#utility.yul\":1445:1774   */\n    tag_16:\n        /* \"#utility.yul\":1504:1510   */\n      0x00\n        /* \"#utility.yul\":1553:1555   */\n      0x20\n        /* \"#utility.yul\":1541:1550   */\n      dup3\n        /* \"#utility.yul\":1532:1539   */\n      dup5\n        /* \"#utility.yul\":1528:1551   */\n      sub\n        /* \"#utility.yul\":1524:1556   */\n      slt\n        /* \"#utility.yul\":1521:1640   */\n      iszero\n      tag_63\n      jumpi\n        /* \"#utility.yul\":1559:1638   */\n      tag_64\n      tag_57\n      jump\t// in\n    tag_64:\n        /* \"#utility.yul\":1521:1640   */\n    tag_63:\n        /* \"#utility.yul\":1679:1680   */\n      0x00\n        /* \"#utility.yul\":1704:1757   */\n      tag_65\n        /* \"#utility.yul\":1749:1756   */\n      dup5\n        /* \"#utility.yul\":1740:1746   */\n      dup3\n        /* \"#utility.yul\":1729:1738   */\n      dup6\n        /* \"#utility.yul\":1725:1747   */\n      add\n        /* \"#utility.yul\":1704:1757   */\n      tag_50\n      jump\t// in\n    tag_65:\n        /* \"#utility.yul\":1694:1757   */\n      swap2\n      pop\n        /* \"#utility.yul\":1650:1767   */\n      pop\n        /* \"#utility.yul\":1445:1774   */\n      swap3\n      swap2\n      pop\n      pop\n      jump\t// out\n        /* \"#utility.yul\":1780:1959   */\n    tag_66:\n        /* \"#utility.yul\":1849:1859   */\n      0x00\n        /* \"#utility.yul\":1870:1916   */\n      tag_68\n        /* \"#utility.yul\":1912:1915   */\n      dup4\n        /* \"#utility.yul\":1904:1910   */\n      dup4\n        /* \"#utility.yul\":1870:1916   */\n      tag_69\n      jump\t// in\n    tag_68:\n        /* \"#utility.yul\":1948:1952   */\n      0x20\n        /* \"#utility.yul\":1943:1946   */\n      dup4\n        /* \"#utility.yul\":1939:1953   */\n      add\n        /* \"#utility.yul\":1925:1953   */\n      swap1\n      pop\n        /* \"#utility.yul\":1780:1959   */\n      swap3\n      swap2\n      pop\n      pop\n      jump\t// out\n        /* \"#utility.yul\":1965:2073   */\n    tag_69:\n        /* \"#utility.yul\":2042:2066   */\n      tag_71\n        /* \"#utility.yul\":2060:2065   */\n      dup2\n        /* \"#utility.yul\":2042:2066   */\n      tag_72\n      jump\t// in\n    tag_71:\n        /* \"#utility.yul\":2037:2040   */\n      dup3\n        /* \"#utility.yul\":2030:2067   */\n      mstore\n        /* \"#utility.yul\":1965:2073   */\n      pop\n      pop\n      jump\t// out\n        /* \"#utility.yul\":2079:2197   */\n    tag_73:\n        /* \"#utility.yul\":2166:2190   */\n      tag_75\n        /* \"#utility.yul\":2184:2189   */\n      dup2\n        /* \"#utility.yul\":2166:2190   */\n      tag_72\n      jump\t// in\n    tag_75:\n        /* \"#utility.yul\":2161:2164   */\n      dup3\n        /* \"#utility.yul\":2154:2191   */\n      mstore\n        /* \"#utility.yul\":2079:2197   */\n      pop\n      pop\n      jump\t// out\n        /* \"#utility.yul\":2233:2965   */\n    tag_76:\n        /* \"#utility.yul\":2352:2355   */\n      0x00\n        /* \"#utility.yul\":2381:2435   */\n      tag_78\n        /* \"#utility.yul\":2429:2434   */\n      dup3\n        /* \"#utility.yul\":2381:2435   */\n      tag_79\n      jump\t// in\n    tag_78:\n        /* \"#utility.yul\":2451:2537   */\n      tag_80\n        /* \"#utility.yul\":2530:2536   */\n      dup2\n        /* \"#utility.yul\":2525:2528   */\n      dup6\n        /* \"#utility.yul\":2451:2537   */\n      tag_81\n      jump\t// in\n    tag_80:\n        /* \"#utility.yul\":2444:2537   */\n      swap4\n      pop\n        /* \"#utility.yul\":2561:2617   */\n      tag_82\n        /* \"#utility.yul\":2611:2616   */\n      dup4\n        /* \"#utility.yul\":2561:2617   */\n      tag_83\n      jump\t// in\n    tag_82:\n        /* \"#utility.yul\":2640:2647   */\n      dup1\n        /* \"#utility.yul\":2671:2672   */\n      0x00\n        /* \"#utility.yul\":2656:2940   */\n    tag_84:\n        /* \"#utility.yul\":2681:2687   */\n      dup4\n        /* \"#utility.yul\":2678:2679   */\n      dup2\n        /* \"#utility.yul\":2675:2688   */\n      lt\n        /* \"#utility.yul\":2656:2940   */\n      iszero\n      tag_86\n      jumpi\n        /* \"#utility.yul\":2757:2763   */\n      dup2\n        /* \"#utility.yul\":2751:2764   */\n      mload\n        /* \"#utility.yul\":2784:2847   */\n      tag_87\n        /* \"#utility.yul\":2843:2846   */\n      dup9\n        /* \"#utility.yul\":2828:2841   */\n      dup3\n        /* \"#utility.yul\":2784:2847   */\n      tag_66\n      jump\t// in\n    tag_87:\n        /* \"#utility.yul\":2777:2847   */\n      swap8\n      pop\n        /* \"#utility.yul\":2870:2930   */\n      tag_88\n        /* \"#utility.yul\":2923:2929   */\n      dup4\n        /* \"#utility.yul\":2870:2930   */\n      tag_89\n      jump\t// in\n    tag_88:\n        /* \"#utility.yul\":2860:2930   */\n      swap3\n      pop\n        /* \"#utility.yul\":2716:2940   */\n      pop\n        /* \"#utility.yul\":2703:2704   */\n      0x01\n        /* \"#utility.yul\":2700:2701   */\n      dup2\n        /* \"#utility.yul\":2696:2705   */\n      add\n        /* \"#utility.yul\":2691:2705   */\n      swap1\n      pop\n        /* \"#utility.yul\":2656:2940   */\n      jump(tag_84)\n    tag_86:\n        /* \"#utility.yul\":2660:2674   */\n      pop\n        /* \"#utility.yul\":2956:2959   */\n      dup6\n        /* \"#utility.yul\":2949:2959   */\n      swap4\n      pop\n        /* \"#utility.yul\":2357:2965   */\n      pop\n      pop\n      pop\n        /* \"#utility.yul\":2233:2965   */\n      swap3\n      swap2\n      pop\n      pop\n      jump\t// out\n        /* \"#utility.yul\":2971:3335   */\n    tag_90:\n        /* \"#utility.yul\":3059:3062   */\n      0x00\n        /* \"#utility.yul\":3087:3126   */\n      tag_92\n        /* \"#utility.yul\":3120:3125   */\n      dup3\n        /* \"#utility.yul\":3087:3126   */\n      tag_93\n      jump\t// in\n    tag_92:\n        /* \"#utility.yul\":3142:3213   */\n      tag_94\n        /* \"#utility.yul\":3206:3212   */\n      dup2\n        /* \"#utility.yul\":3201:3204   */\n      dup6\n        /* \"#utility.yul\":3142:3213   */\n      tag_95\n      jump\t// in\n    tag_94:\n        /* \"#utility.yul\":3135:3213   */\n      swap4\n      pop\n        /* \"#utility.yul\":3222:3274   */\n      tag_96\n        /* \"#utility.yul\":3267:3273   */\n      dup2\n        /* \"#utility.yul\":3262:3265   */\n      dup6\n        /* \"#utility.yul\":3255:3259   */\n      0x20\n        /* \"#utility.yul\":3248:3253   */\n      dup7\n        /* \"#utility.yul\":3244:3260   */\n      add\n        /* \"#utility.yul\":3222:3274   */\n      tag_97\n      jump\t// in\n    tag_96:\n        /* \"#utility.yul\":3299:3328   */\n      tag_98\n        /* \"#utility.yul\":3321:3327   */\n      dup2\n        /* \"#utility.yul\":3299:3328   */\n      tag_99\n      jump\t// in\n    tag_98:\n        /* \"#utility.yul\":3294:3297   */\n      dup5\n        /* \"#utility.yul\":3290:3329   */\n      add\n        /* \"#utility.yul\":3283:3329   */\n      swap2\n      pop\n        /* \"#utility.yul\":3063:3335   */\n      pop\n        /* \"#utility.yul\":2971:3335   */\n      swap3\n      swap2\n      pop\n      pop\n      jump\t// out\n        /* \"#utility.yul\":3341:3563   */\n    tag_19:\n        /* \"#utility.yul\":3434:3438   */\n      0x00\n        /* \"#utility.yul\":3472:3474   */\n      0x20\n        /* \"#utility.yul\":3461:3470   */\n      dup3\n        /* \"#utility.yul\":3457:3475   */\n      add\n        /* \"#utility.yul\":3449:3475   */\n      swap1\n      pop\n        /* \"#utility.yul\":3485:3556   */\n      tag_101\n        /* \"#utility.yul\":3553:3554   */\n      0x00\n        /* \"#utility.yul\":3542:3551   */\n      dup4\n        /* \"#utility.yul\":3538:3555   */\n      add\n        /* \"#utility.yul\":3529:3535   */\n      dup5\n        /* \"#utility.yul\":3485:3556   */\n      tag_73\n      jump\t// in\n    tag_101:\n        /* \"#utility.yul\":3341:3563   */\n      swap3\n      swap2\n      pop\n      pop\n      jump\t// out\n        /* \"#utility.yul\":3569:3942   */\n    tag_13:\n        /* \"#utility.yul\":3712:3716   */\n      0x00\n        /* \"#utility.yul\":3750:3752   */\n      0x20\n        /* \"#utility.yul\":3739:3748   */\n      dup3\n        /* \"#utility.yul\":3735:3753   */\n      add\n        /* \"#utility.yul\":3727:3753   */\n      swap1\n      pop\n        /* \"#utility.yul\":3799:3808   */\n      dup2\n        /* \"#utility.yul\":3793:3797   */\n      dup2\n        /* \"#utility.yul\":3789:3809   */\n      sub\n        /* \"#utility.yul\":3785:3786   */\n      0x00\n        /* \"#utility.yul\":3774:3783   */\n      dup4\n        /* \"#utility.yul\":3770:3787   */\n      add\n        /* \"#utility.yul\":3763:3810   */\n      mstore\n        /* \"#utility.yul\":3827:3935   */\n      tag_103\n        /* \"#utility.yul\":3930:3934   */\n      dup2\n        /* \"#utility.yul\":3921:3927   */\n      dup5\n        /* \"#utility.yul\":3827:3935   */\n      tag_76\n      jump\t// in\n    tag_103:\n        /* \"#utility.yul\":3819:3935   */\n      swap1\n      pop\n        /* \"#utility.yul\":3569:3942   */\n      swap3\n      swap2\n      pop\n      pop\n      jump\t// out\n        /* \"#utility.yul\":3948:4371   */\n    tag_24:\n        /* \"#utility.yul\":4089:4093   */\n      0x00\n        /* \"#utility.yul\":4127:4129   */\n      0x40\n        /* \"#utility.yul\":4116:4125   */\n      dup3\n        /* \"#utility.yul\":4112:4130   */\n      add\n        /* \"#utility.yul\":4104:4130   */\n      swap1\n      pop\n        /* \"#utility.yul\":4176:4185   */\n      dup2\n        /* \"#utility.yul\":4170:4174   */\n      dup2\n        /* \"#utility.yul\":4166:4186   */\n      sub\n        /* \"#utility.yul\":4162:4163   */\n      0x00\n        /* \"#utility.yul\":4151:4160   */\n      dup4\n        /* \"#utility.yul\":4147:4164   */\n      add\n        /* \"#utility.yul\":4140:4187   */\n      mstore\n        /* \"#utility.yul\":4204:4282   */\n      tag_105\n        /* \"#utility.yul\":4277:4281   */\n      dup2\n        /* \"#utility.yul\":4268:4274   */\n      dup6\n        /* \"#utility.yul\":4204:4282   */\n      tag_90\n      jump\t// in\n    tag_105:\n        /* \"#utility.yul\":4196:4282   */\n      swap1\n      pop\n        /* \"#utility.yul\":4292:4364   */\n      tag_106\n        /* \"#utility.yul\":4360:4362   */\n      0x20\n        /* \"#utility.yul\":4349:4358   */\n      dup4\n        /* \"#utility.yul\":4345:4363   */\n      add\n        /* \"#utility.yul\":4336:4342   */\n      dup5\n        /* \"#utility.yul\":4292:4364   */\n      tag_73\n      jump\t// in\n    tag_106:\n        /* \"#utility.yul\":3948:4371   */\n      swap4\n      swap3\n      pop\n      pop\n      pop\n      jump\t// out\n        /* \"#utility.yul\":4377:4506   */\n    tag_38:\n        /* \"#utility.yul\":4411:4417   */\n      0x00\n        /* \"#utility.yul\":4438:4458   */\n      tag_108\n      tag_109\n      jump\t// in\n    tag_108:\n        /* \"#utility.yul\":4428:4458   */\n      swap1\n      pop\n        /* \"#utility.yul\":4467:4500   */\n      tag_110\n        /* \"#utility.yul\":4495:4499   */\n      dup3\n        /* \"#utility.yul\":4487:4493   */\n      dup3\n        /* \"#utility.yul\":4467:4500   */\n      tag_111\n      jump\t// in\n    tag_110:\n        /* \"#utility.yul\":4377:4506   */\n      swap2\n      swap1\n      pop\n      jump\t// out\n        /* \"#utility.yul\":4512:4587   */\n    tag_109:\n        /* \"#utility.yul\":4545:4551   */\n      0x00\n        /* \"#utility.yul\":4578:4580   */\n      0x40\n        /* \"#utility.yul\":4572:4581   */\n      mload\n        /* \"#utility.yul\":4562:4581   */\n      swap1\n      pop\n        /* \"#utility.yul\":4512:4587   */\n      swap1\n      jump\t// out\n        /* \"#utility.yul\":4593:4901   */\n    tag_37:\n        /* \"#utility.yul\":4655:4659   */\n      0x00\n        /* \"#utility.yul\":4745:4763   */\n      0xffffffffffffffff\n        /* \"#utility.yul\":4737:4743   */\n      dup3\n        /* \"#utility.yul\":4734:4764   */\n      gt\n        /* \"#utility.yul\":4731:4787   */\n      iszero\n      tag_114\n      jumpi\n        /* \"#utility.yul\":4767:4785   */\n      tag_115\n      tag_116\n      jump\t// in\n    tag_115:\n        /* \"#utility.yul\":4731:4787   */\n    tag_114:\n        /* \"#utility.yul\":4805:4834   */\n      tag_117\n        /* \"#utility.yul\":4827:4833   */\n      dup3\n        /* \"#utility.yul\":4805:4834   */\n      tag_99\n      jump\t// in\n    tag_117:\n        /* \"#utility.yul\":4797:4834   */\n      swap1\n      pop\n        /* \"#utility.yul\":4889:4893   */\n      0x20\n        /* \"#utility.yul\":4883:4887   */\n      dup2\n        /* \"#utility.yul\":4879:4894   */\n      add\n        /* \"#utility.yul\":4871:4894   */\n      swap1\n      pop\n        /* \"#utility.yul\":4593:4901   */\n      swap2\n      swap1\n      pop\n      jump\t// out\n        /* \"#utility.yul\":4907:5039   */\n    tag_83:\n        /* \"#utility.yul\":4974:4978   */\n      0x00\n        /* \"#utility.yul\":4997:5000   */\n      dup2\n        /* \"#utility.yul\":4989:5000   */\n      swap1\n      pop\n        /* \"#utility.yul\":5027:5031   */\n      0x20\n        /* \"#utility.yul\":5022:5025   */\n      dup3\n        /* \"#utility.yul\":5018:5032   */\n      add\n        /* \"#utility.yul\":5010:5032   */\n      swap1\n      pop\n        /* \"#utility.yul\":4907:5039   */\n      swap2\n      swap1\n      pop\n      jump\t// out\n        /* \"#utility.yul\":5045:5159   */\n    tag_79:\n        /* \"#utility.yul\":5112:5118   */\n      0x00\n        /* \"#utility.yul\":5146:5151   */\n      dup2\n        /* \"#utility.yul\":5140:5152   */\n      mload\n        /* \"#utility.yul\":5130:5152   */\n      swap1\n      pop\n        /* \"#utility.yul\":5045:5159   */\n      swap2\n      swap1\n      pop\n      jump\t// out\n        /* \"#utility.yul\":5165:5264   */\n    tag_93:\n        /* \"#utility.yul\":5217:5223   */\n      0x00\n        /* \"#utility.yul\":5251:5256   */\n      dup2\n        /* \"#utility.yul\":5245:5257   */\n      mload\n        /* \"#utility.yul\":5235:5257   */\n      swap1\n      pop\n        /* \"#utility.yul\":5165:5264   */\n      swap2\n      swap1\n      pop\n      jump\t// out\n        /* \"#utility.yul\":5270:5383   */\n    tag_89:\n        /* \"#utility.yul\":5340:5344   */\n      0x00\n        /* \"#utility.yul\":5372:5376   */\n      0x20\n        /* \"#utility.yul\":5367:5370   */\n      dup3\n        /* \"#utility.yul\":5363:5377   */\n      add\n        /* \"#utility.yul\":5355:5377   */\n      swap1\n      pop\n        /* \"#utility.yul\":5270:5383   */\n      swap2\n      swap1\n      pop\n      jump\t// out\n        /* \"#utility.yul\":5389:5573   */\n    tag_81:\n        /* \"#utility.yul\":5488:5499   */\n      0x00\n        /* \"#utility.yul\":5522:5528   */\n      dup3\n        /* \"#utility.yul\":5517:5520   */\n      dup3\n        /* \"#utility.yul\":5510:5529   */\n      mstore\n        /* \"#utility.yul\":5562:5566   */\n      0x20\n        /* \"#utility.yul\":5557:5560   */\n      dup3\n        /* \"#utility.yul\":5553:5567   */\n      add\n        /* \"#utility.yul\":5538:5567   */\n      swap1\n      pop\n        /* \"#utility.yul\":5389:5573   */\n      swap3\n      swap2\n      pop\n      pop\n      jump\t// out\n        /* \"#utility.yul\":5579:5748   */\n    tag_95:\n        /* \"#utility.yul\":5663:5674   */\n      0x00\n        /* \"#utility.yul\":5697:5703   */\n      dup3\n        /* \"#utility.yul\":5692:5695   */\n      dup3\n        /* \"#utility.yul\":5685:5704   */\n      mstore\n        /* \"#utility.yul\":5737:5741   */\n      0x20\n        /* \"#utility.yul\":5732:5735   */\n      dup3\n        /* \"#utility.yul\":5728:5742   */\n      add\n        /* \"#utility.yul\":5713:5742   */\n      swap1\n      pop\n        /* \"#utility.yul\":5579:5748   */\n      swap3\n      swap2\n      pop\n      pop\n      jump\t// out\n        /* \"#utility.yul\":5754:5850   */\n    tag_72:\n        /* \"#utility.yul\":5791:5798   */\n      0x00\n        /* \"#utility.yul\":5820:5844   */\n      tag_125\n        /* \"#utility.yul\":5838:5843   */\n      dup3\n        /* \"#utility.yul\":5820:5844   */\n      tag_126\n      jump\t// in\n    tag_125:\n        /* \"#utility.yul\":5809:5844   */\n      swap1\n      pop\n        /* \"#utility.yul\":5754:5850   */\n      swap2\n      swap1\n      pop\n      jump\t// out\n        /* \"#utility.yul\":5856:5982   */\n    tag_126:\n        /* \"#utility.yul\":5893:5900   */\n      0x00\n        /* \"#utility.yul\":5933:5975   */\n      0xffffffffffffffffffffffffffffffffffffffff\n        /* \"#utility.yul\":5926:5931   */\n      dup3\n        /* \"#utility.yul\":5922:5976   */\n      and\n        /* \"#utility.yul\":5911:5976   */\n      swap1\n      pop\n        /* \"#utility.yul\":5856:5982   */\n      swap2\n      swap1\n      pop\n      jump\t// out\n        /* \"#utility.yul\":5988:6065   */\n    tag_128:\n        /* \"#utility.yul\":6025:6032   */\n      0x00\n        /* \"#utility.yul\":6054:6059   */\n      dup2\n        /* \"#utility.yul\":6043:6059   */\n      swap1\n      pop\n        /* \"#utility.yul\":5988:6065   */\n      swap2\n      swap1\n      pop\n      jump\t// out\n        /* \"#utility.yul\":6071:6225   */\n    tag_43:\n        /* \"#utility.yul\":6155:6161   */\n      dup3\n        /* \"#utility.yul\":6150:6153   */\n      dup2\n        /* \"#utility.yul\":6145:6148   */\n      dup4\n        /* \"#utility.yul\":6132:6162   */\n      calldatacopy\n        /* \"#utility.yul\":6217:6218   */\n      0x00\n        /* \"#utility.yul\":6208:6214   */\n      dup4\n        /* \"#utility.yul\":6203:6206   */\n      dup4\n        /* \"#utility.yul\":6199:6215   */\n      add\n        /* \"#utility.yul\":6192:6219   */\n      mstore\n        /* \"#utility.yul\":6071:6225   */\n      pop\n      pop\n      pop\n      jump\t// out\n        /* \"#utility.yul\":6231:6538   */\n    tag_97:\n        /* \"#utility.yul\":6299:6300   */\n      0x00\n        /* \"#utility.yul\":6309:6422   */\n    tag_132:\n        /* \"#utility.yul\":6323:6329   */\n      dup4\n        /* \"#utility.yul\":6320:6321   */\n      dup2\n        /* \"#utility.yul\":6317:6330   */\n      lt\n        /* \"#utility.yul\":6309:6422   */\n      iszero\n      tag_134\n      jumpi\n        /* \"#utility.yul\":6408:6409   */\n      dup1\n        /* \"#utility.yul\":6403:6406   */\n      dup3\n        /* \"#utility.yul\":6399:6410   */\n      add\n        /* \"#utility.yul\":6393:6411   */\n      mload\n        /* \"#utility.yul\":6389:6390   */\n      dup2\n        /* \"#utility.yul\":6384:6387   */\n      dup5\n        /* \"#utility.yul\":6380:6391   */\n      add\n        /* \"#utility.yul\":6373:6412   */\n      mstore\n        /* \"#utility.yul\":6345:6347   */\n      0x20\n        /* \"#utility.yul\":6342:6343   */\n      dup2\n        /* \"#utility.yul\":6338:6348   */\n      add\n        /* \"#utility.yul\":6333:6348   */\n      swap1\n      pop\n        /* \"#utility.yul\":6309:6422   */\n      jump(tag_132)\n    tag_134:\n        /* \"#utility.yul\":6440:6446   */\n      dup4\n        /* \"#utility.yul\":6437:6438   */\n      dup2\n        /* \"#utility.yul\":6434:6447   */\n      gt\n        /* \"#utility.yul\":6431:6532   */\n      iszero\n      tag_135\n      jumpi\n        /* \"#utility.yul\":6520:6521   */\n      0x00\n        /* \"#utility.yul\":6511:6517   */\n      dup5\n        /* \"#utility.yul\":6506:6509   */\n      dup5\n        /* \"#utility.yul\":6502:6518   */\n      add\n        /* \"#utility.yul\":6495:6522   */\n      mstore\n        /* \"#utility.yul\":6431:6532   */\n    tag_135:\n        /* \"#utility.yul\":6280:6538   */\n      pop\n        /* \"#utility.yul\":6231:6538   */\n      pop\n      pop\n      pop\n      jump\t// out\n        /* \"#utility.yul\":6544:6825   */\n    tag_111:\n        /* \"#utility.yul\":6627:6654   */\n      tag_137\n        /* \"#utility.yul\":6649:6653   */\n      dup3\n        /* \"#utility.yul\":6627:6654   */\n      tag_99\n      jump\t// in\n    tag_137:\n        /* \"#utility.yul\":6619:6625   */\n      dup2\n        /* \"#utility.yul\":6615:6655   */\n      add\n        /* \"#utility.yul\":6757:6763   */\n      dup2\n        /* \"#utility.yul\":6745:6755   */\n      dup2\n        /* \"#utility.yul\":6742:6764   */\n      lt\n        /* \"#utility.yul\":6721:6739   */\n      0xffffffffffffffff\n        /* \"#utility.yul\":6709:6719   */\n      dup3\n        /* \"#utility.yul\":6706:6740   */\n      gt\n        /* \"#utility.yul\":6703:6765   */\n      or\n        /* \"#utility.yul\":6700:6788   */\n      iszero\n      tag_138\n      jumpi\n        /* \"#utility.yul\":6768:6786   */\n      tag_139\n      tag_116\n      jump\t// in\n    tag_139:\n        /* \"#utility.yul\":6700:6788   */\n    tag_138:\n        /* \"#utility.yul\":6808:6818   */\n      dup1\n        /* \"#utility.yul\":6804:6806   */\n      0x40\n        /* \"#utility.yul\":6797:6819   */\n      mstore\n        /* \"#utility.yul\":6587:6825   */\n      pop\n        /* \"#utility.yul\":6544:6825   */\n      pop\n      pop\n      jump\t// out\n        /* \"#utility.yul\":6831:7011   */\n    tag_116:\n        /* \"#utility.yul\":6879:6956   */\n      0x4e487b7100000000000000000000000000000000000000000000000000000000\n        /* \"#utility.yul\":6876:6877   */\n      0x00\n        /* \"#utility.yul\":6869:6957   */\n      mstore\n        /* \"#utility.yul\":6976:6980   */\n      0x41\n        /* \"#utility.yul\":6973:6974   */\n      0x04\n        /* \"#utility.yul\":6966:6981   */\n      mstore\n        /* \"#utility.yul\":7000:7004   */\n      0x24\n        /* \"#utility.yul\":6997:6998   */\n      0x00\n        /* \"#utility.yul\":6990:7005   */\n      revert\n        /* \"#utility.yul\":7017:7134   */\n    tag_48:\n        /* \"#utility.yul\":7126:7127   */\n      0x00\n        /* \"#utility.yul\":7123:7124   */\n      dup1\n        /* \"#utility.yul\":7116:7128   */\n      revert\n        /* \"#utility.yul\":7140:7257   */\n    tag_41:\n        /* \"#utility.yul\":7249:7250   */\n      0x00\n        /* \"#utility.yul\":7246:7247   */\n      dup1\n        /* \"#utility.yul\":7239:7251   */\n      revert\n        /* \"#utility.yul\":7263:7380   */\n    tag_60:\n        /* \"#utility.yul\":7372:7373   */\n      0x00\n        /* \"#utility.yul\":7369:7370   */\n      dup1\n        /* \"#utility.yul\":7362:7374   */\n      revert\n        /* \"#utility.yul\":7386:7503   */\n    tag_57:\n        /* \"#utility.yul\":7495:7496   */\n      0x00\n        /* \"#utility.yul\":7492:7493   */\n      dup1\n        /* \"#utility.yul\":7485:7497   */\n      revert\n        /* \"#utility.yul\":7509:7611   */\n    tag_99:\n        /* \"#utility.yul\":7550:7556   */\n      0x00\n        /* \"#utility.yul\":7601:7603   */\n      0x1f\n        /* \"#utility.yul\":7597:7604   */\n      not\n        /* \"#utility.yul\":7592:7594   */\n      0x1f\n        /* \"#utility.yul\":7585:7590   */\n      dup4\n        /* \"#utility.yul\":7581:7595   */\n      add\n        /* \"#utility.yul\":7577:7605   */\n      and\n        /* \"#utility.yul\":7567:7605   */\n      swap1\n      pop\n        /* \"#utility.yul\":7509:7611   */\n      swap2\n      swap1\n      pop\n      jump\t// out\n        /* \"#utility.yul\":7617:7739   */\n    tag_53:\n        /* \"#utility.yul\":7690:7714   */\n      tag_147\n        /* \"#utility.yul\":7708:7713   */\n      dup2\n        /* \"#utility.yul\":7690:7714   */\n      tag_128\n      jump\t// in\n    tag_147:\n        /* \"#utility.yul\":7683:7688   */\n      dup2\n        /* \"#utility.yul\":7680:7715   */\n      eq\n        /* \"#utility.yul\":7670:7733   */\n      tag_148\n      jumpi\n        /* \"#utility.yul\":7729:7730   */\n      0x00\n        /* \"#utility.yul\":7726:7727   */\n      dup1\n        /* \"#utility.yul\":7719:7731   */\n      revert\n        /* \"#utility.yul\":7670:7733   */\n    tag_148:\n        /* \"#utility.yul\":7617:7739   */\n      pop\n      jump\t// out\n    stop\n\n    sub_0: assembly {\n            /* \"Election.sol\":426:2980  contract Election {\r... */\n          mstore(0x40, 0x80)\n            /* \"Election.sol\":919:1028  constructor(string memory _name, address creator) {\r... */\n          callvalue\n          dup1\n          iszero\n          tag_1\n          jumpi\n          0x00\n          dup1\n          revert\n        tag_1:\n          pop\n          mload(0x40)\n          sub(codesize, bytecodeSize)\n          dup1\n          bytecodeSize\n          dup4\n          codecopy\n          dup2\n          dup2\n          add\n          0x40\n          mstore\n          dup2\n          add\n          swap1\n          tag_2\n          swap2\n          swap1\n          tag_3\n          jump\t// in\n        tag_2:\n            /* \"Election.sol\":990:997  creator */\n          dup1\n            /* \"Election.sol\":980:987  manager */\n          0x00\n          dup1\n            /* \"Election.sol\":980:997  manager = creator */\n          0x0100\n          exp\n          dup2\n          sload\n          dup2\n          0xffffffffffffffffffffffffffffffffffffffff\n          mul\n          not\n          and\n          swap1\n          dup4\n          0xffffffffffffffffffffffffffffffffffffffff\n          and\n          mul\n          or\n          swap1\n          sstore\n          pop\n            /* \"Election.sol\":1015:1020  _name */\n          dup2\n            /* \"Election.sol\":1008:1012  name */\n          0x06\n            /* \"Election.sol\":1008:1020  name = _name */\n          swap1\n          dup1\n          mload\n          swap1\n          0x20\n          add\n          swap1\n          tag_6\n          swap3\n          swap2\n          swap1\n          tag_7\n          jump\t// in\n        tag_6:\n          pop\n            /* \"Election.sol\":919:1028  constructor(string memory _name, address creator) {\r... */\n          pop\n          pop\n            /* \"Election.sol\":426:2980  contract Election {\r... */\n          jump(tag_8)\n        tag_7:\n          dup3\n          dup1\n          sload\n          tag_9\n          swap1\n          tag_10\n          jump\t// in\n        tag_9:\n          swap1\n          0x00\n          mstore\n          keccak256(0x00, 0x20)\n          swap1\n          0x1f\n          add\n          0x20\n          swap1\n          div\n          dup2\n          add\n          swap3\n          dup3\n          tag_12\n          jumpi\n          0x00\n          dup6\n          sstore\n          jump(tag_11)\n        tag_12:\n          dup3\n          0x1f\n          lt\n          tag_13\n          jumpi\n          dup1\n          mload\n          not(0xff)\n          and\n          dup4\n          dup1\n          add\n          or\n          dup6\n          sstore\n          jump(tag_11)\n        tag_13:\n          dup3\n          dup1\n          add\n          0x01\n          add\n          dup6\n          sstore\n          dup3\n          iszero\n          tag_11\n          jumpi\n          swap2\n          dup3\n          add\n        tag_14:\n          dup3\n          dup2\n          gt\n          iszero\n          tag_15\n          jumpi\n          dup3\n          mload\n          dup3\n          sstore\n          swap2\n          0x20\n          add\n          swap2\n          swap1\n          0x01\n          add\n          swap1\n          jump(tag_14)\n        tag_15:\n        tag_11:\n          pop\n          swap1\n          pop\n          tag_16\n          swap2\n          swap1\n          tag_17\n          jump\t// in\n        tag_16:\n          pop\n          swap1\n          jump\t// out\n        tag_17:\n        tag_18:\n          dup1\n          dup3\n          gt\n          iszero\n          tag_19\n          jumpi\n          0x00\n          dup2\n          0x00\n          swap1\n          sstore\n          pop\n          0x01\n          add\n          jump(tag_18)\n        tag_19:\n          pop\n          swap1\n          jump\t// out\n            /* \"#utility.yul\":7:428   */\n        tag_21:\n            /* \"#utility.yul\":96:101   */\n          0x00\n            /* \"#utility.yul\":121:187   */\n          tag_23\n            /* \"#utility.yul\":137:186   */\n          tag_24\n            /* \"#utility.yul\":179:185   */\n          dup5\n            /* \"#utility.yul\":137:186   */\n          tag_25\n          jump\t// in\n        tag_24:\n            /* \"#utility.yul\":121:187   */\n          tag_26\n          jump\t// in\n        tag_23:\n            /* \"#utility.yul\":112:187   */\n          swap1\n          pop\n            /* \"#utility.yul\":210:216   */\n          dup3\n            /* \"#utility.yul\":203:208   */\n          dup2\n            /* \"#utility.yul\":196:217   */\n          mstore\n            /* \"#utility.yul\":248:252   */\n          0x20\n            /* \"#utility.yul\":241:246   */\n          dup2\n            /* \"#utility.yul\":237:253   */\n          add\n            /* \"#utility.yul\":286:289   */\n          dup5\n            /* \"#utility.yul\":277:283   */\n          dup5\n            /* \"#utility.yul\":272:275   */\n          dup5\n            /* \"#utility.yul\":268:284   */\n          add\n            /* \"#utility.yul\":265:290   */\n          gt\n            /* \"#utility.yul\":262:374   */\n          iszero\n          tag_27\n          jumpi\n            /* \"#utility.yul\":293:372   */\n          tag_28\n          tag_29\n          jump\t// in\n        tag_28:\n            /* \"#utility.yul\":262:374   */\n        tag_27:\n            /* \"#utility.yul\":383:422   */\n          tag_30\n            /* \"#utility.yul\":415:421   */\n          dup5\n            /* \"#utility.yul\":410:413   */\n          dup3\n            /* \"#utility.yul\":405:408   */\n          dup6\n            /* \"#utility.yul\":383:422   */\n          tag_31\n          jump\t// in\n        tag_30:\n            /* \"#utility.yul\":102:428   */\n          pop\n            /* \"#utility.yul\":7:428   */\n          swap4\n          swap3\n          pop\n          pop\n          pop\n          jump\t// out\n            /* \"#utility.yul\":434:577   */\n        tag_32:\n            /* \"#utility.yul\":491:496   */\n          0x00\n            /* \"#utility.yul\":522:528   */\n          dup2\n            /* \"#utility.yul\":516:529   */\n          mload\n            /* \"#utility.yul\":507:529   */\n          swap1\n          pop\n            /* \"#utility.yul\":538:571   */\n          tag_34\n            /* \"#utility.yul\":565:570   */\n          dup2\n            /* \"#utility.yul\":538:571   */\n          tag_35\n          jump\t// in\n        tag_34:\n            /* \"#utility.yul\":434:577   */\n          swap3\n          swap2\n          pop\n          pop\n          jump\t// out\n            /* \"#utility.yul\":597:952   */\n        tag_36:\n            /* \"#utility.yul\":664:669   */\n          0x00\n            /* \"#utility.yul\":713:716   */\n          dup3\n            /* \"#utility.yul\":706:710   */\n          0x1f\n            /* \"#utility.yul\":698:704   */\n          dup4\n            /* \"#utility.yul\":694:711   */\n          add\n            /* \"#utility.yul\":690:717   */\n          slt\n            /* \"#utility.yul\":680:802   */\n          tag_38\n          jumpi\n            /* \"#utility.yul\":721:800   */\n          tag_39\n          tag_40\n          jump\t// in\n        tag_39:\n            /* \"#utility.yul\":680:802   */\n        tag_38:\n            /* \"#utility.yul\":831:837   */\n          dup2\n            /* \"#utility.yul\":825:838   */\n          mload\n            /* \"#utility.yul\":856:946   */\n          tag_41\n            /* \"#utility.yul\":942:945   */\n          dup5\n            /* \"#utility.yul\":934:940   */\n          dup3\n            /* \"#utility.yul\":927:931   */\n          0x20\n            /* \"#utility.yul\":919:925   */\n          dup7\n            /* \"#utility.yul\":915:932   */\n          add\n            /* \"#utility.yul\":856:946   */\n          tag_21\n          jump\t// in\n        tag_41:\n            /* \"#utility.yul\":847:946   */\n          swap2\n          pop\n            /* \"#utility.yul\":670:952   */\n          pop\n            /* \"#utility.yul\":597:952   */\n          swap3\n          swap2\n          pop\n          pop\n          jump\t// out\n            /* \"#utility.yul\":958:1638   */\n        tag_3:\n            /* \"#utility.yul\":1047:1053   */\n          0x00\n            /* \"#utility.yul\":1055:1061   */\n          dup1\n            /* \"#utility.yul\":1104:1106   */\n          0x40\n            /* \"#utility.yul\":1092:1101   */\n          dup4\n            /* \"#utility.yul\":1083:1090   */\n          dup6\n            /* \"#utility.yul\":1079:1102   */\n          sub\n            /* \"#utility.yul\":1075:1107   */\n          slt\n            /* \"#utility.yul\":1072:1191   */\n          iszero\n          tag_43\n          jumpi\n            /* \"#utility.yul\":1110:1189   */\n          tag_44\n          tag_45\n          jump\t// in\n        tag_44:\n            /* \"#utility.yul\":1072:1191   */\n        tag_43:\n            /* \"#utility.yul\":1251:1252   */\n          0x00\n            /* \"#utility.yul\":1240:1249   */\n          dup4\n            /* \"#utility.yul\":1236:1253   */\n          add\n            /* \"#utility.yul\":1230:1254   */\n          mload\n            /* \"#utility.yul\":1281:1299   */\n          0xffffffffffffffff\n            /* \"#utility.yul\":1273:1279   */\n          dup2\n            /* \"#utility.yul\":1270:1300   */\n          gt\n            /* \"#utility.yul\":1267:1384   */\n          iszero\n          tag_46\n          jumpi\n            /* \"#utility.yul\":1303:1382   */\n          tag_47\n          tag_48\n          jump\t// in\n        tag_47:\n            /* \"#utility.yul\":1267:1384   */\n        tag_46:\n            /* \"#utility.yul\":1408:1482   */\n          tag_49\n            /* \"#utility.yul\":1474:1481   */\n          dup6\n            /* \"#utility.yul\":1465:1471   */\n          dup3\n            /* \"#utility.yul\":1454:1463   */\n          dup7\n            /* \"#utility.yul\":1450:1472   */\n          add\n            /* \"#utility.yul\":1408:1482   */\n          tag_36\n          jump\t// in\n        tag_49:\n            /* \"#utility.yul\":1398:1482   */\n          swap3\n          pop\n            /* \"#utility.yul\":1201:1492   */\n          pop\n            /* \"#utility.yul\":1531:1533   */\n          0x20\n            /* \"#utility.yul\":1557:1621   */\n          tag_50\n            /* \"#utility.yul\":1613:1620   */\n          dup6\n            /* \"#utility.yul\":1604:1610   */\n          dup3\n            /* \"#utility.yul\":1593:1602   */\n          dup7\n            /* \"#utility.yul\":1589:1611   */\n          add\n            /* \"#utility.yul\":1557:1621   */\n          tag_32\n          jump\t// in\n        tag_50:\n            /* \"#utility.yul\":1547:1621   */\n          swap2\n          pop\n            /* \"#utility.yul\":1502:1631   */\n          pop\n            /* \"#utility.yul\":958:1638   */\n          swap3\n          pop\n          swap3\n          swap1\n          pop\n          jump\t// out\n            /* \"#utility.yul\":1644:1773   */\n        tag_26:\n            /* \"#utility.yul\":1678:1684   */\n          0x00\n            /* \"#utility.yul\":1705:1725   */\n          tag_52\n          tag_53\n          jump\t// in\n        tag_52:\n            /* \"#utility.yul\":1695:1725   */\n          swap1\n          pop\n            /* \"#utility.yul\":1734:1767   */\n          tag_54\n            /* \"#utility.yul\":1762:1766   */\n          dup3\n            /* \"#utility.yul\":1754:1760   */\n          dup3\n            /* \"#utility.yul\":1734:1767   */\n          tag_55\n          jump\t// in\n        tag_54:\n            /* \"#utility.yul\":1644:1773   */\n          swap2\n          swap1\n          pop\n          jump\t// out\n            /* \"#utility.yul\":1779:1854   */\n        tag_53:\n            /* \"#utility.yul\":1812:1818   */\n          0x00\n            /* \"#utility.yul\":1845:1847   */\n          0x40\n            /* \"#utility.yul\":1839:1848   */\n          mload\n            /* \"#utility.yul\":1829:1848   */\n          swap1\n          pop\n            /* \"#utility.yul\":1779:1854   */\n          swap1\n          jump\t// out\n            /* \"#utility.yul\":1860:2168   */\n        tag_25:\n            /* \"#utility.yul\":1922:1926   */\n          0x00\n            /* \"#utility.yul\":2012:2030   */\n          0xffffffffffffffff\n            /* \"#utility.yul\":2004:2010   */\n          dup3\n            /* \"#utility.yul\":2001:2031   */\n          gt\n            /* \"#utility.yul\":1998:2054   */\n          iszero\n          tag_58\n          jumpi\n            /* \"#utility.yul\":2034:2052   */\n          tag_59\n          tag_60\n          jump\t// in\n        tag_59:\n            /* \"#utility.yul\":1998:2054   */\n        tag_58:\n            /* \"#utility.yul\":2072:2101   */\n          tag_61\n            /* \"#utility.yul\":2094:2100   */\n          dup3\n            /* \"#utility.yul\":2072:2101   */\n          tag_62\n          jump\t// in\n        tag_61:\n            /* \"#utility.yul\":2064:2101   */\n          swap1\n          pop\n            /* \"#utility.yul\":2156:2160   */\n          0x20\n            /* \"#utility.yul\":2150:2154   */\n          dup2\n            /* \"#utility.yul\":2146:2161   */\n          add\n            /* \"#utility.yul\":2138:2161   */\n          swap1\n          pop\n            /* \"#utility.yul\":1860:2168   */\n          swap2\n          swap1\n          pop\n          jump\t// out\n            /* \"#utility.yul\":2174:2270   */\n        tag_63:\n            /* \"#utility.yul\":2211:2218   */\n          0x00\n            /* \"#utility.yul\":2240:2264   */\n          tag_65\n            /* \"#utility.yul\":2258:2263   */\n          dup3\n            /* \"#utility.yul\":2240:2264   */\n          tag_66\n          jump\t// in\n        tag_65:\n            /* \"#utility.yul\":2229:2264   */\n          swap1\n          pop\n            /* \"#utility.yul\":2174:2270   */\n          swap2\n          swap1\n          pop\n          jump\t// out\n            /* \"#utility.yul\":2276:2402   */\n        tag_66:\n            /* \"#utility.yul\":2313:2320   */\n          0x00\n            /* \"#utility.yul\":2353:2395   */\n          0xffffffffffffffffffffffffffffffffffffffff\n            /* \"#utility.yul\":2346:2351   */\n          dup3\n            /* \"#utility.yul\":2342:2396   */\n          and\n            /* \"#utility.yul\":2331:2396   */\n          swap1\n          pop\n            /* \"#utility.yul\":2276:2402   */\n          swap2\n          swap1\n          pop\n          jump\t// out\n            /* \"#utility.yul\":2408:2715   */\n        tag_31:\n            /* \"#utility.yul\":2476:2477   */\n          0x00\n            /* \"#utility.yul\":2486:2599   */\n        tag_69:\n            /* \"#utility.yul\":2500:2506   */\n          dup4\n            /* \"#utility.yul\":2497:2498   */\n          dup2\n            /* \"#utility.yul\":2494:2507   */\n          lt\n            /* \"#utility.yul\":2486:2599   */\n          iszero\n          tag_71\n          jumpi\n            /* \"#utility.yul\":2585:2586   */\n          dup1\n            /* \"#utility.yul\":2580:2583   */\n          dup3\n            /* \"#utility.yul\":2576:2587   */\n          add\n            /* \"#utility.yul\":2570:2588   */\n          mload\n            /* \"#utility.yul\":2566:2567   */\n          dup2\n            /* \"#utility.yul\":2561:2564   */\n          dup5\n            /* \"#utility.yul\":2557:2568   */\n          add\n            /* \"#utility.yul\":2550:2589   */\n          mstore\n            /* \"#utility.yul\":2522:2524   */\n          0x20\n            /* \"#utility.yul\":2519:2520   */\n          dup2\n            /* \"#utility.yul\":2515:2525   */\n          add\n            /* \"#utility.yul\":2510:2525   */\n          swap1\n          pop\n            /* \"#utility.yul\":2486:2599   */\n          jump(tag_69)\n        tag_71:\n            /* \"#utility.yul\":2617:2623   */\n          dup4\n            /* \"#utility.yul\":2614:2615   */\n          dup2\n            /* \"#utility.yul\":2611:2624   */\n          gt\n            /* \"#utility.yul\":2608:2709   */\n          iszero\n          tag_72\n          jumpi\n            /* \"#utility.yul\":2697:2698   */\n          0x00\n            /* \"#utility.yul\":2688:2694   */\n          dup5\n            /* \"#utility.yul\":2683:2686   */\n          dup5\n            /* \"#utility.yul\":2679:2695   */\n          add\n            /* \"#utility.yul\":2672:2699   */\n          mstore\n            /* \"#utility.yul\":2608:2709   */\n        tag_72:\n            /* \"#utility.yul\":2457:2715   */\n          pop\n            /* \"#utility.yul\":2408:2715   */\n          pop\n          pop\n          pop\n          jump\t// out\n            /* \"#utility.yul\":2721:3041   */\n        tag_10:\n            /* \"#utility.yul\":2765:2771   */\n          0x00\n            /* \"#utility.yul\":2802:2803   */\n          0x02\n            /* \"#utility.yul\":2796:2800   */\n          dup3\n            /* \"#utility.yul\":2792:2804   */\n          div\n            /* \"#utility.yul\":2782:2804   */\n          swap1\n          pop\n            /* \"#utility.yul\":2849:2850   */\n          0x01\n            /* \"#utility.yul\":2843:2847   */\n          dup3\n            /* \"#utility.yul\":2839:2851   */\n          and\n            /* \"#utility.yul\":2870:2888   */\n          dup1\n            /* \"#utility.yul\":2860:2941   */\n          tag_74\n          jumpi\n            /* \"#utility.yul\":2926:2930   */\n          0x7f\n            /* \"#utility.yul\":2918:2924   */\n          dup3\n            /* \"#utility.yul\":2914:2931   */\n          and\n            /* \"#utility.yul\":2904:2931   */\n          swap2\n          pop\n            /* \"#utility.yul\":2860:2941   */\n        tag_74:\n            /* \"#utility.yul\":2988:2990   */\n          0x20\n            /* \"#utility.yul\":2980:2986   */\n          dup3\n            /* \"#utility.yul\":2977:2991   */\n          lt\n            /* \"#utility.yul\":2957:2975   */\n          dup2\n            /* \"#utility.yul\":2954:2992   */\n          eq\n            /* \"#utility.yul\":2951:3035   */\n          iszero\n          tag_75\n          jumpi\n            /* \"#utility.yul\":3007:3025   */\n          tag_76\n          tag_77\n          jump\t// in\n        tag_76:\n            /* \"#utility.yul\":2951:3035   */\n        tag_75:\n            /* \"#utility.yul\":2772:3041   */\n          pop\n            /* \"#utility.yul\":2721:3041   */\n          swap2\n          swap1\n          pop\n          jump\t// out\n            /* \"#utility.yul\":3047:3328   */\n        tag_55:\n            /* \"#utility.yul\":3130:3157   */\n          tag_79\n            /* \"#utility.yul\":3152:3156   */\n          dup3\n            /* \"#utility.yul\":3130:3157   */\n          tag_62\n          jump\t// in\n        tag_79:\n            /* \"#utility.yul\":3122:3128   */\n          dup2\n            /* \"#utility.yul\":3118:3158   */\n          add\n            /* \"#utility.yul\":3260:3266   */\n          dup2\n            /* \"#utility.yul\":3248:3258   */\n          dup2\n            /* \"#utility.yul\":3245:3267   */\n          lt\n            /* \"#utility.yul\":3224:3242   */\n          0xffffffffffffffff\n            /* \"#utility.yul\":3212:3222   */\n          dup3\n            /* \"#utility.yul\":3209:3243   */\n          gt\n            /* \"#utility.yul\":3206:3268   */\n          or\n            /* \"#utility.yul\":3203:3291   */\n          iszero\n          tag_80\n          jumpi\n            /* \"#utility.yul\":3271:3289   */\n          tag_81\n          tag_60\n          jump\t// in\n        tag_81:\n            /* \"#utility.yul\":3203:3291   */\n        tag_80:\n            /* \"#utility.yul\":3311:3321   */\n          dup1\n            /* \"#utility.yul\":3307:3309   */\n          0x40\n            /* \"#utility.yul\":3300:3322   */\n          mstore\n            /* \"#utility.yul\":3090:3328   */\n          pop\n            /* \"#utility.yul\":3047:3328   */\n          pop\n          pop\n          jump\t// out\n            /* \"#utility.yul\":3334:3514   */\n        tag_77:\n            /* \"#utility.yul\":3382:3459   */\n          0x4e487b7100000000000000000000000000000000000000000000000000000000\n            /* \"#utility.yul\":3379:3380   */\n          0x00\n            /* \"#utility.yul\":3372:3460   */\n          mstore\n            /* \"#utility.yul\":3479:3483   */\n          0x22\n            /* \"#utility.yul\":3476:3477   */\n          0x04\n            /* \"#utility.yul\":3469:3484   */\n          mstore\n            /* \"#utility.yul\":3503:3507   */\n          0x24\n            /* \"#utility.yul\":3500:3501   */\n          0x00\n            /* \"#utility.yul\":3493:3508   */\n          revert\n            /* \"#utility.yul\":3520:3700   */\n        tag_60:\n            /* \"#utility.yul\":3568:3645   */\n          0x4e487b7100000000000000000000000000000000000000000000000000000000\n            /* \"#utility.yul\":3565:3566   */\n          0x00\n            /* \"#utility.yul\":3558:3646   */\n          mstore\n            /* \"#utility.yul\":3665:3669   */\n          0x41\n            /* \"#utility.yul\":3662:3663   */\n          0x04\n            /* \"#utility.yul\":3655:3670   */\n          mstore\n            /* \"#utility.yul\":3689:3693   */\n          0x24\n            /* \"#utility.yul\":3686:3687   */\n          0x00\n            /* \"#utility.yul\":3679:3694   */\n          revert\n            /* \"#utility.yul\":3706:3823   */\n        tag_40:\n            /* \"#utility.yul\":3815:3816   */\n          0x00\n            /* \"#utility.yul\":3812:3813   */\n          dup1\n            /* \"#utility.yul\":3805:3817   */\n          revert\n            /* \"#utility.yul\":3829:3946   */\n        tag_29:\n            /* \"#utility.yul\":3938:3939   */\n          0x00\n            /* \"#utility.yul\":3935:3936   */\n          dup1\n            /* \"#utility.yul\":3928:3940   */\n          revert\n            /* \"#utility.yul\":3952:4069   */\n        tag_48:\n            /* \"#utility.yul\":4061:4062   */\n          0x00\n            /* \"#utility.yul\":4058:4059   */\n          dup1\n            /* \"#utility.yul\":4051:4063   */\n          revert\n            /* \"#utility.yul\":4075:4192   */\n        tag_45:\n            /* \"#utility.yul\":4184:4185   */\n          0x00\n            /* \"#utility.yul\":4181:4182   */\n          dup1\n            /* \"#utility.yul\":4174:4186   */\n          revert\n            /* \"#utility.yul\":4198:4300   */\n        tag_62:\n            /* \"#utility.yul\":4239:4245   */\n          0x00\n            /* \"#utility.yul\":4290:4292   */\n          0x1f\n            /* \"#utility.yul\":4286:4293   */\n          not\n            /* \"#utility.yul\":4281:4283   */\n          0x1f\n            /* \"#utility.yul\":4274:4279   */\n          dup4\n            /* \"#utility.yul\":4270:4284   */\n          add\n            /* \"#utility.yul\":4266:4294   */\n          and\n            /* \"#utility.yul\":4256:4294   */\n          swap1\n          pop\n            /* \"#utility.yul\":4198:4300   */\n          swap2\n          swap1\n          pop\n          jump\t// out\n            /* \"#utility.yul\":4306:4428   */\n        tag_35:\n            /* \"#utility.yul\":4379:4403   */\n          tag_90\n            /* \"#utility.yul\":4397:4402   */\n          dup2\n            /* \"#utility.yul\":4379:4403   */\n          tag_63\n          jump\t// in\n        tag_90:\n            /* \"#utility.yul\":4372:4377   */\n          dup2\n            /* \"#utility.yul\":4369:4404   */\n          eq\n            /* \"#utility.yul\":4359:4422   */\n          tag_91\n          jumpi\n            /* \"#utility.yul\":4418:4419   */\n          0x00\n            /* \"#utility.yul\":4415:4416   */\n          dup1\n            /* \"#utility.yul\":4408:4420   */\n          revert\n            /* \"#utility.yul\":4359:4422   */\n        tag_91:\n            /* \"#utility.yul\":4306:4428   */\n          pop\n          jump\t// out\n            /* \"Election.sol\":426:2980  contract Election {\r... */\n        tag_8:\n          dataSize(sub_0)\n          dup1\n          dataOffset(sub_0)\n          0x00\n          codecopy\n          0x00\n          return\n        stop\n\n        sub_0: assembly {\n                /* \"Election.sol\":426:2980  contract Election {\r... */\n              mstore(0x40, 0x80)\n              callvalue\n              dup1\n              iszero\n              tag_1\n              jumpi\n              0x00\n              dup1\n              revert\n            tag_1:\n              pop\n              jumpi(tag_2, lt(calldatasize, 0x04))\n              shr(0xe0, calldataload(0x00))\n              dup1\n              0x481c6a75\n              gt\n              tag_11\n              jumpi\n              dup1\n              0x481c6a75\n              eq\n              tag_7\n              jumpi\n              dup1\n              0x5d495aea\n              eq\n              tag_8\n              jumpi\n              dup1\n              0xa3ec138d\n              eq\n              tag_9\n              jumpi\n              dup1\n              0xa5134620\n              eq\n              tag_10\n              jumpi\n              jump(tag_2)\n            tag_11:\n              dup1\n              0x0121b93f\n              eq\n              tag_3\n              jumpi\n              dup1\n              0x013cf08b\n              eq\n              tag_4\n              jumpi\n              dup1\n              0x23d1c95e\n              eq\n              tag_5\n              jumpi\n              dup1\n              0x4051ddac\n              eq\n              tag_6\n              jumpi\n            tag_2:\n              0x00\n              dup1\n              revert\n                /* \"Election.sol\":1606:1820  function vote(uint index) public {\r... */\n            tag_3:\n              tag_12\n              0x04\n              dup1\n              calldatasize\n              sub\n              dup2\n              add\n              swap1\n              tag_13\n              swap2\n              swap1\n              tag_14\n              jump\t// in\n            tag_13:\n              tag_15\n              jump\t// in\n            tag_12:\n              stop\n                /* \"Election.sol\":719:746  Proposal[] public proposals */\n            tag_4:\n              tag_16\n              0x04\n              dup1\n              calldatasize\n              sub\n              dup2\n              add\n              swap1\n              tag_17\n              swap2\n              swap1\n              tag_14\n              jump\t// in\n            tag_17:\n              tag_18\n              jump\t// in\n            tag_16:\n              mload(0x40)\n              tag_19\n              swap4\n              swap3\n              swap2\n              swap1\n              tag_20\n              jump\t// in\n            tag_19:\n              mload(0x40)\n              dup1\n              swap2\n              sub\n              swap1\n              return\n                /* \"Election.sol\":1203:1492  function addProposal(string memory _name, string memory _description) public restricted {\r... */\n            tag_5:\n              tag_21\n              0x04\n              dup1\n              calldatasize\n              sub\n              dup2\n              add\n              swap1\n              tag_22\n              swap2\n              swap1\n              tag_23\n              jump\t// in\n            tag_22:\n              tag_24\n              jump\t// in\n            tag_21:\n              stop\n                /* \"Election.sol\":2788:2971  function getSummary() public view returns (uint,  string memory, address) {\r... */\n            tag_6:\n              tag_25\n              tag_26\n              jump\t// in\n            tag_25:\n              mload(0x40)\n              tag_27\n              swap4\n              swap3\n              swap2\n              swap1\n              tag_28\n              jump\t// in\n            tag_27:\n              mload(0x40)\n              dup1\n              swap2\n              sub\n              swap1\n              return\n                /* \"Election.sol\":644:666  address public manager */\n            tag_7:\n              tag_29\n              tag_30\n              jump\t// in\n            tag_29:\n              mload(0x40)\n              tag_31\n              swap2\n              swap1\n              tag_32\n              jump\t// in\n            tag_31:\n              mload(0x40)\n              dup1\n              swap2\n              sub\n              swap1\n              return\n                /* \"Election.sol\":1896:2358  function pickWinner() public restricted {\r... */\n            tag_8:\n              tag_33\n              tag_34\n              jump\t// in\n            tag_33:\n              stop\n                /* \"Election.sol\":673:712  mapping(address => Voter) public voters */\n            tag_9:\n              tag_35\n              0x04\n              dup1\n              calldatasize\n              sub\n              dup2\n              add\n              swap1\n              tag_36\n              swap2\n              swap1\n              tag_37\n              jump\t// in\n            tag_36:\n              tag_38\n              jump\t// in\n            tag_35:\n              mload(0x40)\n              tag_39\n              swap3\n              swap2\n              swap1\n              tag_40\n              jump\t// in\n            tag_39:\n              mload(0x40)\n              dup1\n              swap2\n              sub\n              swap1\n              return\n                /* \"Election.sol\":2476:2634  function getWinningProposal() public view returns(Proposal memory) {\r... */\n            tag_10:\n              tag_41\n              tag_42\n              jump\t// in\n            tag_41:\n              mload(0x40)\n              tag_43\n              swap2\n              swap1\n              tag_44\n              jump\t// in\n            tag_43:\n              mload(0x40)\n              dup1\n              swap2\n              sub\n              swap1\n              return\n                /* \"Election.sol\":1606:1820  function vote(uint index) public {\r... */\n            tag_15:\n                /* \"Election.sol\":1659:1665  voters */\n              0x01\n                /* \"Election.sol\":1659:1677  voters[msg.sender] */\n              0x00\n                /* \"Election.sol\":1666:1676  msg.sender */\n              caller\n                /* \"Election.sol\":1659:1677  voters[msg.sender] */\n              0xffffffffffffffffffffffffffffffffffffffff\n              and\n              0xffffffffffffffffffffffffffffffffffffffff\n              and\n              dup2\n              mstore\n              0x20\n              add\n              swap1\n              dup2\n              mstore\n              0x20\n              add\n              0x00\n              keccak256\n                /* \"Election.sol\":1659:1683  voters[msg.sender].voted */\n              0x00\n              add\n              0x14\n              swap1\n              sload\n              swap1\n              0x0100\n              exp\n              swap1\n              div\n              0xff\n              and\n                /* \"Election.sol\":1658:1683  !voters[msg.sender].voted */\n              iszero\n                /* \"Election.sol\":1650:1684  require(!voters[msg.sender].voted) */\n              tag_46\n              jumpi\n              0x00\n              dup1\n              revert\n            tag_46:\n                /* \"Election.sol\":1695:1720  Proposal storage proposal */\n              0x00\n                /* \"Election.sol\":1723:1732  proposals */\n              0x02\n                /* \"Election.sol\":1733:1738  index */\n              dup3\n                /* \"Election.sol\":1723:1739  proposals[index] */\n              dup2\n              sload\n              dup2\n              lt\n              tag_47\n              jumpi\n              tag_48\n              tag_49\n              jump\t// in\n            tag_48:\n            tag_47:\n              swap1\n              0x00\n              mstore\n              keccak256(0x00, 0x20)\n              swap1\n              0x03\n              mul\n              add\n                /* \"Election.sol\":1695:1739  Proposal storage proposal = proposals[index] */\n              swap1\n              pop\n                /* \"Election.sol\":1750:1758  proposal */\n              dup1\n                /* \"Election.sol\":1750:1768  proposal.voteCount */\n              0x02\n              add\n              0x00\n                /* \"Election.sol\":1750:1770  proposal.voteCount++ */\n              dup2\n              sload\n              dup1\n              swap3\n              swap2\n              swap1\n              tag_51\n              swap1\n              tag_52\n              jump\t// in\n            tag_51:\n              swap2\n              swap1\n              pop\n              sstore\n              pop\n                /* \"Election.sol\":1808:1812  true */\n              0x01\n                /* \"Election.sol\":1781:1787  voters */\n              dup1\n                /* \"Election.sol\":1781:1799  voters[msg.sender] */\n              0x00\n                /* \"Election.sol\":1788:1798  msg.sender */\n              caller\n                /* \"Election.sol\":1781:1799  voters[msg.sender] */\n              0xffffffffffffffffffffffffffffffffffffffff\n              and\n              0xffffffffffffffffffffffffffffffffffffffff\n              and\n              dup2\n              mstore\n              0x20\n              add\n              swap1\n              dup2\n              mstore\n              0x20\n              add\n              0x00\n              keccak256\n                /* \"Election.sol\":1781:1805  voters[msg.sender].voted */\n              0x00\n              add\n              0x14\n                /* \"Election.sol\":1781:1812  voters[msg.sender].voted = true */\n              0x0100\n              exp\n              dup2\n              sload\n              dup2\n              0xff\n              mul\n              not\n              and\n              swap1\n              dup4\n              iszero\n              iszero\n              mul\n              or\n              swap1\n              sstore\n              pop\n                /* \"Election.sol\":1639:1820  {\r... */\n              pop\n                /* \"Election.sol\":1606:1820  function vote(uint index) public {\r... */\n              pop\n              jump\t// out\n                /* \"Election.sol\":719:746  Proposal[] public proposals */\n            tag_18:\n              0x02\n              dup2\n              dup2\n              sload\n              dup2\n              lt\n              tag_53\n              jumpi\n              0x00\n              dup1\n              revert\n            tag_53:\n              swap1\n              0x00\n              mstore\n              keccak256(0x00, 0x20)\n              swap1\n              0x03\n              mul\n              add\n              0x00\n              swap2\n              pop\n              swap1\n              pop\n              dup1\n              0x00\n              add\n              dup1\n              sload\n              tag_55\n              swap1\n              tag_56\n              jump\t// in\n            tag_55:\n              dup1\n              0x1f\n              add\n              0x20\n              dup1\n              swap2\n              div\n              mul\n              0x20\n              add\n              mload(0x40)\n              swap1\n              dup2\n              add\n              0x40\n              mstore\n              dup1\n              swap3\n              swap2\n              swap1\n              dup2\n              dup2\n              mstore\n              0x20\n              add\n              dup3\n              dup1\n              sload\n              tag_57\n              swap1\n              tag_56\n              jump\t// in\n            tag_57:\n              dup1\n              iszero\n              tag_58\n              jumpi\n              dup1\n              0x1f\n              lt\n              tag_59\n              jumpi\n              0x0100\n              dup1\n              dup4\n              sload\n              div\n              mul\n              dup4\n              mstore\n              swap2\n              0x20\n              add\n              swap2\n              jump(tag_58)\n            tag_59:\n              dup3\n              add\n              swap2\n              swap1\n              0x00\n              mstore\n              keccak256(0x00, 0x20)\n              swap1\n            tag_60:\n              dup2\n              sload\n              dup2\n              mstore\n              swap1\n              0x01\n              add\n              swap1\n              0x20\n              add\n              dup1\n              dup4\n              gt\n              tag_60\n              jumpi\n              dup3\n              swap1\n              sub\n              0x1f\n              and\n              dup3\n              add\n              swap2\n            tag_58:\n              pop\n              pop\n              pop\n              pop\n              pop\n              swap1\n              dup1\n              0x01\n              add\n              dup1\n              sload\n              tag_61\n              swap1\n              tag_56\n              jump\t// in\n            tag_61:\n              dup1\n              0x1f\n              add\n              0x20\n              dup1\n              swap2\n              div\n              mul\n              0x20\n              add\n              mload(0x40)\n              swap1\n              dup2\n              add\n              0x40\n              mstore\n              dup1\n              swap3\n              swap2\n              swap1\n              dup2\n              dup2\n              mstore\n              0x20\n              add\n              dup3\n              dup1\n              sload\n              tag_62\n              swap1\n              tag_56\n              jump\t// in\n            tag_62:\n              dup1\n              iszero\n              tag_63\n              jumpi\n              dup1\n              0x1f\n              lt\n              tag_64\n              jumpi\n              0x0100\n              dup1\n              dup4\n              sload\n              div\n              mul\n              dup4\n              mstore\n              swap2\n              0x20\n              add\n              swap2\n              jump(tag_63)\n            tag_64:\n              dup3\n              add\n              swap2\n              swap1\n              0x00\n              mstore\n              keccak256(0x00, 0x20)\n              swap1\n            tag_65:\n              dup2\n              sload\n              dup2\n              mstore\n              swap1\n              0x01\n              add\n              swap1\n              0x20\n              add\n              dup1\n              dup4\n              gt\n              tag_65\n              jumpi\n              dup3\n              swap1\n              sub\n              0x1f\n              and\n              dup3\n              add\n              swap2\n            tag_63:\n              pop\n              pop\n              pop\n              pop\n              pop\n              swap1\n              dup1\n              0x02\n              add\n              sload\n              swap1\n              pop\n              dup4\n              jump\t// out\n                /* \"Election.sol\":1203:1492  function addProposal(string memory _name, string memory _description) public restricted {\r... */\n            tag_24:\n                /* \"Election.sol\":879:886  manager */\n              0x00\n              dup1\n              sload\n              swap1\n              0x0100\n              exp\n              swap1\n              div\n              0xffffffffffffffffffffffffffffffffffffffff\n              and\n                /* \"Election.sol\":865:886  msg.sender == manager */\n              0xffffffffffffffffffffffffffffffffffffffff\n              and\n                /* \"Election.sol\":865:875  msg.sender */\n              caller\n                /* \"Election.sol\":865:886  msg.sender == manager */\n              0xffffffffffffffffffffffffffffffffffffffff\n              and\n              eq\n                /* \"Election.sol\":857:887  require(msg.sender == manager) */\n              tag_67\n              jumpi\n              0x00\n              dup1\n              revert\n            tag_67:\n                /* \"Election.sol\":1302:1329  Proposal memory newProposal */\n              0x00\n                /* \"Election.sol\":1332:1446  Proposal({\r... */\n              mload(0x40)\n              dup1\n              0x60\n              add\n              0x40\n              mstore\n              dup1\n                /* \"Election.sol\":1362:1367  _name */\n              dup5\n                /* \"Election.sol\":1332:1446  Proposal({\r... */\n              dup2\n              mstore\n              0x20\n              add\n                /* \"Election.sol\":1395:1407  _description */\n              dup4\n                /* \"Election.sol\":1332:1446  Proposal({\r... */\n              dup2\n              mstore\n              0x20\n              add\n                /* \"Election.sol\":1433:1434  0 */\n              0x00\n                /* \"Election.sol\":1332:1446  Proposal({\r... */\n              dup2\n              mstore\n              pop\n                /* \"Election.sol\":1302:1446  Proposal memory newProposal = Proposal({\r... */\n              swap1\n              pop\n                /* \"Election.sol\":1457:1466  proposals */\n              0x02\n                /* \"Election.sol\":1472:1483  newProposal */\n              dup2\n                /* \"Election.sol\":1457:1484  proposals.push(newProposal) */\n              swap1\n              dup1\n              0x01\n              dup2\n              sload\n              add\n              dup1\n              dup3\n              sstore\n              dup1\n              swap2\n              pop\n              pop\n              0x01\n              swap1\n              sub\n              swap1\n              0x00\n              mstore\n              keccak256(0x00, 0x20)\n              swap1\n              0x03\n              mul\n              add\n              0x00\n              swap1\n              swap2\n              swap1\n              swap2\n              swap1\n              swap2\n              pop\n              0x00\n              dup3\n              add\n              mload\n              dup2\n              0x00\n              add\n              swap1\n              dup1\n              mload\n              swap1\n              0x20\n              add\n              swap1\n              tag_70\n              swap3\n              swap2\n              swap1\n              tag_71\n              jump\t// in\n            tag_70:\n              pop\n              0x20\n              dup3\n              add\n              mload\n              dup2\n              0x01\n              add\n              swap1\n              dup1\n              mload\n              swap1\n              0x20\n              add\n              swap1\n              tag_72\n              swap3\n              swap2\n              swap1\n              tag_71\n              jump\t// in\n            tag_72:\n              pop\n              0x40\n              dup3\n              add\n              mload\n              dup2\n              0x02\n              add\n              sstore\n              pop\n              pop\n                /* \"Election.sol\":1291:1492  {\r... */\n              pop\n                /* \"Election.sol\":1203:1492  function addProposal(string memory _name, string memory _description) public restricted {\r... */\n              pop\n              pop\n              jump\t// out\n                /* \"Election.sol\":2788:2971  function getSummary() public view returns (uint,  string memory, address) {\r... */\n            tag_26:\n                /* \"Election.sol\":2831:2835  uint */\n              0x00\n                /* \"Election.sol\":2838:2851  string memory */\n              0x60\n                /* \"Election.sol\":2853:2860  address */\n              0x00\n                /* \"Election.sol\":2895:2904  proposals */\n              0x02\n                /* \"Election.sol\":2895:2911  proposals.length */\n              dup1\n              sload\n              swap1\n              pop\n                /* \"Election.sol\":2926:2930  name */\n              0x06\n                /* \"Election.sol\":2945:2952  manager */\n              0x00\n              dup1\n              sload\n              swap1\n              0x0100\n              exp\n              swap1\n              div\n              0xffffffffffffffffffffffffffffffffffffffff\n              and\n                /* \"Election.sol\":2873:2963  return (\r... */\n              dup2\n              dup1\n              sload\n              tag_74\n              swap1\n              tag_56\n              jump\t// in\n            tag_74:\n              dup1\n              0x1f\n              add\n              0x20\n              dup1\n              swap2\n              div\n              mul\n              0x20\n              add\n              mload(0x40)\n              swap1\n              dup2\n              add\n              0x40\n              mstore\n              dup1\n              swap3\n              swap2\n              swap1\n              dup2\n              dup2\n              mstore\n              0x20\n              add\n              dup3\n              dup1\n              sload\n              tag_75\n              swap1\n              tag_56\n              jump\t// in\n            tag_75:\n              dup1\n              iszero\n              tag_76\n              jumpi\n              dup1\n              0x1f\n              lt\n              tag_77\n              jumpi\n              0x0100\n              dup1\n              dup4\n              sload\n              div\n              mul\n              dup4\n              mstore\n              swap2\n              0x20\n              add\n              swap2\n              jump(tag_76)\n            tag_77:\n              dup3\n              add\n              swap2\n              swap1\n              0x00\n              mstore\n              keccak256(0x00, 0x20)\n              swap1\n            tag_78:\n              dup2\n              sload\n              dup2\n              mstore\n              swap1\n              0x01\n              add\n              swap1\n              0x20\n              add\n              dup1\n              dup4\n              gt\n              tag_78\n              jumpi\n              dup3\n              swap1\n              sub\n              0x1f\n              and\n              dup3\n              add\n              swap2\n            tag_76:\n              pop\n              pop\n              pop\n              pop\n              pop\n              swap2\n              pop\n              swap3\n              pop\n              swap3\n              pop\n              swap3\n              pop\n                /* \"Election.sol\":2788:2971  function getSummary() public view returns (uint,  string memory, address) {\r... */\n              swap1\n              swap2\n              swap3\n              jump\t// out\n                /* \"Election.sol\":644:666  address public manager */\n            tag_30:\n              0x00\n              dup1\n              sload\n              swap1\n              0x0100\n              exp\n              swap1\n              div\n              0xffffffffffffffffffffffffffffffffffffffff\n              and\n              dup2\n              jump\t// out\n                /* \"Election.sol\":1896:2358  function pickWinner() public restricted {\r... */\n            tag_34:\n                /* \"Election.sol\":879:886  manager */\n              0x00\n              dup1\n              sload\n              swap1\n              0x0100\n              exp\n              swap1\n              div\n              0xffffffffffffffffffffffffffffffffffffffff\n              and\n                /* \"Election.sol\":865:886  msg.sender == manager */\n              0xffffffffffffffffffffffffffffffffffffffff\n              and\n                /* \"Election.sol\":865:875  msg.sender */\n              caller\n                /* \"Election.sol\":865:886  msg.sender == manager */\n              0xffffffffffffffffffffffffffffffffffffffff\n              and\n              eq\n                /* \"Election.sol\":857:887  require(msg.sender == manager) */\n              tag_80\n              jumpi\n              0x00\n              dup1\n              revert\n            tag_80:\n                /* \"Election.sol\":1947:1960  uint maxCount */\n              0x00\n                /* \"Election.sol\":1975:1992  uint winningIndex */\n              dup1\n                /* \"Election.sol\":2007:2013  uint i */\n              dup1\n                /* \"Election.sol\":2016:2017  0 */\n              0x00\n                /* \"Election.sol\":2007:2017  uint i = 0 */\n              swap1\n              pop\n                /* \"Election.sol\":2003:2214  for(uint i = 0; i < proposals.length; i++) {\r... */\n            tag_82:\n                /* \"Election.sol\":2023:2032  proposals */\n              0x02\n                /* \"Election.sol\":2023:2039  proposals.length */\n              dup1\n              sload\n              swap1\n              pop\n                /* \"Election.sol\":2019:2020  i */\n              dup2\n                /* \"Election.sol\":2019:2039  i < proposals.length */\n              lt\n                /* \"Election.sol\":2003:2214  for(uint i = 0; i < proposals.length; i++) {\r... */\n              iszero\n              tag_83\n              jumpi\n                /* \"Election.sol\":2090:2098  maxCount */\n              dup3\n                /* \"Election.sol\":2065:2074  proposals */\n              0x02\n                /* \"Election.sol\":2075:2076  i */\n              dup3\n                /* \"Election.sol\":2065:2077  proposals[i] */\n              dup2\n              sload\n              dup2\n              lt\n              tag_85\n              jumpi\n              tag_86\n              tag_49\n              jump\t// in\n            tag_86:\n            tag_85:\n              swap1\n              0x00\n              mstore\n              keccak256(0x00, 0x20)\n              swap1\n              0x03\n              mul\n              add\n                /* \"Election.sol\":2065:2087  proposals[i].voteCount */\n              0x02\n              add\n              sload\n                /* \"Election.sol\":2065:2098  proposals[i].voteCount > maxCount */\n              gt\n                /* \"Election.sol\":2061:2203  if (proposals[i].voteCount > maxCount) {\r... */\n              iszero\n              tag_88\n              jumpi\n                /* \"Election.sol\":2130:2139  proposals */\n              0x02\n                /* \"Election.sol\":2140:2141  i */\n              dup2\n                /* \"Election.sol\":2130:2142  proposals[i] */\n              dup2\n              sload\n              dup2\n              lt\n              tag_89\n              jumpi\n              tag_90\n              tag_49\n              jump\t// in\n            tag_90:\n            tag_89:\n              swap1\n              0x00\n              mstore\n              keccak256(0x00, 0x20)\n              swap1\n              0x03\n              mul\n              add\n                /* \"Election.sol\":2130:2152  proposals[i].voteCount */\n              0x02\n              add\n              sload\n                /* \"Election.sol\":2119:2152  maxCount = proposals[i].voteCount */\n              swap3\n              pop\n                /* \"Election.sol\":2186:2187  i */\n              dup1\n                /* \"Election.sol\":2171:2187  winningIndex = i */\n              swap2\n              pop\n                /* \"Election.sol\":2061:2203  if (proposals[i].voteCount > maxCount) {\r... */\n            tag_88:\n                /* \"Election.sol\":2041:2044  i++ */\n              dup1\n              dup1\n              tag_92\n              swap1\n              tag_52\n              jump\t// in\n            tag_92:\n              swap2\n              pop\n              pop\n                /* \"Election.sol\":2003:2214  for(uint i = 0; i < proposals.length; i++) {\r... */\n              jump(tag_82)\n            tag_83:\n              pop\n                /* \"Election.sol\":2296:2297  0 */\n              0x00\n                /* \"Election.sol\":2285:2293  maxCount */\n              dup3\n                /* \"Election.sol\":2285:2297  maxCount > 0 */\n              gt\n                /* \"Election.sol\":2277:2298  require(maxCount > 0) */\n              tag_93\n              jumpi\n              0x00\n              dup1\n              revert\n            tag_93:\n                /* \"Election.sol\":2327:2336  proposals */\n              0x02\n                /* \"Election.sol\":2337:2349  winningIndex */\n              dup2\n                /* \"Election.sol\":2327:2350  proposals[winningIndex] */\n              dup2\n              sload\n              dup2\n              lt\n              tag_94\n              jumpi\n              tag_95\n              tag_49\n              jump\t// in\n            tag_95:\n            tag_94:\n              swap1\n              0x00\n              mstore\n              keccak256(0x00, 0x20)\n              swap1\n              0x03\n              mul\n              add\n                /* \"Election.sol\":2309:2324  winningProposal */\n              0x03\n                /* \"Election.sol\":2309:2350  winningProposal = proposals[winningIndex] */\n              0x00\n              dup3\n              add\n              dup2\n              0x00\n              add\n              swap1\n              dup1\n              sload\n              tag_97\n              swap1\n              tag_56\n              jump\t// in\n            tag_97:\n              tag_98\n              swap3\n              swap2\n              swap1\n              tag_99\n              jump\t// in\n            tag_98:\n              pop\n              0x01\n              dup3\n              add\n              dup2\n              0x01\n              add\n              swap1\n              dup1\n              sload\n              tag_100\n              swap1\n              tag_56\n              jump\t// in\n            tag_100:\n              tag_101\n              swap3\n              swap2\n              swap1\n              tag_99\n              jump\t// in\n            tag_101:\n              pop\n              0x02\n              dup3\n              add\n              sload\n              dup2\n              0x02\n              add\n              sstore\n              swap1\n              pop\n              pop\n                /* \"Election.sol\":1936:2358  {\r... */\n              pop\n              pop\n                /* \"Election.sol\":1896:2358  function pickWinner() public restricted {\r... */\n              jump\t// out\n                /* \"Election.sol\":673:712  mapping(address => Voter) public voters */\n            tag_38:\n              mstore(0x20, 0x01)\n              dup1\n              0x00\n              mstore\n              keccak256(0x00, 0x40)\n              0x00\n              swap2\n              pop\n              swap1\n              pop\n              dup1\n              0x00\n              add\n              0x00\n              swap1\n              sload\n              swap1\n              0x0100\n              exp\n              swap1\n              div\n              0xffffffffffffffffffffffffffffffffffffffff\n              and\n              swap1\n              dup1\n              0x00\n              add\n              0x14\n              swap1\n              sload\n              swap1\n              0x0100\n              exp\n              swap1\n              div\n              0xff\n              and\n              swap1\n              pop\n              dup3\n              jump\t// out\n                /* \"Election.sol\":2476:2634  function getWinningProposal() public view returns(Proposal memory) {\r... */\n            tag_42:\n                /* \"Election.sol\":2526:2541  Proposal memory */\n              tag_102\n              tag_103\n              jump\t// in\n            tag_102:\n                /* \"Election.sol\":2591:2592  0 */\n              0x00\n                /* \"Election.sol\":2562:2577  winningProposal */\n              0x03\n                /* \"Election.sol\":2562:2587  winningProposal.voteCount */\n              0x02\n              add\n              sload\n                /* \"Election.sol\":2562:2592  winningProposal.voteCount != 0 */\n              eq\n              iszero\n                /* \"Election.sol\":2554:2593  require(winningProposal.voteCount != 0) */\n              tag_105\n              jumpi\n              0x00\n              dup1\n              revert\n            tag_105:\n                /* \"Election.sol\":2611:2626  winningProposal */\n              0x03\n                /* \"Election.sol\":2604:2626  return winningProposal */\n              mload(0x40)\n              dup1\n              0x60\n              add\n              0x40\n              mstore\n              swap1\n              dup2\n              0x00\n              dup3\n              add\n              dup1\n              sload\n              tag_106\n              swap1\n              tag_56\n              jump\t// in\n            tag_106:\n              dup1\n              0x1f\n              add\n              0x20\n              dup1\n              swap2\n              div\n              mul\n              0x20\n              add\n              mload(0x40)\n              swap1\n              dup2\n              add\n              0x40\n              mstore\n              dup1\n              swap3\n              swap2\n              swap1\n              dup2\n              dup2\n              mstore\n              0x20\n              add\n              dup3\n              dup1\n              sload\n              tag_107\n              swap1\n              tag_56\n              jump\t// in\n            tag_107:\n              dup1\n              iszero\n              tag_108\n              jumpi\n              dup1\n              0x1f\n              lt\n              tag_109\n              jumpi\n              0x0100\n              dup1\n              dup4\n              sload\n              div\n              mul\n              dup4\n              mstore\n              swap2\n              0x20\n              add\n              swap2\n              jump(tag_108)\n            tag_109:\n              dup3\n              add\n              swap2\n              swap1\n              0x00\n              mstore\n              keccak256(0x00, 0x20)\n              swap1\n            tag_110:\n              dup2\n              sload\n              dup2\n              mstore\n              swap1\n              0x01\n              add\n              swap1\n              0x20\n              add\n              dup1\n              dup4\n              gt\n              tag_110\n              jumpi\n              dup3\n              swap1\n              sub\n              0x1f\n              and\n              dup3\n              add\n              swap2\n            tag_108:\n              pop\n              pop\n              pop\n              pop\n              pop\n              dup2\n              mstore\n              0x20\n              add\n              0x01\n              dup3\n              add\n              dup1\n              sload\n              tag_111\n              swap1\n              tag_56\n              jump\t// in\n            tag_111:\n              dup1\n              0x1f\n              add\n              0x20\n              dup1\n              swap2\n              div\n              mul\n              0x20\n              add\n              mload(0x40)\n              swap1\n              dup2\n              add\n              0x40\n              mstore\n              dup1\n              swap3\n              swap2\n              swap1\n              dup2\n              dup2\n              mstore\n              0x20\n              add\n              dup3\n              dup1\n              sload\n              tag_112\n              swap1\n              tag_56\n              jump\t// in\n            tag_112:\n              dup1\n              iszero\n              tag_113\n              jumpi\n              dup1\n              0x1f\n              lt\n              tag_114\n              jumpi\n              0x0100\n              dup1\n              dup4\n              sload\n              div\n              mul\n              dup4\n              mstore\n              swap2\n              0x20\n              add\n              swap2\n              jump(tag_113)\n            tag_114:\n              dup3\n              add\n              swap2\n              swap1\n              0x00\n              mstore\n              keccak256(0x00, 0x20)\n              swap1\n            tag_115:\n              dup2\n              sload\n              dup2\n              mstore\n              swap1\n              0x01\n              add\n              swap1\n              0x20\n              add\n              dup1\n              dup4\n              gt\n              tag_115\n              jumpi\n              dup3\n              swap1\n              sub\n              0x1f\n              and\n              dup3\n              add\n              swap2\n            tag_113:\n              pop\n              pop\n              pop\n              pop\n              pop\n              dup2\n              mstore\n              0x20\n              add\n              0x02\n              dup3\n              add\n              sload\n              dup2\n              mstore\n              pop\n              pop\n              swap1\n              pop\n                /* \"Election.sol\":2476:2634  function getWinningProposal() public view returns(Proposal memory) {\r... */\n              swap1\n              jump\t// out\n            tag_71:\n              dup3\n              dup1\n              sload\n              tag_116\n              swap1\n              tag_56\n              jump\t// in\n            tag_116:\n              swap1\n              0x00\n              mstore\n              keccak256(0x00, 0x20)\n              swap1\n              0x1f\n              add\n              0x20\n              swap1\n              div\n              dup2\n              add\n              swap3\n              dup3\n              tag_118\n              jumpi\n              0x00\n              dup6\n              sstore\n              jump(tag_117)\n            tag_118:\n              dup3\n              0x1f\n              lt\n              tag_119\n              jumpi\n              dup1\n              mload\n              not(0xff)\n              and\n              dup4\n              dup1\n              add\n              or\n              dup6\n              sstore\n              jump(tag_117)\n            tag_119:\n              dup3\n              dup1\n              add\n              0x01\n              add\n              dup6\n              sstore\n              dup3\n              iszero\n              tag_117\n              jumpi\n              swap2\n              dup3\n              add\n            tag_120:\n              dup3\n              dup2\n              gt\n              iszero\n              tag_121\n              jumpi\n              dup3\n              mload\n              dup3\n              sstore\n              swap2\n              0x20\n              add\n              swap2\n              swap1\n              0x01\n              add\n              swap1\n              jump(tag_120)\n            tag_121:\n            tag_117:\n              pop\n              swap1\n              pop\n              tag_122\n              swap2\n              swap1\n              tag_123\n              jump\t// in\n            tag_122:\n              pop\n              swap1\n              jump\t// out\n            tag_99:\n              dup3\n              dup1\n              sload\n              tag_124\n              swap1\n              tag_56\n              jump\t// in\n            tag_124:\n              swap1\n              0x00\n              mstore\n              keccak256(0x00, 0x20)\n              swap1\n              0x1f\n              add\n              0x20\n              swap1\n              div\n              dup2\n              add\n              swap3\n              dup3\n              tag_126\n              jumpi\n              0x00\n              dup6\n              sstore\n              jump(tag_125)\n            tag_126:\n              dup3\n              0x1f\n              lt\n              tag_127\n              jumpi\n              dup1\n              sload\n              dup6\n              sstore\n              jump(tag_125)\n            tag_127:\n              dup3\n              dup1\n              add\n              0x01\n              add\n              dup6\n              sstore\n              dup3\n              iszero\n              tag_125\n              jumpi\n              0x00\n              mstore\n              keccak256(0x00, 0x20)\n              swap2\n              0x1f\n              add\n              0x20\n              swap1\n              div\n              dup3\n              add\n            tag_128:\n              dup3\n              dup2\n              gt\n              iszero\n              tag_129\n              jumpi\n              dup3\n              sload\n              dup3\n              sstore\n              swap2\n              0x01\n              add\n              swap2\n              swap1\n              0x01\n              add\n              swap1\n              jump(tag_128)\n            tag_129:\n            tag_125:\n              pop\n              swap1\n              pop\n              tag_130\n              swap2\n              swap1\n              tag_123\n              jump\t// in\n            tag_130:\n              pop\n              swap1\n              jump\t// out\n            tag_103:\n              mload(0x40)\n              dup1\n              0x60\n              add\n              0x40\n              mstore\n              dup1\n              0x60\n              dup2\n              mstore\n              0x20\n              add\n              0x60\n              dup2\n              mstore\n              0x20\n              add\n              0x00\n              dup2\n              mstore\n              pop\n              swap1\n              jump\t// out\n            tag_123:\n            tag_131:\n              dup1\n              dup3\n              gt\n              iszero\n              tag_132\n              jumpi\n              0x00\n              dup2\n              0x00\n              swap1\n              sstore\n              pop\n              0x01\n              add\n              jump(tag_131)\n            tag_132:\n              pop\n              swap1\n              jump\t// out\n                /* \"#utility.yul\":7:419   */\n            tag_134:\n                /* \"#utility.yul\":85:90   */\n              0x00\n                /* \"#utility.yul\":110:176   */\n              tag_136\n                /* \"#utility.yul\":126:175   */\n              tag_137\n                /* \"#utility.yul\":168:174   */\n              dup5\n                /* \"#utility.yul\":126:175   */\n              tag_138\n              jump\t// in\n            tag_137:\n                /* \"#utility.yul\":110:176   */\n              tag_139\n              jump\t// in\n            tag_136:\n                /* \"#utility.yul\":101:176   */\n              swap1\n              pop\n                /* \"#utility.yul\":199:205   */\n              dup3\n                /* \"#utility.yul\":192:197   */\n              dup2\n                /* \"#utility.yul\":185:206   */\n              mstore\n                /* \"#utility.yul\":237:241   */\n              0x20\n                /* \"#utility.yul\":230:235   */\n              dup2\n                /* \"#utility.yul\":226:242   */\n              add\n                /* \"#utility.yul\":275:278   */\n              dup5\n                /* \"#utility.yul\":266:272   */\n              dup5\n                /* \"#utility.yul\":261:264   */\n              dup5\n                /* \"#utility.yul\":257:273   */\n              add\n                /* \"#utility.yul\":254:279   */\n              gt\n                /* \"#utility.yul\":251:363   */\n              iszero\n              tag_140\n              jumpi\n                /* \"#utility.yul\":282:361   */\n              tag_141\n              tag_142\n              jump\t// in\n            tag_141:\n                /* \"#utility.yul\":251:363   */\n            tag_140:\n                /* \"#utility.yul\":372:413   */\n              tag_143\n                /* \"#utility.yul\":406:412   */\n              dup5\n                /* \"#utility.yul\":401:404   */\n              dup3\n                /* \"#utility.yul\":396:399   */\n              dup6\n                /* \"#utility.yul\":372:413   */\n              tag_144\n              jump\t// in\n            tag_143:\n                /* \"#utility.yul\":91:419   */\n              pop\n                /* \"#utility.yul\":7:419   */\n              swap4\n              swap3\n              pop\n              pop\n              pop\n              jump\t// out\n                /* \"#utility.yul\":425:564   */\n            tag_145:\n                /* \"#utility.yul\":471:476   */\n              0x00\n                /* \"#utility.yul\":509:515   */\n              dup2\n                /* \"#utility.yul\":496:516   */\n              calldataload\n                /* \"#utility.yul\":487:516   */\n              swap1\n              pop\n                /* \"#utility.yul\":525:558   */\n              tag_147\n                /* \"#utility.yul\":552:557   */\n              dup2\n                /* \"#utility.yul\":525:558   */\n              tag_148\n              jump\t// in\n            tag_147:\n                /* \"#utility.yul\":425:564   */\n              swap3\n              swap2\n              pop\n              pop\n              jump\t// out\n                /* \"#utility.yul\":584:924   */\n            tag_149:\n                /* \"#utility.yul\":640:645   */\n              0x00\n                /* \"#utility.yul\":689:692   */\n              dup3\n                /* \"#utility.yul\":682:686   */\n              0x1f\n                /* \"#utility.yul\":674:680   */\n              dup4\n                /* \"#utility.yul\":670:687   */\n              add\n                /* \"#utility.yul\":666:693   */\n              slt\n                /* \"#utility.yul\":656:778   */\n              tag_151\n              jumpi\n                /* \"#utility.yul\":697:776   */\n              tag_152\n              tag_153\n              jump\t// in\n            tag_152:\n                /* \"#utility.yul\":656:778   */\n            tag_151:\n                /* \"#utility.yul\":814:820   */\n              dup2\n                /* \"#utility.yul\":801:821   */\n              calldataload\n                /* \"#utility.yul\":839:918   */\n              tag_154\n                /* \"#utility.yul\":914:917   */\n              dup5\n                /* \"#utility.yul\":906:912   */\n              dup3\n                /* \"#utility.yul\":899:903   */\n              0x20\n                /* \"#utility.yul\":891:897   */\n              dup7\n                /* \"#utility.yul\":887:904   */\n              add\n                /* \"#utility.yul\":839:918   */\n              tag_134\n              jump\t// in\n            tag_154:\n                /* \"#utility.yul\":830:918   */\n              swap2\n              pop\n                /* \"#utility.yul\":646:924   */\n              pop\n                /* \"#utility.yul\":584:924   */\n              swap3\n              swap2\n              pop\n              pop\n              jump\t// out\n                /* \"#utility.yul\":930:1069   */\n            tag_155:\n                /* \"#utility.yul\":976:981   */\n              0x00\n                /* \"#utility.yul\":1014:1020   */\n              dup2\n                /* \"#utility.yul\":1001:1021   */\n              calldataload\n                /* \"#utility.yul\":992:1021   */\n              swap1\n              pop\n                /* \"#utility.yul\":1030:1063   */\n              tag_157\n                /* \"#utility.yul\":1057:1062   */\n              dup2\n                /* \"#utility.yul\":1030:1063   */\n              tag_158\n              jump\t// in\n            tag_157:\n                /* \"#utility.yul\":930:1069   */\n              swap3\n              swap2\n              pop\n              pop\n              jump\t// out\n                /* \"#utility.yul\":1075:1404   */\n            tag_37:\n                /* \"#utility.yul\":1134:1140   */\n              0x00\n                /* \"#utility.yul\":1183:1185   */\n              0x20\n                /* \"#utility.yul\":1171:1180   */\n              dup3\n                /* \"#utility.yul\":1162:1169   */\n              dup5\n                /* \"#utility.yul\":1158:1181   */\n              sub\n                /* \"#utility.yul\":1154:1186   */\n              slt\n                /* \"#utility.yul\":1151:1270   */\n              iszero\n              tag_160\n              jumpi\n                /* \"#utility.yul\":1189:1268   */\n              tag_161\n              tag_162\n              jump\t// in\n            tag_161:\n                /* \"#utility.yul\":1151:1270   */\n            tag_160:\n                /* \"#utility.yul\":1309:1310   */\n              0x00\n                /* \"#utility.yul\":1334:1387   */\n              tag_163\n                /* \"#utility.yul\":1379:1386   */\n              dup5\n                /* \"#utility.yul\":1370:1376   */\n              dup3\n                /* \"#utility.yul\":1359:1368   */\n              dup6\n                /* \"#utility.yul\":1355:1377   */\n              add\n                /* \"#utility.yul\":1334:1387   */\n              tag_145\n              jump\t// in\n            tag_163:\n                /* \"#utility.yul\":1324:1387   */\n              swap2\n              pop\n                /* \"#utility.yul\":1280:1397   */\n              pop\n                /* \"#utility.yul\":1075:1404   */\n              swap3\n              swap2\n              pop\n              pop\n              jump\t// out\n                /* \"#utility.yul\":1410:2244   */\n            tag_23:\n                /* \"#utility.yul\":1498:1504   */\n              0x00\n                /* \"#utility.yul\":1506:1512   */\n              dup1\n                /* \"#utility.yul\":1555:1557   */\n              0x40\n                /* \"#utility.yul\":1543:1552   */\n              dup4\n                /* \"#utility.yul\":1534:1541   */\n              dup6\n                /* \"#utility.yul\":1530:1553   */\n              sub\n                /* \"#utility.yul\":1526:1558   */\n              slt\n                /* \"#utility.yul\":1523:1642   */\n              iszero\n              tag_165\n              jumpi\n                /* \"#utility.yul\":1561:1640   */\n              tag_166\n              tag_162\n              jump\t// in\n            tag_166:\n                /* \"#utility.yul\":1523:1642   */\n            tag_165:\n                /* \"#utility.yul\":1709:1710   */\n              0x00\n                /* \"#utility.yul\":1698:1707   */\n              dup4\n                /* \"#utility.yul\":1694:1711   */\n              add\n                /* \"#utility.yul\":1681:1712   */\n              calldataload\n                /* \"#utility.yul\":1739:1757   */\n              0xffffffffffffffff\n                /* \"#utility.yul\":1731:1737   */\n              dup2\n                /* \"#utility.yul\":1728:1758   */\n              gt\n                /* \"#utility.yul\":1725:1842   */\n              iszero\n              tag_167\n              jumpi\n                /* \"#utility.yul\":1761:1840   */\n              tag_168\n              tag_169\n              jump\t// in\n            tag_168:\n                /* \"#utility.yul\":1725:1842   */\n            tag_167:\n                /* \"#utility.yul\":1866:1929   */\n              tag_170\n                /* \"#utility.yul\":1921:1928   */\n              dup6\n                /* \"#utility.yul\":1912:1918   */\n              dup3\n                /* \"#utility.yul\":1901:1910   */\n              dup7\n                /* \"#utility.yul\":1897:1919   */\n              add\n                /* \"#utility.yul\":1866:1929   */\n              tag_149\n              jump\t// in\n            tag_170:\n                /* \"#utility.yul\":1856:1929   */\n              swap3\n              pop\n                /* \"#utility.yul\":1652:1939   */\n              pop\n                /* \"#utility.yul\":2006:2008   */\n              0x20\n                /* \"#utility.yul\":1995:2004   */\n              dup4\n                /* \"#utility.yul\":1991:2009   */\n              add\n                /* \"#utility.yul\":1978:2010   */\n              calldataload\n                /* \"#utility.yul\":2037:2055   */\n              0xffffffffffffffff\n                /* \"#utility.yul\":2029:2035   */\n              dup2\n                /* \"#utility.yul\":2026:2056   */\n              gt\n                /* \"#utility.yul\":2023:2140   */\n              iszero\n              tag_171\n              jumpi\n                /* \"#utility.yul\":2059:2138   */\n              tag_172\n              tag_169\n              jump\t// in\n            tag_172:\n                /* \"#utility.yul\":2023:2140   */\n            tag_171:\n                /* \"#utility.yul\":2164:2227   */\n              tag_173\n                /* \"#utility.yul\":2219:2226   */\n              dup6\n                /* \"#utility.yul\":2210:2216   */\n              dup3\n                /* \"#utility.yul\":2199:2208   */\n              dup7\n                /* \"#utility.yul\":2195:2217   */\n              add\n                /* \"#utility.yul\":2164:2227   */\n              tag_149\n              jump\t// in\n            tag_173:\n                /* \"#utility.yul\":2154:2227   */\n              swap2\n              pop\n                /* \"#utility.yul\":1949:2237   */\n              pop\n                /* \"#utility.yul\":1410:2244   */\n              swap3\n              pop\n              swap3\n              swap1\n              pop\n              jump\t// out\n                /* \"#utility.yul\":2250:2579   */\n            tag_14:\n                /* \"#utility.yul\":2309:2315   */\n              0x00\n                /* \"#utility.yul\":2358:2360   */\n              0x20\n                /* \"#utility.yul\":2346:2355   */\n              dup3\n                /* \"#utility.yul\":2337:2344   */\n              dup5\n                /* \"#utility.yul\":2333:2356   */\n              sub\n                /* \"#utility.yul\":2329:2361   */\n              slt\n                /* \"#utility.yul\":2326:2445   */\n              iszero\n              tag_175\n              jumpi\n                /* \"#utility.yul\":2364:2443   */\n              tag_176\n              tag_162\n              jump\t// in\n            tag_176:\n                /* \"#utility.yul\":2326:2445   */\n            tag_175:\n                /* \"#utility.yul\":2484:2485   */\n              0x00\n                /* \"#utility.yul\":2509:2562   */\n              tag_177\n                /* \"#utility.yul\":2554:2561   */\n              dup5\n                /* \"#utility.yul\":2545:2551   */\n              dup3\n                /* \"#utility.yul\":2534:2543   */\n              dup6\n                /* \"#utility.yul\":2530:2552   */\n              add\n                /* \"#utility.yul\":2509:2562   */\n              tag_155\n              jump\t// in\n            tag_177:\n                /* \"#utility.yul\":2499:2562   */\n              swap2\n              pop\n                /* \"#utility.yul\":2455:2572   */\n              pop\n                /* \"#utility.yul\":2250:2579   */\n              swap3\n              swap2\n              pop\n              pop\n              jump\t// out\n                /* \"#utility.yul\":2585:2703   */\n            tag_178:\n                /* \"#utility.yul\":2672:2696   */\n              tag_180\n                /* \"#utility.yul\":2690:2695   */\n              dup2\n                /* \"#utility.yul\":2672:2696   */\n              tag_181\n              jump\t// in\n            tag_180:\n                /* \"#utility.yul\":2667:2670   */\n              dup3\n                /* \"#utility.yul\":2660:2697   */\n              mstore\n                /* \"#utility.yul\":2585:2703   */\n              pop\n              pop\n              jump\t// out\n                /* \"#utility.yul\":2709:2818   */\n            tag_182:\n                /* \"#utility.yul\":2790:2811   */\n              tag_184\n                /* \"#utility.yul\":2805:2810   */\n              dup2\n                /* \"#utility.yul\":2790:2811   */\n              tag_185\n              jump\t// in\n            tag_184:\n                /* \"#utility.yul\":2785:2788   */\n              dup3\n                /* \"#utility.yul\":2778:2812   */\n              mstore\n                /* \"#utility.yul\":2709:2818   */\n              pop\n              pop\n              jump\t// out\n                /* \"#utility.yul\":2824:3168   */\n            tag_186:\n                /* \"#utility.yul\":2902:2905   */\n              0x00\n                /* \"#utility.yul\":2930:2969   */\n              tag_188\n                /* \"#utility.yul\":2963:2968   */\n              dup3\n                /* \"#utility.yul\":2930:2969   */\n              tag_189\n              jump\t// in\n            tag_188:\n                /* \"#utility.yul\":2985:3046   */\n              tag_190\n                /* \"#utility.yul\":3039:3045   */\n              dup2\n                /* \"#utility.yul\":3034:3037   */\n              dup6\n                /* \"#utility.yul\":2985:3046   */\n              tag_191\n              jump\t// in\n            tag_190:\n                /* \"#utility.yul\":2978:3046   */\n              swap4\n              pop\n                /* \"#utility.yul\":3055:3107   */\n              tag_192\n                /* \"#utility.yul\":3100:3106   */\n              dup2\n                /* \"#utility.yul\":3095:3098   */\n              dup6\n                /* \"#utility.yul\":3088:3092   */\n              0x20\n                /* \"#utility.yul\":3081:3086   */\n              dup7\n                /* \"#utility.yul\":3077:3093   */\n              add\n                /* \"#utility.yul\":3055:3107   */\n              tag_193\n              jump\t// in\n            tag_192:\n                /* \"#utility.yul\":3132:3161   */\n              tag_194\n                /* \"#utility.yul\":3154:3160   */\n              dup2\n                /* \"#utility.yul\":3132:3161   */\n              tag_195\n              jump\t// in\n            tag_194:\n                /* \"#utility.yul\":3127:3130   */\n              dup5\n                /* \"#utility.yul\":3123:3162   */\n              add\n                /* \"#utility.yul\":3116:3162   */\n              swap2\n              pop\n                /* \"#utility.yul\":2906:3168   */\n              pop\n                /* \"#utility.yul\":2824:3168   */\n              swap3\n              swap2\n              pop\n              pop\n              jump\t// out\n                /* \"#utility.yul\":3174:3538   */\n            tag_196:\n                /* \"#utility.yul\":3262:3265   */\n              0x00\n                /* \"#utility.yul\":3290:3329   */\n              tag_198\n                /* \"#utility.yul\":3323:3328   */\n              dup3\n                /* \"#utility.yul\":3290:3329   */\n              tag_189\n              jump\t// in\n            tag_198:\n                /* \"#utility.yul\":3345:3416   */\n              tag_199\n                /* \"#utility.yul\":3409:3415   */\n              dup2\n                /* \"#utility.yul\":3404:3407   */\n              dup6\n                /* \"#utility.yul\":3345:3416   */\n              tag_200\n              jump\t// in\n            tag_199:\n                /* \"#utility.yul\":3338:3416   */\n              swap4\n              pop\n                /* \"#utility.yul\":3425:3477   */\n              tag_201\n                /* \"#utility.yul\":3470:3476   */\n              dup2\n                /* \"#utility.yul\":3465:3468   */\n              dup6\n                /* \"#utility.yul\":3458:3462   */\n              0x20\n                /* \"#utility.yul\":3451:3456   */\n              dup7\n                /* \"#utility.yul\":3447:3463   */\n              add\n                /* \"#utility.yul\":3425:3477   */\n              tag_193\n              jump\t// in\n            tag_201:\n                /* \"#utility.yul\":3502:3531   */\n              tag_202\n                /* \"#utility.yul\":3524:3530   */\n              dup2\n                /* \"#utility.yul\":3502:3531   */\n              tag_195\n              jump\t// in\n            tag_202:\n                /* \"#utility.yul\":3497:3500   */\n              dup5\n                /* \"#utility.yul\":3493:3532   */\n              add\n                /* \"#utility.yul\":3486:3532   */\n              swap2\n              pop\n                /* \"#utility.yul\":3266:3538   */\n              pop\n                /* \"#utility.yul\":3174:3538   */\n              swap3\n              swap2\n              pop\n              pop\n              jump\t// out\n                /* \"#utility.yul\":3604:4465   */\n            tag_203:\n                /* \"#utility.yul\":3721:3724   */\n              0x00\n                /* \"#utility.yul\":3757:3761   */\n              0x60\n                /* \"#utility.yul\":3752:3755   */\n              dup4\n                /* \"#utility.yul\":3748:3762   */\n              add\n                /* \"#utility.yul\":3844:3848   */\n              0x00\n                /* \"#utility.yul\":3837:3842   */\n              dup4\n                /* \"#utility.yul\":3833:3849   */\n              add\n                /* \"#utility.yul\":3827:3850   */\n              mload\n                /* \"#utility.yul\":3897:3900   */\n              dup5\n                /* \"#utility.yul\":3891:3895   */\n              dup3\n                /* \"#utility.yul\":3887:3901   */\n              sub\n                /* \"#utility.yul\":3880:3884   */\n              0x00\n                /* \"#utility.yul\":3875:3878   */\n              dup7\n                /* \"#utility.yul\":3871:3885   */\n              add\n                /* \"#utility.yul\":3864:3902   */\n              mstore\n                /* \"#utility.yul\":3923:3996   */\n              tag_205\n                /* \"#utility.yul\":3991:3995   */\n              dup3\n                /* \"#utility.yul\":3977:3989   */\n              dup3\n                /* \"#utility.yul\":3923:3996   */\n              tag_186\n              jump\t// in\n            tag_205:\n                /* \"#utility.yul\":3915:3996   */\n              swap2\n              pop\n                /* \"#utility.yul\":3772:4007   */\n              pop\n                /* \"#utility.yul\":4096:4100   */\n              0x20\n                /* \"#utility.yul\":4089:4094   */\n              dup4\n                /* \"#utility.yul\":4085:4101   */\n              add\n                /* \"#utility.yul\":4079:4102   */\n              mload\n                /* \"#utility.yul\":4149:4152   */\n              dup5\n                /* \"#utility.yul\":4143:4147   */\n              dup3\n                /* \"#utility.yul\":4139:4153   */\n              sub\n                /* \"#utility.yul\":4132:4136   */\n              0x20\n                /* \"#utility.yul\":4127:4130   */\n              dup7\n                /* \"#utility.yul\":4123:4137   */\n              add\n                /* \"#utility.yul\":4116:4154   */\n              mstore\n                /* \"#utility.yul\":4175:4248   */\n              tag_206\n                /* \"#utility.yul\":4243:4247   */\n              dup3\n                /* \"#utility.yul\":4229:4241   */\n              dup3\n                /* \"#utility.yul\":4175:4248   */\n              tag_186\n              jump\t// in\n            tag_206:\n                /* \"#utility.yul\":4167:4248   */\n              swap2\n              pop\n                /* \"#utility.yul\":4017:4259   */\n              pop\n                /* \"#utility.yul\":4346:4350   */\n              0x40\n                /* \"#utility.yul\":4339:4344   */\n              dup4\n                /* \"#utility.yul\":4335:4351   */\n              add\n                /* \"#utility.yul\":4329:4352   */\n              mload\n                /* \"#utility.yul\":4365:4428   */\n              tag_207\n                /* \"#utility.yul\":4422:4426   */\n              0x40\n                /* \"#utility.yul\":4417:4420   */\n              dup7\n                /* \"#utility.yul\":4413:4427   */\n              add\n                /* \"#utility.yul\":4399:4411   */\n              dup3\n                /* \"#utility.yul\":4365:4428   */\n              tag_208\n              jump\t// in\n            tag_207:\n                /* \"#utility.yul\":4269:4438   */\n              pop\n                /* \"#utility.yul\":4455:4459   */\n              dup1\n                /* \"#utility.yul\":4448:4459   */\n              swap2\n              pop\n                /* \"#utility.yul\":3726:4465   */\n              pop\n                /* \"#utility.yul\":3604:4465   */\n              swap3\n              swap2\n              pop\n              pop\n              jump\t// out\n                /* \"#utility.yul\":4471:4579   */\n            tag_208:\n                /* \"#utility.yul\":4548:4572   */\n              tag_210\n                /* \"#utility.yul\":4566:4571   */\n              dup2\n                /* \"#utility.yul\":4548:4572   */\n              tag_211\n              jump\t// in\n            tag_210:\n                /* \"#utility.yul\":4543:4546   */\n              dup3\n                /* \"#utility.yul\":4536:4573   */\n              mstore\n                /* \"#utility.yul\":4471:4579   */\n              pop\n              pop\n              jump\t// out\n                /* \"#utility.yul\":4585:4703   */\n            tag_212:\n                /* \"#utility.yul\":4672:4696   */\n              tag_214\n                /* \"#utility.yul\":4690:4695   */\n              dup2\n                /* \"#utility.yul\":4672:4696   */\n              tag_211\n              jump\t// in\n            tag_214:\n                /* \"#utility.yul\":4667:4670   */\n              dup3\n                /* \"#utility.yul\":4660:4697   */\n              mstore\n                /* \"#utility.yul\":4585:4703   */\n              pop\n              pop\n              jump\t// out\n                /* \"#utility.yul\":4709:4931   */\n            tag_32:\n                /* \"#utility.yul\":4802:4806   */\n              0x00\n                /* \"#utility.yul\":4840:4842   */\n              0x20\n                /* \"#utility.yul\":4829:4838   */\n              dup3\n                /* \"#utility.yul\":4825:4843   */\n              add\n                /* \"#utility.yul\":4817:4843   */\n              swap1\n              pop\n                /* \"#utility.yul\":4853:4924   */\n              tag_216\n                /* \"#utility.yul\":4921:4922   */\n              0x00\n                /* \"#utility.yul\":4910:4919   */\n              dup4\n                /* \"#utility.yul\":4906:4923   */\n              add\n                /* \"#utility.yul\":4897:4903   */\n              dup5\n                /* \"#utility.yul\":4853:4924   */\n              tag_178\n              jump\t// in\n            tag_216:\n                /* \"#utility.yul\":4709:4931   */\n              swap3\n              swap2\n              pop\n              pop\n              jump\t// out\n                /* \"#utility.yul\":4937:5257   */\n            tag_40:\n                /* \"#utility.yul\":5052:5056   */\n              0x00\n                /* \"#utility.yul\":5090:5092   */\n              0x40\n                /* \"#utility.yul\":5079:5088   */\n              dup3\n                /* \"#utility.yul\":5075:5093   */\n              add\n                /* \"#utility.yul\":5067:5093   */\n              swap1\n              pop\n                /* \"#utility.yul\":5103:5174   */\n              tag_218\n                /* \"#utility.yul\":5171:5172   */\n              0x00\n                /* \"#utility.yul\":5160:5169   */\n              dup4\n                /* \"#utility.yul\":5156:5173   */\n              add\n                /* \"#utility.yul\":5147:5153   */\n              dup6\n                /* \"#utility.yul\":5103:5174   */\n              tag_178\n              jump\t// in\n            tag_218:\n                /* \"#utility.yul\":5184:5250   */\n              tag_219\n                /* \"#utility.yul\":5246:5248   */\n              0x20\n                /* \"#utility.yul\":5235:5244   */\n              dup4\n                /* \"#utility.yul\":5231:5249   */\n              add\n                /* \"#utility.yul\":5222:5228   */\n              dup5\n                /* \"#utility.yul\":5184:5250   */\n              tag_182\n              jump\t// in\n            tag_219:\n                /* \"#utility.yul\":4937:5257   */\n              swap4\n              swap3\n              pop\n              pop\n              pop\n              jump\t// out\n                /* \"#utility.yul\":5263:5887   */\n            tag_20:\n                /* \"#utility.yul\":5452:5456   */\n              0x00\n                /* \"#utility.yul\":5490:5492   */\n              0x60\n                /* \"#utility.yul\":5479:5488   */\n              dup3\n                /* \"#utility.yul\":5475:5493   */\n              add\n                /* \"#utility.yul\":5467:5493   */\n              swap1\n              pop\n                /* \"#utility.yul\":5539:5548   */\n              dup2\n                /* \"#utility.yul\":5533:5537   */\n              dup2\n                /* \"#utility.yul\":5529:5549   */\n              sub\n                /* \"#utility.yul\":5525:5526   */\n              0x00\n                /* \"#utility.yul\":5514:5523   */\n              dup4\n                /* \"#utility.yul\":5510:5527   */\n              add\n                /* \"#utility.yul\":5503:5550   */\n              mstore\n                /* \"#utility.yul\":5567:5645   */\n              tag_221\n                /* \"#utility.yul\":5640:5644   */\n              dup2\n                /* \"#utility.yul\":5631:5637   */\n              dup7\n                /* \"#utility.yul\":5567:5645   */\n              tag_196\n              jump\t// in\n            tag_221:\n                /* \"#utility.yul\":5559:5645   */\n              swap1\n              pop\n                /* \"#utility.yul\":5692:5701   */\n              dup2\n                /* \"#utility.yul\":5686:5690   */\n              dup2\n                /* \"#utility.yul\":5682:5702   */\n              sub\n                /* \"#utility.yul\":5677:5679   */\n              0x20\n                /* \"#utility.yul\":5666:5675   */\n              dup4\n                /* \"#utility.yul\":5662:5680   */\n              add\n                /* \"#utility.yul\":5655:5703   */\n              mstore\n                /* \"#utility.yul\":5720:5798   */\n              tag_222\n                /* \"#utility.yul\":5793:5797   */\n              dup2\n                /* \"#utility.yul\":5784:5790   */\n              dup6\n                /* \"#utility.yul\":5720:5798   */\n              tag_196\n              jump\t// in\n            tag_222:\n                /* \"#utility.yul\":5712:5798   */\n              swap1\n              pop\n                /* \"#utility.yul\":5808:5880   */\n              tag_223\n                /* \"#utility.yul\":5876:5878   */\n              0x40\n                /* \"#utility.yul\":5865:5874   */\n              dup4\n                /* \"#utility.yul\":5861:5879   */\n              add\n                /* \"#utility.yul\":5852:5858   */\n              dup5\n                /* \"#utility.yul\":5808:5880   */\n              tag_212\n              jump\t// in\n            tag_223:\n                /* \"#utility.yul\":5263:5887   */\n              swap5\n              swap4\n              pop\n              pop\n              pop\n              pop\n              jump\t// out\n                /* \"#utility.yul\":5893:6262   */\n            tag_44:\n                /* \"#utility.yul\":6034:6038   */\n              0x00\n                /* \"#utility.yul\":6072:6074   */\n              0x20\n                /* \"#utility.yul\":6061:6070   */\n              dup3\n                /* \"#utility.yul\":6057:6075   */\n              add\n                /* \"#utility.yul\":6049:6075   */\n              swap1\n              pop\n                /* \"#utility.yul\":6121:6130   */\n              dup2\n                /* \"#utility.yul\":6115:6119   */\n              dup2\n                /* \"#utility.yul\":6111:6131   */\n              sub\n                /* \"#utility.yul\":6107:6108   */\n              0x00\n                /* \"#utility.yul\":6096:6105   */\n              dup4\n                /* \"#utility.yul\":6092:6109   */\n              add\n                /* \"#utility.yul\":6085:6132   */\n              mstore\n                /* \"#utility.yul\":6149:6255   */\n              tag_225\n                /* \"#utility.yul\":6250:6254   */\n              dup2\n                /* \"#utility.yul\":6241:6247   */\n              dup5\n                /* \"#utility.yul\":6149:6255   */\n              tag_203\n              jump\t// in\n            tag_225:\n                /* \"#utility.yul\":6141:6255   */\n              swap1\n              pop\n                /* \"#utility.yul\":5893:6262   */\n              swap3\n              swap2\n              pop\n              pop\n              jump\t// out\n                /* \"#utility.yul\":6268:6801   */\n            tag_28:\n                /* \"#utility.yul\":6437:6441   */\n              0x00\n                /* \"#utility.yul\":6475:6477   */\n              0x60\n                /* \"#utility.yul\":6464:6473   */\n              dup3\n                /* \"#utility.yul\":6460:6478   */\n              add\n                /* \"#utility.yul\":6452:6478   */\n              swap1\n              pop\n                /* \"#utility.yul\":6488:6559   */\n              tag_227\n                /* \"#utility.yul\":6556:6557   */\n              0x00\n                /* \"#utility.yul\":6545:6554   */\n              dup4\n                /* \"#utility.yul\":6541:6558   */\n              add\n                /* \"#utility.yul\":6532:6538   */\n              dup7\n                /* \"#utility.yul\":6488:6559   */\n              tag_212\n              jump\t// in\n            tag_227:\n                /* \"#utility.yul\":6606:6615   */\n              dup2\n                /* \"#utility.yul\":6600:6604   */\n              dup2\n                /* \"#utility.yul\":6596:6616   */\n              sub\n                /* \"#utility.yul\":6591:6593   */\n              0x20\n                /* \"#utility.yul\":6580:6589   */\n              dup4\n                /* \"#utility.yul\":6576:6594   */\n              add\n                /* \"#utility.yul\":6569:6617   */\n              mstore\n                /* \"#utility.yul\":6634:6712   */\n              tag_228\n                /* \"#utility.yul\":6707:6711   */\n              dup2\n                /* \"#utility.yul\":6698:6704   */\n              dup6\n                /* \"#utility.yul\":6634:6712   */\n              tag_196\n              jump\t// in\n            tag_228:\n                /* \"#utility.yul\":6626:6712   */\n              swap1\n              pop\n                /* \"#utility.yul\":6722:6794   */\n              tag_229\n                /* \"#utility.yul\":6790:6792   */\n              0x40\n                /* \"#utility.yul\":6779:6788   */\n              dup4\n                /* \"#utility.yul\":6775:6793   */\n              add\n                /* \"#utility.yul\":6766:6772   */\n              dup5\n                /* \"#utility.yul\":6722:6794   */\n              tag_178\n              jump\t// in\n            tag_229:\n                /* \"#utility.yul\":6268:6801   */\n              swap5\n              swap4\n              pop\n              pop\n              pop\n              pop\n              jump\t// out\n                /* \"#utility.yul\":6807:6936   */\n            tag_139:\n                /* \"#utility.yul\":6841:6847   */\n              0x00\n                /* \"#utility.yul\":6868:6888   */\n              tag_231\n              tag_232\n              jump\t// in\n            tag_231:\n                /* \"#utility.yul\":6858:6888   */\n              swap1\n              pop\n                /* \"#utility.yul\":6897:6930   */\n              tag_233\n                /* \"#utility.yul\":6925:6929   */\n              dup3\n                /* \"#utility.yul\":6917:6923   */\n              dup3\n                /* \"#utility.yul\":6897:6930   */\n              tag_234\n              jump\t// in\n            tag_233:\n                /* \"#utility.yul\":6807:6936   */\n              swap2\n              swap1\n              pop\n              jump\t// out\n                /* \"#utility.yul\":6942:7017   */\n            tag_232:\n                /* \"#utility.yul\":6975:6981   */\n              0x00\n                /* \"#utility.yul\":7008:7010   */\n              0x40\n                /* \"#utility.yul\":7002:7011   */\n              mload\n                /* \"#utility.yul\":6992:7011   */\n              swap1\n              pop\n                /* \"#utility.yul\":6942:7017   */\n              swap1\n              jump\t// out\n                /* \"#utility.yul\":7023:7331   */\n            tag_138:\n                /* \"#utility.yul\":7085:7089   */\n              0x00\n                /* \"#utility.yul\":7175:7193   */\n              0xffffffffffffffff\n                /* \"#utility.yul\":7167:7173   */\n              dup3\n                /* \"#utility.yul\":7164:7194   */\n              gt\n                /* \"#utility.yul\":7161:7217   */\n              iszero\n              tag_237\n              jumpi\n                /* \"#utility.yul\":7197:7215   */\n              tag_238\n              tag_239\n              jump\t// in\n            tag_238:\n                /* \"#utility.yul\":7161:7217   */\n            tag_237:\n                /* \"#utility.yul\":7235:7264   */\n              tag_240\n                /* \"#utility.yul\":7257:7263   */\n              dup3\n                /* \"#utility.yul\":7235:7264   */\n              tag_195\n              jump\t// in\n            tag_240:\n                /* \"#utility.yul\":7227:7264   */\n              swap1\n              pop\n                /* \"#utility.yul\":7319:7323   */\n              0x20\n                /* \"#utility.yul\":7313:7317   */\n              dup2\n                /* \"#utility.yul\":7309:7324   */\n              add\n                /* \"#utility.yul\":7301:7324   */\n              swap1\n              pop\n                /* \"#utility.yul\":7023:7331   */\n              swap2\n              swap1\n              pop\n              jump\t// out\n                /* \"#utility.yul\":7337:7436   */\n            tag_189:\n                /* \"#utility.yul\":7389:7395   */\n              0x00\n                /* \"#utility.yul\":7423:7428   */\n              dup2\n                /* \"#utility.yul\":7417:7429   */\n              mload\n                /* \"#utility.yul\":7407:7429   */\n              swap1\n              pop\n                /* \"#utility.yul\":7337:7436   */\n              swap2\n              swap1\n              pop\n              jump\t// out\n                /* \"#utility.yul\":7442:7601   */\n            tag_191:\n                /* \"#utility.yul\":7516:7527   */\n              0x00\n                /* \"#utility.yul\":7550:7556   */\n              dup3\n                /* \"#utility.yul\":7545:7548   */\n              dup3\n                /* \"#utility.yul\":7538:7557   */\n              mstore\n                /* \"#utility.yul\":7590:7594   */\n              0x20\n                /* \"#utility.yul\":7585:7588   */\n              dup3\n                /* \"#utility.yul\":7581:7595   */\n              add\n                /* \"#utility.yul\":7566:7595   */\n              swap1\n              pop\n                /* \"#utility.yul\":7442:7601   */\n              swap3\n              swap2\n              pop\n              pop\n              jump\t// out\n                /* \"#utility.yul\":7607:7776   */\n            tag_200:\n                /* \"#utility.yul\":7691:7702   */\n              0x00\n                /* \"#utility.yul\":7725:7731   */\n              dup3\n                /* \"#utility.yul\":7720:7723   */\n              dup3\n                /* \"#utility.yul\":7713:7732   */\n              mstore\n                /* \"#utility.yul\":7765:7769   */\n              0x20\n                /* \"#utility.yul\":7760:7763   */\n              dup3\n                /* \"#utility.yul\":7756:7770   */\n              add\n                /* \"#utility.yul\":7741:7770   */\n              swap1\n              pop\n                /* \"#utility.yul\":7607:7776   */\n              swap3\n              swap2\n              pop\n              pop\n              jump\t// out\n                /* \"#utility.yul\":7782:7878   */\n            tag_181:\n                /* \"#utility.yul\":7819:7826   */\n              0x00\n                /* \"#utility.yul\":7848:7872   */\n              tag_245\n                /* \"#utility.yul\":7866:7871   */\n              dup3\n                /* \"#utility.yul\":7848:7872   */\n              tag_246\n              jump\t// in\n            tag_245:\n                /* \"#utility.yul\":7837:7872   */\n              swap1\n              pop\n                /* \"#utility.yul\":7782:7878   */\n              swap2\n              swap1\n              pop\n              jump\t// out\n                /* \"#utility.yul\":7884:7974   */\n            tag_185:\n                /* \"#utility.yul\":7918:7925   */\n              0x00\n                /* \"#utility.yul\":7961:7966   */\n              dup2\n                /* \"#utility.yul\":7954:7967   */\n              iszero\n                /* \"#utility.yul\":7947:7968   */\n              iszero\n                /* \"#utility.yul\":7936:7968   */\n              swap1\n              pop\n                /* \"#utility.yul\":7884:7974   */\n              swap2\n              swap1\n              pop\n              jump\t// out\n                /* \"#utility.yul\":7980:8106   */\n            tag_246:\n                /* \"#utility.yul\":8017:8024   */\n              0x00\n                /* \"#utility.yul\":8057:8099   */\n              0xffffffffffffffffffffffffffffffffffffffff\n                /* \"#utility.yul\":8050:8055   */\n              dup3\n                /* \"#utility.yul\":8046:8100   */\n              and\n                /* \"#utility.yul\":8035:8100   */\n              swap1\n              pop\n                /* \"#utility.yul\":7980:8106   */\n              swap2\n              swap1\n              pop\n              jump\t// out\n                /* \"#utility.yul\":8112:8189   */\n            tag_211:\n                /* \"#utility.yul\":8149:8156   */\n              0x00\n                /* \"#utility.yul\":8178:8183   */\n              dup2\n                /* \"#utility.yul\":8167:8183   */\n              swap1\n              pop\n                /* \"#utility.yul\":8112:8189   */\n              swap2\n              swap1\n              pop\n              jump\t// out\n                /* \"#utility.yul\":8195:8349   */\n            tag_144:\n                /* \"#utility.yul\":8279:8285   */\n              dup3\n                /* \"#utility.yul\":8274:8277   */\n              dup2\n                /* \"#utility.yul\":8269:8272   */\n              dup4\n                /* \"#utility.yul\":8256:8286   */\n              calldatacopy\n                /* \"#utility.yul\":8341:8342   */\n              0x00\n                /* \"#utility.yul\":8332:8338   */\n              dup4\n                /* \"#utility.yul\":8327:8330   */\n              dup4\n                /* \"#utility.yul\":8323:8339   */\n              add\n                /* \"#utility.yul\":8316:8343   */\n              mstore\n                /* \"#utility.yul\":8195:8349   */\n              pop\n              pop\n              pop\n              jump\t// out\n                /* \"#utility.yul\":8355:8662   */\n            tag_193:\n                /* \"#utility.yul\":8423:8424   */\n              0x00\n                /* \"#utility.yul\":8433:8546   */\n            tag_252:\n                /* \"#utility.yul\":8447:8453   */\n              dup4\n                /* \"#utility.yul\":8444:8445   */\n              dup2\n                /* \"#utility.yul\":8441:8454   */\n              lt\n                /* \"#utility.yul\":8433:8546   */\n              iszero\n              tag_254\n              jumpi\n                /* \"#utility.yul\":8532:8533   */\n              dup1\n                /* \"#utility.yul\":8527:8530   */\n              dup3\n                /* \"#utility.yul\":8523:8534   */\n              add\n                /* \"#utility.yul\":8517:8535   */\n              mload\n                /* \"#utility.yul\":8513:8514   */\n              dup2\n                /* \"#utility.yul\":8508:8511   */\n              dup5\n                /* \"#utility.yul\":8504:8515   */\n              add\n                /* \"#utility.yul\":8497:8536   */\n              mstore\n                /* \"#utility.yul\":8469:8471   */\n              0x20\n                /* \"#utility.yul\":8466:8467   */\n              dup2\n                /* \"#utility.yul\":8462:8472   */\n              add\n                /* \"#utility.yul\":8457:8472   */\n              swap1\n              pop\n                /* \"#utility.yul\":8433:8546   */\n              jump(tag_252)\n            tag_254:\n                /* \"#utility.yul\":8564:8570   */\n              dup4\n                /* \"#utility.yul\":8561:8562   */\n              dup2\n                /* \"#utility.yul\":8558:8571   */\n              gt\n                /* \"#utility.yul\":8555:8656   */\n              iszero\n              tag_255\n              jumpi\n                /* \"#utility.yul\":8644:8645   */\n              0x00\n                /* \"#utility.yul\":8635:8641   */\n              dup5\n                /* \"#utility.yul\":8630:8633   */\n              dup5\n                /* \"#utility.yul\":8626:8642   */\n              add\n                /* \"#utility.yul\":8619:8646   */\n              mstore\n                /* \"#utility.yul\":8555:8656   */\n            tag_255:\n                /* \"#utility.yul\":8404:8662   */\n              pop\n                /* \"#utility.yul\":8355:8662   */\n              pop\n              pop\n              pop\n              jump\t// out\n                /* \"#utility.yul\":8668:8988   */\n            tag_56:\n                /* \"#utility.yul\":8712:8718   */\n              0x00\n                /* \"#utility.yul\":8749:8750   */\n              0x02\n                /* \"#utility.yul\":8743:8747   */\n              dup3\n                /* \"#utility.yul\":8739:8751   */\n              div\n                /* \"#utility.yul\":8729:8751   */\n              swap1\n              pop\n                /* \"#utility.yul\":8796:8797   */\n              0x01\n                /* \"#utility.yul\":8790:8794   */\n              dup3\n                /* \"#utility.yul\":8786:8798   */\n              and\n                /* \"#utility.yul\":8817:8835   */\n              dup1\n                /* \"#utility.yul\":8807:8888   */\n              tag_257\n              jumpi\n                /* \"#utility.yul\":8873:8877   */\n              0x7f\n                /* \"#utility.yul\":8865:8871   */\n              dup3\n                /* \"#utility.yul\":8861:8878   */\n              and\n                /* \"#utility.yul\":8851:8878   */\n              swap2\n              pop\n                /* \"#utility.yul\":8807:8888   */\n            tag_257:\n                /* \"#utility.yul\":8935:8937   */\n              0x20\n                /* \"#utility.yul\":8927:8933   */\n              dup3\n                /* \"#utility.yul\":8924:8938   */\n              lt\n                /* \"#utility.yul\":8904:8922   */\n              dup2\n                /* \"#utility.yul\":8901:8939   */\n              eq\n                /* \"#utility.yul\":8898:8982   */\n              iszero\n              tag_258\n              jumpi\n                /* \"#utility.yul\":8954:8972   */\n              tag_259\n              tag_260\n              jump\t// in\n            tag_259:\n                /* \"#utility.yul\":8898:8982   */\n            tag_258:\n                /* \"#utility.yul\":8719:8988   */\n              pop\n                /* \"#utility.yul\":8668:8988   */\n              swap2\n              swap1\n              pop\n              jump\t// out\n                /* \"#utility.yul\":8994:9275   */\n            tag_234:\n                /* \"#utility.yul\":9077:9104   */\n              tag_262\n                /* \"#utility.yul\":9099:9103   */\n              dup3\n                /* \"#utility.yul\":9077:9104   */\n              tag_195\n              jump\t// in\n            tag_262:\n                /* \"#utility.yul\":9069:9075   */\n              dup2\n                /* \"#utility.yul\":9065:9105   */\n              add\n                /* \"#utility.yul\":9207:9213   */\n              dup2\n                /* \"#utility.yul\":9195:9205   */\n              dup2\n                /* \"#utility.yul\":9192:9214   */\n              lt\n                /* \"#utility.yul\":9171:9189   */\n              0xffffffffffffffff\n                /* \"#utility.yul\":9159:9169   */\n              dup3\n                /* \"#utility.yul\":9156:9190   */\n              gt\n                /* \"#utility.yul\":9153:9215   */\n              or\n                /* \"#utility.yul\":9150:9238   */\n              iszero\n              tag_263\n              jumpi\n                /* \"#utility.yul\":9218:9236   */\n              tag_264\n              tag_239\n              jump\t// in\n            tag_264:\n                /* \"#utility.yul\":9150:9238   */\n            tag_263:\n                /* \"#utility.yul\":9258:9268   */\n              dup1\n                /* \"#utility.yul\":9254:9256   */\n              0x40\n                /* \"#utility.yul\":9247:9269   */\n              mstore\n                /* \"#utility.yul\":9037:9275   */\n              pop\n                /* \"#utility.yul\":8994:9275   */\n              pop\n              pop\n              jump\t// out\n                /* \"#utility.yul\":9281:9514   */\n            tag_52:\n                /* \"#utility.yul\":9320:9323   */\n              0x00\n                /* \"#utility.yul\":9343:9367   */\n              tag_266\n                /* \"#utility.yul\":9361:9366   */\n              dup3\n                /* \"#utility.yul\":9343:9367   */\n              tag_211\n              jump\t// in\n            tag_266:\n                /* \"#utility.yul\":9334:9367   */\n              swap2\n              pop\n                /* \"#utility.yul\":9389:9455   */\n              0xffffffffffffffffffffffffffffffffffffffffffffffffffffffffffffffff\n                /* \"#utility.yul\":9382:9387   */\n              dup3\n                /* \"#utility.yul\":9379:9456   */\n              eq\n                /* \"#utility.yul\":9376:9479   */\n              iszero\n              tag_267\n              jumpi\n                /* \"#utility.yul\":9459:9477   */\n              tag_268\n              tag_269\n              jump\t// in\n            tag_268:\n                /* \"#utility.yul\":9376:9479   */\n            tag_267:\n                /* \"#utility.yul\":9506:9507   */\n              0x01\n                /* \"#utility.yul\":9499:9504   */\n              dup3\n                /* \"#utility.yul\":9495:9508   */\n              add\n                /* \"#utility.yul\":9488:9508   */\n              swap1\n              pop\n                /* \"#utility.yul\":9281:9514   */\n              swap2\n              swap1\n              pop\n              jump\t// out\n                /* \"#utility.yul\":9520:9700   */\n            tag_269:\n                /* \"#utility.yul\":9568:9645   */\n              0x4e487b7100000000000000000000000000000000000000000000000000000000\n                /* \"#utility.yul\":9565:9566   */\n              0x00\n                /* \"#utility.yul\":9558:9646   */\n              mstore\n                /* \"#utility.yul\":9665:9669   */\n              0x11\n                /* \"#utility.yul\":9662:9663   */\n              0x04\n                /* \"#utility.yul\":9655:9670   */\n              mstore\n                /* \"#utility.yul\":9689:9693   */\n              0x24\n                /* \"#utility.yul\":9686:9687   */\n              0x00\n                /* \"#utility.yul\":9679:9694   */\n              revert\n                /* \"#utility.yul\":9706:9886   */\n            tag_260:\n                /* \"#utility.yul\":9754:9831   */\n              0x4e487b7100000000000000000000000000000000000000000000000000000000\n                /* \"#utility.yul\":9751:9752   */\n              0x00\n                /* \"#utility.yul\":9744:9832   */\n              mstore\n                /* \"#utility.yul\":9851:9855   */\n              0x22\n                /* \"#utility.yul\":9848:9849   */\n              0x04\n                /* \"#utility.yul\":9841:9856   */\n              mstore\n                /* \"#utility.yul\":9875:9879   */\n              0x24\n                /* \"#utility.yul\":9872:9873   */\n              0x00\n                /* \"#utility.yul\":9865:9880   */\n              revert\n                /* \"#utility.yul\":9892:10072   */\n            tag_49:\n                /* \"#utility.yul\":9940:10017   */\n              0x4e487b7100000000000000000000000000000000000000000000000000000000\n                /* \"#utility.yul\":9937:9938   */\n              0x00\n                /* \"#utility.yul\":9930:10018   */\n              mstore\n                /* \"#utility.yul\":10037:10041   */\n              0x32\n                /* \"#utility.yul\":10034:10035   */\n              0x04\n                /* \"#utility.yul\":10027:10042   */\n              mstore\n                /* \"#utility.yul\":10061:10065   */\n              0x24\n                /* \"#utility.yul\":10058:10059   */\n              0x00\n                /* \"#utility.yul\":10051:10066   */\n              revert\n                /* \"#utility.yul\":10078:10258   */\n            tag_239:\n                /* \"#utility.yul\":10126:10203   */\n              0x4e487b7100000000000000000000000000000000000000000000000000000000\n                /* \"#utility.yul\":10123:10124   */\n              0x00\n                /* \"#utility.yul\":10116:10204   */\n              mstore\n                /* \"#utility.yul\":10223:10227   */\n              0x41\n                /* \"#utility.yul\":10220:10221   */\n              0x04\n                /* \"#utility.yul\":10213:10228   */\n              mstore\n                /* \"#utility.yul\":10247:10251   */\n              0x24\n                /* \"#utility.yul\":10244:10245   */\n              0x00\n                /* \"#utility.yul\":10237:10252   */\n              revert\n                /* \"#utility.yul\":10264:10381   */\n            tag_153:\n                /* \"#utility.yul\":10373:10374   */\n              0x00\n                /* \"#utility.yul\":10370:10371   */\n              dup1\n                /* \"#utility.yul\":10363:10375   */\n              revert\n                /* \"#utility.yul\":10387:10504   */\n            tag_142:\n                /* \"#utility.yul\":10496:10497   */\n              0x00\n                /* \"#utility.yul\":10493:10494   */\n              dup1\n                /* \"#utility.yul\":10486:10498   */\n              revert\n                /* \"#utility.yul\":10510:10627   */\n            tag_169:\n                /* \"#utility.yul\":10619:10620   */\n              0x00\n                /* \"#utility.yul\":10616:10617   */\n              dup1\n                /* \"#utility.yul\":10609:10621   */\n              revert\n                /* \"#utility.yul\":10633:10750   */\n            tag_162:\n                /* \"#utility.yul\":10742:10743   */\n              0x00\n                /* \"#utility.yul\":10739:10740   */\n              dup1\n                /* \"#utility.yul\":10732:10744   */\n              revert\n                /* \"#utility.yul\":10756:10858   */\n            tag_195:\n                /* \"#utility.yul\":10797:10803   */\n              0x00\n                /* \"#utility.yul\":10848:10850   */\n              0x1f\n                /* \"#utility.yul\":10844:10851   */\n              not\n                /* \"#utility.yul\":10839:10841   */\n              0x1f\n                /* \"#utility.yul\":10832:10837   */\n              dup4\n                /* \"#utility.yul\":10828:10842   */\n              add\n                /* \"#utility.yul\":10824:10852   */\n              and\n                /* \"#utility.yul\":10814:10852   */\n              swap1\n              pop\n                /* \"#utility.yul\":10756:10858   */\n              swap2\n              swap1\n              pop\n              jump\t// out\n                /* \"#utility.yul\":10864:10986   */\n            tag_148:\n                /* \"#utility.yul\":10937:10961   */\n              tag_280\n                /* \"#utility.yul\":10955:10960   */\n              dup2\n                /* \"#utility.yul\":10937:10961   */\n              tag_181\n              jump\t// in\n            tag_280:\n                /* \"#utility.yul\":10930:10935   */\n              dup2\n                /* \"#utility.yul\":10927:10962   */\n              eq\n                /* \"#utility.yul\":10917:10980   */\n              tag_281\n              jumpi\n                /* \"#utility.yul\":10976:10977   */\n              0x00\n                /* \"#utility.yul\":10973:10974   */\n              dup1\n                /* \"#utility.yul\":10966:10978   */\n              revert\n                /* \"#utility.yul\":10917:10980   */\n            tag_281:\n                /* \"#utility.yul\":10864:10986   */\n              pop\n              jump\t// out\n                /* \"#utility.yul\":10992:11114   */\n            tag_158:\n                /* \"#utility.yul\":11065:11089   */\n              tag_283\n                /* \"#utility.yul\":11083:11088   */\n              dup2\n                /* \"#utility.yul\":11065:11089   */\n              tag_211\n              jump\t// in\n            tag_283:\n                /* \"#utility.yul\":11058:11063   */\n              dup2\n                /* \"#utility.yul\":11055:11090   */\n              eq\n                /* \"#utility.yul\":11045:11108   */\n              tag_284\n              jumpi\n                /* \"#utility.yul\":11104:11105   */\n              0x00\n                /* \"#utility.yul\":11101:11102   */\n              dup1\n                /* \"#utility.yul\":11094:11106   */\n              revert\n                /* \"#utility.yul\":11045:11108   */\n            tag_284:\n                /* \"#utility.yul\":10992:11114   */\n              pop\n              jump\t// out\n\n            auxdata: 0xa264697066735822122077fae9a11690588c171621a6c4236c15447a01db0ebd3dff4e7b9116eebdefa664736f6c63430008070033\n        }\n    }\n\n    auxdata: 0xa2646970667358221220a9573f33d8aabdfc0c62320d03f1ea69323f29760369f74708f6b2501ff5810b64736f6c63430008070033\n}\n",
    "bytecode": {
      "linkReferences": {},
      "object": "608060405234801561001057600080fd5b50611b4c806100206000396000f3fe60806040523480156200001157600080fd5b5060043610620000465760003560e01c806315cf4a5f146200004b578063ca306594146200006b578063f18b4f8e146200008d575b600080fd5b620000696004803603810190620000639190620002dc565b620000c3565b005b6200007562000169565b60405162000084919062000463565b60405180910390f35b620000ab6004803603810190620000a591906200032d565b620001f9565b604051620000ba919062000446565b60405180910390f35b60008133604051620000d59062000239565b620000e292919062000487565b604051809103906000f080158015620000ff573d6000803e3d6000fd5b5090506000819080600181540180825580915050600190039060005260206000200160009091909190916101000a81548173ffffffffffffffffffffffffffffffffffffffff021916908373ffffffffffffffffffffffffffffffffffffffff1602179055505050565b60606000805480602002602001604051908101604052809291908181526020018280548015620001ef57602002820191906000526020600020905b8160009054906101000a900473ffffffffffffffffffffffffffffffffffffffff1673ffffffffffffffffffffffffffffffffffffffff1681526020019060010190808311620001a4575b5050505050905090565b600081815481106200020a57600080fd5b906000526020600020016000915054906101000a900473ffffffffffffffffffffffffffffffffffffffff1681565b611480806200069783390190565b60006200025e6200025884620004e4565b620004bb565b9050828152602081018484840111156200027d576200027c6200065c565b5b6200028a848285620005ad565b509392505050565b600082601f830112620002aa57620002a962000657565b5b8135620002bc84826020860162000247565b91505092915050565b600081359050620002d6816200067c565b92915050565b600060208284031215620002f557620002f462000666565b5b600082013567ffffffffffffffff81111562000316576200031562000661565b5b620003248482850162000292565b91505092915050565b60006020828403121562000346576200034562000666565b5b60006200035684828501620002c5565b91505092915050565b60006200036d838362000379565b60208301905092915050565b62000384816200056f565b82525050565b62000395816200056f565b82525050565b6000620003a8826200052a565b620003b481856200054d565b9350620003c1836200051a565b8060005b83811015620003f8578151620003dc88826200035f565b9750620003e98362000540565b925050600181019050620003c5565b5085935050505092915050565b6000620004128262000535565b6200041e81856200055e565b935062000430818560208601620005bc565b6200043b816200066b565b840191505092915050565b60006020820190506200045d60008301846200038a565b92915050565b600060208201905081810360008301526200047f81846200039b565b905092915050565b60006040820190508181036000830152620004a3818562000405565b9050620004b460208301846200038a565b9392505050565b6000620004c7620004da565b9050620004d58282620005f2565b919050565b6000604051905090565b600067ffffffffffffffff82111562000502576200050162000628565b5b6200050d826200066b565b9050602081019050919050565b6000819050602082019050919050565b600081519050919050565b600081519050919050565b6000602082019050919050565b600082825260208201905092915050565b600082825260208201905092915050565b60006200057c8262000583565b9050919050565b600073ffffffffffffffffffffffffffffffffffffffff82169050919050565b6000819050919050565b82818337600083830152505050565b60005b83811015620005dc578082015181840152602081019050620005bf565b83811115620005ec576000848401525b50505050565b620005fd826200066b565b810181811067ffffffffffffffff821117156200061f576200061e62000628565b5b80604052505050565b7f4e487b7100000000000000000000000000000000000000000000000000000000600052604160045260246000fd5b600080fd5b600080fd5b600080fd5b600080fd5b6000601f19601f8301169050919050565b6200068781620005a3565b81146200069357600080fd5b5056fe60806040523480156200001157600080fd5b5060405162001480380380620014808339818101604052810190620000379190620001dd565b806000806101000a81548173ffffffffffffffffffffffffffffffffffffffff021916908373ffffffffffffffffffffffffffffffffffffffff16021790555081600690805190602001906200008f92919062000098565b50505062000415565b828054620000a6906200030c565b90600052602060002090601f016020900481019282620000ca576000855562000116565b82601f10620000e557805160ff191683800117855562000116565b8280016001018555821562000116579182015b8281111562000115578251825591602001919060010190620000f8565b5b50905062000125919062000129565b5090565b5b80821115620001445760008160009055506001016200012a565b5090565b60006200015f62000159846200026c565b62000243565b9050828152602081018484840111156200017e576200017d620003db565b5b6200018b848285620002d6565b509392505050565b600081519050620001a481620003fb565b92915050565b600082601f830112620001c257620001c1620003d6565b5b8151620001d484826020860162000148565b91505092915050565b60008060408385031215620001f757620001f6620003e5565b5b600083015167ffffffffffffffff811115620002185762000217620003e0565b5b6200022685828601620001aa565b9250506020620002398582860162000193565b9150509250929050565b60006200024f62000262565b90506200025d828262000342565b919050565b6000604051905090565b600067ffffffffffffffff8211156200028a5762000289620003a7565b5b6200029582620003ea565b9050602081019050919050565b6000620002af82620002b6565b9050919050565b600073ffffffffffffffffffffffffffffffffffffffff82169050919050565b60005b83811015620002f6578082015181840152602081019050620002d9565b8381111562000306576000848401525b50505050565b600060028204905060018216806200032557607f821691505b602082108114156200033c576200033b62000378565b5b50919050565b6200034d82620003ea565b810181811067ffffffffffffffff821117156200036f576200036e620003a7565b5b80604052505050565b7f4e487b7100000000000000000000000000000000000000000000000000000000600052602260045260246000fd5b7f4e487b7100000000000000000000000000000000000000000000000000000000600052604160045260246000fd5b600080fd5b600080fd5b600080fd5b600080fd5b6000601f19601f8301169050919050565b6200040681620002a2565b81146200041257600080fd5b50565b61105b80620004256000396000f3fe608060405234801561001057600080fd5b50600436106100885760003560e01c8063481c6a751161005b578063481c6a75146101175780635d495aea14610135578063a3ec138d1461013f578063a51346201461017057610088565b80630121b93f1461008d578063013cf08b146100a957806323d1c95e146100db5780634051ddac146100f7575b600080fd5b6100a760048036038101906100a29190610b42565b61018e565b005b6100c360048036038101906100be9190610b42565b610286565b6040516100d293929190610cb8565b60405180910390f35b6100f560048036038101906100f09190610aca565b6103d0565b005b6100ff6104bf565b60405161010e93929190610d1f565b60405180910390f35b61011f610585565b60405161012c9190610c74565b60405180910390f35b61013d6105a9565b005b61015960048036038101906101549190610a9d565b610706565b604051610167929190610c8f565b60405180910390f35b610178610757565b6040516101859190610cfd565b60405180910390f35b600160003373ffffffffffffffffffffffffffffffffffffffff1673ffffffffffffffffffffffffffffffffffffffff16815260200190815260200160002060000160149054906101000a900460ff16156101e857600080fd5b6000600282815481106101fe576101fd610f74565b5b9060005260206000209060030201905080600201600081548092919061022390610ecd565b919050555060018060003373ffffffffffffffffffffffffffffffffffffffff1673ffffffffffffffffffffffffffffffffffffffff16815260200190815260200160002060000160146101000a81548160ff0219169083151502179055505050565b6002818154811061029657600080fd5b90600052602060002090600302016000915090508060000180546102b990610e6a565b80601f01602080910402602001604051908101604052809291908181526020018280546102e590610e6a565b80156103325780601f1061030757610100808354040283529160200191610332565b820191906000526020600020905b81548152906001019060200180831161031557829003601f168201915b50505050509080600101805461034790610e6a565b80601f016020809104026020016040519081016040528092919081815260200182805461037390610e6a565b80156103c05780601f10610395576101008083540402835291602001916103c0565b820191906000526020600020905b8154815290600101906020018083116103a357829003601f168201915b5050505050908060020154905083565b60008054906101000a900473ffffffffffffffffffffffffffffffffffffffff1673ffffffffffffffffffffffffffffffffffffffff163373ffffffffffffffffffffffffffffffffffffffff161461042857600080fd5b6000604051806060016040528084815260200183815260200160008152509050600281908060018154018082558091505060019003906000526020600020906003020160009091909190915060008201518160000190805190602001906104909291906108b2565b5060208201518160010190805190602001906104ad9291906108b2565b50604082015181600201555050505050565b600060606000600280549050600660008054906101000a900473ffffffffffffffffffffffffffffffffffffffff168180546104fa90610e6a565b80601f016020809104026020016040519081016040528092919081815260200182805461052690610e6a565b80156105735780601f1061054857610100808354040283529160200191610573565b820191906000526020600020905b81548152906001019060200180831161055657829003601f168201915b50505050509150925092509250909192565b60008054906101000a900473ffffffffffffffffffffffffffffffffffffffff1681565b60008054906101000a900473ffffffffffffffffffffffffffffffffffffffff1673ffffffffffffffffffffffffffffffffffffffff163373ffffffffffffffffffffffffffffffffffffffff161461060157600080fd5b60008080600090505b60028054905081101561068357826002828154811061062c5761062b610f74565b5b9060005260206000209060030201600201541115610670576002818154811061065857610657610f74565b5b90600052602060002090600302016002015492508091505b808061067b90610ecd565b91505061060a565b506000821161069157600080fd5b600281815481106106a5576106a4610f74565b5b9060005260206000209060030201600360008201816000019080546106c990610e6a565b6106d4929190610938565b5060018201816001019080546106e990610e6a565b6106f4929190610938565b50600282015481600201559050505050565b60016020528060005260406000206000915090508060000160009054906101000a900473ffffffffffffffffffffffffffffffffffffffff16908060000160149054906101000a900460ff16905082565b61075f6109c5565b6000600360020154141561077257600080fd5b600360405180606001604052908160008201805461078f90610e6a565b80601f01602080910402602001604051908101604052809291908181526020018280546107bb90610e6a565b80156108085780601f106107dd57610100808354040283529160200191610808565b820191906000526020600020905b8154815290600101906020018083116107eb57829003601f168201915b5050505050815260200160018201805461082190610e6a565b80601f016020809104026020016040519081016040528092919081815260200182805461084d90610e6a565b801561089a5780601f1061086f5761010080835404028352916020019161089a565b820191906000526020600020905b81548152906001019060200180831161087d57829003601f168201915b50505050508152602001600282015481525050905090565b8280546108be90610e6a565b90600052602060002090601f0160209004810192826108e05760008555610927565b82601f106108f957805160ff1916838001178555610927565b82800160010185558215610927579182015b8281111561092657825182559160200191906001019061090b565b5b50905061093491906109e6565b5090565b82805461094490610e6a565b90600052602060002090601f01602090048101928261096657600085556109b4565b82601f1061097757805485556109b4565b828001600101855582156109b457600052602060002091601f016020900482015b828111156109b3578254825591600101919060010190610998565b5b5090506109c191906109e6565b5090565b60405180606001604052806060815260200160608152602001600081525090565b5b808211156109ff5760008160009055506001016109e7565b5090565b6000610a16610a1184610d82565b610d5d565b905082815260208101848484011115610a3257610a31610fd7565b5b610a3d848285610e28565b509392505050565b600081359050610a5481610ff7565b92915050565b600082601f830112610a6f57610a6e610fd2565b5b8135610a7f848260208601610a03565b91505092915050565b600081359050610a978161100e565b92915050565b600060208284031215610ab357610ab2610fe1565b5b6000610ac184828501610a45565b91505092915050565b60008060408385031215610ae157610ae0610fe1565b5b600083013567ffffffffffffffff811115610aff57610afe610fdc565b5b610b0b85828601610a5a565b925050602083013567ffffffffffffffff811115610b2c57610b2b610fdc565b5b610b3885828601610a5a565b9150509250929050565b600060208284031215610b5857610b57610fe1565b5b6000610b6684828501610a88565b91505092915050565b610b7881610de0565b82525050565b610b8781610df2565b82525050565b6000610b9882610db3565b610ba28185610dbe565b9350610bb2818560208601610e37565b610bbb81610fe6565b840191505092915050565b6000610bd182610db3565b610bdb8185610dcf565b9350610beb818560208601610e37565b610bf481610fe6565b840191505092915050565b60006060830160008301518482036000860152610c1c8282610b8d565b91505060208301518482036020860152610c368282610b8d565b9150506040830151610c4b6040860182610c56565b508091505092915050565b610c5f81610e1e565b82525050565b610c6e81610e1e565b82525050565b6000602082019050610c896000830184610b6f565b92915050565b6000604082019050610ca46000830185610b6f565b610cb16020830184610b7e565b9392505050565b60006060820190508181036000830152610cd28186610bc6565b90508181036020830152610ce68185610bc6565b9050610cf56040830184610c65565b949350505050565b60006020820190508181036000830152610d178184610bff565b905092915050565b6000606082019050610d346000830186610c65565b8181036020830152610d468185610bc6565b9050610d556040830184610b6f565b949350505050565b6000610d67610d78565b9050610d738282610e9c565b919050565b6000604051905090565b600067ffffffffffffffff821115610d9d57610d9c610fa3565b5b610da682610fe6565b9050602081019050919050565b600081519050919050565b600082825260208201905092915050565b600082825260208201905092915050565b6000610deb82610dfe565b9050919050565b60008115159050919050565b600073ffffffffffffffffffffffffffffffffffffffff82169050919050565b6000819050919050565b82818337600083830152505050565b60005b83811015610e55578082015181840152602081019050610e3a565b83811115610e64576000848401525b50505050565b60006002820490506001821680610e8257607f821691505b60208210811415610e9657610e95610f45565b5b50919050565b610ea582610fe6565b810181811067ffffffffffffffff82111715610ec457610ec3610fa3565b5b80604052505050565b6000610ed882610e1e565b91507fffffffffffffffffffffffffffffffffffffffffffffffffffffffffffffffff821415610f0b57610f0a610f16565b5b600182019050919050565b7f4e487b7100000000000000000000000000000000000000000000000000000000600052601160045260246000fd5b7f4e487b7100000000000000000000000000000000000000000000000000000000600052602260045260246000fd5b7f4e487b7100000000000000000000000000000000000000000000000000000000600052603260045260246000fd5b7f4e487b7100000000000000000000000000000000000000000000000000000000600052604160045260246000fd5b600080fd5b600080fd5b600080fd5b600080fd5b6000601f19601f8301169050919050565b61100081610de0565b811461100b57600080fd5b50565b61101781610e1e565b811461102257600080fd5b5056fea264697066735822122077fae9a11690588c171621a6c4236c15447a01db0ebd3dff4e7b9116eebdefa664736f6c63430008070033a2646970667358221220a9573f33d8aabdfc0c62320d03f1ea69323f29760369f74708f6b2501ff5810b64736f6c63430008070033",
      "opcodes": "PUSH1 0x80 PUSH1 0x40 MSTORE CALLVALUE DUP1 ISZERO PUSH2 0x10 JUMPI PUSH1 0x0 DUP1 REVERT JUMPDEST POP PUSH2 0x1B4C DUP1 PUSH2 0x20 PUSH1 0x0 CODECOPY PUSH1 0x0 RETURN INVALID PUSH1 0x80 PUSH1 0x40 MSTORE CALLVALUE DUP1 ISZERO PUSH3 0x11 JUMPI PUSH1 0x0 DUP1 REVERT JUMPDEST POP PUSH1 0x4 CALLDATASIZE LT PUSH3 0x46 JUMPI PUSH1 0x0 CALLDATALOAD PUSH1 0xE0 SHR DUP1 PUSH4 0x15CF4A5F EQ PUSH3 0x4B JUMPI DUP1 PUSH4 0xCA306594 EQ PUSH3 0x6B JUMPI DUP1 PUSH4 0xF18B4F8E EQ PUSH3 0x8D JUMPI JUMPDEST PUSH1 0x0 DUP1 REVERT JUMPDEST PUSH3 0x69 PUSH1 0x4 DUP1 CALLDATASIZE SUB DUP2 ADD SWAP1 PUSH3 0x63 SWAP2 SWAP1 PUSH3 0x2DC JUMP JUMPDEST PUSH3 0xC3 JUMP JUMPDEST STOP JUMPDEST PUSH3 0x75 PUSH3 0x169 JUMP JUMPDEST PUSH1 0x40 MLOAD PUSH3 0x84 SWAP2 SWAP1 PUSH3 0x463 JUMP JUMPDEST PUSH1 0x40 MLOAD DUP1 SWAP2 SUB SWAP1 RETURN JUMPDEST PUSH3 0xAB PUSH1 0x4 DUP1 CALLDATASIZE SUB DUP2 ADD SWAP1 PUSH3 0xA5 SWAP2 SWAP1 PUSH3 0x32D JUMP JUMPDEST PUSH3 0x1F9 JUMP JUMPDEST PUSH1 0x40 MLOAD PUSH3 0xBA SWAP2 SWAP1 PUSH3 0x446 JUMP JUMPDEST PUSH1 0x40 MLOAD DUP1 SWAP2 SUB SWAP1 RETURN JUMPDEST PUSH1 0x0 DUP2 CALLER PUSH1 0x40 MLOAD PUSH3 0xD5 SWAP1 PUSH3 0x239 JUMP JUMPDEST PUSH3 0xE2 SWAP3 SWAP2 SWAP1 PUSH3 0x487 JUMP JUMPDEST PUSH1 0x40 MLOAD DUP1 SWAP2 SUB SWAP1 PUSH1 0x0 CREATE DUP1 ISZERO DUP1 ISZERO PUSH3 0xFF JUMPI RETURNDATASIZE PUSH1 0x0 DUP1 RETURNDATACOPY RETURNDATASIZE PUSH1 0x0 REVERT JUMPDEST POP SWAP1 POP PUSH1 0x0 DUP2 SWAP1 DUP1 PUSH1 0x1 DUP2 SLOAD ADD DUP1 DUP3 SSTORE DUP1 SWAP2 POP POP PUSH1 0x1 SWAP1 SUB SWAP1 PUSH1 0x0 MSTORE PUSH1 0x20 PUSH1 0x0 KECCAK256 ADD PUSH1 0x0 SWAP1 SWAP2 SWAP1 SWAP2 SWAP1 SWAP2 PUSH2 0x100 EXP DUP2 SLOAD DUP2 PUSH20 0xFFFFFFFFFFFFFFFFFFFFFFFFFFFFFFFFFFFFFFFF MUL NOT AND SWAP1 DUP4 PUSH20 0xFFFFFFFFFFFFFFFFFFFFFFFFFFFFFFFFFFFFFFFF AND MUL OR SWAP1 SSTORE POP POP POP JUMP JUMPDEST PUSH1 0x60 PUSH1 0x0 DUP1 SLOAD DUP1 PUSH1 0x20 MUL PUSH1 0x20 ADD PUSH1 0x40 MLOAD SWAP1 DUP2 ADD PUSH1 0x40 MSTORE DUP1 SWAP3 SWAP2 SWAP1 DUP2 DUP2 MSTORE PUSH1 0x20 ADD DUP3 DUP1 SLOAD DUP1 ISZERO PUSH3 0x1EF JUMPI PUSH1 0x20 MUL DUP3 ADD SWAP2 SWAP1 PUSH1 0x0 MSTORE PUSH1 0x20 PUSH1 0x0 KECCAK256 SWAP1 JUMPDEST DUP2 PUSH1 0x0 SWAP1 SLOAD SWAP1 PUSH2 0x100 EXP SWAP1 DIV PUSH20 0xFFFFFFFFFFFFFFFFFFFFFFFFFFFFFFFFFFFFFFFF AND PUSH20 0xFFFFFFFFFFFFFFFFFFFFFFFFFFFFFFFFFFFFFFFF AND DUP2 MSTORE PUSH1 0x20 ADD SWAP1 PUSH1 0x1 ADD SWAP1 DUP1 DUP4 GT PUSH3 0x1A4 JUMPI JUMPDEST POP POP POP POP POP SWAP1 POP SWAP1 JUMP JUMPDEST PUSH1 0x0 DUP2 DUP2 SLOAD DUP2 LT PUSH3 0x20A JUMPI PUSH1 0x0 DUP1 REVERT JUMPDEST SWAP1 PUSH1 0x0 MSTORE PUSH1 0x20 PUSH1 0x0 KECCAK256 ADD PUSH1 0x0 SWAP2 POP SLOAD SWAP1 PUSH2 0x100 EXP SWAP1 DIV PUSH20 0xFFFFFFFFFFFFFFFFFFFFFFFFFFFFFFFFFFFFFFFF AND DUP2 JUMP JUMPDEST PUSH2 0x1480 DUP1 PUSH3 0x697 DUP4 CODECOPY ADD SWAP1 JUMP JUMPDEST PUSH1 0x0 PUSH3 0x25E PUSH3 0x258 DUP5 PUSH3 0x4E4 JUMP JUMPDEST PUSH3 0x4BB JUMP JUMPDEST SWAP1 POP DUP3 DUP2 MSTORE PUSH1 0x20 DUP2 ADD DUP5 DUP5 DUP5 ADD GT ISZERO PUSH3 0x27D JUMPI PUSH3 0x27C PUSH3 0x65C JUMP JUMPDEST JUMPDEST PUSH3 0x28A DUP5 DUP3 DUP6 PUSH3 0x5AD JUMP JUMPDEST POP SWAP4 SWAP3 POP POP POP JUMP JUMPDEST PUSH1 0x0 DUP3 PUSH1 0x1F DUP4 ADD SLT PUSH3 0x2AA JUMPI PUSH3 0x2A9 PUSH3 0x657 JUMP JUMPDEST JUMPDEST DUP2 CALLDATALOAD PUSH3 0x2BC DUP5 DUP3 PUSH1 0x20 DUP7 ADD PUSH3 0x247 JUMP JUMPDEST SWAP2 POP POP SWAP3 SWAP2 POP POP JUMP JUMPDEST PUSH1 0x0 DUP2 CALLDATALOAD SWAP1 POP PUSH3 0x2D6 DUP2 PUSH3 0x67C JUMP JUMPDEST SWAP3 SWAP2 POP POP JUMP JUMPDEST PUSH1 0x0 PUSH1 0x20 DUP3 DUP5 SUB SLT ISZERO PUSH3 0x2F5 JUMPI PUSH3 0x2F4 PUSH3 0x666 JUMP JUMPDEST JUMPDEST PUSH1 0x0 DUP3 ADD CALLDATALOAD PUSH8 0xFFFFFFFFFFFFFFFF DUP2 GT ISZERO PUSH3 0x316 JUMPI PUSH3 0x315 PUSH3 0x661 JUMP JUMPDEST JUMPDEST PUSH3 0x324 DUP5 DUP3 DUP6 ADD PUSH3 0x292 JUMP JUMPDEST SWAP2 POP POP SWAP3 SWAP2 POP POP JUMP JUMPDEST PUSH1 0x0 PUSH1 0x20 DUP3 DUP5 SUB SLT ISZERO PUSH3 0x346 JUMPI PUSH3 0x345 PUSH3 0x666 JUMP JUMPDEST JUMPDEST PUSH1 0x0 PUSH3 0x356 DUP5 DUP3 DUP6 ADD PUSH3 0x2C5 JUMP JUMPDEST SWAP2 POP POP SWAP3 SWAP2 POP POP JUMP JUMPDEST PUSH1 0x0 PUSH3 0x36D DUP4 DUP4 PUSH3 0x379 JUMP JUMPDEST PUSH1 0x20 DUP4 ADD SWAP1 POP SWAP3 SWAP2 POP POP JUMP JUMPDEST PUSH3 0x384 DUP2 PUSH3 0x56F JUMP JUMPDEST DUP3 MSTORE POP POP JUMP JUMPDEST PUSH3 0x395 DUP2 PUSH3 0x56F JUMP JUMPDEST DUP3 MSTORE POP POP JUMP JUMPDEST PUSH1 0x0 PUSH3 0x3A8 DUP3 PUSH3 0x52A JUMP JUMPDEST PUSH3 0x3B4 DUP2 DUP6 PUSH3 0x54D JUMP JUMPDEST SWAP4 POP PUSH3 0x3C1 DUP4 PUSH3 0x51A JUMP JUMPDEST DUP1 PUSH1 0x0 JUMPDEST DUP4 DUP2 LT ISZERO PUSH3 0x3F8 JUMPI DUP2 MLOAD PUSH3 0x3DC DUP9 DUP3 PUSH3 0x35F JUMP JUMPDEST SWAP8 POP PUSH3 0x3E9 DUP4 PUSH3 0x540 JUMP JUMPDEST SWAP3 POP POP PUSH1 0x1 DUP2 ADD SWAP1 POP PUSH3 0x3C5 JUMP JUMPDEST POP DUP6 SWAP4 POP POP POP POP SWAP3 SWAP2 POP POP JUMP JUMPDEST PUSH1 0x0 PUSH3 0x412 DUP3 PUSH3 0x535 JUMP JUMPDEST PUSH3 0x41E DUP2 DUP6 PUSH3 0x55E JUMP JUMPDEST SWAP4 POP PUSH3 0x430 DUP2 DUP6 PUSH1 0x20 DUP7 ADD PUSH3 0x5BC JUMP JUMPDEST PUSH3 0x43B DUP2 PUSH3 0x66B JUMP JUMPDEST DUP5 ADD SWAP2 POP POP SWAP3 SWAP2 POP POP JUMP JUMPDEST PUSH1 0x0 PUSH1 0x20 DUP3 ADD SWAP1 POP PUSH3 0x45D PUSH1 0x0 DUP4 ADD DUP5 PUSH3 0x38A JUMP JUMPDEST SWAP3 SWAP2 POP POP JUMP JUMPDEST PUSH1 0x0 PUSH1 0x20 DUP3 ADD SWAP1 POP DUP2 DUP2 SUB PUSH1 0x0 DUP4 ADD MSTORE PUSH3 0x47F DUP2 DUP5 PUSH3 0x39B JUMP JUMPDEST SWAP1 POP SWAP3 SWAP2 POP POP JUMP JUMPDEST PUSH1 0x0 PUSH1 0x40 DUP3 ADD SWAP1 POP DUP2 DUP2 SUB PUSH1 0x0 DUP4 ADD MSTORE PUSH3 0x4A3 DUP2 DUP6 PUSH3 0x405 JUMP JUMPDEST SWAP1 POP PUSH3 0x4B4 PUSH1 0x20 DUP4 ADD DUP5 PUSH3 0x38A JUMP JUMPDEST SWAP4 SWAP3 POP POP POP JUMP JUMPDEST PUSH1 0x0 PUSH3 0x4C7 PUSH3 0x4DA JUMP JUMPDEST SWAP1 POP PUSH3 0x4D5 DUP3 DUP3 PUSH3 0x5F2 JUMP JUMPDEST SWAP2 SWAP1 POP JUMP JUMPDEST PUSH1 0x0 PUSH1 0x40 MLOAD SWAP1 POP SWAP1 JUMP JUMPDEST PUSH1 0x0 PUSH8 0xFFFFFFFFFFFFFFFF DUP3 GT ISZERO PUSH3 0x502 JUMPI PUSH3 0x501 PUSH3 0x628 JUMP JUMPDEST JUMPDEST PUSH3 0x50D DUP3 PUSH3 0x66B JUMP JUMPDEST SWAP1 POP PUSH1 0x20 DUP2 ADD SWAP1 POP SWAP2 SWAP1 POP JUMP JUMPDEST PUSH1 0x0 DUP2 SWAP1 POP PUSH1 0x20 DUP3 ADD SWAP1 POP SWAP2 SWAP1 POP JUMP JUMPDEST PUSH1 0x0 DUP2 MLOAD SWAP1 POP SWAP2 SWAP1 POP JUMP JUMPDEST PUSH1 0x0 DUP2 MLOAD SWAP1 POP SWAP2 SWAP1 POP JUMP JUMPDEST PUSH1 0x0 PUSH1 0x20 DUP3 ADD SWAP1 POP SWAP2 SWAP1 POP JUMP JUMPDEST PUSH1 0x0 DUP3 DUP3 MSTORE PUSH1 0x20 DUP3 ADD SWAP1 POP SWAP3 SWAP2 POP POP JUMP JUMPDEST PUSH1 0x0 DUP3 DUP3 MSTORE PUSH1 0x20 DUP3 ADD SWAP1 POP SWAP3 SWAP2 POP POP JUMP JUMPDEST PUSH1 0x0 PUSH3 0x57C DUP3 PUSH3 0x583 JUMP JUMPDEST SWAP1 POP SWAP2 SWAP1 POP JUMP JUMPDEST PUSH1 0x0 PUSH20 0xFFFFFFFFFFFFFFFFFFFFFFFFFFFFFFFFFFFFFFFF DUP3 AND SWAP1 POP SWAP2 SWAP1 POP JUMP JUMPDEST PUSH1 0x0 DUP2 SWAP1 POP SWAP2 SWAP1 POP JUMP JUMPDEST DUP3 DUP2 DUP4 CALLDATACOPY PUSH1 0x0 DUP4 DUP4 ADD MSTORE POP POP POP JUMP JUMPDEST PUSH1 0x0 JUMPDEST DUP4 DUP2 LT ISZERO PUSH3 0x5DC JUMPI DUP1 DUP3 ADD MLOAD DUP2 DUP5 ADD MSTORE PUSH1 0x20 DUP2 ADD SWAP1 POP PUSH3 0x5BF JUMP JUMPDEST DUP4 DUP2 GT ISZERO PUSH3 0x5EC JUMPI PUSH1 0x0 DUP5 DUP5 ADD MSTORE JUMPDEST POP POP POP POP JUMP JUMPDEST PUSH3 0x5FD DUP3 PUSH3 0x66B JUMP JUMPDEST DUP2 ADD DUP2 DUP2 LT PUSH8 0xFFFFFFFFFFFFFFFF DUP3 GT OR ISZERO PUSH3 0x61F JUMPI PUSH3 0x61E PUSH3 0x628 JUMP JUMPDEST JUMPDEST DUP1 PUSH1 0x40 MSTORE POP POP POP JUMP JUMPDEST PUSH32 0x4E487B7100000000000000000000000000000000000000000000000000000000 PUSH1 0x0 MSTORE PUSH1 0x41 PUSH1 0x4 MSTORE PUSH1 0x24 PUSH1 0x0 REVERT JUMPDEST PUSH1 0x0 DUP1 REVERT JUMPDEST PUSH1 0x0 DUP1 REVERT JUMPDEST PUSH1 0x0 DUP1 REVERT JUMPDEST PUSH1 0x0 DUP1 REVERT JUMPDEST PUSH1 0x0 PUSH1 0x1F NOT PUSH1 0x1F DUP4 ADD AND SWAP1 POP SWAP2 SWAP1 POP JUMP JUMPDEST PUSH3 0x687 DUP2 PUSH3 0x5A3 JUMP JUMPDEST DUP2 EQ PUSH3 0x693 JUMPI PUSH1 0x0 DUP1 REVERT JUMPDEST POP JUMP INVALID PUSH1 0x80 PUSH1 0x40 MSTORE CALLVALUE DUP1 ISZERO PUSH3 0x11 JUMPI PUSH1 0x0 DUP1 REVERT JUMPDEST POP PUSH1 0x40 MLOAD PUSH3 0x1480 CODESIZE SUB DUP1 PUSH3 0x1480 DUP4 CODECOPY DUP2 DUP2 ADD PUSH1 0x40 MSTORE DUP2 ADD SWAP1 PUSH3 0x37 SWAP2 SWAP1 PUSH3 0x1DD JUMP JUMPDEST DUP1 PUSH1 0x0 DUP1 PUSH2 0x100 EXP DUP2 SLOAD DUP2 PUSH20 0xFFFFFFFFFFFFFFFFFFFFFFFFFFFFFFFFFFFFFFFF MUL NOT AND SWAP1 DUP4 PUSH20 0xFFFFFFFFFFFFFFFFFFFFFFFFFFFFFFFFFFFFFFFF AND MUL OR SWAP1 SSTORE POP DUP2 PUSH1 0x6 SWAP1 DUP1 MLOAD SWAP1 PUSH1 0x20 ADD SWAP1 PUSH3 0x8F SWAP3 SWAP2 SWAP1 PUSH3 0x98 JUMP JUMPDEST POP POP POP PUSH3 0x415 JUMP JUMPDEST DUP3 DUP1 SLOAD PUSH3 0xA6 SWAP1 PUSH3 0x30C JUMP JUMPDEST SWAP1 PUSH1 0x0 MSTORE PUSH1 0x20 PUSH1 0x0 KECCAK256 SWAP1 PUSH1 0x1F ADD PUSH1 0x20 SWAP1 DIV DUP2 ADD SWAP3 DUP3 PUSH3 0xCA JUMPI PUSH1 0x0 DUP6 SSTORE PUSH3 0x116 JUMP JUMPDEST DUP3 PUSH1 0x1F LT PUSH3 0xE5 JUMPI DUP1 MLOAD PUSH1 0xFF NOT AND DUP4 DUP1 ADD OR DUP6 SSTORE PUSH3 0x116 JUMP JUMPDEST DUP3 DUP1 ADD PUSH1 0x1 ADD DUP6 SSTORE DUP3 ISZERO PUSH3 0x116 JUMPI SWAP2 DUP3 ADD JUMPDEST DUP3 DUP2 GT ISZERO PUSH3 0x115 JUMPI DUP3 MLOAD DUP3 SSTORE SWAP2 PUSH1 0x20 ADD SWAP2 SWAP1 PUSH1 0x1 ADD SWAP1 PUSH3 0xF8 JUMP JUMPDEST JUMPDEST POP SWAP1 POP PUSH3 0x125 SWAP2 SWAP1 PUSH3 0x129 JUMP JUMPDEST POP SWAP1 JUMP JUMPDEST JUMPDEST DUP1 DUP3 GT ISZERO PUSH3 0x144 JUMPI PUSH1 0x0 DUP2 PUSH1 0x0 SWAP1 SSTORE POP PUSH1 0x1 ADD PUSH3 0x12A JUMP JUMPDEST POP SWAP1 JUMP JUMPDEST PUSH1 0x0 PUSH3 0x15F PUSH3 0x159 DUP5 PUSH3 0x26C JUMP JUMPDEST PUSH3 0x243 JUMP JUMPDEST SWAP1 POP DUP3 DUP2 MSTORE PUSH1 0x20 DUP2 ADD DUP5 DUP5 DUP5 ADD GT ISZERO PUSH3 0x17E JUMPI PUSH3 0x17D PUSH3 0x3DB JUMP JUMPDEST JUMPDEST PUSH3 0x18B DUP5 DUP3 DUP6 PUSH3 0x2D6 JUMP JUMPDEST POP SWAP4 SWAP3 POP POP POP JUMP JUMPDEST PUSH1 0x0 DUP2 MLOAD SWAP1 POP PUSH3 0x1A4 DUP2 PUSH3 0x3FB JUMP JUMPDEST SWAP3 SWAP2 POP POP JUMP JUMPDEST PUSH1 0x0 DUP3 PUSH1 0x1F DUP4 ADD SLT PUSH3 0x1C2 JUMPI PUSH3 0x1C1 PUSH3 0x3D6 JUMP JUMPDEST JUMPDEST DUP2 MLOAD PUSH3 0x1D4 DUP5 DUP3 PUSH1 0x20 DUP7 ADD PUSH3 0x148 JUMP JUMPDEST SWAP2 POP POP SWAP3 SWAP2 POP POP JUMP JUMPDEST PUSH1 0x0 DUP1 PUSH1 0x40 DUP4 DUP6 SUB SLT ISZERO PUSH3 0x1F7 JUMPI PUSH3 0x1F6 PUSH3 0x3E5 JUMP JUMPDEST JUMPDEST PUSH1 0x0 DUP4 ADD MLOAD PUSH8 0xFFFFFFFFFFFFFFFF DUP2 GT ISZERO PUSH3 0x218 JUMPI PUSH3 0x217 PUSH3 0x3E0 JUMP JUMPDEST JUMPDEST PUSH3 0x226 DUP6 DUP3 DUP7 ADD PUSH3 0x1AA JUMP JUMPDEST SWAP3 POP POP PUSH1 0x20 PUSH3 0x239 DUP6 DUP3 DUP7 ADD PUSH3 0x193 JUMP JUMPDEST SWAP2 POP POP SWAP3 POP SWAP3 SWAP1 POP JUMP JUMPDEST PUSH1 0x0 PUSH3 0x24F PUSH3 0x262 JUMP JUMPDEST SWAP1 POP PUSH3 0x25D DUP3 DUP3 PUSH3 0x342 JUMP JUMPDEST SWAP2 SWAP1 POP JUMP JUMPDEST PUSH1 0x0 PUSH1 0x40 MLOAD SWAP1 POP SWAP1 JUMP JUMPDEST PUSH1 0x0 PUSH8 0xFFFFFFFFFFFFFFFF DUP3 GT ISZERO PUSH3 0x28A JUMPI PUSH3 0x289 PUSH3 0x3A7 JUMP JUMPDEST JUMPDEST PUSH3 0x295 DUP3 PUSH3 0x3EA JUMP JUMPDEST SWAP1 POP PUSH1 0x20 DUP2 ADD SWAP1 POP SWAP2 SWAP1 POP JUMP JUMPDEST PUSH1 0x0 PUSH3 0x2AF DUP3 PUSH3 0x2B6 JUMP JUMPDEST SWAP1 POP SWAP2 SWAP1 POP JUMP JUMPDEST PUSH1 0x0 PUSH20 0xFFFFFFFFFFFFFFFFFFFFFFFFFFFFFFFFFFFFFFFF DUP3 AND SWAP1 POP SWAP2 SWAP1 POP JUMP JUMPDEST PUSH1 0x0 JUMPDEST DUP4 DUP2 LT ISZERO PUSH3 0x2F6 JUMPI DUP1 DUP3 ADD MLOAD DUP2 DUP5 ADD MSTORE PUSH1 0x20 DUP2 ADD SWAP1 POP PUSH3 0x2D9 JUMP JUMPDEST DUP4 DUP2 GT ISZERO PUSH3 0x306 JUMPI PUSH1 0x0 DUP5 DUP5 ADD MSTORE JUMPDEST POP POP POP POP JUMP JUMPDEST PUSH1 0x0 PUSH1 0x2 DUP3 DIV SWAP1 POP PUSH1 0x1 DUP3 AND DUP1 PUSH3 0x325 JUMPI PUSH1 0x7F DUP3 AND SWAP2 POP JUMPDEST PUSH1 0x20 DUP3 LT DUP2 EQ ISZERO PUSH3 0x33C JUMPI PUSH3 0x33B PUSH3 0x378 JUMP JUMPDEST JUMPDEST POP SWAP2 SWAP1 POP JUMP JUMPDEST PUSH3 0x34D DUP3 PUSH3 0x3EA JUMP JUMPDEST DUP2 ADD DUP2 DUP2 LT PUSH8 0xFFFFFFFFFFFFFFFF DUP3 GT OR ISZERO PUSH3 0x36F JUMPI PUSH3 0x36E PUSH3 0x3A7 JUMP JUMPDEST JUMPDEST DUP1 PUSH1 0x40 MSTORE POP POP POP JUMP JUMPDEST PUSH32 0x4E487B7100000000000000000000000000000000000000000000000000000000 PUSH1 0x0 MSTORE PUSH1 0x22 PUSH1 0x4 MSTORE PUSH1 0x24 PUSH1 0x0 REVERT JUMPDEST PUSH32 0x4E487B7100000000000000000000000000000000000000000000000000000000 PUSH1 0x0 MSTORE PUSH1 0x41 PUSH1 0x4 MSTORE PUSH1 0x24 PUSH1 0x0 REVERT JUMPDEST PUSH1 0x0 DUP1 REVERT JUMPDEST PUSH1 0x0 DUP1 REVERT JUMPDEST PUSH1 0x0 DUP1 REVERT JUMPDEST PUSH1 0x0 DUP1 REVERT JUMPDEST PUSH1 0x0 PUSH1 0x1F NOT PUSH1 0x1F DUP4 ADD AND SWAP1 POP SWAP2 SWAP1 POP JUMP JUMPDEST PUSH3 0x406 DUP2 PUSH3 0x2A2 JUMP JUMPDEST DUP2 EQ PUSH3 0x412 JUMPI PUSH1 0x0 DUP1 REVERT JUMPDEST POP JUMP JUMPDEST PUSH2 0x105B DUP1 PUSH3 0x425 PUSH1 0x0 CODECOPY PUSH1 0x0 RETURN INVALID PUSH1 0x80 PUSH1 0x40 MSTORE CALLVALUE DUP1 ISZERO PUSH2 0x10 JUMPI PUSH1 0x0 DUP1 REVERT JUMPDEST POP PUSH1 0x4 CALLDATASIZE LT PUSH2 0x88 JUMPI PUSH1 0x0 CALLDATALOAD PUSH1 0xE0 SHR DUP1 PUSH4 0x481C6A75 GT PUSH2 0x5B JUMPI DUP1 PUSH4 0x481C6A75 EQ PUSH2 0x117 JUMPI DUP1 PUSH4 0x5D495AEA EQ PUSH2 0x135 JUMPI DUP1 PUSH4 0xA3EC138D EQ PUSH2 0x13F JUMPI DUP1 PUSH4 0xA5134620 EQ PUSH2 0x170 JUMPI PUSH2 0x88 JUMP JUMPDEST DUP1 PUSH4 0x121B93F EQ PUSH2 0x8D JUMPI DUP1 PUSH4 0x13CF08B EQ PUSH2 0xA9 JUMPI DUP1 PUSH4 0x23D1C95E EQ PUSH2 0xDB JUMPI DUP1 PUSH4 0x4051DDAC EQ PUSH2 0xF7 JUMPI JUMPDEST PUSH1 0x0 DUP1 REVERT JUMPDEST PUSH2 0xA7 PUSH1 0x4 DUP1 CALLDATASIZE SUB DUP2 ADD SWAP1 PUSH2 0xA2 SWAP2 SWAP1 PUSH2 0xB42 JUMP JUMPDEST PUSH2 0x18E JUMP JUMPDEST STOP JUMPDEST PUSH2 0xC3 PUSH1 0x4 DUP1 CALLDATASIZE SUB DUP2 ADD SWAP1 PUSH2 0xBE SWAP2 SWAP1 PUSH2 0xB42 JUMP JUMPDEST PUSH2 0x286 JUMP JUMPDEST PUSH1 0x40 MLOAD PUSH2 0xD2 SWAP4 SWAP3 SWAP2 SWAP1 PUSH2 0xCB8 JUMP JUMPDEST PUSH1 0x40 MLOAD DUP1 SWAP2 SUB SWAP1 RETURN JUMPDEST PUSH2 0xF5 PUSH1 0x4 DUP1 CALLDATASIZE SUB DUP2 ADD SWAP1 PUSH2 0xF0 SWAP2 SWAP1 PUSH2 0xACA JUMP JUMPDEST PUSH2 0x3D0 JUMP JUMPDEST STOP JUMPDEST PUSH2 0xFF PUSH2 0x4BF JUMP JUMPDEST PUSH1 0x40 MLOAD PUSH2 0x10E SWAP4 SWAP3 SWAP2 SWAP1 PUSH2 0xD1F JUMP JUMPDEST PUSH1 0x40 MLOAD DUP1 SWAP2 SUB SWAP1 RETURN JUMPDEST PUSH2 0x11F PUSH2 0x585 JUMP JUMPDEST PUSH1 0x40 MLOAD PUSH2 0x12C SWAP2 SWAP1 PUSH2 0xC74 JUMP JUMPDEST PUSH1 0x40 MLOAD DUP1 SWAP2 SUB SWAP1 RETURN JUMPDEST PUSH2 0x13D PUSH2 0x5A9 JUMP JUMPDEST STOP JUMPDEST PUSH2 0x159 PUSH1 0x4 DUP1 CALLDATASIZE SUB DUP2 ADD SWAP1 PUSH2 0x154 SWAP2 SWAP1 PUSH2 0xA9D JUMP JUMPDEST PUSH2 0x706 JUMP JUMPDEST PUSH1 0x40 MLOAD PUSH2 0x167 SWAP3 SWAP2 SWAP1 PUSH2 0xC8F JUMP JUMPDEST PUSH1 0x40 MLOAD DUP1 SWAP2 SUB SWAP1 RETURN JUMPDEST PUSH2 0x178 PUSH2 0x757 JUMP JUMPDEST PUSH1 0x40 MLOAD PUSH2 0x185 SWAP2 SWAP1 PUSH2 0xCFD JUMP JUMPDEST PUSH1 0x40 MLOAD DUP1 SWAP2 SUB SWAP1 RETURN JUMPDEST PUSH1 0x1 PUSH1 0x0 CALLER PUSH20 0xFFFFFFFFFFFFFFFFFFFFFFFFFFFFFFFFFFFFFFFF AND PUSH20 0xFFFFFFFFFFFFFFFFFFFFFFFFFFFFFFFFFFFFFFFF AND DUP2 MSTORE PUSH1 0x20 ADD SWAP1 DUP2 MSTORE PUSH1 0x20 ADD PUSH1 0x0 KECCAK256 PUSH1 0x0 ADD PUSH1 0x14 SWAP1 SLOAD SWAP1 PUSH2 0x100 EXP SWAP1 DIV PUSH1 0xFF AND ISZERO PUSH2 0x1E8 JUMPI PUSH1 0x0 DUP1 REVERT JUMPDEST PUSH1 0x0 PUSH1 0x2 DUP3 DUP2 SLOAD DUP2 LT PUSH2 0x1FE JUMPI PUSH2 0x1FD PUSH2 0xF74 JUMP JUMPDEST JUMPDEST SWAP1 PUSH1 0x0 MSTORE PUSH1 0x20 PUSH1 0x0 KECCAK256 SWAP1 PUSH1 0x3 MUL ADD SWAP1 POP DUP1 PUSH1 0x2 ADD PUSH1 0x0 DUP2 SLOAD DUP1 SWAP3 SWAP2 SWAP1 PUSH2 0x223 SWAP1 PUSH2 0xECD JUMP JUMPDEST SWAP2 SWAP1 POP SSTORE POP PUSH1 0x1 DUP1 PUSH1 0x0 CALLER PUSH20 0xFFFFFFFFFFFFFFFFFFFFFFFFFFFFFFFFFFFFFFFF AND PUSH20 0xFFFFFFFFFFFFFFFFFFFFFFFFFFFFFFFFFFFFFFFF AND DUP2 MSTORE PUSH1 0x20 ADD SWAP1 DUP2 MSTORE PUSH1 0x20 ADD PUSH1 0x0 KECCAK256 PUSH1 0x0 ADD PUSH1 0x14 PUSH2 0x100 EXP DUP2 SLOAD DUP2 PUSH1 0xFF MUL NOT AND SWAP1 DUP4 ISZERO ISZERO MUL OR SWAP1 SSTORE POP POP POP JUMP JUMPDEST PUSH1 0x2 DUP2 DUP2 SLOAD DUP2 LT PUSH2 0x296 JUMPI PUSH1 0x0 DUP1 REVERT JUMPDEST SWAP1 PUSH1 0x0 MSTORE PUSH1 0x20 PUSH1 0x0 KECCAK256 SWAP1 PUSH1 0x3 MUL ADD PUSH1 0x0 SWAP2 POP SWAP1 POP DUP1 PUSH1 0x0 ADD DUP1 SLOAD PUSH2 0x2B9 SWAP1 PUSH2 0xE6A JUMP JUMPDEST DUP1 PUSH1 0x1F ADD PUSH1 0x20 DUP1 SWAP2 DIV MUL PUSH1 0x20 ADD PUSH1 0x40 MLOAD SWAP1 DUP2 ADD PUSH1 0x40 MSTORE DUP1 SWAP3 SWAP2 SWAP1 DUP2 DUP2 MSTORE PUSH1 0x20 ADD DUP3 DUP1 SLOAD PUSH2 0x2E5 SWAP1 PUSH2 0xE6A JUMP JUMPDEST DUP1 ISZERO PUSH2 0x332 JUMPI DUP1 PUSH1 0x1F LT PUSH2 0x307 JUMPI PUSH2 0x100 DUP1 DUP4 SLOAD DIV MUL DUP4 MSTORE SWAP2 PUSH1 0x20 ADD SWAP2 PUSH2 0x332 JUMP JUMPDEST DUP3 ADD SWAP2 SWAP1 PUSH1 0x0 MSTORE PUSH1 0x20 PUSH1 0x0 KECCAK256 SWAP1 JUMPDEST DUP2 SLOAD DUP2 MSTORE SWAP1 PUSH1 0x1 ADD SWAP1 PUSH1 0x20 ADD DUP1 DUP4 GT PUSH2 0x315 JUMPI DUP3 SWAP1 SUB PUSH1 0x1F AND DUP3 ADD SWAP2 JUMPDEST POP POP POP POP POP SWAP1 DUP1 PUSH1 0x1 ADD DUP1 SLOAD PUSH2 0x347 SWAP1 PUSH2 0xE6A JUMP JUMPDEST DUP1 PUSH1 0x1F ADD PUSH1 0x20 DUP1 SWAP2 DIV MUL PUSH1 0x20 ADD PUSH1 0x40 MLOAD SWAP1 DUP2 ADD PUSH1 0x40 MSTORE DUP1 SWAP3 SWAP2 SWAP1 DUP2 DUP2 MSTORE PUSH1 0x20 ADD DUP3 DUP1 SLOAD PUSH2 0x373 SWAP1 PUSH2 0xE6A JUMP JUMPDEST DUP1 ISZERO PUSH2 0x3C0 JUMPI DUP1 PUSH1 0x1F LT PUSH2 0x395 JUMPI PUSH2 0x100 DUP1 DUP4 SLOAD DIV MUL DUP4 MSTORE SWAP2 PUSH1 0x20 ADD SWAP2 PUSH2 0x3C0 JUMP JUMPDEST DUP3 ADD SWAP2 SWAP1 PUSH1 0x0 MSTORE PUSH1 0x20 PUSH1 0x0 KECCAK256 SWAP1 JUMPDEST DUP2 SLOAD DUP2 MSTORE SWAP1 PUSH1 0x1 ADD SWAP1 PUSH1 0x20 ADD DUP1 DUP4 GT PUSH2 0x3A3 JUMPI DUP3 SWAP1 SUB PUSH1 0x1F AND DUP3 ADD SWAP2 JUMPDEST POP POP POP POP POP SWAP1 DUP1 PUSH1 0x2 ADD SLOAD SWAP1 POP DUP4 JUMP JUMPDEST PUSH1 0x0 DUP1 SLOAD SWAP1 PUSH2 0x100 EXP SWAP1 DIV PUSH20 0xFFFFFFFFFFFFFFFFFFFFFFFFFFFFFFFFFFFFFFFF AND PUSH20 0xFFFFFFFFFFFFFFFFFFFFFFFFFFFFFFFFFFFFFFFF AND CALLER PUSH20 0xFFFFFFFFFFFFFFFFFFFFFFFFFFFFFFFFFFFFFFFF AND EQ PUSH2 0x428 JUMPI PUSH1 0x0 DUP1 REVERT JUMPDEST PUSH1 0x0 PUSH1 0x40 MLOAD DUP1 PUSH1 0x60 ADD PUSH1 0x40 MSTORE DUP1 DUP5 DUP2 MSTORE PUSH1 0x20 ADD DUP4 DUP2 MSTORE PUSH1 0x20 ADD PUSH1 0x0 DUP2 MSTORE POP SWAP1 POP PUSH1 0x2 DUP2 SWAP1 DUP1 PUSH1 0x1 DUP2 SLOAD ADD DUP1 DUP3 SSTORE DUP1 SWAP2 POP POP PUSH1 0x1 SWAP1 SUB SWAP1 PUSH1 0x0 MSTORE PUSH1 0x20 PUSH1 0x0 KECCAK256 SWAP1 PUSH1 0x3 MUL ADD PUSH1 0x0 SWAP1 SWAP2 SWAP1 SWAP2 SWAP1 SWAP2 POP PUSH1 0x0 DUP3 ADD MLOAD DUP2 PUSH1 0x0 ADD SWAP1 DUP1 MLOAD SWAP1 PUSH1 0x20 ADD SWAP1 PUSH2 0x490 SWAP3 SWAP2 SWAP1 PUSH2 0x8B2 JUMP JUMPDEST POP PUSH1 0x20 DUP3 ADD MLOAD DUP2 PUSH1 0x1 ADD SWAP1 DUP1 MLOAD SWAP1 PUSH1 0x20 ADD SWAP1 PUSH2 0x4AD SWAP3 SWAP2 SWAP1 PUSH2 0x8B2 JUMP JUMPDEST POP PUSH1 0x40 DUP3 ADD MLOAD DUP2 PUSH1 0x2 ADD SSTORE POP POP POP POP POP JUMP JUMPDEST PUSH1 0x0 PUSH1 0x60 PUSH1 0x0 PUSH1 0x2 DUP1 SLOAD SWAP1 POP PUSH1 0x6 PUSH1 0x0 DUP1 SLOAD SWAP1 PUSH2 0x100 EXP SWAP1 DIV PUSH20 0xFFFFFFFFFFFFFFFFFFFFFFFFFFFFFFFFFFFFFFFF AND DUP2 DUP1 SLOAD PUSH2 0x4FA SWAP1 PUSH2 0xE6A JUMP JUMPDEST DUP1 PUSH1 0x1F ADD PUSH1 0x20 DUP1 SWAP2 DIV MUL PUSH1 0x20 ADD PUSH1 0x40 MLOAD SWAP1 DUP2 ADD PUSH1 0x40 MSTORE DUP1 SWAP3 SWAP2 SWAP1 DUP2 DUP2 MSTORE PUSH1 0x20 ADD DUP3 DUP1 SLOAD PUSH2 0x526 SWAP1 PUSH2 0xE6A JUMP JUMPDEST DUP1 ISZERO PUSH2 0x573 JUMPI DUP1 PUSH1 0x1F LT PUSH2 0x548 JUMPI PUSH2 0x100 DUP1 DUP4 SLOAD DIV MUL DUP4 MSTORE SWAP2 PUSH1 0x20 ADD SWAP2 PUSH2 0x573 JUMP JUMPDEST DUP3 ADD SWAP2 SWAP1 PUSH1 0x0 MSTORE PUSH1 0x20 PUSH1 0x0 KECCAK256 SWAP1 JUMPDEST DUP2 SLOAD DUP2 MSTORE SWAP1 PUSH1 0x1 ADD SWAP1 PUSH1 0x20 ADD DUP1 DUP4 GT PUSH2 0x556 JUMPI DUP3 SWAP1 SUB PUSH1 0x1F AND DUP3 ADD SWAP2 JUMPDEST POP POP POP POP POP SWAP2 POP SWAP3 POP SWAP3 POP SWAP3 POP SWAP1 SWAP2 SWAP3 JUMP JUMPDEST PUSH1 0x0 DUP1 SLOAD SWAP1 PUSH2 0x100 EXP SWAP1 DIV PUSH20 0xFFFFFFFFFFFFFFFFFFFFFFFFFFFFFFFFFFFFFFFF AND DUP2 JUMP JUMPDEST PUSH1 0x0 DUP1 SLOAD SWAP1 PUSH2 0x100 EXP SWAP1 DIV PUSH20 0xFFFFFFFFFFFFFFFFFFFFFFFFFFFFFFFFFFFFFFFF AND PUSH20 0xFFFFFFFFFFFFFFFFFFFFFFFFFFFFFFFFFFFFFFFF AND CALLER PUSH20 0xFFFFFFFFFFFFFFFFFFFFFFFFFFFFFFFFFFFFFFFF AND EQ PUSH2 0x601 JUMPI PUSH1 0x0 DUP1 REVERT JUMPDEST PUSH1 0x0 DUP1 DUP1 PUSH1 0x0 SWAP1 POP JUMPDEST PUSH1 0x2 DUP1 SLOAD SWAP1 POP DUP2 LT ISZERO PUSH2 0x683 JUMPI DUP3 PUSH1 0x2 DUP3 DUP2 SLOAD DUP2 LT PUSH2 0x62C JUMPI PUSH2 0x62B PUSH2 0xF74 JUMP JUMPDEST JUMPDEST SWAP1 PUSH1 0x0 MSTORE PUSH1 0x20 PUSH1 0x0 KECCAK256 SWAP1 PUSH1 0x3 MUL ADD PUSH1 0x2 ADD SLOAD GT ISZERO PUSH2 0x670 JUMPI PUSH1 0x2 DUP2 DUP2 SLOAD DUP2 LT PUSH2 0x658 JUMPI PUSH2 0x657 PUSH2 0xF74 JUMP JUMPDEST JUMPDEST SWAP1 PUSH1 0x0 MSTORE PUSH1 0x20 PUSH1 0x0 KECCAK256 SWAP1 PUSH1 0x3 MUL ADD PUSH1 0x2 ADD SLOAD SWAP3 POP DUP1 SWAP2 POP JUMPDEST DUP1 DUP1 PUSH2 0x67B SWAP1 PUSH2 0xECD JUMP JUMPDEST SWAP2 POP POP PUSH2 0x60A JUMP JUMPDEST POP PUSH1 0x0 DUP3 GT PUSH2 0x691 JUMPI PUSH1 0x0 DUP1 REVERT JUMPDEST PUSH1 0x2 DUP2 DUP2 SLOAD DUP2 LT PUSH2 0x6A5 JUMPI PUSH2 0x6A4 PUSH2 0xF74 JUMP JUMPDEST JUMPDEST SWAP1 PUSH1 0x0 MSTORE PUSH1 0x20 PUSH1 0x0 KECCAK256 SWAP1 PUSH1 0x3 MUL ADD PUSH1 0x3 PUSH1 0x0 DUP3 ADD DUP2 PUSH1 0x0 ADD SWAP1 DUP1 SLOAD PUSH2 0x6C9 SWAP1 PUSH2 0xE6A JUMP JUMPDEST PUSH2 0x6D4 SWAP3 SWAP2 SWAP1 PUSH2 0x938 JUMP JUMPDEST POP PUSH1 0x1 DUP3 ADD DUP2 PUSH1 0x1 ADD SWAP1 DUP1 SLOAD PUSH2 0x6E9 SWAP1 PUSH2 0xE6A JUMP JUMPDEST PUSH2 0x6F4 SWAP3 SWAP2 SWAP1 PUSH2 0x938 JUMP JUMPDEST POP PUSH1 0x2 DUP3 ADD SLOAD DUP2 PUSH1 0x2 ADD SSTORE SWAP1 POP POP POP POP JUMP JUMPDEST PUSH1 0x1 PUSH1 0x20 MSTORE DUP1 PUSH1 0x0 MSTORE PUSH1 0x40 PUSH1 0x0 KECCAK256 PUSH1 0x0 SWAP2 POP SWAP1 POP DUP1 PUSH1 0x0 ADD PUSH1 0x0 SWAP1 SLOAD SWAP1 PUSH2 0x100 EXP SWAP1 DIV PUSH20 0xFFFFFFFFFFFFFFFFFFFFFFFFFFFFFFFFFFFFFFFF AND SWAP1 DUP1 PUSH1 0x0 ADD PUSH1 0x14 SWAP1 SLOAD SWAP1 PUSH2 0x100 EXP SWAP1 DIV PUSH1 0xFF AND SWAP1 POP DUP3 JUMP JUMPDEST PUSH2 0x75F PUSH2 0x9C5 JUMP JUMPDEST PUSH1 0x0 PUSH1 0x3 PUSH1 0x2 ADD SLOAD EQ ISZERO PUSH2 0x772 JUMPI PUSH1 0x0 DUP1 REVERT JUMPDEST PUSH1 0x3 PUSH1 0x40 MLOAD DUP1 PUSH1 0x60 ADD PUSH1 0x40 MSTORE SWAP1 DUP2 PUSH1 0x0 DUP3 ADD DUP1 SLOAD PUSH2 0x78F SWAP1 PUSH2 0xE6A JUMP JUMPDEST DUP1 PUSH1 0x1F ADD PUSH1 0x20 DUP1 SWAP2 DIV MUL PUSH1 0x20 ADD PUSH1 0x40 MLOAD SWAP1 DUP2 ADD PUSH1 0x40 MSTORE DUP1 SWAP3 SWAP2 SWAP1 DUP2 DUP2 MSTORE PUSH1 0x20 ADD DUP3 DUP1 SLOAD PUSH2 0x7BB SWAP1 PUSH2 0xE6A JUMP JUMPDEST DUP1 ISZERO PUSH2 0x808 JUMPI DUP1 PUSH1 0x1F LT PUSH2 0x7DD JUMPI PUSH2 0x100 DUP1 DUP4 SLOAD DIV MUL DUP4 MSTORE SWAP2 PUSH1 0x20 ADD SWAP2 PUSH2 0x808 JUMP JUMPDEST DUP3 ADD SWAP2 SWAP1 PUSH1 0x0 MSTORE PUSH1 0x20 PUSH1 0x0 KECCAK256 SWAP1 JUMPDEST DUP2 SLOAD DUP2 MSTORE SWAP1 PUSH1 0x1 ADD SWAP1 PUSH1 0x20 ADD DUP1 DUP4 GT PUSH2 0x7EB JUMPI DUP3 SWAP1 SUB PUSH1 0x1F AND DUP3 ADD SWAP2 JUMPDEST POP POP POP POP POP DUP2 MSTORE PUSH1 0x20 ADD PUSH1 0x1 DUP3 ADD DUP1 SLOAD PUSH2 0x821 SWAP1 PUSH2 0xE6A JUMP JUMPDEST DUP1 PUSH1 0x1F ADD PUSH1 0x20 DUP1 SWAP2 DIV MUL PUSH1 0x20 ADD PUSH1 0x40 MLOAD SWAP1 DUP2 ADD PUSH1 0x40 MSTORE DUP1 SWAP3 SWAP2 SWAP1 DUP2 DUP2 MSTORE PUSH1 0x20 ADD DUP3 DUP1 SLOAD PUSH2 0x84D SWAP1 PUSH2 0xE6A JUMP JUMPDEST DUP1 ISZERO PUSH2 0x89A JUMPI DUP1 PUSH1 0x1F LT PUSH2 0x86F JUMPI PUSH2 0x100 DUP1 DUP4 SLOAD DIV MUL DUP4 MSTORE SWAP2 PUSH1 0x20 ADD SWAP2 PUSH2 0x89A JUMP JUMPDEST DUP3 ADD SWAP2 SWAP1 PUSH1 0x0 MSTORE PUSH1 0x20 PUSH1 0x0 KECCAK256 SWAP1 JUMPDEST DUP2 SLOAD DUP2 MSTORE SWAP1 PUSH1 0x1 ADD SWAP1 PUSH1 0x20 ADD DUP1 DUP4 GT PUSH2 0x87D JUMPI DUP3 SWAP1 SUB PUSH1 0x1F AND DUP3 ADD SWAP2 JUMPDEST POP POP POP POP POP DUP2 MSTORE PUSH1 0x20 ADD PUSH1 0x2 DUP3 ADD SLOAD DUP2 MSTORE POP POP SWAP1 POP SWAP1 JUMP JUMPDEST DUP3 DUP1 SLOAD PUSH2 0x8BE SWAP1 PUSH2 0xE6A JUMP JUMPDEST SWAP1 PUSH1 0x0 MSTORE PUSH1 0x20 PUSH1 0x0 KECCAK256 SWAP1 PUSH1 0x1F ADD PUSH1 0x20 SWAP1 DIV DUP2 ADD SWAP3 DUP3 PUSH2 0x8E0 JUMPI PUSH1 0x0 DUP6 SSTORE PUSH2 0x927 JUMP JUMPDEST DUP3 PUSH1 0x1F LT PUSH2 0x8F9 JUMPI DUP1 MLOAD PUSH1 0xFF NOT AND DUP4 DUP1 ADD OR DUP6 SSTORE PUSH2 0x927 JUMP JUMPDEST DUP3 DUP1 ADD PUSH1 0x1 ADD DUP6 SSTORE DUP3 ISZERO PUSH2 0x927 JUMPI SWAP2 DUP3 ADD JUMPDEST DUP3 DUP2 GT ISZERO PUSH2 0x926 JUMPI DUP3 MLOAD DUP3 SSTORE SWAP2 PUSH1 0x20 ADD SWAP2 SWAP1 PUSH1 0x1 ADD SWAP1 PUSH2 0x90B JUMP JUMPDEST JUMPDEST POP SWAP1 POP PUSH2 0x934 SWAP2 SWAP1 PUSH2 0x9E6 JUMP JUMPDEST POP SWAP1 JUMP JUMPDEST DUP3 DUP1 SLOAD PUSH2 0x944 SWAP1 PUSH2 0xE6A JUMP JUMPDEST SWAP1 PUSH1 0x0 MSTORE PUSH1 0x20 PUSH1 0x0 KECCAK256 SWAP1 PUSH1 0x1F ADD PUSH1 0x20 SWAP1 DIV DUP2 ADD SWAP3 DUP3 PUSH2 0x966 JUMPI PUSH1 0x0 DUP6 SSTORE PUSH2 0x9B4 JUMP JUMPDEST DUP3 PUSH1 0x1F LT PUSH2 0x977 JUMPI DUP1 SLOAD DUP6 SSTORE PUSH2 0x9B4 JUMP JUMPDEST DUP3 DUP1 ADD PUSH1 0x1 ADD DUP6 SSTORE DUP3 ISZERO PUSH2 0x9B4 JUMPI PUSH1 0x0 MSTORE PUSH1 0x20 PUSH1 0x0 KECCAK256 SWAP2 PUSH1 0x1F ADD PUSH1 0x20 SWAP1 DIV DUP3 ADD JUMPDEST DUP3 DUP2 GT ISZERO PUSH2 0x9B3 JUMPI DUP3 SLOAD DUP3 SSTORE SWAP2 PUSH1 0x1 ADD SWAP2 SWAP1 PUSH1 0x1 ADD SWAP1 PUSH2 0x998 JUMP JUMPDEST JUMPDEST POP SWAP1 POP PUSH2 0x9C1 SWAP2 SWAP1 PUSH2 0x9E6 JUMP JUMPDEST POP SWAP1 JUMP JUMPDEST PUSH1 0x40 MLOAD DUP1 PUSH1 0x60 ADD PUSH1 0x40 MSTORE DUP1 PUSH1 0x60 DUP2 MSTORE PUSH1 0x20 ADD PUSH1 0x60 DUP2 MSTORE PUSH1 0x20 ADD PUSH1 0x0 DUP2 MSTORE POP SWAP1 JUMP JUMPDEST JUMPDEST DUP1 DUP3 GT ISZERO PUSH2 0x9FF JUMPI PUSH1 0x0 DUP2 PUSH1 0x0 SWAP1 SSTORE POP PUSH1 0x1 ADD PUSH2 0x9E7 JUMP JUMPDEST POP SWAP1 JUMP JUMPDEST PUSH1 0x0 PUSH2 0xA16 PUSH2 0xA11 DUP5 PUSH2 0xD82 JUMP JUMPDEST PUSH2 0xD5D JUMP JUMPDEST SWAP1 POP DUP3 DUP2 MSTORE PUSH1 0x20 DUP2 ADD DUP5 DUP5 DUP5 ADD GT ISZERO PUSH2 0xA32 JUMPI PUSH2 0xA31 PUSH2 0xFD7 JUMP JUMPDEST JUMPDEST PUSH2 0xA3D DUP5 DUP3 DUP6 PUSH2 0xE28 JUMP JUMPDEST POP SWAP4 SWAP3 POP POP POP JUMP JUMPDEST PUSH1 0x0 DUP2 CALLDATALOAD SWAP1 POP PUSH2 0xA54 DUP2 PUSH2 0xFF7 JUMP JUMPDEST SWAP3 SWAP2 POP POP JUMP JUMPDEST PUSH1 0x0 DUP3 PUSH1 0x1F DUP4 ADD SLT PUSH2 0xA6F JUMPI PUSH2 0xA6E PUSH2 0xFD2 JUMP JUMPDEST JUMPDEST DUP2 CALLDATALOAD PUSH2 0xA7F DUP5 DUP3 PUSH1 0x20 DUP7 ADD PUSH2 0xA03 JUMP JUMPDEST SWAP2 POP POP SWAP3 SWAP2 POP POP JUMP JUMPDEST PUSH1 0x0 DUP2 CALLDATALOAD SWAP1 POP PUSH2 0xA97 DUP2 PUSH2 0x100E JUMP JUMPDEST SWAP3 SWAP2 POP POP JUMP JUMPDEST PUSH1 0x0 PUSH1 0x20 DUP3 DUP5 SUB SLT ISZERO PUSH2 0xAB3 JUMPI PUSH2 0xAB2 PUSH2 0xFE1 JUMP JUMPDEST JUMPDEST PUSH1 0x0 PUSH2 0xAC1 DUP5 DUP3 DUP6 ADD PUSH2 0xA45 JUMP JUMPDEST SWAP2 POP POP SWAP3 SWAP2 POP POP JUMP JUMPDEST PUSH1 0x0 DUP1 PUSH1 0x40 DUP4 DUP6 SUB SLT ISZERO PUSH2 0xAE1 JUMPI PUSH2 0xAE0 PUSH2 0xFE1 JUMP JUMPDEST JUMPDEST PUSH1 0x0 DUP4 ADD CALLDATALOAD PUSH8 0xFFFFFFFFFFFFFFFF DUP2 GT ISZERO PUSH2 0xAFF JUMPI PUSH2 0xAFE PUSH2 0xFDC JUMP JUMPDEST JUMPDEST PUSH2 0xB0B DUP6 DUP3 DUP7 ADD PUSH2 0xA5A JUMP JUMPDEST SWAP3 POP POP PUSH1 0x20 DUP4 ADD CALLDATALOAD PUSH8 0xFFFFFFFFFFFFFFFF DUP2 GT ISZERO PUSH2 0xB2C JUMPI PUSH2 0xB2B PUSH2 0xFDC JUMP JUMPDEST JUMPDEST PUSH2 0xB38 DUP6 DUP3 DUP7 ADD PUSH2 0xA5A JUMP JUMPDEST SWAP2 POP POP SWAP3 POP SWAP3 SWAP1 POP JUMP JUMPDEST PUSH1 0x0 PUSH1 0x20 DUP3 DUP5 SUB SLT ISZERO PUSH2 0xB58 JUMPI PUSH2 0xB57 PUSH2 0xFE1 JUMP JUMPDEST JUMPDEST PUSH1 0x0 PUSH2 0xB66 DUP5 DUP3 DUP6 ADD PUSH2 0xA88 JUMP JUMPDEST SWAP2 POP POP SWAP3 SWAP2 POP POP JUMP JUMPDEST PUSH2 0xB78 DUP2 PUSH2 0xDE0 JUMP JUMPDEST DUP3 MSTORE POP POP JUMP JUMPDEST PUSH2 0xB87 DUP2 PUSH2 0xDF2 JUMP JUMPDEST DUP3 MSTORE POP POP JUMP JUMPDEST PUSH1 0x0 PUSH2 0xB98 DUP3 PUSH2 0xDB3 JUMP JUMPDEST PUSH2 0xBA2 DUP2 DUP6 PUSH2 0xDBE JUMP JUMPDEST SWAP4 POP PUSH2 0xBB2 DUP2 DUP6 PUSH1 0x20 DUP7 ADD PUSH2 0xE37 JUMP JUMPDEST PUSH2 0xBBB DUP2 PUSH2 0xFE6 JUMP JUMPDEST DUP5 ADD SWAP2 POP POP SWAP3 SWAP2 POP POP JUMP JUMPDEST PUSH1 0x0 PUSH2 0xBD1 DUP3 PUSH2 0xDB3 JUMP JUMPDEST PUSH2 0xBDB DUP2 DUP6 PUSH2 0xDCF JUMP JUMPDEST SWAP4 POP PUSH2 0xBEB DUP2 DUP6 PUSH1 0x20 DUP7 ADD PUSH2 0xE37 JUMP JUMPDEST PUSH2 0xBF4 DUP2 PUSH2 0xFE6 JUMP JUMPDEST DUP5 ADD SWAP2 POP POP SWAP3 SWAP2 POP POP JUMP JUMPDEST PUSH1 0x0 PUSH1 0x60 DUP4 ADD PUSH1 0x0 DUP4 ADD MLOAD DUP5 DUP3 SUB PUSH1 0x0 DUP7 ADD MSTORE PUSH2 0xC1C DUP3 DUP3 PUSH2 0xB8D JUMP JUMPDEST SWAP2 POP POP PUSH1 0x20 DUP4 ADD MLOAD DUP5 DUP3 SUB PUSH1 0x20 DUP7 ADD MSTORE PUSH2 0xC36 DUP3 DUP3 PUSH2 0xB8D JUMP JUMPDEST SWAP2 POP POP PUSH1 0x40 DUP4 ADD MLOAD PUSH2 0xC4B PUSH1 0x40 DUP7 ADD DUP3 PUSH2 0xC56 JUMP JUMPDEST POP DUP1 SWAP2 POP POP SWAP3 SWAP2 POP POP JUMP JUMPDEST PUSH2 0xC5F DUP2 PUSH2 0xE1E JUMP JUMPDEST DUP3 MSTORE POP POP JUMP JUMPDEST PUSH2 0xC6E DUP2 PUSH2 0xE1E JUMP JUMPDEST DUP3 MSTORE POP POP JUMP JUMPDEST PUSH1 0x0 PUSH1 0x20 DUP3 ADD SWAP1 POP PUSH2 0xC89 PUSH1 0x0 DUP4 ADD DUP5 PUSH2 0xB6F JUMP JUMPDEST SWAP3 SWAP2 POP POP JUMP JUMPDEST PUSH1 0x0 PUSH1 0x40 DUP3 ADD SWAP1 POP PUSH2 0xCA4 PUSH1 0x0 DUP4 ADD DUP6 PUSH2 0xB6F JUMP JUMPDEST PUSH2 0xCB1 PUSH1 0x20 DUP4 ADD DUP5 PUSH2 0xB7E JUMP JUMPDEST SWAP4 SWAP3 POP POP POP JUMP JUMPDEST PUSH1 0x0 PUSH1 0x60 DUP3 ADD SWAP1 POP DUP2 DUP2 SUB PUSH1 0x0 DUP4 ADD MSTORE PUSH2 0xCD2 DUP2 DUP7 PUSH2 0xBC6 JUMP JUMPDEST SWAP1 POP DUP2 DUP2 SUB PUSH1 0x20 DUP4 ADD MSTORE PUSH2 0xCE6 DUP2 DUP6 PUSH2 0xBC6 JUMP JUMPDEST SWAP1 POP PUSH2 0xCF5 PUSH1 0x40 DUP4 ADD DUP5 PUSH2 0xC65 JUMP JUMPDEST SWAP5 SWAP4 POP POP POP POP JUMP JUMPDEST PUSH1 0x0 PUSH1 0x20 DUP3 ADD SWAP1 POP DUP2 DUP2 SUB PUSH1 0x0 DUP4 ADD MSTORE PUSH2 0xD17 DUP2 DUP5 PUSH2 0xBFF JUMP JUMPDEST SWAP1 POP SWAP3 SWAP2 POP POP JUMP JUMPDEST PUSH1 0x0 PUSH1 0x60 DUP3 ADD SWAP1 POP PUSH2 0xD34 PUSH1 0x0 DUP4 ADD DUP7 PUSH2 0xC65 JUMP JUMPDEST DUP2 DUP2 SUB PUSH1 0x20 DUP4 ADD MSTORE PUSH2 0xD46 DUP2 DUP6 PUSH2 0xBC6 JUMP JUMPDEST SWAP1 POP PUSH2 0xD55 PUSH1 0x40 DUP4 ADD DUP5 PUSH2 0xB6F JUMP JUMPDEST SWAP5 SWAP4 POP POP POP POP JUMP JUMPDEST PUSH1 0x0 PUSH2 0xD67 PUSH2 0xD78 JUMP JUMPDEST SWAP1 POP PUSH2 0xD73 DUP3 DUP3 PUSH2 0xE9C JUMP JUMPDEST SWAP2 SWAP1 POP JUMP JUMPDEST PUSH1 0x0 PUSH1 0x40 MLOAD SWAP1 POP SWAP1 JUMP JUMPDEST PUSH1 0x0 PUSH8 0xFFFFFFFFFFFFFFFF DUP3 GT ISZERO PUSH2 0xD9D JUMPI PUSH2 0xD9C PUSH2 0xFA3 JUMP JUMPDEST JUMPDEST PUSH2 0xDA6 DUP3 PUSH2 0xFE6 JUMP JUMPDEST SWAP1 POP PUSH1 0x20 DUP2 ADD SWAP1 POP SWAP2 SWAP1 POP JUMP JUMPDEST PUSH1 0x0 DUP2 MLOAD SWAP1 POP SWAP2 SWAP1 POP JUMP JUMPDEST PUSH1 0x0 DUP3 DUP3 MSTORE PUSH1 0x20 DUP3 ADD SWAP1 POP SWAP3 SWAP2 POP POP JUMP JUMPDEST PUSH1 0x0 DUP3 DUP3 MSTORE PUSH1 0x20 DUP3 ADD SWAP1 POP SWAP3 SWAP2 POP POP JUMP JUMPDEST PUSH1 0x0 PUSH2 0xDEB DUP3 PUSH2 0xDFE JUMP JUMPDEST SWAP1 POP SWAP2 SWAP1 POP JUMP JUMPDEST PUSH1 0x0 DUP2 ISZERO ISZERO SWAP1 POP SWAP2 SWAP1 POP JUMP JUMPDEST PUSH1 0x0 PUSH20 0xFFFFFFFFFFFFFFFFFFFFFFFFFFFFFFFFFFFFFFFF DUP3 AND SWAP1 POP SWAP2 SWAP1 POP JUMP JUMPDEST PUSH1 0x0 DUP2 SWAP1 POP SWAP2 SWAP1 POP JUMP JUMPDEST DUP3 DUP2 DUP4 CALLDATACOPY PUSH1 0x0 DUP4 DUP4 ADD MSTORE POP POP POP JUMP JUMPDEST PUSH1 0x0 JUMPDEST DUP4 DUP2 LT ISZERO PUSH2 0xE55 JUMPI DUP1 DUP3 ADD MLOAD DUP2 DUP5 ADD MSTORE PUSH1 0x20 DUP2 ADD SWAP1 POP PUSH2 0xE3A JUMP JUMPDEST DUP4 DUP2 GT ISZERO PUSH2 0xE64 JUMPI PUSH1 0x0 DUP5 DUP5 ADD MSTORE JUMPDEST POP POP POP POP JUMP JUMPDEST PUSH1 0x0 PUSH1 0x2 DUP3 DIV SWAP1 POP PUSH1 0x1 DUP3 AND DUP1 PUSH2 0xE82 JUMPI PUSH1 0x7F DUP3 AND SWAP2 POP JUMPDEST PUSH1 0x20 DUP3 LT DUP2 EQ ISZERO PUSH2 0xE96 JUMPI PUSH2 0xE95 PUSH2 0xF45 JUMP JUMPDEST JUMPDEST POP SWAP2 SWAP1 POP JUMP JUMPDEST PUSH2 0xEA5 DUP3 PUSH2 0xFE6 JUMP JUMPDEST DUP2 ADD DUP2 DUP2 LT PUSH8 0xFFFFFFFFFFFFFFFF DUP3 GT OR ISZERO PUSH2 0xEC4 JUMPI PUSH2 0xEC3 PUSH2 0xFA3 JUMP JUMPDEST JUMPDEST DUP1 PUSH1 0x40 MSTORE POP POP POP JUMP JUMPDEST PUSH1 0x0 PUSH2 0xED8 DUP3 PUSH2 0xE1E JUMP JUMPDEST SWAP2 POP PUSH32 0xFFFFFFFFFFFFFFFFFFFFFFFFFFFFFFFFFFFFFFFFFFFFFFFFFFFFFFFFFFFFFFFF DUP3 EQ ISZERO PUSH2 0xF0B JUMPI PUSH2 0xF0A PUSH2 0xF16 JUMP JUMPDEST JUMPDEST PUSH1 0x1 DUP3 ADD SWAP1 POP SWAP2 SWAP1 POP JUMP JUMPDEST PUSH32 0x4E487B7100000000000000000000000000000000000000000000000000000000 PUSH1 0x0 MSTORE PUSH1 0x11 PUSH1 0x4 MSTORE PUSH1 0x24 PUSH1 0x0 REVERT JUMPDEST PUSH32 0x4E487B7100000000000000000000000000000000000000000000000000000000 PUSH1 0x0 MSTORE PUSH1 0x22 PUSH1 0x4 MSTORE PUSH1 0x24 PUSH1 0x0 REVERT JUMPDEST PUSH32 0x4E487B7100000000000000000000000000000000000000000000000000000000 PUSH1 0x0 MSTORE PUSH1 0x32 PUSH1 0x4 MSTORE PUSH1 0x24 PUSH1 0x0 REVERT JUMPDEST PUSH32 0x4E487B7100000000000000000000000000000000000000000000000000000000 PUSH1 0x0 MSTORE PUSH1 0x41 PUSH1 0x4 MSTORE PUSH1 0x24 PUSH1 0x0 REVERT JUMPDEST PUSH1 0x0 DUP1 REVERT JUMPDEST PUSH1 0x0 DUP1 REVERT JUMPDEST PUSH1 0x0 DUP1 REVERT JUMPDEST PUSH1 0x0 DUP1 REVERT JUMPDEST PUSH1 0x0 PUSH1 0x1F NOT PUSH1 0x1F DUP4 ADD AND SWAP1 POP SWAP2 SWAP1 POP JUMP JUMPDEST PUSH2 0x1000 DUP2 PUSH2 0xDE0 JUMP JUMPDEST DUP2 EQ PUSH2 0x100B JUMPI PUSH1 0x0 DUP1 REVERT JUMPDEST POP JUMP JUMPDEST PUSH2 0x1017 DUP2 PUSH2 0xE1E JUMP JUMPDEST DUP2 EQ PUSH2 0x1022 JUMPI PUSH1 0x0 DUP1 REVERT JUMPDEST POP JUMP INVALID LOG2 PUSH5 0x6970667358 0x22 SLT KECCAK256 PUSH24 0xFAE9A11690588C171621A6C4236C15447A01DB0EBD3DFF4E PUSH28 0x9116EEBDEFA664736F6C63430008070033A2646970667358221220A9 JUMPI EXTCODEHASH CALLER 0xD8 0xAA 0xBD 0xFC 0xC PUSH3 0x320D03 CALL 0xEA PUSH10 0x323F29760369F74708F6 0xB2 POP 0x1F CREATE2 DUP2 SIGNEXTEND PUSH5 0x736F6C6343 STOP ADDMOD SMOD STOP CALLER "
    },
    "gasEstimates": {
      "creation": {
        "codeDepositCost": "1397600",
        "executionCost": "1458",
        "totalCost": "1399058"
      },
      "external": {
        "createElection(string)": "infinite",
        "deployedElections(uint256)": "4978",
        "getDeployedElections()": "infinite"
      }
    },
    "methodIdentifiers": {
      "createElection(string)": "15cf4a5f",
      "deployedElections(uint256)": "f18b4f8e",
      "getDeployedElections()": "ca306594"
    }
  },
  "storageLayout": {
    "storage": [
      {
        "astId": 4,
        "contract": "Election.sol:ElectionFactory",
        "label": "deployedElections",
        "offset": 0,
        "slot": "0",
        "type": "t_array(t_address)dyn_storage"
      }
    ],
    "types": {
      "t_address": {
        "encoding": "inplace",
        "label": "address",
        "numberOfBytes": "20"
      },
      "t_array(t_address)dyn_storage": {
        "base": "t_address",
        "encoding": "dynamic_array",
        "label": "address[]",
        "numberOfBytes": "32"
      }
    }
  },
  "userdoc": {
    "kind": "user",
    "methods": {},
    "version": 1
  }
}