{
  "abi": [
    {
      "inputs": [
        {
          "internalType": "string",
          "name": "_name",
          "type": "string"
        },
        {
          "internalType": "address",
          "name": "creator",
          "type": "address"
        }
      ],
      "stateMutability": "nonpayable",
      "type": "constructor"
    },
    {
      "inputs": [
        {
          "internalType": "string",
          "name": "_name",
          "type": "string"
        },
        {
          "internalType": "string",
          "name": "_description",
          "type": "string"
        }
      ],
      "name": "addProposal",
      "outputs": [],
      "stateMutability": "nonpayable",
      "type": "function"
    },
    {
      "inputs": [],
      "name": "getWinningProposal",
      "outputs": [
        {
          "components": [
            {
              "internalType": "string",
              "name": "name",
              "type": "string"
            },
            {
              "internalType": "string",
              "name": "description",
              "type": "string"
            },
            {
              "internalType": "uint256",
              "name": "voteCount",
              "type": "uint256"
            }
          ],
          "internalType": "struct Election.Proposal",
          "name": "",
          "type": "tuple"
        }
      ],
      "stateMutability": "view",
      "type": "function"
    },
    {
      "inputs": [],
      "name": "manager",
      "outputs": [
        {
          "internalType": "address",
          "name": "",
          "type": "address"
        }
      ],
      "stateMutability": "view",
      "type": "function"
    },
    {
      "inputs": [],
      "name": "pickWinner",
      "outputs": [],
      "stateMutability": "nonpayable",
      "type": "function"
    },
    {
      "inputs": [
        {
          "internalType": "uint256",
          "name": "",
          "type": "uint256"
        }
      ],
      "name": "proposals",
      "outputs": [
        {
          "internalType": "string",
          "name": "name",
          "type": "string"
        },
        {
          "internalType": "string",
          "name": "description",
          "type": "string"
        },
        {
          "internalType": "uint256",
          "name": "voteCount",
          "type": "uint256"
        }
      ],
      "stateMutability": "view",
      "type": "function"
    },
    {
      "inputs": [
        {
          "internalType": "uint256",
          "name": "index",
          "type": "uint256"
        }
      ],
      "name": "vote",
      "outputs": [],
      "stateMutability": "nonpayable",
      "type": "function"
    },
    {
      "inputs": [
        {
          "internalType": "address",
          "name": "",
          "type": "address"
        }
      ],
      "name": "voters",
      "outputs": [
        {
          "internalType": "address",
          "name": "delegate",
          "type": "address"
        },
        {
          "internalType": "bool",
          "name": "voted",
          "type": "bool"
        }
      ],
      "stateMutability": "view",
      "type": "function"
    }
  ],
  "devdoc": {
    "kind": "dev",
    "methods": {
      "addProposal(string,string)": {
        "details": "Add a proposal to be voted on in the election.",
        "params": {
          "_name": "name of the proposal _description description of the proposal.*"
        }
      },
      "getWinningProposal()": {
        "details": "Return information about the winner",
        "returns": {
          "_0": "returns the winning proposal*"
        }
      },
      "pickWinner()": {
        "details": "Pick winner out of the proposals*"
      },
      "vote(uint256)": {
        "details": "Vote on a proposal",
        "params": {
          "index": "index of proposal to give vote*"
        }
      }
    },
    "version": 1
  },
  "evm": {
    "assembly": "    /* \"Election.sol\":426:2643  contract Election {\r... */\n  mstore(0x40, 0x80)\n    /* \"Election.sol\":919:1028  constructor(string memory _name, address creator) {\r... */\n  callvalue\n  dup1\n  iszero\n  tag_1\n  jumpi\n  0x00\n  dup1\n  revert\ntag_1:\n  pop\n  mload(0x40)\n  sub(codesize, bytecodeSize)\n  dup1\n  bytecodeSize\n  dup4\n  codecopy\n  dup2\n  dup2\n  add\n  0x40\n  mstore\n  dup2\n  add\n  swap1\n  tag_2\n  swap2\n  swap1\n  tag_3\n  jump\t// in\ntag_2:\n    /* \"Election.sol\":990:997  creator */\n  dup1\n    /* \"Election.sol\":980:987  manager */\n  0x00\n  dup1\n    /* \"Election.sol\":980:997  manager = creator */\n  0x0100\n  exp\n  dup2\n  sload\n  dup2\n  0xffffffffffffffffffffffffffffffffffffffff\n  mul\n  not\n  and\n  swap1\n  dup4\n  0xffffffffffffffffffffffffffffffffffffffff\n  and\n  mul\n  or\n  swap1\n  sstore\n  pop\n    /* \"Election.sol\":1015:1020  _name */\n  dup2\n    /* \"Election.sol\":1008:1012  name */\n  0x06\n    /* \"Election.sol\":1008:1020  name = _name */\n  swap1\n  dup1\n  mload\n  swap1\n  0x20\n  add\n  swap1\n  tag_6\n  swap3\n  swap2\n  swap1\n  tag_7\n  jump\t// in\ntag_6:\n  pop\n    /* \"Election.sol\":919:1028  constructor(string memory _name, address creator) {\r... */\n  pop\n  pop\n    /* \"Election.sol\":426:2643  contract Election {\r... */\n  jump(tag_8)\ntag_7:\n  dup3\n  dup1\n  sload\n  tag_9\n  swap1\n  tag_10\n  jump\t// in\ntag_9:\n  swap1\n  0x00\n  mstore\n  keccak256(0x00, 0x20)\n  swap1\n  0x1f\n  add\n  0x20\n  swap1\n  div\n  dup2\n  add\n  swap3\n  dup3\n  tag_12\n  jumpi\n  0x00\n  dup6\n  sstore\n  jump(tag_11)\ntag_12:\n  dup3\n  0x1f\n  lt\n  tag_13\n  jumpi\n  dup1\n  mload\n  not(0xff)\n  and\n  dup4\n  dup1\n  add\n  or\n  dup6\n  sstore\n  jump(tag_11)\ntag_13:\n  dup3\n  dup1\n  add\n  0x01\n  add\n  dup6\n  sstore\n  dup3\n  iszero\n  tag_11\n  jumpi\n  swap2\n  dup3\n  add\ntag_14:\n  dup3\n  dup2\n  gt\n  iszero\n  tag_15\n  jumpi\n  dup3\n  mload\n  dup3\n  sstore\n  swap2\n  0x20\n  add\n  swap2\n  swap1\n  0x01\n  add\n  swap1\n  jump(tag_14)\ntag_15:\ntag_11:\n  pop\n  swap1\n  pop\n  tag_16\n  swap2\n  swap1\n  tag_17\n  jump\t// in\ntag_16:\n  pop\n  swap1\n  jump\t// out\ntag_17:\ntag_18:\n  dup1\n  dup3\n  gt\n  iszero\n  tag_19\n  jumpi\n  0x00\n  dup2\n  0x00\n  swap1\n  sstore\n  pop\n  0x01\n  add\n  jump(tag_18)\ntag_19:\n  pop\n  swap1\n  jump\t// out\n    /* \"#utility.yul\":7:428   */\ntag_21:\n    /* \"#utility.yul\":96:101   */\n  0x00\n    /* \"#utility.yul\":121:187   */\n  tag_23\n    /* \"#utility.yul\":137:186   */\n  tag_24\n    /* \"#utility.yul\":179:185   */\n  dup5\n    /* \"#utility.yul\":137:186   */\n  tag_25\n  jump\t// in\ntag_24:\n    /* \"#utility.yul\":121:187   */\n  tag_26\n  jump\t// in\ntag_23:\n    /* \"#utility.yul\":112:187   */\n  swap1\n  pop\n    /* \"#utility.yul\":210:216   */\n  dup3\n    /* \"#utility.yul\":203:208   */\n  dup2\n    /* \"#utility.yul\":196:217   */\n  mstore\n    /* \"#utility.yul\":248:252   */\n  0x20\n    /* \"#utility.yul\":241:246   */\n  dup2\n    /* \"#utility.yul\":237:253   */\n  add\n    /* \"#utility.yul\":286:289   */\n  dup5\n    /* \"#utility.yul\":277:283   */\n  dup5\n    /* \"#utility.yul\":272:275   */\n  dup5\n    /* \"#utility.yul\":268:284   */\n  add\n    /* \"#utility.yul\":265:290   */\n  gt\n    /* \"#utility.yul\":262:374   */\n  iszero\n  tag_27\n  jumpi\n    /* \"#utility.yul\":293:372   */\n  tag_28\n  tag_29\n  jump\t// in\ntag_28:\n    /* \"#utility.yul\":262:374   */\ntag_27:\n    /* \"#utility.yul\":383:422   */\n  tag_30\n    /* \"#utility.yul\":415:421   */\n  dup5\n    /* \"#utility.yul\":410:413   */\n  dup3\n    /* \"#utility.yul\":405:408   */\n  dup6\n    /* \"#utility.yul\":383:422   */\n  tag_31\n  jump\t// in\ntag_30:\n    /* \"#utility.yul\":102:428   */\n  pop\n    /* \"#utility.yul\":7:428   */\n  swap4\n  swap3\n  pop\n  pop\n  pop\n  jump\t// out\n    /* \"#utility.yul\":434:577   */\ntag_32:\n    /* \"#utility.yul\":491:496   */\n  0x00\n    /* \"#utility.yul\":522:528   */\n  dup2\n    /* \"#utility.yul\":516:529   */\n  mload\n    /* \"#utility.yul\":507:529   */\n  swap1\n  pop\n    /* \"#utility.yul\":538:571   */\n  tag_34\n    /* \"#utility.yul\":565:570   */\n  dup2\n    /* \"#utility.yul\":538:571   */\n  tag_35\n  jump\t// in\ntag_34:\n    /* \"#utility.yul\":434:577   */\n  swap3\n  swap2\n  pop\n  pop\n  jump\t// out\n    /* \"#utility.yul\":597:952   */\ntag_36:\n    /* \"#utility.yul\":664:669   */\n  0x00\n    /* \"#utility.yul\":713:716   */\n  dup3\n    /* \"#utility.yul\":706:710   */\n  0x1f\n    /* \"#utility.yul\":698:704   */\n  dup4\n    /* \"#utility.yul\":694:711   */\n  add\n    /* \"#utility.yul\":690:717   */\n  slt\n    /* \"#utility.yul\":680:802   */\n  tag_38\n  jumpi\n    /* \"#utility.yul\":721:800   */\n  tag_39\n  tag_40\n  jump\t// in\ntag_39:\n    /* \"#utility.yul\":680:802   */\ntag_38:\n    /* \"#utility.yul\":831:837   */\n  dup2\n    /* \"#utility.yul\":825:838   */\n  mload\n    /* \"#utility.yul\":856:946   */\n  tag_41\n    /* \"#utility.yul\":942:945   */\n  dup5\n    /* \"#utility.yul\":934:940   */\n  dup3\n    /* \"#utility.yul\":927:931   */\n  0x20\n    /* \"#utility.yul\":919:925   */\n  dup7\n    /* \"#utility.yul\":915:932   */\n  add\n    /* \"#utility.yul\":856:946   */\n  tag_21\n  jump\t// in\ntag_41:\n    /* \"#utility.yul\":847:946   */\n  swap2\n  pop\n    /* \"#utility.yul\":670:952   */\n  pop\n    /* \"#utility.yul\":597:952   */\n  swap3\n  swap2\n  pop\n  pop\n  jump\t// out\n    /* \"#utility.yul\":958:1638   */\ntag_3:\n    /* \"#utility.yul\":1047:1053   */\n  0x00\n    /* \"#utility.yul\":1055:1061   */\n  dup1\n    /* \"#utility.yul\":1104:1106   */\n  0x40\n    /* \"#utility.yul\":1092:1101   */\n  dup4\n    /* \"#utility.yul\":1083:1090   */\n  dup6\n    /* \"#utility.yul\":1079:1102   */\n  sub\n    /* \"#utility.yul\":1075:1107   */\n  slt\n    /* \"#utility.yul\":1072:1191   */\n  iszero\n  tag_43\n  jumpi\n    /* \"#utility.yul\":1110:1189   */\n  tag_44\n  tag_45\n  jump\t// in\ntag_44:\n    /* \"#utility.yul\":1072:1191   */\ntag_43:\n    /* \"#utility.yul\":1251:1252   */\n  0x00\n    /* \"#utility.yul\":1240:1249   */\n  dup4\n    /* \"#utility.yul\":1236:1253   */\n  add\n    /* \"#utility.yul\":1230:1254   */\n  mload\n    /* \"#utility.yul\":1281:1299   */\n  0xffffffffffffffff\n    /* \"#utility.yul\":1273:1279   */\n  dup2\n    /* \"#utility.yul\":1270:1300   */\n  gt\n    /* \"#utility.yul\":1267:1384   */\n  iszero\n  tag_46\n  jumpi\n    /* \"#utility.yul\":1303:1382   */\n  tag_47\n  tag_48\n  jump\t// in\ntag_47:\n    /* \"#utility.yul\":1267:1384   */\ntag_46:\n    /* \"#utility.yul\":1408:1482   */\n  tag_49\n    /* \"#utility.yul\":1474:1481   */\n  dup6\n    /* \"#utility.yul\":1465:1471   */\n  dup3\n    /* \"#utility.yul\":1454:1463   */\n  dup7\n    /* \"#utility.yul\":1450:1472   */\n  add\n    /* \"#utility.yul\":1408:1482   */\n  tag_36\n  jump\t// in\ntag_49:\n    /* \"#utility.yul\":1398:1482   */\n  swap3\n  pop\n    /* \"#utility.yul\":1201:1492   */\n  pop\n    /* \"#utility.yul\":1531:1533   */\n  0x20\n    /* \"#utility.yul\":1557:1621   */\n  tag_50\n    /* \"#utility.yul\":1613:1620   */\n  dup6\n    /* \"#utility.yul\":1604:1610   */\n  dup3\n    /* \"#utility.yul\":1593:1602   */\n  dup7\n    /* \"#utility.yul\":1589:1611   */\n  add\n    /* \"#utility.yul\":1557:1621   */\n  tag_32\n  jump\t// in\ntag_50:\n    /* \"#utility.yul\":1547:1621   */\n  swap2\n  pop\n    /* \"#utility.yul\":1502:1631   */\n  pop\n    /* \"#utility.yul\":958:1638   */\n  swap3\n  pop\n  swap3\n  swap1\n  pop\n  jump\t// out\n    /* \"#utility.yul\":1644:1773   */\ntag_26:\n    /* \"#utility.yul\":1678:1684   */\n  0x00\n    /* \"#utility.yul\":1705:1725   */\n  tag_52\n  tag_53\n  jump\t// in\ntag_52:\n    /* \"#utility.yul\":1695:1725   */\n  swap1\n  pop\n    /* \"#utility.yul\":1734:1767   */\n  tag_54\n    /* \"#utility.yul\":1762:1766   */\n  dup3\n    /* \"#utility.yul\":1754:1760   */\n  dup3\n    /* \"#utility.yul\":1734:1767   */\n  tag_55\n  jump\t// in\ntag_54:\n    /* \"#utility.yul\":1644:1773   */\n  swap2\n  swap1\n  pop\n  jump\t// out\n    /* \"#utility.yul\":1779:1854   */\ntag_53:\n    /* \"#utility.yul\":1812:1818   */\n  0x00\n    /* \"#utility.yul\":1845:1847   */\n  0x40\n    /* \"#utility.yul\":1839:1848   */\n  mload\n    /* \"#utility.yul\":1829:1848   */\n  swap1\n  pop\n    /* \"#utility.yul\":1779:1854   */\n  swap1\n  jump\t// out\n    /* \"#utility.yul\":1860:2168   */\ntag_25:\n    /* \"#utility.yul\":1922:1926   */\n  0x00\n    /* \"#utility.yul\":2012:2030   */\n  0xffffffffffffffff\n    /* \"#utility.yul\":2004:2010   */\n  dup3\n    /* \"#utility.yul\":2001:2031   */\n  gt\n    /* \"#utility.yul\":1998:2054   */\n  iszero\n  tag_58\n  jumpi\n    /* \"#utility.yul\":2034:2052   */\n  tag_59\n  tag_60\n  jump\t// in\ntag_59:\n    /* \"#utility.yul\":1998:2054   */\ntag_58:\n    /* \"#utility.yul\":2072:2101   */\n  tag_61\n    /* \"#utility.yul\":2094:2100   */\n  dup3\n    /* \"#utility.yul\":2072:2101   */\n  tag_62\n  jump\t// in\ntag_61:\n    /* \"#utility.yul\":2064:2101   */\n  swap1\n  pop\n    /* \"#utility.yul\":2156:2160   */\n  0x20\n    /* \"#utility.yul\":2150:2154   */\n  dup2\n    /* \"#utility.yul\":2146:2161   */\n  add\n    /* \"#utility.yul\":2138:2161   */\n  swap1\n  pop\n    /* \"#utility.yul\":1860:2168   */\n  swap2\n  swap1\n  pop\n  jump\t// out\n    /* \"#utility.yul\":2174:2270   */\ntag_63:\n    /* \"#utility.yul\":2211:2218   */\n  0x00\n    /* \"#utility.yul\":2240:2264   */\n  tag_65\n    /* \"#utility.yul\":2258:2263   */\n  dup3\n    /* \"#utility.yul\":2240:2264   */\n  tag_66\n  jump\t// in\ntag_65:\n    /* \"#utility.yul\":2229:2264   */\n  swap1\n  pop\n    /* \"#utility.yul\":2174:2270   */\n  swap2\n  swap1\n  pop\n  jump\t// out\n    /* \"#utility.yul\":2276:2402   */\ntag_66:\n    /* \"#utility.yul\":2313:2320   */\n  0x00\n    /* \"#utility.yul\":2353:2395   */\n  0xffffffffffffffffffffffffffffffffffffffff\n    /* \"#utility.yul\":2346:2351   */\n  dup3\n    /* \"#utility.yul\":2342:2396   */\n  and\n    /* \"#utility.yul\":2331:2396   */\n  swap1\n  pop\n    /* \"#utility.yul\":2276:2402   */\n  swap2\n  swap1\n  pop\n  jump\t// out\n    /* \"#utility.yul\":2408:2715   */\ntag_31:\n    /* \"#utility.yul\":2476:2477   */\n  0x00\n    /* \"#utility.yul\":2486:2599   */\ntag_69:\n    /* \"#utility.yul\":2500:2506   */\n  dup4\n    /* \"#utility.yul\":2497:2498   */\n  dup2\n    /* \"#utility.yul\":2494:2507   */\n  lt\n    /* \"#utility.yul\":2486:2599   */\n  iszero\n  tag_71\n  jumpi\n    /* \"#utility.yul\":2585:2586   */\n  dup1\n    /* \"#utility.yul\":2580:2583   */\n  dup3\n    /* \"#utility.yul\":2576:2587   */\n  add\n    /* \"#utility.yul\":2570:2588   */\n  mload\n    /* \"#utility.yul\":2566:2567   */\n  dup2\n    /* \"#utility.yul\":2561:2564   */\n  dup5\n    /* \"#utility.yul\":2557:2568   */\n  add\n    /* \"#utility.yul\":2550:2589   */\n  mstore\n    /* \"#utility.yul\":2522:2524   */\n  0x20\n    /* \"#utility.yul\":2519:2520   */\n  dup2\n    /* \"#utility.yul\":2515:2525   */\n  add\n    /* \"#utility.yul\":2510:2525   */\n  swap1\n  pop\n    /* \"#utility.yul\":2486:2599   */\n  jump(tag_69)\ntag_71:\n    /* \"#utility.yul\":2617:2623   */\n  dup4\n    /* \"#utility.yul\":2614:2615   */\n  dup2\n    /* \"#utility.yul\":2611:2624   */\n  gt\n    /* \"#utility.yul\":2608:2709   */\n  iszero\n  tag_72\n  jumpi\n    /* \"#utility.yul\":2697:2698   */\n  0x00\n    /* \"#utility.yul\":2688:2694   */\n  dup5\n    /* \"#utility.yul\":2683:2686   */\n  dup5\n    /* \"#utility.yul\":2679:2695   */\n  add\n    /* \"#utility.yul\":2672:2699   */\n  mstore\n    /* \"#utility.yul\":2608:2709   */\ntag_72:\n    /* \"#utility.yul\":2457:2715   */\n  pop\n    /* \"#utility.yul\":2408:2715   */\n  pop\n  pop\n  pop\n  jump\t// out\n    /* \"#utility.yul\":2721:3041   */\ntag_10:\n    /* \"#utility.yul\":2765:2771   */\n  0x00\n    /* \"#utility.yul\":2802:2803   */\n  0x02\n    /* \"#utility.yul\":2796:2800   */\n  dup3\n    /* \"#utility.yul\":2792:2804   */\n  div\n    /* \"#utility.yul\":2782:2804   */\n  swap1\n  pop\n    /* \"#utility.yul\":2849:2850   */\n  0x01\n    /* \"#utility.yul\":2843:2847   */\n  dup3\n    /* \"#utility.yul\":2839:2851   */\n  and\n    /* \"#utility.yul\":2870:2888   */\n  dup1\n    /* \"#utility.yul\":2860:2941   */\n  tag_74\n  jumpi\n    /* \"#utility.yul\":2926:2930   */\n  0x7f\n    /* \"#utility.yul\":2918:2924   */\n  dup3\n    /* \"#utility.yul\":2914:2931   */\n  and\n    /* \"#utility.yul\":2904:2931   */\n  swap2\n  pop\n    /* \"#utility.yul\":2860:2941   */\ntag_74:\n    /* \"#utility.yul\":2988:2990   */\n  0x20\n    /* \"#utility.yul\":2980:2986   */\n  dup3\n    /* \"#utility.yul\":2977:2991   */\n  lt\n    /* \"#utility.yul\":2957:2975   */\n  dup2\n    /* \"#utility.yul\":2954:2992   */\n  eq\n    /* \"#utility.yul\":2951:3035   */\n  iszero\n  tag_75\n  jumpi\n    /* \"#utility.yul\":3007:3025   */\n  tag_76\n  tag_77\n  jump\t// in\ntag_76:\n    /* \"#utility.yul\":2951:3035   */\ntag_75:\n    /* \"#utility.yul\":2772:3041   */\n  pop\n    /* \"#utility.yul\":2721:3041   */\n  swap2\n  swap1\n  pop\n  jump\t// out\n    /* \"#utility.yul\":3047:3328   */\ntag_55:\n    /* \"#utility.yul\":3130:3157   */\n  tag_79\n    /* \"#utility.yul\":3152:3156   */\n  dup3\n    /* \"#utility.yul\":3130:3157   */\n  tag_62\n  jump\t// in\ntag_79:\n    /* \"#utility.yul\":3122:3128   */\n  dup2\n    /* \"#utility.yul\":3118:3158   */\n  add\n    /* \"#utility.yul\":3260:3266   */\n  dup2\n    /* \"#utility.yul\":3248:3258   */\n  dup2\n    /* \"#utility.yul\":3245:3267   */\n  lt\n    /* \"#utility.yul\":3224:3242   */\n  0xffffffffffffffff\n    /* \"#utility.yul\":3212:3222   */\n  dup3\n    /* \"#utility.yul\":3209:3243   */\n  gt\n    /* \"#utility.yul\":3206:3268   */\n  or\n    /* \"#utility.yul\":3203:3291   */\n  iszero\n  tag_80\n  jumpi\n    /* \"#utility.yul\":3271:3289   */\n  tag_81\n  tag_60\n  jump\t// in\ntag_81:\n    /* \"#utility.yul\":3203:3291   */\ntag_80:\n    /* \"#utility.yul\":3311:3321   */\n  dup1\n    /* \"#utility.yul\":3307:3309   */\n  0x40\n    /* \"#utility.yul\":3300:3322   */\n  mstore\n    /* \"#utility.yul\":3090:3328   */\n  pop\n    /* \"#utility.yul\":3047:3328   */\n  pop\n  pop\n  jump\t// out\n    /* \"#utility.yul\":3334:3514   */\ntag_77:\n    /* \"#utility.yul\":3382:3459   */\n  0x4e487b7100000000000000000000000000000000000000000000000000000000\n    /* \"#utility.yul\":3379:3380   */\n  0x00\n    /* \"#utility.yul\":3372:3460   */\n  mstore\n    /* \"#utility.yul\":3479:3483   */\n  0x22\n    /* \"#utility.yul\":3476:3477   */\n  0x04\n    /* \"#utility.yul\":3469:3484   */\n  mstore\n    /* \"#utility.yul\":3503:3507   */\n  0x24\n    /* \"#utility.yul\":3500:3501   */\n  0x00\n    /* \"#utility.yul\":3493:3508   */\n  revert\n    /* \"#utility.yul\":3520:3700   */\ntag_60:\n    /* \"#utility.yul\":3568:3645   */\n  0x4e487b7100000000000000000000000000000000000000000000000000000000\n    /* \"#utility.yul\":3565:3566   */\n  0x00\n    /* \"#utility.yul\":3558:3646   */\n  mstore\n    /* \"#utility.yul\":3665:3669   */\n  0x41\n    /* \"#utility.yul\":3662:3663   */\n  0x04\n    /* \"#utility.yul\":3655:3670   */\n  mstore\n    /* \"#utility.yul\":3689:3693   */\n  0x24\n    /* \"#utility.yul\":3686:3687   */\n  0x00\n    /* \"#utility.yul\":3679:3694   */\n  revert\n    /* \"#utility.yul\":3706:3823   */\ntag_40:\n    /* \"#utility.yul\":3815:3816   */\n  0x00\n    /* \"#utility.yul\":3812:3813   */\n  dup1\n    /* \"#utility.yul\":3805:3817   */\n  revert\n    /* \"#utility.yul\":3829:3946   */\ntag_29:\n    /* \"#utility.yul\":3938:3939   */\n  0x00\n    /* \"#utility.yul\":3935:3936   */\n  dup1\n    /* \"#utility.yul\":3928:3940   */\n  revert\n    /* \"#utility.yul\":3952:4069   */\ntag_48:\n    /* \"#utility.yul\":4061:4062   */\n  0x00\n    /* \"#utility.yul\":4058:4059   */\n  dup1\n    /* \"#utility.yul\":4051:4063   */\n  revert\n    /* \"#utility.yul\":4075:4192   */\ntag_45:\n    /* \"#utility.yul\":4184:4185   */\n  0x00\n    /* \"#utility.yul\":4181:4182   */\n  dup1\n    /* \"#utility.yul\":4174:4186   */\n  revert\n    /* \"#utility.yul\":4198:4300   */\ntag_62:\n    /* \"#utility.yul\":4239:4245   */\n  0x00\n    /* \"#utility.yul\":4290:4292   */\n  0x1f\n    /* \"#utility.yul\":4286:4293   */\n  not\n    /* \"#utility.yul\":4281:4283   */\n  0x1f\n    /* \"#utility.yul\":4274:4279   */\n  dup4\n    /* \"#utility.yul\":4270:4284   */\n  add\n    /* \"#utility.yul\":4266:4294   */\n  and\n    /* \"#utility.yul\":4256:4294   */\n  swap1\n  pop\n    /* \"#utility.yul\":4198:4300   */\n  swap2\n  swap1\n  pop\n  jump\t// out\n    /* \"#utility.yul\":4306:4428   */\ntag_35:\n    /* \"#utility.yul\":4379:4403   */\n  tag_90\n    /* \"#utility.yul\":4397:4402   */\n  dup2\n    /* \"#utility.yul\":4379:4403   */\n  tag_63\n  jump\t// in\ntag_90:\n    /* \"#utility.yul\":4372:4377   */\n  dup2\n    /* \"#utility.yul\":4369:4404   */\n  eq\n    /* \"#utility.yul\":4359:4422   */\n  tag_91\n  jumpi\n    /* \"#utility.yul\":4418:4419   */\n  0x00\n    /* \"#utility.yul\":4415:4416   */\n  dup1\n    /* \"#utility.yul\":4408:4420   */\n  revert\n    /* \"#utility.yul\":4359:4422   */\ntag_91:\n    /* \"#utility.yul\":4306:4428   */\n  pop\n  jump\t// out\n    /* \"Election.sol\":426:2643  contract Election {\r... */\ntag_8:\n  dataSize(sub_0)\n  dup1\n  dataOffset(sub_0)\n  0x00\n  codecopy\n  0x00\n  return\nstop\n\nsub_0: assembly {\n        /* \"Election.sol\":426:2643  contract Election {\r... */\n      mstore(0x40, 0x80)\n      callvalue\n      dup1\n      iszero\n      tag_1\n      jumpi\n      0x00\n      dup1\n      revert\n    tag_1:\n      pop\n      jumpi(tag_2, lt(calldatasize, 0x04))\n      shr(0xe0, calldataload(0x00))\n      dup1\n      0x481c6a75\n      gt\n      tag_10\n      jumpi\n      dup1\n      0x481c6a75\n      eq\n      tag_6\n      jumpi\n      dup1\n      0x5d495aea\n      eq\n      tag_7\n      jumpi\n      dup1\n      0xa3ec138d\n      eq\n      tag_8\n      jumpi\n      dup1\n      0xa5134620\n      eq\n      tag_9\n      jumpi\n      jump(tag_2)\n    tag_10:\n      dup1\n      0x0121b93f\n      eq\n      tag_3\n      jumpi\n      dup1\n      0x013cf08b\n      eq\n      tag_4\n      jumpi\n      dup1\n      0x23d1c95e\n      eq\n      tag_5\n      jumpi\n    tag_2:\n      0x00\n      dup1\n      revert\n        /* \"Election.sol\":1606:1820  function vote(uint index) public {\r... */\n    tag_3:\n      tag_11\n      0x04\n      dup1\n      calldatasize\n      sub\n      dup2\n      add\n      swap1\n      tag_12\n      swap2\n      swap1\n      tag_13\n      jump\t// in\n    tag_12:\n      tag_14\n      jump\t// in\n    tag_11:\n      stop\n        /* \"Election.sol\":719:746  Proposal[] public proposals */\n    tag_4:\n      tag_15\n      0x04\n      dup1\n      calldatasize\n      sub\n      dup2\n      add\n      swap1\n      tag_16\n      swap2\n      swap1\n      tag_13\n      jump\t// in\n    tag_16:\n      tag_17\n      jump\t// in\n    tag_15:\n      mload(0x40)\n      tag_18\n      swap4\n      swap3\n      swap2\n      swap1\n      tag_19\n      jump\t// in\n    tag_18:\n      mload(0x40)\n      dup1\n      swap2\n      sub\n      swap1\n      return\n        /* \"Election.sol\":1203:1492  function addProposal(string memory _name, string memory _description) public restricted {\r... */\n    tag_5:\n      tag_20\n      0x04\n      dup1\n      calldatasize\n      sub\n      dup2\n      add\n      swap1\n      tag_21\n      swap2\n      swap1\n      tag_22\n      jump\t// in\n    tag_21:\n      tag_23\n      jump\t// in\n    tag_20:\n      stop\n        /* \"Election.sol\":644:666  address public manager */\n    tag_6:\n      tag_24\n      tag_25\n      jump\t// in\n    tag_24:\n      mload(0x40)\n      tag_26\n      swap2\n      swap1\n      tag_27\n      jump\t// in\n    tag_26:\n      mload(0x40)\n      dup1\n      swap2\n      sub\n      swap1\n      return\n        /* \"Election.sol\":1896:2358  function pickWinner() public restricted {\r... */\n    tag_7:\n      tag_28\n      tag_29\n      jump\t// in\n    tag_28:\n      stop\n        /* \"Election.sol\":673:712  mapping(address => Voter) public voters */\n    tag_8:\n      tag_30\n      0x04\n      dup1\n      calldatasize\n      sub\n      dup2\n      add\n      swap1\n      tag_31\n      swap2\n      swap1\n      tag_32\n      jump\t// in\n    tag_31:\n      tag_33\n      jump\t// in\n    tag_30:\n      mload(0x40)\n      tag_34\n      swap3\n      swap2\n      swap1\n      tag_35\n      jump\t// in\n    tag_34:\n      mload(0x40)\n      dup1\n      swap2\n      sub\n      swap1\n      return\n        /* \"Election.sol\":2476:2634  function getWinningProposal() public view returns(Proposal memory) {\r... */\n    tag_9:\n      tag_36\n      tag_37\n      jump\t// in\n    tag_36:\n      mload(0x40)\n      tag_38\n      swap2\n      swap1\n      tag_39\n      jump\t// in\n    tag_38:\n      mload(0x40)\n      dup1\n      swap2\n      sub\n      swap1\n      return\n        /* \"Election.sol\":1606:1820  function vote(uint index) public {\r... */\n    tag_14:\n        /* \"Election.sol\":1659:1665  voters */\n      0x01\n        /* \"Election.sol\":1659:1677  voters[msg.sender] */\n      0x00\n        /* \"Election.sol\":1666:1676  msg.sender */\n      caller\n        /* \"Election.sol\":1659:1677  voters[msg.sender] */\n      0xffffffffffffffffffffffffffffffffffffffff\n      and\n      0xffffffffffffffffffffffffffffffffffffffff\n      and\n      dup2\n      mstore\n      0x20\n      add\n      swap1\n      dup2\n      mstore\n      0x20\n      add\n      0x00\n      keccak256\n        /* \"Election.sol\":1659:1683  voters[msg.sender].voted */\n      0x00\n      add\n      0x14\n      swap1\n      sload\n      swap1\n      0x0100\n      exp\n      swap1\n      div\n      0xff\n      and\n        /* \"Election.sol\":1658:1683  !voters[msg.sender].voted */\n      iszero\n        /* \"Election.sol\":1650:1684  require(!voters[msg.sender].voted) */\n      tag_41\n      jumpi\n      0x00\n      dup1\n      revert\n    tag_41:\n        /* \"Election.sol\":1695:1720  Proposal storage proposal */\n      0x00\n        /* \"Election.sol\":1723:1732  proposals */\n      0x02\n        /* \"Election.sol\":1733:1738  index */\n      dup3\n        /* \"Election.sol\":1723:1739  proposals[index] */\n      dup2\n      sload\n      dup2\n      lt\n      tag_42\n      jumpi\n      tag_43\n      tag_44\n      jump\t// in\n    tag_43:\n    tag_42:\n      swap1\n      0x00\n      mstore\n      keccak256(0x00, 0x20)\n      swap1\n      0x03\n      mul\n      add\n        /* \"Election.sol\":1695:1739  Proposal storage proposal = proposals[index] */\n      swap1\n      pop\n        /* \"Election.sol\":1750:1758  proposal */\n      dup1\n        /* \"Election.sol\":1750:1768  proposal.voteCount */\n      0x02\n      add\n      0x00\n        /* \"Election.sol\":1750:1770  proposal.voteCount++ */\n      dup2\n      sload\n      dup1\n      swap3\n      swap2\n      swap1\n      tag_46\n      swap1\n      tag_47\n      jump\t// in\n    tag_46:\n      swap2\n      swap1\n      pop\n      sstore\n      pop\n        /* \"Election.sol\":1808:1812  true */\n      0x01\n        /* \"Election.sol\":1781:1787  voters */\n      dup1\n        /* \"Election.sol\":1781:1799  voters[msg.sender] */\n      0x00\n        /* \"Election.sol\":1788:1798  msg.sender */\n      caller\n        /* \"Election.sol\":1781:1799  voters[msg.sender] */\n      0xffffffffffffffffffffffffffffffffffffffff\n      and\n      0xffffffffffffffffffffffffffffffffffffffff\n      and\n      dup2\n      mstore\n      0x20\n      add\n      swap1\n      dup2\n      mstore\n      0x20\n      add\n      0x00\n      keccak256\n        /* \"Election.sol\":1781:1805  voters[msg.sender].voted */\n      0x00\n      add\n      0x14\n        /* \"Election.sol\":1781:1812  voters[msg.sender].voted = true */\n      0x0100\n      exp\n      dup2\n      sload\n      dup2\n      0xff\n      mul\n      not\n      and\n      swap1\n      dup4\n      iszero\n      iszero\n      mul\n      or\n      swap1\n      sstore\n      pop\n        /* \"Election.sol\":1639:1820  {\r... */\n      pop\n        /* \"Election.sol\":1606:1820  function vote(uint index) public {\r... */\n      pop\n      jump\t// out\n        /* \"Election.sol\":719:746  Proposal[] public proposals */\n    tag_17:\n      0x02\n      dup2\n      dup2\n      sload\n      dup2\n      lt\n      tag_48\n      jumpi\n      0x00\n      dup1\n      revert\n    tag_48:\n      swap1\n      0x00\n      mstore\n      keccak256(0x00, 0x20)\n      swap1\n      0x03\n      mul\n      add\n      0x00\n      swap2\n      pop\n      swap1\n      pop\n      dup1\n      0x00\n      add\n      dup1\n      sload\n      tag_50\n      swap1\n      tag_51\n      jump\t// in\n    tag_50:\n      dup1\n      0x1f\n      add\n      0x20\n      dup1\n      swap2\n      div\n      mul\n      0x20\n      add\n      mload(0x40)\n      swap1\n      dup2\n      add\n      0x40\n      mstore\n      dup1\n      swap3\n      swap2\n      swap1\n      dup2\n      dup2\n      mstore\n      0x20\n      add\n      dup3\n      dup1\n      sload\n      tag_52\n      swap1\n      tag_51\n      jump\t// in\n    tag_52:\n      dup1\n      iszero\n      tag_53\n      jumpi\n      dup1\n      0x1f\n      lt\n      tag_54\n      jumpi\n      0x0100\n      dup1\n      dup4\n      sload\n      div\n      mul\n      dup4\n      mstore\n      swap2\n      0x20\n      add\n      swap2\n      jump(tag_53)\n    tag_54:\n      dup3\n      add\n      swap2\n      swap1\n      0x00\n      mstore\n      keccak256(0x00, 0x20)\n      swap1\n    tag_55:\n      dup2\n      sload\n      dup2\n      mstore\n      swap1\n      0x01\n      add\n      swap1\n      0x20\n      add\n      dup1\n      dup4\n      gt\n      tag_55\n      jumpi\n      dup3\n      swap1\n      sub\n      0x1f\n      and\n      dup3\n      add\n      swap2\n    tag_53:\n      pop\n      pop\n      pop\n      pop\n      pop\n      swap1\n      dup1\n      0x01\n      add\n      dup1\n      sload\n      tag_56\n      swap1\n      tag_51\n      jump\t// in\n    tag_56:\n      dup1\n      0x1f\n      add\n      0x20\n      dup1\n      swap2\n      div\n      mul\n      0x20\n      add\n      mload(0x40)\n      swap1\n      dup2\n      add\n      0x40\n      mstore\n      dup1\n      swap3\n      swap2\n      swap1\n      dup2\n      dup2\n      mstore\n      0x20\n      add\n      dup3\n      dup1\n      sload\n      tag_57\n      swap1\n      tag_51\n      jump\t// in\n    tag_57:\n      dup1\n      iszero\n      tag_58\n      jumpi\n      dup1\n      0x1f\n      lt\n      tag_59\n      jumpi\n      0x0100\n      dup1\n      dup4\n      sload\n      div\n      mul\n      dup4\n      mstore\n      swap2\n      0x20\n      add\n      swap2\n      jump(tag_58)\n    tag_59:\n      dup3\n      add\n      swap2\n      swap1\n      0x00\n      mstore\n      keccak256(0x00, 0x20)\n      swap1\n    tag_60:\n      dup2\n      sload\n      dup2\n      mstore\n      swap1\n      0x01\n      add\n      swap1\n      0x20\n      add\n      dup1\n      dup4\n      gt\n      tag_60\n      jumpi\n      dup3\n      swap1\n      sub\n      0x1f\n      and\n      dup3\n      add\n      swap2\n    tag_58:\n      pop\n      pop\n      pop\n      pop\n      pop\n      swap1\n      dup1\n      0x02\n      add\n      sload\n      swap1\n      pop\n      dup4\n      jump\t// out\n        /* \"Election.sol\":1203:1492  function addProposal(string memory _name, string memory _description) public restricted {\r... */\n    tag_23:\n        /* \"Election.sol\":879:886  manager */\n      0x00\n      dup1\n      sload\n      swap1\n      0x0100\n      exp\n      swap1\n      div\n      0xffffffffffffffffffffffffffffffffffffffff\n      and\n        /* \"Election.sol\":865:886  msg.sender == manager */\n      0xffffffffffffffffffffffffffffffffffffffff\n      and\n        /* \"Election.sol\":865:875  msg.sender */\n      caller\n        /* \"Election.sol\":865:886  msg.sender == manager */\n      0xffffffffffffffffffffffffffffffffffffffff\n      and\n      eq\n        /* \"Election.sol\":857:887  require(msg.sender == manager) */\n      tag_62\n      jumpi\n      0x00\n      dup1\n      revert\n    tag_62:\n        /* \"Election.sol\":1302:1329  Proposal memory newProposal */\n      0x00\n        /* \"Election.sol\":1332:1446  Proposal({\r... */\n      mload(0x40)\n      dup1\n      0x60\n      add\n      0x40\n      mstore\n      dup1\n        /* \"Election.sol\":1362:1367  _name */\n      dup5\n        /* \"Election.sol\":1332:1446  Proposal({\r... */\n      dup2\n      mstore\n      0x20\n      add\n        /* \"Election.sol\":1395:1407  _description */\n      dup4\n        /* \"Election.sol\":1332:1446  Proposal({\r... */\n      dup2\n      mstore\n      0x20\n      add\n        /* \"Election.sol\":1433:1434  0 */\n      0x00\n        /* \"Election.sol\":1332:1446  Proposal({\r... */\n      dup2\n      mstore\n      pop\n        /* \"Election.sol\":1302:1446  Proposal memory newProposal = Proposal({\r... */\n      swap1\n      pop\n        /* \"Election.sol\":1457:1466  proposals */\n      0x02\n        /* \"Election.sol\":1472:1483  newProposal */\n      dup2\n        /* \"Election.sol\":1457:1484  proposals.push(newProposal) */\n      swap1\n      dup1\n      0x01\n      dup2\n      sload\n      add\n      dup1\n      dup3\n      sstore\n      dup1\n      swap2\n      pop\n      pop\n      0x01\n      swap1\n      sub\n      swap1\n      0x00\n      mstore\n      keccak256(0x00, 0x20)\n      swap1\n      0x03\n      mul\n      add\n      0x00\n      swap1\n      swap2\n      swap1\n      swap2\n      swap1\n      swap2\n      pop\n      0x00\n      dup3\n      add\n      mload\n      dup2\n      0x00\n      add\n      swap1\n      dup1\n      mload\n      swap1\n      0x20\n      add\n      swap1\n      tag_65\n      swap3\n      swap2\n      swap1\n      tag_66\n      jump\t// in\n    tag_65:\n      pop\n      0x20\n      dup3\n      add\n      mload\n      dup2\n      0x01\n      add\n      swap1\n      dup1\n      mload\n      swap1\n      0x20\n      add\n      swap1\n      tag_67\n      swap3\n      swap2\n      swap1\n      tag_66\n      jump\t// in\n    tag_67:\n      pop\n      0x40\n      dup3\n      add\n      mload\n      dup2\n      0x02\n      add\n      sstore\n      pop\n      pop\n        /* \"Election.sol\":1291:1492  {\r... */\n      pop\n        /* \"Election.sol\":1203:1492  function addProposal(string memory _name, string memory _description) public restricted {\r... */\n      pop\n      pop\n      jump\t// out\n        /* \"Election.sol\":644:666  address public manager */\n    tag_25:\n      0x00\n      dup1\n      sload\n      swap1\n      0x0100\n      exp\n      swap1\n      div\n      0xffffffffffffffffffffffffffffffffffffffff\n      and\n      dup2\n      jump\t// out\n        /* \"Election.sol\":1896:2358  function pickWinner() public restricted {\r... */\n    tag_29:\n        /* \"Election.sol\":879:886  manager */\n      0x00\n      dup1\n      sload\n      swap1\n      0x0100\n      exp\n      swap1\n      div\n      0xffffffffffffffffffffffffffffffffffffffff\n      and\n        /* \"Election.sol\":865:886  msg.sender == manager */\n      0xffffffffffffffffffffffffffffffffffffffff\n      and\n        /* \"Election.sol\":865:875  msg.sender */\n      caller\n        /* \"Election.sol\":865:886  msg.sender == manager */\n      0xffffffffffffffffffffffffffffffffffffffff\n      and\n      eq\n        /* \"Election.sol\":857:887  require(msg.sender == manager) */\n      tag_69\n      jumpi\n      0x00\n      dup1\n      revert\n    tag_69:\n        /* \"Election.sol\":1947:1960  uint maxCount */\n      0x00\n        /* \"Election.sol\":1975:1992  uint winningIndex */\n      dup1\n        /* \"Election.sol\":2007:2013  uint i */\n      dup1\n        /* \"Election.sol\":2016:2017  0 */\n      0x00\n        /* \"Election.sol\":2007:2017  uint i = 0 */\n      swap1\n      pop\n        /* \"Election.sol\":2003:2214  for(uint i = 0; i < proposals.length; i++) {\r... */\n    tag_71:\n        /* \"Election.sol\":2023:2032  proposals */\n      0x02\n        /* \"Election.sol\":2023:2039  proposals.length */\n      dup1\n      sload\n      swap1\n      pop\n        /* \"Election.sol\":2019:2020  i */\n      dup2\n        /* \"Election.sol\":2019:2039  i < proposals.length */\n      lt\n        /* \"Election.sol\":2003:2214  for(uint i = 0; i < proposals.length; i++) {\r... */\n      iszero\n      tag_72\n      jumpi\n        /* \"Election.sol\":2090:2098  maxCount */\n      dup3\n        /* \"Election.sol\":2065:2074  proposals */\n      0x02\n        /* \"Election.sol\":2075:2076  i */\n      dup3\n        /* \"Election.sol\":2065:2077  proposals[i] */\n      dup2\n      sload\n      dup2\n      lt\n      tag_74\n      jumpi\n      tag_75\n      tag_44\n      jump\t// in\n    tag_75:\n    tag_74:\n      swap1\n      0x00\n      mstore\n      keccak256(0x00, 0x20)\n      swap1\n      0x03\n      mul\n      add\n        /* \"Election.sol\":2065:2087  proposals[i].voteCount */\n      0x02\n      add\n      sload\n        /* \"Election.sol\":2065:2098  proposals[i].voteCount > maxCount */\n      gt\n        /* \"Election.sol\":2061:2203  if (proposals[i].voteCount > maxCount) {\r... */\n      iszero\n      tag_77\n      jumpi\n        /* \"Election.sol\":2130:2139  proposals */\n      0x02\n        /* \"Election.sol\":2140:2141  i */\n      dup2\n        /* \"Election.sol\":2130:2142  proposals[i] */\n      dup2\n      sload\n      dup2\n      lt\n      tag_78\n      jumpi\n      tag_79\n      tag_44\n      jump\t// in\n    tag_79:\n    tag_78:\n      swap1\n      0x00\n      mstore\n      keccak256(0x00, 0x20)\n      swap1\n      0x03\n      mul\n      add\n        /* \"Election.sol\":2130:2152  proposals[i].voteCount */\n      0x02\n      add\n      sload\n        /* \"Election.sol\":2119:2152  maxCount = proposals[i].voteCount */\n      swap3\n      pop\n        /* \"Election.sol\":2186:2187  i */\n      dup1\n        /* \"Election.sol\":2171:2187  winningIndex = i */\n      swap2\n      pop\n        /* \"Election.sol\":2061:2203  if (proposals[i].voteCount > maxCount) {\r... */\n    tag_77:\n        /* \"Election.sol\":2041:2044  i++ */\n      dup1\n      dup1\n      tag_81\n      swap1\n      tag_47\n      jump\t// in\n    tag_81:\n      swap2\n      pop\n      pop\n        /* \"Election.sol\":2003:2214  for(uint i = 0; i < proposals.length; i++) {\r... */\n      jump(tag_71)\n    tag_72:\n      pop\n        /* \"Election.sol\":2296:2297  0 */\n      0x00\n        /* \"Election.sol\":2285:2293  maxCount */\n      dup3\n        /* \"Election.sol\":2285:2297  maxCount > 0 */\n      gt\n        /* \"Election.sol\":2277:2298  require(maxCount > 0) */\n      tag_82\n      jumpi\n      0x00\n      dup1\n      revert\n    tag_82:\n        /* \"Election.sol\":2327:2336  proposals */\n      0x02\n        /* \"Election.sol\":2337:2349  winningIndex */\n      dup2\n        /* \"Election.sol\":2327:2350  proposals[winningIndex] */\n      dup2\n      sload\n      dup2\n      lt\n      tag_83\n      jumpi\n      tag_84\n      tag_44\n      jump\t// in\n    tag_84:\n    tag_83:\n      swap1\n      0x00\n      mstore\n      keccak256(0x00, 0x20)\n      swap1\n      0x03\n      mul\n      add\n        /* \"Election.sol\":2309:2324  winningProposal */\n      0x03\n        /* \"Election.sol\":2309:2350  winningProposal = proposals[winningIndex] */\n      0x00\n      dup3\n      add\n      dup2\n      0x00\n      add\n      swap1\n      dup1\n      sload\n      tag_86\n      swap1\n      tag_51\n      jump\t// in\n    tag_86:\n      tag_87\n      swap3\n      swap2\n      swap1\n      tag_88\n      jump\t// in\n    tag_87:\n      pop\n      0x01\n      dup3\n      add\n      dup2\n      0x01\n      add\n      swap1\n      dup1\n      sload\n      tag_89\n      swap1\n      tag_51\n      jump\t// in\n    tag_89:\n      tag_90\n      swap3\n      swap2\n      swap1\n      tag_88\n      jump\t// in\n    tag_90:\n      pop\n      0x02\n      dup3\n      add\n      sload\n      dup2\n      0x02\n      add\n      sstore\n      swap1\n      pop\n      pop\n        /* \"Election.sol\":1936:2358  {\r... */\n      pop\n      pop\n        /* \"Election.sol\":1896:2358  function pickWinner() public restricted {\r... */\n      jump\t// out\n        /* \"Election.sol\":673:712  mapping(address => Voter) public voters */\n    tag_33:\n      mstore(0x20, 0x01)\n      dup1\n      0x00\n      mstore\n      keccak256(0x00, 0x40)\n      0x00\n      swap2\n      pop\n      swap1\n      pop\n      dup1\n      0x00\n      add\n      0x00\n      swap1\n      sload\n      swap1\n      0x0100\n      exp\n      swap1\n      div\n      0xffffffffffffffffffffffffffffffffffffffff\n      and\n      swap1\n      dup1\n      0x00\n      add\n      0x14\n      swap1\n      sload\n      swap1\n      0x0100\n      exp\n      swap1\n      div\n      0xff\n      and\n      swap1\n      pop\n      dup3\n      jump\t// out\n        /* \"Election.sol\":2476:2634  function getWinningProposal() public view returns(Proposal memory) {\r... */\n    tag_37:\n        /* \"Election.sol\":2526:2541  Proposal memory */\n      tag_91\n      tag_92\n      jump\t// in\n    tag_91:\n        /* \"Election.sol\":2591:2592  0 */\n      0x00\n        /* \"Election.sol\":2562:2577  winningProposal */\n      0x03\n        /* \"Election.sol\":2562:2587  winningProposal.voteCount */\n      0x02\n      add\n      sload\n        /* \"Election.sol\":2562:2592  winningProposal.voteCount != 0 */\n      eq\n      iszero\n        /* \"Election.sol\":2554:2593  require(winningProposal.voteCount != 0) */\n      tag_94\n      jumpi\n      0x00\n      dup1\n      revert\n    tag_94:\n        /* \"Election.sol\":2611:2626  winningProposal */\n      0x03\n        /* \"Election.sol\":2604:2626  return winningProposal */\n      mload(0x40)\n      dup1\n      0x60\n      add\n      0x40\n      mstore\n      swap1\n      dup2\n      0x00\n      dup3\n      add\n      dup1\n      sload\n      tag_95\n      swap1\n      tag_51\n      jump\t// in\n    tag_95:\n      dup1\n      0x1f\n      add\n      0x20\n      dup1\n      swap2\n      div\n      mul\n      0x20\n      add\n      mload(0x40)\n      swap1\n      dup2\n      add\n      0x40\n      mstore\n      dup1\n      swap3\n      swap2\n      swap1\n      dup2\n      dup2\n      mstore\n      0x20\n      add\n      dup3\n      dup1\n      sload\n      tag_96\n      swap1\n      tag_51\n      jump\t// in\n    tag_96:\n      dup1\n      iszero\n      tag_97\n      jumpi\n      dup1\n      0x1f\n      lt\n      tag_98\n      jumpi\n      0x0100\n      dup1\n      dup4\n      sload\n      div\n      mul\n      dup4\n      mstore\n      swap2\n      0x20\n      add\n      swap2\n      jump(tag_97)\n    tag_98:\n      dup3\n      add\n      swap2\n      swap1\n      0x00\n      mstore\n      keccak256(0x00, 0x20)\n      swap1\n    tag_99:\n      dup2\n      sload\n      dup2\n      mstore\n      swap1\n      0x01\n      add\n      swap1\n      0x20\n      add\n      dup1\n      dup4\n      gt\n      tag_99\n      jumpi\n      dup3\n      swap1\n      sub\n      0x1f\n      and\n      dup3\n      add\n      swap2\n    tag_97:\n      pop\n      pop\n      pop\n      pop\n      pop\n      dup2\n      mstore\n      0x20\n      add\n      0x01\n      dup3\n      add\n      dup1\n      sload\n      tag_100\n      swap1\n      tag_51\n      jump\t// in\n    tag_100:\n      dup1\n      0x1f\n      add\n      0x20\n      dup1\n      swap2\n      div\n      mul\n      0x20\n      add\n      mload(0x40)\n      swap1\n      dup2\n      add\n      0x40\n      mstore\n      dup1\n      swap3\n      swap2\n      swap1\n      dup2\n      dup2\n      mstore\n      0x20\n      add\n      dup3\n      dup1\n      sload\n      tag_101\n      swap1\n      tag_51\n      jump\t// in\n    tag_101:\n      dup1\n      iszero\n      tag_102\n      jumpi\n      dup1\n      0x1f\n      lt\n      tag_103\n      jumpi\n      0x0100\n      dup1\n      dup4\n      sload\n      div\n      mul\n      dup4\n      mstore\n      swap2\n      0x20\n      add\n      swap2\n      jump(tag_102)\n    tag_103:\n      dup3\n      add\n      swap2\n      swap1\n      0x00\n      mstore\n      keccak256(0x00, 0x20)\n      swap1\n    tag_104:\n      dup2\n      sload\n      dup2\n      mstore\n      swap1\n      0x01\n      add\n      swap1\n      0x20\n      add\n      dup1\n      dup4\n      gt\n      tag_104\n      jumpi\n      dup3\n      swap1\n      sub\n      0x1f\n      and\n      dup3\n      add\n      swap2\n    tag_102:\n      pop\n      pop\n      pop\n      pop\n      pop\n      dup2\n      mstore\n      0x20\n      add\n      0x02\n      dup3\n      add\n      sload\n      dup2\n      mstore\n      pop\n      pop\n      swap1\n      pop\n        /* \"Election.sol\":2476:2634  function getWinningProposal() public view returns(Proposal memory) {\r... */\n      swap1\n      jump\t// out\n    tag_66:\n      dup3\n      dup1\n      sload\n      tag_105\n      swap1\n      tag_51\n      jump\t// in\n    tag_105:\n      swap1\n      0x00\n      mstore\n      keccak256(0x00, 0x20)\n      swap1\n      0x1f\n      add\n      0x20\n      swap1\n      div\n      dup2\n      add\n      swap3\n      dup3\n      tag_107\n      jumpi\n      0x00\n      dup6\n      sstore\n      jump(tag_106)\n    tag_107:\n      dup3\n      0x1f\n      lt\n      tag_108\n      jumpi\n      dup1\n      mload\n      not(0xff)\n      and\n      dup4\n      dup1\n      add\n      or\n      dup6\n      sstore\n      jump(tag_106)\n    tag_108:\n      dup3\n      dup1\n      add\n      0x01\n      add\n      dup6\n      sstore\n      dup3\n      iszero\n      tag_106\n      jumpi\n      swap2\n      dup3\n      add\n    tag_109:\n      dup3\n      dup2\n      gt\n      iszero\n      tag_110\n      jumpi\n      dup3\n      mload\n      dup3\n      sstore\n      swap2\n      0x20\n      add\n      swap2\n      swap1\n      0x01\n      add\n      swap1\n      jump(tag_109)\n    tag_110:\n    tag_106:\n      pop\n      swap1\n      pop\n      tag_111\n      swap2\n      swap1\n      tag_112\n      jump\t// in\n    tag_111:\n      pop\n      swap1\n      jump\t// out\n    tag_88:\n      dup3\n      dup1\n      sload\n      tag_113\n      swap1\n      tag_51\n      jump\t// in\n    tag_113:\n      swap1\n      0x00\n      mstore\n      keccak256(0x00, 0x20)\n      swap1\n      0x1f\n      add\n      0x20\n      swap1\n      div\n      dup2\n      add\n      swap3\n      dup3\n      tag_115\n      jumpi\n      0x00\n      dup6\n      sstore\n      jump(tag_114)\n    tag_115:\n      dup3\n      0x1f\n      lt\n      tag_116\n      jumpi\n      dup1\n      sload\n      dup6\n      sstore\n      jump(tag_114)\n    tag_116:\n      dup3\n      dup1\n      add\n      0x01\n      add\n      dup6\n      sstore\n      dup3\n      iszero\n      tag_114\n      jumpi\n      0x00\n      mstore\n      keccak256(0x00, 0x20)\n      swap2\n      0x1f\n      add\n      0x20\n      swap1\n      div\n      dup3\n      add\n    tag_117:\n      dup3\n      dup2\n      gt\n      iszero\n      tag_118\n      jumpi\n      dup3\n      sload\n      dup3\n      sstore\n      swap2\n      0x01\n      add\n      swap2\n      swap1\n      0x01\n      add\n      swap1\n      jump(tag_117)\n    tag_118:\n    tag_114:\n      pop\n      swap1\n      pop\n      tag_119\n      swap2\n      swap1\n      tag_112\n      jump\t// in\n    tag_119:\n      pop\n      swap1\n      jump\t// out\n    tag_92:\n      mload(0x40)\n      dup1\n      0x60\n      add\n      0x40\n      mstore\n      dup1\n      0x60\n      dup2\n      mstore\n      0x20\n      add\n      0x60\n      dup2\n      mstore\n      0x20\n      add\n      0x00\n      dup2\n      mstore\n      pop\n      swap1\n      jump\t// out\n    tag_112:\n    tag_120:\n      dup1\n      dup3\n      gt\n      iszero\n      tag_121\n      jumpi\n      0x00\n      dup2\n      0x00\n      swap1\n      sstore\n      pop\n      0x01\n      add\n      jump(tag_120)\n    tag_121:\n      pop\n      swap1\n      jump\t// out\n        /* \"#utility.yul\":7:419   */\n    tag_123:\n        /* \"#utility.yul\":85:90   */\n      0x00\n        /* \"#utility.yul\":110:176   */\n      tag_125\n        /* \"#utility.yul\":126:175   */\n      tag_126\n        /* \"#utility.yul\":168:174   */\n      dup5\n        /* \"#utility.yul\":126:175   */\n      tag_127\n      jump\t// in\n    tag_126:\n        /* \"#utility.yul\":110:176   */\n      tag_128\n      jump\t// in\n    tag_125:\n        /* \"#utility.yul\":101:176   */\n      swap1\n      pop\n        /* \"#utility.yul\":199:205   */\n      dup3\n        /* \"#utility.yul\":192:197   */\n      dup2\n        /* \"#utility.yul\":185:206   */\n      mstore\n        /* \"#utility.yul\":237:241   */\n      0x20\n        /* \"#utility.yul\":230:235   */\n      dup2\n        /* \"#utility.yul\":226:242   */\n      add\n        /* \"#utility.yul\":275:278   */\n      dup5\n        /* \"#utility.yul\":266:272   */\n      dup5\n        /* \"#utility.yul\":261:264   */\n      dup5\n        /* \"#utility.yul\":257:273   */\n      add\n        /* \"#utility.yul\":254:279   */\n      gt\n        /* \"#utility.yul\":251:363   */\n      iszero\n      tag_129\n      jumpi\n        /* \"#utility.yul\":282:361   */\n      tag_130\n      tag_131\n      jump\t// in\n    tag_130:\n        /* \"#utility.yul\":251:363   */\n    tag_129:\n        /* \"#utility.yul\":372:413   */\n      tag_132\n        /* \"#utility.yul\":406:412   */\n      dup5\n        /* \"#utility.yul\":401:404   */\n      dup3\n        /* \"#utility.yul\":396:399   */\n      dup6\n        /* \"#utility.yul\":372:413   */\n      tag_133\n      jump\t// in\n    tag_132:\n        /* \"#utility.yul\":91:419   */\n      pop\n        /* \"#utility.yul\":7:419   */\n      swap4\n      swap3\n      pop\n      pop\n      pop\n      jump\t// out\n        /* \"#utility.yul\":425:564   */\n    tag_134:\n        /* \"#utility.yul\":471:476   */\n      0x00\n        /* \"#utility.yul\":509:515   */\n      dup2\n        /* \"#utility.yul\":496:516   */\n      calldataload\n        /* \"#utility.yul\":487:516   */\n      swap1\n      pop\n        /* \"#utility.yul\":525:558   */\n      tag_136\n        /* \"#utility.yul\":552:557   */\n      dup2\n        /* \"#utility.yul\":525:558   */\n      tag_137\n      jump\t// in\n    tag_136:\n        /* \"#utility.yul\":425:564   */\n      swap3\n      swap2\n      pop\n      pop\n      jump\t// out\n        /* \"#utility.yul\":584:924   */\n    tag_138:\n        /* \"#utility.yul\":640:645   */\n      0x00\n        /* \"#utility.yul\":689:692   */\n      dup3\n        /* \"#utility.yul\":682:686   */\n      0x1f\n        /* \"#utility.yul\":674:680   */\n      dup4\n        /* \"#utility.yul\":670:687   */\n      add\n        /* \"#utility.yul\":666:693   */\n      slt\n        /* \"#utility.yul\":656:778   */\n      tag_140\n      jumpi\n        /* \"#utility.yul\":697:776   */\n      tag_141\n      tag_142\n      jump\t// in\n    tag_141:\n        /* \"#utility.yul\":656:778   */\n    tag_140:\n        /* \"#utility.yul\":814:820   */\n      dup2\n        /* \"#utility.yul\":801:821   */\n      calldataload\n        /* \"#utility.yul\":839:918   */\n      tag_143\n        /* \"#utility.yul\":914:917   */\n      dup5\n        /* \"#utility.yul\":906:912   */\n      dup3\n        /* \"#utility.yul\":899:903   */\n      0x20\n        /* \"#utility.yul\":891:897   */\n      dup7\n        /* \"#utility.yul\":887:904   */\n      add\n        /* \"#utility.yul\":839:918   */\n      tag_123\n      jump\t// in\n    tag_143:\n        /* \"#utility.yul\":830:918   */\n      swap2\n      pop\n        /* \"#utility.yul\":646:924   */\n      pop\n        /* \"#utility.yul\":584:924   */\n      swap3\n      swap2\n      pop\n      pop\n      jump\t// out\n        /* \"#utility.yul\":930:1069   */\n    tag_144:\n        /* \"#utility.yul\":976:981   */\n      0x00\n        /* \"#utility.yul\":1014:1020   */\n      dup2\n        /* \"#utility.yul\":1001:1021   */\n      calldataload\n        /* \"#utility.yul\":992:1021   */\n      swap1\n      pop\n        /* \"#utility.yul\":1030:1063   */\n      tag_146\n        /* \"#utility.yul\":1057:1062   */\n      dup2\n        /* \"#utility.yul\":1030:1063   */\n      tag_147\n      jump\t// in\n    tag_146:\n        /* \"#utility.yul\":930:1069   */\n      swap3\n      swap2\n      pop\n      pop\n      jump\t// out\n        /* \"#utility.yul\":1075:1404   */\n    tag_32:\n        /* \"#utility.yul\":1134:1140   */\n      0x00\n        /* \"#utility.yul\":1183:1185   */\n      0x20\n        /* \"#utility.yul\":1171:1180   */\n      dup3\n        /* \"#utility.yul\":1162:1169   */\n      dup5\n        /* \"#utility.yul\":1158:1181   */\n      sub\n        /* \"#utility.yul\":1154:1186   */\n      slt\n        /* \"#utility.yul\":1151:1270   */\n      iszero\n      tag_149\n      jumpi\n        /* \"#utility.yul\":1189:1268   */\n      tag_150\n      tag_151\n      jump\t// in\n    tag_150:\n        /* \"#utility.yul\":1151:1270   */\n    tag_149:\n        /* \"#utility.yul\":1309:1310   */\n      0x00\n        /* \"#utility.yul\":1334:1387   */\n      tag_152\n        /* \"#utility.yul\":1379:1386   */\n      dup5\n        /* \"#utility.yul\":1370:1376   */\n      dup3\n        /* \"#utility.yul\":1359:1368   */\n      dup6\n        /* \"#utility.yul\":1355:1377   */\n      add\n        /* \"#utility.yul\":1334:1387   */\n      tag_134\n      jump\t// in\n    tag_152:\n        /* \"#utility.yul\":1324:1387   */\n      swap2\n      pop\n        /* \"#utility.yul\":1280:1397   */\n      pop\n        /* \"#utility.yul\":1075:1404   */\n      swap3\n      swap2\n      pop\n      pop\n      jump\t// out\n        /* \"#utility.yul\":1410:2244   */\n    tag_22:\n        /* \"#utility.yul\":1498:1504   */\n      0x00\n        /* \"#utility.yul\":1506:1512   */\n      dup1\n        /* \"#utility.yul\":1555:1557   */\n      0x40\n        /* \"#utility.yul\":1543:1552   */\n      dup4\n        /* \"#utility.yul\":1534:1541   */\n      dup6\n        /* \"#utility.yul\":1530:1553   */\n      sub\n        /* \"#utility.yul\":1526:1558   */\n      slt\n        /* \"#utility.yul\":1523:1642   */\n      iszero\n      tag_154\n      jumpi\n        /* \"#utility.yul\":1561:1640   */\n      tag_155\n      tag_151\n      jump\t// in\n    tag_155:\n        /* \"#utility.yul\":1523:1642   */\n    tag_154:\n        /* \"#utility.yul\":1709:1710   */\n      0x00\n        /* \"#utility.yul\":1698:1707   */\n      dup4\n        /* \"#utility.yul\":1694:1711   */\n      add\n        /* \"#utility.yul\":1681:1712   */\n      calldataload\n        /* \"#utility.yul\":1739:1757   */\n      0xffffffffffffffff\n        /* \"#utility.yul\":1731:1737   */\n      dup2\n        /* \"#utility.yul\":1728:1758   */\n      gt\n        /* \"#utility.yul\":1725:1842   */\n      iszero\n      tag_156\n      jumpi\n        /* \"#utility.yul\":1761:1840   */\n      tag_157\n      tag_158\n      jump\t// in\n    tag_157:\n        /* \"#utility.yul\":1725:1842   */\n    tag_156:\n        /* \"#utility.yul\":1866:1929   */\n      tag_159\n        /* \"#utility.yul\":1921:1928   */\n      dup6\n        /* \"#utility.yul\":1912:1918   */\n      dup3\n        /* \"#utility.yul\":1901:1910   */\n      dup7\n        /* \"#utility.yul\":1897:1919   */\n      add\n        /* \"#utility.yul\":1866:1929   */\n      tag_138\n      jump\t// in\n    tag_159:\n        /* \"#utility.yul\":1856:1929   */\n      swap3\n      pop\n        /* \"#utility.yul\":1652:1939   */\n      pop\n        /* \"#utility.yul\":2006:2008   */\n      0x20\n        /* \"#utility.yul\":1995:2004   */\n      dup4\n        /* \"#utility.yul\":1991:2009   */\n      add\n        /* \"#utility.yul\":1978:2010   */\n      calldataload\n        /* \"#utility.yul\":2037:2055   */\n      0xffffffffffffffff\n        /* \"#utility.yul\":2029:2035   */\n      dup2\n        /* \"#utility.yul\":2026:2056   */\n      gt\n        /* \"#utility.yul\":2023:2140   */\n      iszero\n      tag_160\n      jumpi\n        /* \"#utility.yul\":2059:2138   */\n      tag_161\n      tag_158\n      jump\t// in\n    tag_161:\n        /* \"#utility.yul\":2023:2140   */\n    tag_160:\n        /* \"#utility.yul\":2164:2227   */\n      tag_162\n        /* \"#utility.yul\":2219:2226   */\n      dup6\n        /* \"#utility.yul\":2210:2216   */\n      dup3\n        /* \"#utility.yul\":2199:2208   */\n      dup7\n        /* \"#utility.yul\":2195:2217   */\n      add\n        /* \"#utility.yul\":2164:2227   */\n      tag_138\n      jump\t// in\n    tag_162:\n        /* \"#utility.yul\":2154:2227   */\n      swap2\n      pop\n        /* \"#utility.yul\":1949:2237   */\n      pop\n        /* \"#utility.yul\":1410:2244   */\n      swap3\n      pop\n      swap3\n      swap1\n      pop\n      jump\t// out\n        /* \"#utility.yul\":2250:2579   */\n    tag_13:\n        /* \"#utility.yul\":2309:2315   */\n      0x00\n        /* \"#utility.yul\":2358:2360   */\n      0x20\n        /* \"#utility.yul\":2346:2355   */\n      dup3\n        /* \"#utility.yul\":2337:2344   */\n      dup5\n        /* \"#utility.yul\":2333:2356   */\n      sub\n        /* \"#utility.yul\":2329:2361   */\n      slt\n        /* \"#utility.yul\":2326:2445   */\n      iszero\n      tag_164\n      jumpi\n        /* \"#utility.yul\":2364:2443   */\n      tag_165\n      tag_151\n      jump\t// in\n    tag_165:\n        /* \"#utility.yul\":2326:2445   */\n    tag_164:\n        /* \"#utility.yul\":2484:2485   */\n      0x00\n        /* \"#utility.yul\":2509:2562   */\n      tag_166\n        /* \"#utility.yul\":2554:2561   */\n      dup5\n        /* \"#utility.yul\":2545:2551   */\n      dup3\n        /* \"#utility.yul\":2534:2543   */\n      dup6\n        /* \"#utility.yul\":2530:2552   */\n      add\n        /* \"#utility.yul\":2509:2562   */\n      tag_144\n      jump\t// in\n    tag_166:\n        /* \"#utility.yul\":2499:2562   */\n      swap2\n      pop\n        /* \"#utility.yul\":2455:2572   */\n      pop\n        /* \"#utility.yul\":2250:2579   */\n      swap3\n      swap2\n      pop\n      pop\n      jump\t// out\n        /* \"#utility.yul\":2585:2703   */\n    tag_167:\n        /* \"#utility.yul\":2672:2696   */\n      tag_169\n        /* \"#utility.yul\":2690:2695   */\n      dup2\n        /* \"#utility.yul\":2672:2696   */\n      tag_170\n      jump\t// in\n    tag_169:\n        /* \"#utility.yul\":2667:2670   */\n      dup3\n        /* \"#utility.yul\":2660:2697   */\n      mstore\n        /* \"#utility.yul\":2585:2703   */\n      pop\n      pop\n      jump\t// out\n        /* \"#utility.yul\":2709:2818   */\n    tag_171:\n        /* \"#utility.yul\":2790:2811   */\n      tag_173\n        /* \"#utility.yul\":2805:2810   */\n      dup2\n        /* \"#utility.yul\":2790:2811   */\n      tag_174\n      jump\t// in\n    tag_173:\n        /* \"#utility.yul\":2785:2788   */\n      dup3\n        /* \"#utility.yul\":2778:2812   */\n      mstore\n        /* \"#utility.yul\":2709:2818   */\n      pop\n      pop\n      jump\t// out\n        /* \"#utility.yul\":2824:3168   */\n    tag_175:\n        /* \"#utility.yul\":2902:2905   */\n      0x00\n        /* \"#utility.yul\":2930:2969   */\n      tag_177\n        /* \"#utility.yul\":2963:2968   */\n      dup3\n        /* \"#utility.yul\":2930:2969   */\n      tag_178\n      jump\t// in\n    tag_177:\n        /* \"#utility.yul\":2985:3046   */\n      tag_179\n        /* \"#utility.yul\":3039:3045   */\n      dup2\n        /* \"#utility.yul\":3034:3037   */\n      dup6\n        /* \"#utility.yul\":2985:3046   */\n      tag_180\n      jump\t// in\n    tag_179:\n        /* \"#utility.yul\":2978:3046   */\n      swap4\n      pop\n        /* \"#utility.yul\":3055:3107   */\n      tag_181\n        /* \"#utility.yul\":3100:3106   */\n      dup2\n        /* \"#utility.yul\":3095:3098   */\n      dup6\n        /* \"#utility.yul\":3088:3092   */\n      0x20\n        /* \"#utility.yul\":3081:3086   */\n      dup7\n        /* \"#utility.yul\":3077:3093   */\n      add\n        /* \"#utility.yul\":3055:3107   */\n      tag_182\n      jump\t// in\n    tag_181:\n        /* \"#utility.yul\":3132:3161   */\n      tag_183\n        /* \"#utility.yul\":3154:3160   */\n      dup2\n        /* \"#utility.yul\":3132:3161   */\n      tag_184\n      jump\t// in\n    tag_183:\n        /* \"#utility.yul\":3127:3130   */\n      dup5\n        /* \"#utility.yul\":3123:3162   */\n      add\n        /* \"#utility.yul\":3116:3162   */\n      swap2\n      pop\n        /* \"#utility.yul\":2906:3168   */\n      pop\n        /* \"#utility.yul\":2824:3168   */\n      swap3\n      swap2\n      pop\n      pop\n      jump\t// out\n        /* \"#utility.yul\":3174:3538   */\n    tag_185:\n        /* \"#utility.yul\":3262:3265   */\n      0x00\n        /* \"#utility.yul\":3290:3329   */\n      tag_187\n        /* \"#utility.yul\":3323:3328   */\n      dup3\n        /* \"#utility.yul\":3290:3329   */\n      tag_178\n      jump\t// in\n    tag_187:\n        /* \"#utility.yul\":3345:3416   */\n      tag_188\n        /* \"#utility.yul\":3409:3415   */\n      dup2\n        /* \"#utility.yul\":3404:3407   */\n      dup6\n        /* \"#utility.yul\":3345:3416   */\n      tag_189\n      jump\t// in\n    tag_188:\n        /* \"#utility.yul\":3338:3416   */\n      swap4\n      pop\n        /* \"#utility.yul\":3425:3477   */\n      tag_190\n        /* \"#utility.yul\":3470:3476   */\n      dup2\n        /* \"#utility.yul\":3465:3468   */\n      dup6\n        /* \"#utility.yul\":3458:3462   */\n      0x20\n        /* \"#utility.yul\":3451:3456   */\n      dup7\n        /* \"#utility.yul\":3447:3463   */\n      add\n        /* \"#utility.yul\":3425:3477   */\n      tag_182\n      jump\t// in\n    tag_190:\n        /* \"#utility.yul\":3502:3531   */\n      tag_191\n        /* \"#utility.yul\":3524:3530   */\n      dup2\n        /* \"#utility.yul\":3502:3531   */\n      tag_184\n      jump\t// in\n    tag_191:\n        /* \"#utility.yul\":3497:3500   */\n      dup5\n        /* \"#utility.yul\":3493:3532   */\n      add\n        /* \"#utility.yul\":3486:3532   */\n      swap2\n      pop\n        /* \"#utility.yul\":3266:3538   */\n      pop\n        /* \"#utility.yul\":3174:3538   */\n      swap3\n      swap2\n      pop\n      pop\n      jump\t// out\n        /* \"#utility.yul\":3604:4465   */\n    tag_192:\n        /* \"#utility.yul\":3721:3724   */\n      0x00\n        /* \"#utility.yul\":3757:3761   */\n      0x60\n        /* \"#utility.yul\":3752:3755   */\n      dup4\n        /* \"#utility.yul\":3748:3762   */\n      add\n        /* \"#utility.yul\":3844:3848   */\n      0x00\n        /* \"#utility.yul\":3837:3842   */\n      dup4\n        /* \"#utility.yul\":3833:3849   */\n      add\n        /* \"#utility.yul\":3827:3850   */\n      mload\n        /* \"#utility.yul\":3897:3900   */\n      dup5\n        /* \"#utility.yul\":3891:3895   */\n      dup3\n        /* \"#utility.yul\":3887:3901   */\n      sub\n        /* \"#utility.yul\":3880:3884   */\n      0x00\n        /* \"#utility.yul\":3875:3878   */\n      dup7\n        /* \"#utility.yul\":3871:3885   */\n      add\n        /* \"#utility.yul\":3864:3902   */\n      mstore\n        /* \"#utility.yul\":3923:3996   */\n      tag_194\n        /* \"#utility.yul\":3991:3995   */\n      dup3\n        /* \"#utility.yul\":3977:3989   */\n      dup3\n        /* \"#utility.yul\":3923:3996   */\n      tag_175\n      jump\t// in\n    tag_194:\n        /* \"#utility.yul\":3915:3996   */\n      swap2\n      pop\n        /* \"#utility.yul\":3772:4007   */\n      pop\n        /* \"#utility.yul\":4096:4100   */\n      0x20\n        /* \"#utility.yul\":4089:4094   */\n      dup4\n        /* \"#utility.yul\":4085:4101   */\n      add\n        /* \"#utility.yul\":4079:4102   */\n      mload\n        /* \"#utility.yul\":4149:4152   */\n      dup5\n        /* \"#utility.yul\":4143:4147   */\n      dup3\n        /* \"#utility.yul\":4139:4153   */\n      sub\n        /* \"#utility.yul\":4132:4136   */\n      0x20\n        /* \"#utility.yul\":4127:4130   */\n      dup7\n        /* \"#utility.yul\":4123:4137   */\n      add\n        /* \"#utility.yul\":4116:4154   */\n      mstore\n        /* \"#utility.yul\":4175:4248   */\n      tag_195\n        /* \"#utility.yul\":4243:4247   */\n      dup3\n        /* \"#utility.yul\":4229:4241   */\n      dup3\n        /* \"#utility.yul\":4175:4248   */\n      tag_175\n      jump\t// in\n    tag_195:\n        /* \"#utility.yul\":4167:4248   */\n      swap2\n      pop\n        /* \"#utility.yul\":4017:4259   */\n      pop\n        /* \"#utility.yul\":4346:4350   */\n      0x40\n        /* \"#utility.yul\":4339:4344   */\n      dup4\n        /* \"#utility.yul\":4335:4351   */\n      add\n        /* \"#utility.yul\":4329:4352   */\n      mload\n        /* \"#utility.yul\":4365:4428   */\n      tag_196\n        /* \"#utility.yul\":4422:4426   */\n      0x40\n        /* \"#utility.yul\":4417:4420   */\n      dup7\n        /* \"#utility.yul\":4413:4427   */\n      add\n        /* \"#utility.yul\":4399:4411   */\n      dup3\n        /* \"#utility.yul\":4365:4428   */\n      tag_197\n      jump\t// in\n    tag_196:\n        /* \"#utility.yul\":4269:4438   */\n      pop\n        /* \"#utility.yul\":4455:4459   */\n      dup1\n        /* \"#utility.yul\":4448:4459   */\n      swap2\n      pop\n        /* \"#utility.yul\":3726:4465   */\n      pop\n        /* \"#utility.yul\":3604:4465   */\n      swap3\n      swap2\n      pop\n      pop\n      jump\t// out\n        /* \"#utility.yul\":4471:4579   */\n    tag_197:\n        /* \"#utility.yul\":4548:4572   */\n      tag_199\n        /* \"#utility.yul\":4566:4571   */\n      dup2\n        /* \"#utility.yul\":4548:4572   */\n      tag_200\n      jump\t// in\n    tag_199:\n        /* \"#utility.yul\":4543:4546   */\n      dup3\n        /* \"#utility.yul\":4536:4573   */\n      mstore\n        /* \"#utility.yul\":4471:4579   */\n      pop\n      pop\n      jump\t// out\n        /* \"#utility.yul\":4585:4703   */\n    tag_201:\n        /* \"#utility.yul\":4672:4696   */\n      tag_203\n        /* \"#utility.yul\":4690:4695   */\n      dup2\n        /* \"#utility.yul\":4672:4696   */\n      tag_200\n      jump\t// in\n    tag_203:\n        /* \"#utility.yul\":4667:4670   */\n      dup3\n        /* \"#utility.yul\":4660:4697   */\n      mstore\n        /* \"#utility.yul\":4585:4703   */\n      pop\n      pop\n      jump\t// out\n        /* \"#utility.yul\":4709:4931   */\n    tag_27:\n        /* \"#utility.yul\":4802:4806   */\n      0x00\n        /* \"#utility.yul\":4840:4842   */\n      0x20\n        /* \"#utility.yul\":4829:4838   */\n      dup3\n        /* \"#utility.yul\":4825:4843   */\n      add\n        /* \"#utility.yul\":4817:4843   */\n      swap1\n      pop\n        /* \"#utility.yul\":4853:4924   */\n      tag_205\n        /* \"#utility.yul\":4921:4922   */\n      0x00\n        /* \"#utility.yul\":4910:4919   */\n      dup4\n        /* \"#utility.yul\":4906:4923   */\n      add\n        /* \"#utility.yul\":4897:4903   */\n      dup5\n        /* \"#utility.yul\":4853:4924   */\n      tag_167\n      jump\t// in\n    tag_205:\n        /* \"#utility.yul\":4709:4931   */\n      swap3\n      swap2\n      pop\n      pop\n      jump\t// out\n        /* \"#utility.yul\":4937:5257   */\n    tag_35:\n        /* \"#utility.yul\":5052:5056   */\n      0x00\n        /* \"#utility.yul\":5090:5092   */\n      0x40\n        /* \"#utility.yul\":5079:5088   */\n      dup3\n        /* \"#utility.yul\":5075:5093   */\n      add\n        /* \"#utility.yul\":5067:5093   */\n      swap1\n      pop\n        /* \"#utility.yul\":5103:5174   */\n      tag_207\n        /* \"#utility.yul\":5171:5172   */\n      0x00\n        /* \"#utility.yul\":5160:5169   */\n      dup4\n        /* \"#utility.yul\":5156:5173   */\n      add\n        /* \"#utility.yul\":5147:5153   */\n      dup6\n        /* \"#utility.yul\":5103:5174   */\n      tag_167\n      jump\t// in\n    tag_207:\n        /* \"#utility.yul\":5184:5250   */\n      tag_208\n        /* \"#utility.yul\":5246:5248   */\n      0x20\n        /* \"#utility.yul\":5235:5244   */\n      dup4\n        /* \"#utility.yul\":5231:5249   */\n      add\n        /* \"#utility.yul\":5222:5228   */\n      dup5\n        /* \"#utility.yul\":5184:5250   */\n      tag_171\n      jump\t// in\n    tag_208:\n        /* \"#utility.yul\":4937:5257   */\n      swap4\n      swap3\n      pop\n      pop\n      pop\n      jump\t// out\n        /* \"#utility.yul\":5263:5887   */\n    tag_19:\n        /* \"#utility.yul\":5452:5456   */\n      0x00\n        /* \"#utility.yul\":5490:5492   */\n      0x60\n        /* \"#utility.yul\":5479:5488   */\n      dup3\n        /* \"#utility.yul\":5475:5493   */\n      add\n        /* \"#utility.yul\":5467:5493   */\n      swap1\n      pop\n        /* \"#utility.yul\":5539:5548   */\n      dup2\n        /* \"#utility.yul\":5533:5537   */\n      dup2\n        /* \"#utility.yul\":5529:5549   */\n      sub\n        /* \"#utility.yul\":5525:5526   */\n      0x00\n        /* \"#utility.yul\":5514:5523   */\n      dup4\n        /* \"#utility.yul\":5510:5527   */\n      add\n        /* \"#utility.yul\":5503:5550   */\n      mstore\n        /* \"#utility.yul\":5567:5645   */\n      tag_210\n        /* \"#utility.yul\":5640:5644   */\n      dup2\n        /* \"#utility.yul\":5631:5637   */\n      dup7\n        /* \"#utility.yul\":5567:5645   */\n      tag_185\n      jump\t// in\n    tag_210:\n        /* \"#utility.yul\":5559:5645   */\n      swap1\n      pop\n        /* \"#utility.yul\":5692:5701   */\n      dup2\n        /* \"#utility.yul\":5686:5690   */\n      dup2\n        /* \"#utility.yul\":5682:5702   */\n      sub\n        /* \"#utility.yul\":5677:5679   */\n      0x20\n        /* \"#utility.yul\":5666:5675   */\n      dup4\n        /* \"#utility.yul\":5662:5680   */\n      add\n        /* \"#utility.yul\":5655:5703   */\n      mstore\n        /* \"#utility.yul\":5720:5798   */\n      tag_211\n        /* \"#utility.yul\":5793:5797   */\n      dup2\n        /* \"#utility.yul\":5784:5790   */\n      dup6\n        /* \"#utility.yul\":5720:5798   */\n      tag_185\n      jump\t// in\n    tag_211:\n        /* \"#utility.yul\":5712:5798   */\n      swap1\n      pop\n        /* \"#utility.yul\":5808:5880   */\n      tag_212\n        /* \"#utility.yul\":5876:5878   */\n      0x40\n        /* \"#utility.yul\":5865:5874   */\n      dup4\n        /* \"#utility.yul\":5861:5879   */\n      add\n        /* \"#utility.yul\":5852:5858   */\n      dup5\n        /* \"#utility.yul\":5808:5880   */\n      tag_201\n      jump\t// in\n    tag_212:\n        /* \"#utility.yul\":5263:5887   */\n      swap5\n      swap4\n      pop\n      pop\n      pop\n      pop\n      jump\t// out\n        /* \"#utility.yul\":5893:6262   */\n    tag_39:\n        /* \"#utility.yul\":6034:6038   */\n      0x00\n        /* \"#utility.yul\":6072:6074   */\n      0x20\n        /* \"#utility.yul\":6061:6070   */\n      dup3\n        /* \"#utility.yul\":6057:6075   */\n      add\n        /* \"#utility.yul\":6049:6075   */\n      swap1\n      pop\n        /* \"#utility.yul\":6121:6130   */\n      dup2\n        /* \"#utility.yul\":6115:6119   */\n      dup2\n        /* \"#utility.yul\":6111:6131   */\n      sub\n        /* \"#utility.yul\":6107:6108   */\n      0x00\n        /* \"#utility.yul\":6096:6105   */\n      dup4\n        /* \"#utility.yul\":6092:6109   */\n      add\n        /* \"#utility.yul\":6085:6132   */\n      mstore\n        /* \"#utility.yul\":6149:6255   */\n      tag_214\n        /* \"#utility.yul\":6250:6254   */\n      dup2\n        /* \"#utility.yul\":6241:6247   */\n      dup5\n        /* \"#utility.yul\":6149:6255   */\n      tag_192\n      jump\t// in\n    tag_214:\n        /* \"#utility.yul\":6141:6255   */\n      swap1\n      pop\n        /* \"#utility.yul\":5893:6262   */\n      swap3\n      swap2\n      pop\n      pop\n      jump\t// out\n        /* \"#utility.yul\":6268:6397   */\n    tag_128:\n        /* \"#utility.yul\":6302:6308   */\n      0x00\n        /* \"#utility.yul\":6329:6349   */\n      tag_216\n      tag_217\n      jump\t// in\n    tag_216:\n        /* \"#utility.yul\":6319:6349   */\n      swap1\n      pop\n        /* \"#utility.yul\":6358:6391   */\n      tag_218\n        /* \"#utility.yul\":6386:6390   */\n      dup3\n        /* \"#utility.yul\":6378:6384   */\n      dup3\n        /* \"#utility.yul\":6358:6391   */\n      tag_219\n      jump\t// in\n    tag_218:\n        /* \"#utility.yul\":6268:6397   */\n      swap2\n      swap1\n      pop\n      jump\t// out\n        /* \"#utility.yul\":6403:6478   */\n    tag_217:\n        /* \"#utility.yul\":6436:6442   */\n      0x00\n        /* \"#utility.yul\":6469:6471   */\n      0x40\n        /* \"#utility.yul\":6463:6472   */\n      mload\n        /* \"#utility.yul\":6453:6472   */\n      swap1\n      pop\n        /* \"#utility.yul\":6403:6478   */\n      swap1\n      jump\t// out\n        /* \"#utility.yul\":6484:6792   */\n    tag_127:\n        /* \"#utility.yul\":6546:6550   */\n      0x00\n        /* \"#utility.yul\":6636:6654   */\n      0xffffffffffffffff\n        /* \"#utility.yul\":6628:6634   */\n      dup3\n        /* \"#utility.yul\":6625:6655   */\n      gt\n        /* \"#utility.yul\":6622:6678   */\n      iszero\n      tag_222\n      jumpi\n        /* \"#utility.yul\":6658:6676   */\n      tag_223\n      tag_224\n      jump\t// in\n    tag_223:\n        /* \"#utility.yul\":6622:6678   */\n    tag_222:\n        /* \"#utility.yul\":6696:6725   */\n      tag_225\n        /* \"#utility.yul\":6718:6724   */\n      dup3\n        /* \"#utility.yul\":6696:6725   */\n      tag_184\n      jump\t// in\n    tag_225:\n        /* \"#utility.yul\":6688:6725   */\n      swap1\n      pop\n        /* \"#utility.yul\":6780:6784   */\n      0x20\n        /* \"#utility.yul\":6774:6778   */\n      dup2\n        /* \"#utility.yul\":6770:6785   */\n      add\n        /* \"#utility.yul\":6762:6785   */\n      swap1\n      pop\n        /* \"#utility.yul\":6484:6792   */\n      swap2\n      swap1\n      pop\n      jump\t// out\n        /* \"#utility.yul\":6798:6897   */\n    tag_178:\n        /* \"#utility.yul\":6850:6856   */\n      0x00\n        /* \"#utility.yul\":6884:6889   */\n      dup2\n        /* \"#utility.yul\":6878:6890   */\n      mload\n        /* \"#utility.yul\":6868:6890   */\n      swap1\n      pop\n        /* \"#utility.yul\":6798:6897   */\n      swap2\n      swap1\n      pop\n      jump\t// out\n        /* \"#utility.yul\":6903:7062   */\n    tag_180:\n        /* \"#utility.yul\":6977:6988   */\n      0x00\n        /* \"#utility.yul\":7011:7017   */\n      dup3\n        /* \"#utility.yul\":7006:7009   */\n      dup3\n        /* \"#utility.yul\":6999:7018   */\n      mstore\n        /* \"#utility.yul\":7051:7055   */\n      0x20\n        /* \"#utility.yul\":7046:7049   */\n      dup3\n        /* \"#utility.yul\":7042:7056   */\n      add\n        /* \"#utility.yul\":7027:7056   */\n      swap1\n      pop\n        /* \"#utility.yul\":6903:7062   */\n      swap3\n      swap2\n      pop\n      pop\n      jump\t// out\n        /* \"#utility.yul\":7068:7237   */\n    tag_189:\n        /* \"#utility.yul\":7152:7163   */\n      0x00\n        /* \"#utility.yul\":7186:7192   */\n      dup3\n        /* \"#utility.yul\":7181:7184   */\n      dup3\n        /* \"#utility.yul\":7174:7193   */\n      mstore\n        /* \"#utility.yul\":7226:7230   */\n      0x20\n        /* \"#utility.yul\":7221:7224   */\n      dup3\n        /* \"#utility.yul\":7217:7231   */\n      add\n        /* \"#utility.yul\":7202:7231   */\n      swap1\n      pop\n        /* \"#utility.yul\":7068:7237   */\n      swap3\n      swap2\n      pop\n      pop\n      jump\t// out\n        /* \"#utility.yul\":7243:7339   */\n    tag_170:\n        /* \"#utility.yul\":7280:7287   */\n      0x00\n        /* \"#utility.yul\":7309:7333   */\n      tag_230\n        /* \"#utility.yul\":7327:7332   */\n      dup3\n        /* \"#utility.yul\":7309:7333   */\n      tag_231\n      jump\t// in\n    tag_230:\n        /* \"#utility.yul\":7298:7333   */\n      swap1\n      pop\n        /* \"#utility.yul\":7243:7339   */\n      swap2\n      swap1\n      pop\n      jump\t// out\n        /* \"#utility.yul\":7345:7435   */\n    tag_174:\n        /* \"#utility.yul\":7379:7386   */\n      0x00\n        /* \"#utility.yul\":7422:7427   */\n      dup2\n        /* \"#utility.yul\":7415:7428   */\n      iszero\n        /* \"#utility.yul\":7408:7429   */\n      iszero\n        /* \"#utility.yul\":7397:7429   */\n      swap1\n      pop\n        /* \"#utility.yul\":7345:7435   */\n      swap2\n      swap1\n      pop\n      jump\t// out\n        /* \"#utility.yul\":7441:7567   */\n    tag_231:\n        /* \"#utility.yul\":7478:7485   */\n      0x00\n        /* \"#utility.yul\":7518:7560   */\n      0xffffffffffffffffffffffffffffffffffffffff\n        /* \"#utility.yul\":7511:7516   */\n      dup3\n        /* \"#utility.yul\":7507:7561   */\n      and\n        /* \"#utility.yul\":7496:7561   */\n      swap1\n      pop\n        /* \"#utility.yul\":7441:7567   */\n      swap2\n      swap1\n      pop\n      jump\t// out\n        /* \"#utility.yul\":7573:7650   */\n    tag_200:\n        /* \"#utility.yul\":7610:7617   */\n      0x00\n        /* \"#utility.yul\":7639:7644   */\n      dup2\n        /* \"#utility.yul\":7628:7644   */\n      swap1\n      pop\n        /* \"#utility.yul\":7573:7650   */\n      swap2\n      swap1\n      pop\n      jump\t// out\n        /* \"#utility.yul\":7656:7810   */\n    tag_133:\n        /* \"#utility.yul\":7740:7746   */\n      dup3\n        /* \"#utility.yul\":7735:7738   */\n      dup2\n        /* \"#utility.yul\":7730:7733   */\n      dup4\n        /* \"#utility.yul\":7717:7747   */\n      calldatacopy\n        /* \"#utility.yul\":7802:7803   */\n      0x00\n        /* \"#utility.yul\":7793:7799   */\n      dup4\n        /* \"#utility.yul\":7788:7791   */\n      dup4\n        /* \"#utility.yul\":7784:7800   */\n      add\n        /* \"#utility.yul\":7777:7804   */\n      mstore\n        /* \"#utility.yul\":7656:7810   */\n      pop\n      pop\n      pop\n      jump\t// out\n        /* \"#utility.yul\":7816:8123   */\n    tag_182:\n        /* \"#utility.yul\":7884:7885   */\n      0x00\n        /* \"#utility.yul\":7894:8007   */\n    tag_237:\n        /* \"#utility.yul\":7908:7914   */\n      dup4\n        /* \"#utility.yul\":7905:7906   */\n      dup2\n        /* \"#utility.yul\":7902:7915   */\n      lt\n        /* \"#utility.yul\":7894:8007   */\n      iszero\n      tag_239\n      jumpi\n        /* \"#utility.yul\":7993:7994   */\n      dup1\n        /* \"#utility.yul\":7988:7991   */\n      dup3\n        /* \"#utility.yul\":7984:7995   */\n      add\n        /* \"#utility.yul\":7978:7996   */\n      mload\n        /* \"#utility.yul\":7974:7975   */\n      dup2\n        /* \"#utility.yul\":7969:7972   */\n      dup5\n        /* \"#utility.yul\":7965:7976   */\n      add\n        /* \"#utility.yul\":7958:7997   */\n      mstore\n        /* \"#utility.yul\":7930:7932   */\n      0x20\n        /* \"#utility.yul\":7927:7928   */\n      dup2\n        /* \"#utility.yul\":7923:7933   */\n      add\n        /* \"#utility.yul\":7918:7933   */\n      swap1\n      pop\n        /* \"#utility.yul\":7894:8007   */\n      jump(tag_237)\n    tag_239:\n        /* \"#utility.yul\":8025:8031   */\n      dup4\n        /* \"#utility.yul\":8022:8023   */\n      dup2\n        /* \"#utility.yul\":8019:8032   */\n      gt\n        /* \"#utility.yul\":8016:8117   */\n      iszero\n      tag_240\n      jumpi\n        /* \"#utility.yul\":8105:8106   */\n      0x00\n        /* \"#utility.yul\":8096:8102   */\n      dup5\n        /* \"#utility.yul\":8091:8094   */\n      dup5\n        /* \"#utility.yul\":8087:8103   */\n      add\n        /* \"#utility.yul\":8080:8107   */\n      mstore\n        /* \"#utility.yul\":8016:8117   */\n    tag_240:\n        /* \"#utility.yul\":7865:8123   */\n      pop\n        /* \"#utility.yul\":7816:8123   */\n      pop\n      pop\n      pop\n      jump\t// out\n        /* \"#utility.yul\":8129:8449   */\n    tag_51:\n        /* \"#utility.yul\":8173:8179   */\n      0x00\n        /* \"#utility.yul\":8210:8211   */\n      0x02\n        /* \"#utility.yul\":8204:8208   */\n      dup3\n        /* \"#utility.yul\":8200:8212   */\n      div\n        /* \"#utility.yul\":8190:8212   */\n      swap1\n      pop\n        /* \"#utility.yul\":8257:8258   */\n      0x01\n        /* \"#utility.yul\":8251:8255   */\n      dup3\n        /* \"#utility.yul\":8247:8259   */\n      and\n        /* \"#utility.yul\":8278:8296   */\n      dup1\n        /* \"#utility.yul\":8268:8349   */\n      tag_242\n      jumpi\n        /* \"#utility.yul\":8334:8338   */\n      0x7f\n        /* \"#utility.yul\":8326:8332   */\n      dup3\n        /* \"#utility.yul\":8322:8339   */\n      and\n        /* \"#utility.yul\":8312:8339   */\n      swap2\n      pop\n        /* \"#utility.yul\":8268:8349   */\n    tag_242:\n        /* \"#utility.yul\":8396:8398   */\n      0x20\n        /* \"#utility.yul\":8388:8394   */\n      dup3\n        /* \"#utility.yul\":8385:8399   */\n      lt\n        /* \"#utility.yul\":8365:8383   */\n      dup2\n        /* \"#utility.yul\":8362:8400   */\n      eq\n        /* \"#utility.yul\":8359:8443   */\n      iszero\n      tag_243\n      jumpi\n        /* \"#utility.yul\":8415:8433   */\n      tag_244\n      tag_245\n      jump\t// in\n    tag_244:\n        /* \"#utility.yul\":8359:8443   */\n    tag_243:\n        /* \"#utility.yul\":8180:8449   */\n      pop\n        /* \"#utility.yul\":8129:8449   */\n      swap2\n      swap1\n      pop\n      jump\t// out\n        /* \"#utility.yul\":8455:8736   */\n    tag_219:\n        /* \"#utility.yul\":8538:8565   */\n      tag_247\n        /* \"#utility.yul\":8560:8564   */\n      dup3\n        /* \"#utility.yul\":8538:8565   */\n      tag_184\n      jump\t// in\n    tag_247:\n        /* \"#utility.yul\":8530:8536   */\n      dup2\n        /* \"#utility.yul\":8526:8566   */\n      add\n        /* \"#utility.yul\":8668:8674   */\n      dup2\n        /* \"#utility.yul\":8656:8666   */\n      dup2\n        /* \"#utility.yul\":8653:8675   */\n      lt\n        /* \"#utility.yul\":8632:8650   */\n      0xffffffffffffffff\n        /* \"#utility.yul\":8620:8630   */\n      dup3\n        /* \"#utility.yul\":8617:8651   */\n      gt\n        /* \"#utility.yul\":8614:8676   */\n      or\n        /* \"#utility.yul\":8611:8699   */\n      iszero\n      tag_248\n      jumpi\n        /* \"#utility.yul\":8679:8697   */\n      tag_249\n      tag_224\n      jump\t// in\n    tag_249:\n        /* \"#utility.yul\":8611:8699   */\n    tag_248:\n        /* \"#utility.yul\":8719:8729   */\n      dup1\n        /* \"#utility.yul\":8715:8717   */\n      0x40\n        /* \"#utility.yul\":8708:8730   */\n      mstore\n        /* \"#utility.yul\":8498:8736   */\n      pop\n        /* \"#utility.yul\":8455:8736   */\n      pop\n      pop\n      jump\t// out\n        /* \"#utility.yul\":8742:8975   */\n    tag_47:\n        /* \"#utility.yul\":8781:8784   */\n      0x00\n        /* \"#utility.yul\":8804:8828   */\n      tag_251\n        /* \"#utility.yul\":8822:8827   */\n      dup3\n        /* \"#utility.yul\":8804:8828   */\n      tag_200\n      jump\t// in\n    tag_251:\n        /* \"#utility.yul\":8795:8828   */\n      swap2\n      pop\n        /* \"#utility.yul\":8850:8916   */\n      0xffffffffffffffffffffffffffffffffffffffffffffffffffffffffffffffff\n        /* \"#utility.yul\":8843:8848   */\n      dup3\n        /* \"#utility.yul\":8840:8917   */\n      eq\n        /* \"#utility.yul\":8837:8940   */\n      iszero\n      tag_252\n      jumpi\n        /* \"#utility.yul\":8920:8938   */\n      tag_253\n      tag_254\n      jump\t// in\n    tag_253:\n        /* \"#utility.yul\":8837:8940   */\n    tag_252:\n        /* \"#utility.yul\":8967:8968   */\n      0x01\n        /* \"#utility.yul\":8960:8965   */\n      dup3\n        /* \"#utility.yul\":8956:8969   */\n      add\n        /* \"#utility.yul\":8949:8969   */\n      swap1\n      pop\n        /* \"#utility.yul\":8742:8975   */\n      swap2\n      swap1\n      pop\n      jump\t// out\n        /* \"#utility.yul\":8981:9161   */\n    tag_254:\n        /* \"#utility.yul\":9029:9106   */\n      0x4e487b7100000000000000000000000000000000000000000000000000000000\n        /* \"#utility.yul\":9026:9027   */\n      0x00\n        /* \"#utility.yul\":9019:9107   */\n      mstore\n        /* \"#utility.yul\":9126:9130   */\n      0x11\n        /* \"#utility.yul\":9123:9124   */\n      0x04\n        /* \"#utility.yul\":9116:9131   */\n      mstore\n        /* \"#utility.yul\":9150:9154   */\n      0x24\n        /* \"#utility.yul\":9147:9148   */\n      0x00\n        /* \"#utility.yul\":9140:9155   */\n      revert\n        /* \"#utility.yul\":9167:9347   */\n    tag_245:\n        /* \"#utility.yul\":9215:9292   */\n      0x4e487b7100000000000000000000000000000000000000000000000000000000\n        /* \"#utility.yul\":9212:9213   */\n      0x00\n        /* \"#utility.yul\":9205:9293   */\n      mstore\n        /* \"#utility.yul\":9312:9316   */\n      0x22\n        /* \"#utility.yul\":9309:9310   */\n      0x04\n        /* \"#utility.yul\":9302:9317   */\n      mstore\n        /* \"#utility.yul\":9336:9340   */\n      0x24\n        /* \"#utility.yul\":9333:9334   */\n      0x00\n        /* \"#utility.yul\":9326:9341   */\n      revert\n        /* \"#utility.yul\":9353:9533   */\n    tag_44:\n        /* \"#utility.yul\":9401:9478   */\n      0x4e487b7100000000000000000000000000000000000000000000000000000000\n        /* \"#utility.yul\":9398:9399   */\n      0x00\n        /* \"#utility.yul\":9391:9479   */\n      mstore\n        /* \"#utility.yul\":9498:9502   */\n      0x32\n        /* \"#utility.yul\":9495:9496   */\n      0x04\n        /* \"#utility.yul\":9488:9503   */\n      mstore\n        /* \"#utility.yul\":9522:9526   */\n      0x24\n        /* \"#utility.yul\":9519:9520   */\n      0x00\n        /* \"#utility.yul\":9512:9527   */\n      revert\n        /* \"#utility.yul\":9539:9719   */\n    tag_224:\n        /* \"#utility.yul\":9587:9664   */\n      0x4e487b7100000000000000000000000000000000000000000000000000000000\n        /* \"#utility.yul\":9584:9585   */\n      0x00\n        /* \"#utility.yul\":9577:9665   */\n      mstore\n        /* \"#utility.yul\":9684:9688   */\n      0x41\n        /* \"#utility.yul\":9681:9682   */\n      0x04\n        /* \"#utility.yul\":9674:9689   */\n      mstore\n        /* \"#utility.yul\":9708:9712   */\n      0x24\n        /* \"#utility.yul\":9705:9706   */\n      0x00\n        /* \"#utility.yul\":9698:9713   */\n      revert\n        /* \"#utility.yul\":9725:9842   */\n    tag_142:\n        /* \"#utility.yul\":9834:9835   */\n      0x00\n        /* \"#utility.yul\":9831:9832   */\n      dup1\n        /* \"#utility.yul\":9824:9836   */\n      revert\n        /* \"#utility.yul\":9848:9965   */\n    tag_131:\n        /* \"#utility.yul\":9957:9958   */\n      0x00\n        /* \"#utility.yul\":9954:9955   */\n      dup1\n        /* \"#utility.yul\":9947:9959   */\n      revert\n        /* \"#utility.yul\":9971:10088   */\n    tag_158:\n        /* \"#utility.yul\":10080:10081   */\n      0x00\n        /* \"#utility.yul\":10077:10078   */\n      dup1\n        /* \"#utility.yul\":10070:10082   */\n      revert\n        /* \"#utility.yul\":10094:10211   */\n    tag_151:\n        /* \"#utility.yul\":10203:10204   */\n      0x00\n        /* \"#utility.yul\":10200:10201   */\n      dup1\n        /* \"#utility.yul\":10193:10205   */\n      revert\n        /* \"#utility.yul\":10217:10319   */\n    tag_184:\n        /* \"#utility.yul\":10258:10264   */\n      0x00\n        /* \"#utility.yul\":10309:10311   */\n      0x1f\n        /* \"#utility.yul\":10305:10312   */\n      not\n        /* \"#utility.yul\":10300:10302   */\n      0x1f\n        /* \"#utility.yul\":10293:10298   */\n      dup4\n        /* \"#utility.yul\":10289:10303   */\n      add\n        /* \"#utility.yul\":10285:10313   */\n      and\n        /* \"#utility.yul\":10275:10313   */\n      swap1\n      pop\n        /* \"#utility.yul\":10217:10319   */\n      swap2\n      swap1\n      pop\n      jump\t// out\n        /* \"#utility.yul\":10325:10447   */\n    tag_137:\n        /* \"#utility.yul\":10398:10422   */\n      tag_265\n        /* \"#utility.yul\":10416:10421   */\n      dup2\n        /* \"#utility.yul\":10398:10422   */\n      tag_170\n      jump\t// in\n    tag_265:\n        /* \"#utility.yul\":10391:10396   */\n      dup2\n        /* \"#utility.yul\":10388:10423   */\n      eq\n        /* \"#utility.yul\":10378:10441   */\n      tag_266\n      jumpi\n        /* \"#utility.yul\":10437:10438   */\n      0x00\n        /* \"#utility.yul\":10434:10435   */\n      dup1\n        /* \"#utility.yul\":10427:10439   */\n      revert\n        /* \"#utility.yul\":10378:10441   */\n    tag_266:\n        /* \"#utility.yul\":10325:10447   */\n      pop\n      jump\t// out\n        /* \"#utility.yul\":10453:10575   */\n    tag_147:\n        /* \"#utility.yul\":10526:10550   */\n      tag_268\n        /* \"#utility.yul\":10544:10549   */\n      dup2\n        /* \"#utility.yul\":10526:10550   */\n      tag_200\n      jump\t// in\n    tag_268:\n        /* \"#utility.yul\":10519:10524   */\n      dup2\n        /* \"#utility.yul\":10516:10551   */\n      eq\n        /* \"#utility.yul\":10506:10569   */\n      tag_269\n      jumpi\n        /* \"#utility.yul\":10565:10566   */\n      0x00\n        /* \"#utility.yul\":10562:10563   */\n      dup1\n        /* \"#utility.yul\":10555:10567   */\n      revert\n        /* \"#utility.yul\":10506:10569   */\n    tag_269:\n        /* \"#utility.yul\":10453:10575   */\n      pop\n      jump\t// out\n\n    auxdata: 0xa264697066735822122056f5c4b8f976aa7bb094405c6044b3654c6c2ecc3529338f18b5ec0d6bea6cc464736f6c63430008070033\n}\n",
    "bytecode": {
      "linkReferences": {},
      "object": "60806040523480156200001157600080fd5b5060405162001351380380620013518339818101604052810190620000379190620001dd565b806000806101000a81548173ffffffffffffffffffffffffffffffffffffffff021916908373ffffffffffffffffffffffffffffffffffffffff16021790555081600690805190602001906200008f92919062000098565b50505062000415565b828054620000a6906200030c565b90600052602060002090601f016020900481019282620000ca576000855562000116565b82601f10620000e557805160ff191683800117855562000116565b8280016001018555821562000116579182015b8281111562000115578251825591602001919060010190620000f8565b5b50905062000125919062000129565b5090565b5b80821115620001445760008160009055506001016200012a565b5090565b60006200015f62000159846200026c565b62000243565b9050828152602081018484840111156200017e576200017d620003db565b5b6200018b848285620002d6565b509392505050565b600081519050620001a481620003fb565b92915050565b600082601f830112620001c257620001c1620003d6565b5b8151620001d484826020860162000148565b91505092915050565b60008060408385031215620001f757620001f6620003e5565b5b600083015167ffffffffffffffff811115620002185762000217620003e0565b5b6200022685828601620001aa565b9250506020620002398582860162000193565b9150509250929050565b60006200024f62000262565b90506200025d828262000342565b919050565b6000604051905090565b600067ffffffffffffffff8211156200028a5762000289620003a7565b5b6200029582620003ea565b9050602081019050919050565b6000620002af82620002b6565b9050919050565b600073ffffffffffffffffffffffffffffffffffffffff82169050919050565b60005b83811015620002f6578082015181840152602081019050620002d9565b8381111562000306576000848401525b50505050565b600060028204905060018216806200032557607f821691505b602082108114156200033c576200033b62000378565b5b50919050565b6200034d82620003ea565b810181811067ffffffffffffffff821117156200036f576200036e620003a7565b5b80604052505050565b7f4e487b7100000000000000000000000000000000000000000000000000000000600052602260045260246000fd5b7f4e487b7100000000000000000000000000000000000000000000000000000000600052604160045260246000fd5b600080fd5b600080fd5b600080fd5b600080fd5b6000601f19601f8301169050919050565b6200040681620002a2565b81146200041257600080fd5b50565b610f2c80620004256000396000f3fe608060405234801561001057600080fd5b506004361061007d5760003560e01c8063481c6a751161005b578063481c6a75146100ec5780635d495aea1461010a578063a3ec138d14610114578063a5134620146101455761007d565b80630121b93f14610082578063013cf08b1461009e57806323d1c95e146100d0575b600080fd5b61009c60048036038101906100979190610a51565b610163565b005b6100b860048036038101906100b39190610a51565b61025b565b6040516100c793929190610bc7565b60405180910390f35b6100ea60048036038101906100e591906109d9565b6103a5565b005b6100f4610494565b6040516101019190610b83565b60405180910390f35b6101126104b8565b005b61012e600480360381019061012991906109ac565b610615565b60405161013c929190610b9e565b60405180910390f35b61014d610666565b60405161015a9190610c0c565b60405180910390f35b600160003373ffffffffffffffffffffffffffffffffffffffff1673ffffffffffffffffffffffffffffffffffffffff16815260200190815260200160002060000160149054906101000a900460ff16156101bd57600080fd5b6000600282815481106101d3576101d2610e45565b5b906000526020600020906003020190508060020160008154809291906101f890610d9e565b919050555060018060003373ffffffffffffffffffffffffffffffffffffffff1673ffffffffffffffffffffffffffffffffffffffff16815260200190815260200160002060000160146101000a81548160ff0219169083151502179055505050565b6002818154811061026b57600080fd5b906000526020600020906003020160009150905080600001805461028e90610d3b565b80601f01602080910402602001604051908101604052809291908181526020018280546102ba90610d3b565b80156103075780601f106102dc57610100808354040283529160200191610307565b820191906000526020600020905b8154815290600101906020018083116102ea57829003601f168201915b50505050509080600101805461031c90610d3b565b80601f016020809104026020016040519081016040528092919081815260200182805461034890610d3b565b80156103955780601f1061036a57610100808354040283529160200191610395565b820191906000526020600020905b81548152906001019060200180831161037857829003601f168201915b5050505050908060020154905083565b60008054906101000a900473ffffffffffffffffffffffffffffffffffffffff1673ffffffffffffffffffffffffffffffffffffffff163373ffffffffffffffffffffffffffffffffffffffff16146103fd57600080fd5b6000604051806060016040528084815260200183815260200160008152509050600281908060018154018082558091505060019003906000526020600020906003020160009091909190915060008201518160000190805190602001906104659291906107c1565b5060208201518160010190805190602001906104829291906107c1565b50604082015181600201555050505050565b60008054906101000a900473ffffffffffffffffffffffffffffffffffffffff1681565b60008054906101000a900473ffffffffffffffffffffffffffffffffffffffff1673ffffffffffffffffffffffffffffffffffffffff163373ffffffffffffffffffffffffffffffffffffffff161461051057600080fd5b60008080600090505b60028054905081101561059257826002828154811061053b5761053a610e45565b5b906000526020600020906003020160020154111561057f576002818154811061056757610566610e45565b5b90600052602060002090600302016002015492508091505b808061058a90610d9e565b915050610519565b50600082116105a057600080fd5b600281815481106105b4576105b3610e45565b5b9060005260206000209060030201600360008201816000019080546105d890610d3b565b6105e3929190610847565b5060018201816001019080546105f890610d3b565b610603929190610847565b50600282015481600201559050505050565b60016020528060005260406000206000915090508060000160009054906101000a900473ffffffffffffffffffffffffffffffffffffffff16908060000160149054906101000a900460ff16905082565b61066e6108d4565b6000600360020154141561068157600080fd5b600360405180606001604052908160008201805461069e90610d3b565b80601f01602080910402602001604051908101604052809291908181526020018280546106ca90610d3b565b80156107175780601f106106ec57610100808354040283529160200191610717565b820191906000526020600020905b8154815290600101906020018083116106fa57829003601f168201915b5050505050815260200160018201805461073090610d3b565b80601f016020809104026020016040519081016040528092919081815260200182805461075c90610d3b565b80156107a95780601f1061077e576101008083540402835291602001916107a9565b820191906000526020600020905b81548152906001019060200180831161078c57829003601f168201915b50505050508152602001600282015481525050905090565b8280546107cd90610d3b565b90600052602060002090601f0160209004810192826107ef5760008555610836565b82601f1061080857805160ff1916838001178555610836565b82800160010185558215610836579182015b8281111561083557825182559160200191906001019061081a565b5b50905061084391906108f5565b5090565b82805461085390610d3b565b90600052602060002090601f01602090048101928261087557600085556108c3565b82601f1061088657805485556108c3565b828001600101855582156108c357600052602060002091601f016020900482015b828111156108c25782548255916001019190600101906108a7565b5b5090506108d091906108f5565b5090565b60405180606001604052806060815260200160608152602001600081525090565b5b8082111561090e5760008160009055506001016108f6565b5090565b600061092561092084610c53565b610c2e565b90508281526020810184848401111561094157610940610ea8565b5b61094c848285610cf9565b509392505050565b60008135905061096381610ec8565b92915050565b600082601f83011261097e5761097d610ea3565b5b813561098e848260208601610912565b91505092915050565b6000813590506109a681610edf565b92915050565b6000602082840312156109c2576109c1610eb2565b5b60006109d084828501610954565b91505092915050565b600080604083850312156109f0576109ef610eb2565b5b600083013567ffffffffffffffff811115610a0e57610a0d610ead565b5b610a1a85828601610969565b925050602083013567ffffffffffffffff811115610a3b57610a3a610ead565b5b610a4785828601610969565b9150509250929050565b600060208284031215610a6757610a66610eb2565b5b6000610a7584828501610997565b91505092915050565b610a8781610cb1565b82525050565b610a9681610cc3565b82525050565b6000610aa782610c84565b610ab18185610c8f565b9350610ac1818560208601610d08565b610aca81610eb7565b840191505092915050565b6000610ae082610c84565b610aea8185610ca0565b9350610afa818560208601610d08565b610b0381610eb7565b840191505092915050565b60006060830160008301518482036000860152610b2b8282610a9c565b91505060208301518482036020860152610b458282610a9c565b9150506040830151610b5a6040860182610b65565b508091505092915050565b610b6e81610cef565b82525050565b610b7d81610cef565b82525050565b6000602082019050610b986000830184610a7e565b92915050565b6000604082019050610bb36000830185610a7e565b610bc06020830184610a8d565b9392505050565b60006060820190508181036000830152610be18186610ad5565b90508181036020830152610bf58185610ad5565b9050610c046040830184610b74565b949350505050565b60006020820190508181036000830152610c268184610b0e565b905092915050565b6000610c38610c49565b9050610c448282610d6d565b919050565b6000604051905090565b600067ffffffffffffffff821115610c6e57610c6d610e74565b5b610c7782610eb7565b9050602081019050919050565b600081519050919050565b600082825260208201905092915050565b600082825260208201905092915050565b6000610cbc82610ccf565b9050919050565b60008115159050919050565b600073ffffffffffffffffffffffffffffffffffffffff82169050919050565b6000819050919050565b82818337600083830152505050565b60005b83811015610d26578082015181840152602081019050610d0b565b83811115610d35576000848401525b50505050565b60006002820490506001821680610d5357607f821691505b60208210811415610d6757610d66610e16565b5b50919050565b610d7682610eb7565b810181811067ffffffffffffffff82111715610d9557610d94610e74565b5b80604052505050565b6000610da982610cef565b91507fffffffffffffffffffffffffffffffffffffffffffffffffffffffffffffffff821415610ddc57610ddb610de7565b5b600182019050919050565b7f4e487b7100000000000000000000000000000000000000000000000000000000600052601160045260246000fd5b7f4e487b7100000000000000000000000000000000000000000000000000000000600052602260045260246000fd5b7f4e487b7100000000000000000000000000000000000000000000000000000000600052603260045260246000fd5b7f4e487b7100000000000000000000000000000000000000000000000000000000600052604160045260246000fd5b600080fd5b600080fd5b600080fd5b600080fd5b6000601f19601f8301169050919050565b610ed181610cb1565b8114610edc57600080fd5b50565b610ee881610cef565b8114610ef357600080fd5b5056fea264697066735822122056f5c4b8f976aa7bb094405c6044b3654c6c2ecc3529338f18b5ec0d6bea6cc464736f6c63430008070033",
      "opcodes": "PUSH1 0x80 PUSH1 0x40 MSTORE CALLVALUE DUP1 ISZERO PUSH3 0x11 JUMPI PUSH1 0x0 DUP1 REVERT JUMPDEST POP PUSH1 0x40 MLOAD PUSH3 0x1351 CODESIZE SUB DUP1 PUSH3 0x1351 DUP4 CODECOPY DUP2 DUP2 ADD PUSH1 0x40 MSTORE DUP2 ADD SWAP1 PUSH3 0x37 SWAP2 SWAP1 PUSH3 0x1DD JUMP JUMPDEST DUP1 PUSH1 0x0 DUP1 PUSH2 0x100 EXP DUP2 SLOAD DUP2 PUSH20 0xFFFFFFFFFFFFFFFFFFFFFFFFFFFFFFFFFFFFFFFF MUL NOT AND SWAP1 DUP4 PUSH20 0xFFFFFFFFFFFFFFFFFFFFFFFFFFFFFFFFFFFFFFFF AND MUL OR SWAP1 SSTORE POP DUP2 PUSH1 0x6 SWAP1 DUP1 MLOAD SWAP1 PUSH1 0x20 ADD SWAP1 PUSH3 0x8F SWAP3 SWAP2 SWAP1 PUSH3 0x98 JUMP JUMPDEST POP POP POP PUSH3 0x415 JUMP JUMPDEST DUP3 DUP1 SLOAD PUSH3 0xA6 SWAP1 PUSH3 0x30C JUMP JUMPDEST SWAP1 PUSH1 0x0 MSTORE PUSH1 0x20 PUSH1 0x0 KECCAK256 SWAP1 PUSH1 0x1F ADD PUSH1 0x20 SWAP1 DIV DUP2 ADD SWAP3 DUP3 PUSH3 0xCA JUMPI PUSH1 0x0 DUP6 SSTORE PUSH3 0x116 JUMP JUMPDEST DUP3 PUSH1 0x1F LT PUSH3 0xE5 JUMPI DUP1 MLOAD PUSH1 0xFF NOT AND DUP4 DUP1 ADD OR DUP6 SSTORE PUSH3 0x116 JUMP JUMPDEST DUP3 DUP1 ADD PUSH1 0x1 ADD DUP6 SSTORE DUP3 ISZERO PUSH3 0x116 JUMPI SWAP2 DUP3 ADD JUMPDEST DUP3 DUP2 GT ISZERO PUSH3 0x115 JUMPI DUP3 MLOAD DUP3 SSTORE SWAP2 PUSH1 0x20 ADD SWAP2 SWAP1 PUSH1 0x1 ADD SWAP1 PUSH3 0xF8 JUMP JUMPDEST JUMPDEST POP SWAP1 POP PUSH3 0x125 SWAP2 SWAP1 PUSH3 0x129 JUMP JUMPDEST POP SWAP1 JUMP JUMPDEST JUMPDEST DUP1 DUP3 GT ISZERO PUSH3 0x144 JUMPI PUSH1 0x0 DUP2 PUSH1 0x0 SWAP1 SSTORE POP PUSH1 0x1 ADD PUSH3 0x12A JUMP JUMPDEST POP SWAP1 JUMP JUMPDEST PUSH1 0x0 PUSH3 0x15F PUSH3 0x159 DUP5 PUSH3 0x26C JUMP JUMPDEST PUSH3 0x243 JUMP JUMPDEST SWAP1 POP DUP3 DUP2 MSTORE PUSH1 0x20 DUP2 ADD DUP5 DUP5 DUP5 ADD GT ISZERO PUSH3 0x17E JUMPI PUSH3 0x17D PUSH3 0x3DB JUMP JUMPDEST JUMPDEST PUSH3 0x18B DUP5 DUP3 DUP6 PUSH3 0x2D6 JUMP JUMPDEST POP SWAP4 SWAP3 POP POP POP JUMP JUMPDEST PUSH1 0x0 DUP2 MLOAD SWAP1 POP PUSH3 0x1A4 DUP2 PUSH3 0x3FB JUMP JUMPDEST SWAP3 SWAP2 POP POP JUMP JUMPDEST PUSH1 0x0 DUP3 PUSH1 0x1F DUP4 ADD SLT PUSH3 0x1C2 JUMPI PUSH3 0x1C1 PUSH3 0x3D6 JUMP JUMPDEST JUMPDEST DUP2 MLOAD PUSH3 0x1D4 DUP5 DUP3 PUSH1 0x20 DUP7 ADD PUSH3 0x148 JUMP JUMPDEST SWAP2 POP POP SWAP3 SWAP2 POP POP JUMP JUMPDEST PUSH1 0x0 DUP1 PUSH1 0x40 DUP4 DUP6 SUB SLT ISZERO PUSH3 0x1F7 JUMPI PUSH3 0x1F6 PUSH3 0x3E5 JUMP JUMPDEST JUMPDEST PUSH1 0x0 DUP4 ADD MLOAD PUSH8 0xFFFFFFFFFFFFFFFF DUP2 GT ISZERO PUSH3 0x218 JUMPI PUSH3 0x217 PUSH3 0x3E0 JUMP JUMPDEST JUMPDEST PUSH3 0x226 DUP6 DUP3 DUP7 ADD PUSH3 0x1AA JUMP JUMPDEST SWAP3 POP POP PUSH1 0x20 PUSH3 0x239 DUP6 DUP3 DUP7 ADD PUSH3 0x193 JUMP JUMPDEST SWAP2 POP POP SWAP3 POP SWAP3 SWAP1 POP JUMP JUMPDEST PUSH1 0x0 PUSH3 0x24F PUSH3 0x262 JUMP JUMPDEST SWAP1 POP PUSH3 0x25D DUP3 DUP3 PUSH3 0x342 JUMP JUMPDEST SWAP2 SWAP1 POP JUMP JUMPDEST PUSH1 0x0 PUSH1 0x40 MLOAD SWAP1 POP SWAP1 JUMP JUMPDEST PUSH1 0x0 PUSH8 0xFFFFFFFFFFFFFFFF DUP3 GT ISZERO PUSH3 0x28A JUMPI PUSH3 0x289 PUSH3 0x3A7 JUMP JUMPDEST JUMPDEST PUSH3 0x295 DUP3 PUSH3 0x3EA JUMP JUMPDEST SWAP1 POP PUSH1 0x20 DUP2 ADD SWAP1 POP SWAP2 SWAP1 POP JUMP JUMPDEST PUSH1 0x0 PUSH3 0x2AF DUP3 PUSH3 0x2B6 JUMP JUMPDEST SWAP1 POP SWAP2 SWAP1 POP JUMP JUMPDEST PUSH1 0x0 PUSH20 0xFFFFFFFFFFFFFFFFFFFFFFFFFFFFFFFFFFFFFFFF DUP3 AND SWAP1 POP SWAP2 SWAP1 POP JUMP JUMPDEST PUSH1 0x0 JUMPDEST DUP4 DUP2 LT ISZERO PUSH3 0x2F6 JUMPI DUP1 DUP3 ADD MLOAD DUP2 DUP5 ADD MSTORE PUSH1 0x20 DUP2 ADD SWAP1 POP PUSH3 0x2D9 JUMP JUMPDEST DUP4 DUP2 GT ISZERO PUSH3 0x306 JUMPI PUSH1 0x0 DUP5 DUP5 ADD MSTORE JUMPDEST POP POP POP POP JUMP JUMPDEST PUSH1 0x0 PUSH1 0x2 DUP3 DIV SWAP1 POP PUSH1 0x1 DUP3 AND DUP1 PUSH3 0x325 JUMPI PUSH1 0x7F DUP3 AND SWAP2 POP JUMPDEST PUSH1 0x20 DUP3 LT DUP2 EQ ISZERO PUSH3 0x33C JUMPI PUSH3 0x33B PUSH3 0x378 JUMP JUMPDEST JUMPDEST POP SWAP2 SWAP1 POP JUMP JUMPDEST PUSH3 0x34D DUP3 PUSH3 0x3EA JUMP JUMPDEST DUP2 ADD DUP2 DUP2 LT PUSH8 0xFFFFFFFFFFFFFFFF DUP3 GT OR ISZERO PUSH3 0x36F JUMPI PUSH3 0x36E PUSH3 0x3A7 JUMP JUMPDEST JUMPDEST DUP1 PUSH1 0x40 MSTORE POP POP POP JUMP JUMPDEST PUSH32 0x4E487B7100000000000000000000000000000000000000000000000000000000 PUSH1 0x0 MSTORE PUSH1 0x22 PUSH1 0x4 MSTORE PUSH1 0x24 PUSH1 0x0 REVERT JUMPDEST PUSH32 0x4E487B7100000000000000000000000000000000000000000000000000000000 PUSH1 0x0 MSTORE PUSH1 0x41 PUSH1 0x4 MSTORE PUSH1 0x24 PUSH1 0x0 REVERT JUMPDEST PUSH1 0x0 DUP1 REVERT JUMPDEST PUSH1 0x0 DUP1 REVERT JUMPDEST PUSH1 0x0 DUP1 REVERT JUMPDEST PUSH1 0x0 DUP1 REVERT JUMPDEST PUSH1 0x0 PUSH1 0x1F NOT PUSH1 0x1F DUP4 ADD AND SWAP1 POP SWAP2 SWAP1 POP JUMP JUMPDEST PUSH3 0x406 DUP2 PUSH3 0x2A2 JUMP JUMPDEST DUP2 EQ PUSH3 0x412 JUMPI PUSH1 0x0 DUP1 REVERT JUMPDEST POP JUMP JUMPDEST PUSH2 0xF2C DUP1 PUSH3 0x425 PUSH1 0x0 CODECOPY PUSH1 0x0 RETURN INVALID PUSH1 0x80 PUSH1 0x40 MSTORE CALLVALUE DUP1 ISZERO PUSH2 0x10 JUMPI PUSH1 0x0 DUP1 REVERT JUMPDEST POP PUSH1 0x4 CALLDATASIZE LT PUSH2 0x7D JUMPI PUSH1 0x0 CALLDATALOAD PUSH1 0xE0 SHR DUP1 PUSH4 0x481C6A75 GT PUSH2 0x5B JUMPI DUP1 PUSH4 0x481C6A75 EQ PUSH2 0xEC JUMPI DUP1 PUSH4 0x5D495AEA EQ PUSH2 0x10A JUMPI DUP1 PUSH4 0xA3EC138D EQ PUSH2 0x114 JUMPI DUP1 PUSH4 0xA5134620 EQ PUSH2 0x145 JUMPI PUSH2 0x7D JUMP JUMPDEST DUP1 PUSH4 0x121B93F EQ PUSH2 0x82 JUMPI DUP1 PUSH4 0x13CF08B EQ PUSH2 0x9E JUMPI DUP1 PUSH4 0x23D1C95E EQ PUSH2 0xD0 JUMPI JUMPDEST PUSH1 0x0 DUP1 REVERT JUMPDEST PUSH2 0x9C PUSH1 0x4 DUP1 CALLDATASIZE SUB DUP2 ADD SWAP1 PUSH2 0x97 SWAP2 SWAP1 PUSH2 0xA51 JUMP JUMPDEST PUSH2 0x163 JUMP JUMPDEST STOP JUMPDEST PUSH2 0xB8 PUSH1 0x4 DUP1 CALLDATASIZE SUB DUP2 ADD SWAP1 PUSH2 0xB3 SWAP2 SWAP1 PUSH2 0xA51 JUMP JUMPDEST PUSH2 0x25B JUMP JUMPDEST PUSH1 0x40 MLOAD PUSH2 0xC7 SWAP4 SWAP3 SWAP2 SWAP1 PUSH2 0xBC7 JUMP JUMPDEST PUSH1 0x40 MLOAD DUP1 SWAP2 SUB SWAP1 RETURN JUMPDEST PUSH2 0xEA PUSH1 0x4 DUP1 CALLDATASIZE SUB DUP2 ADD SWAP1 PUSH2 0xE5 SWAP2 SWAP1 PUSH2 0x9D9 JUMP JUMPDEST PUSH2 0x3A5 JUMP JUMPDEST STOP JUMPDEST PUSH2 0xF4 PUSH2 0x494 JUMP JUMPDEST PUSH1 0x40 MLOAD PUSH2 0x101 SWAP2 SWAP1 PUSH2 0xB83 JUMP JUMPDEST PUSH1 0x40 MLOAD DUP1 SWAP2 SUB SWAP1 RETURN JUMPDEST PUSH2 0x112 PUSH2 0x4B8 JUMP JUMPDEST STOP JUMPDEST PUSH2 0x12E PUSH1 0x4 DUP1 CALLDATASIZE SUB DUP2 ADD SWAP1 PUSH2 0x129 SWAP2 SWAP1 PUSH2 0x9AC JUMP JUMPDEST PUSH2 0x615 JUMP JUMPDEST PUSH1 0x40 MLOAD PUSH2 0x13C SWAP3 SWAP2 SWAP1 PUSH2 0xB9E JUMP JUMPDEST PUSH1 0x40 MLOAD DUP1 SWAP2 SUB SWAP1 RETURN JUMPDEST PUSH2 0x14D PUSH2 0x666 JUMP JUMPDEST PUSH1 0x40 MLOAD PUSH2 0x15A SWAP2 SWAP1 PUSH2 0xC0C JUMP JUMPDEST PUSH1 0x40 MLOAD DUP1 SWAP2 SUB SWAP1 RETURN JUMPDEST PUSH1 0x1 PUSH1 0x0 CALLER PUSH20 0xFFFFFFFFFFFFFFFFFFFFFFFFFFFFFFFFFFFFFFFF AND PUSH20 0xFFFFFFFFFFFFFFFFFFFFFFFFFFFFFFFFFFFFFFFF AND DUP2 MSTORE PUSH1 0x20 ADD SWAP1 DUP2 MSTORE PUSH1 0x20 ADD PUSH1 0x0 KECCAK256 PUSH1 0x0 ADD PUSH1 0x14 SWAP1 SLOAD SWAP1 PUSH2 0x100 EXP SWAP1 DIV PUSH1 0xFF AND ISZERO PUSH2 0x1BD JUMPI PUSH1 0x0 DUP1 REVERT JUMPDEST PUSH1 0x0 PUSH1 0x2 DUP3 DUP2 SLOAD DUP2 LT PUSH2 0x1D3 JUMPI PUSH2 0x1D2 PUSH2 0xE45 JUMP JUMPDEST JUMPDEST SWAP1 PUSH1 0x0 MSTORE PUSH1 0x20 PUSH1 0x0 KECCAK256 SWAP1 PUSH1 0x3 MUL ADD SWAP1 POP DUP1 PUSH1 0x2 ADD PUSH1 0x0 DUP2 SLOAD DUP1 SWAP3 SWAP2 SWAP1 PUSH2 0x1F8 SWAP1 PUSH2 0xD9E JUMP JUMPDEST SWAP2 SWAP1 POP SSTORE POP PUSH1 0x1 DUP1 PUSH1 0x0 CALLER PUSH20 0xFFFFFFFFFFFFFFFFFFFFFFFFFFFFFFFFFFFFFFFF AND PUSH20 0xFFFFFFFFFFFFFFFFFFFFFFFFFFFFFFFFFFFFFFFF AND DUP2 MSTORE PUSH1 0x20 ADD SWAP1 DUP2 MSTORE PUSH1 0x20 ADD PUSH1 0x0 KECCAK256 PUSH1 0x0 ADD PUSH1 0x14 PUSH2 0x100 EXP DUP2 SLOAD DUP2 PUSH1 0xFF MUL NOT AND SWAP1 DUP4 ISZERO ISZERO MUL OR SWAP1 SSTORE POP POP POP JUMP JUMPDEST PUSH1 0x2 DUP2 DUP2 SLOAD DUP2 LT PUSH2 0x26B JUMPI PUSH1 0x0 DUP1 REVERT JUMPDEST SWAP1 PUSH1 0x0 MSTORE PUSH1 0x20 PUSH1 0x0 KECCAK256 SWAP1 PUSH1 0x3 MUL ADD PUSH1 0x0 SWAP2 POP SWAP1 POP DUP1 PUSH1 0x0 ADD DUP1 SLOAD PUSH2 0x28E SWAP1 PUSH2 0xD3B JUMP JUMPDEST DUP1 PUSH1 0x1F ADD PUSH1 0x20 DUP1 SWAP2 DIV MUL PUSH1 0x20 ADD PUSH1 0x40 MLOAD SWAP1 DUP2 ADD PUSH1 0x40 MSTORE DUP1 SWAP3 SWAP2 SWAP1 DUP2 DUP2 MSTORE PUSH1 0x20 ADD DUP3 DUP1 SLOAD PUSH2 0x2BA SWAP1 PUSH2 0xD3B JUMP JUMPDEST DUP1 ISZERO PUSH2 0x307 JUMPI DUP1 PUSH1 0x1F LT PUSH2 0x2DC JUMPI PUSH2 0x100 DUP1 DUP4 SLOAD DIV MUL DUP4 MSTORE SWAP2 PUSH1 0x20 ADD SWAP2 PUSH2 0x307 JUMP JUMPDEST DUP3 ADD SWAP2 SWAP1 PUSH1 0x0 MSTORE PUSH1 0x20 PUSH1 0x0 KECCAK256 SWAP1 JUMPDEST DUP2 SLOAD DUP2 MSTORE SWAP1 PUSH1 0x1 ADD SWAP1 PUSH1 0x20 ADD DUP1 DUP4 GT PUSH2 0x2EA JUMPI DUP3 SWAP1 SUB PUSH1 0x1F AND DUP3 ADD SWAP2 JUMPDEST POP POP POP POP POP SWAP1 DUP1 PUSH1 0x1 ADD DUP1 SLOAD PUSH2 0x31C SWAP1 PUSH2 0xD3B JUMP JUMPDEST DUP1 PUSH1 0x1F ADD PUSH1 0x20 DUP1 SWAP2 DIV MUL PUSH1 0x20 ADD PUSH1 0x40 MLOAD SWAP1 DUP2 ADD PUSH1 0x40 MSTORE DUP1 SWAP3 SWAP2 SWAP1 DUP2 DUP2 MSTORE PUSH1 0x20 ADD DUP3 DUP1 SLOAD PUSH2 0x348 SWAP1 PUSH2 0xD3B JUMP JUMPDEST DUP1 ISZERO PUSH2 0x395 JUMPI DUP1 PUSH1 0x1F LT PUSH2 0x36A JUMPI PUSH2 0x100 DUP1 DUP4 SLOAD DIV MUL DUP4 MSTORE SWAP2 PUSH1 0x20 ADD SWAP2 PUSH2 0x395 JUMP JUMPDEST DUP3 ADD SWAP2 SWAP1 PUSH1 0x0 MSTORE PUSH1 0x20 PUSH1 0x0 KECCAK256 SWAP1 JUMPDEST DUP2 SLOAD DUP2 MSTORE SWAP1 PUSH1 0x1 ADD SWAP1 PUSH1 0x20 ADD DUP1 DUP4 GT PUSH2 0x378 JUMPI DUP3 SWAP1 SUB PUSH1 0x1F AND DUP3 ADD SWAP2 JUMPDEST POP POP POP POP POP SWAP1 DUP1 PUSH1 0x2 ADD SLOAD SWAP1 POP DUP4 JUMP JUMPDEST PUSH1 0x0 DUP1 SLOAD SWAP1 PUSH2 0x100 EXP SWAP1 DIV PUSH20 0xFFFFFFFFFFFFFFFFFFFFFFFFFFFFFFFFFFFFFFFF AND PUSH20 0xFFFFFFFFFFFFFFFFFFFFFFFFFFFFFFFFFFFFFFFF AND CALLER PUSH20 0xFFFFFFFFFFFFFFFFFFFFFFFFFFFFFFFFFFFFFFFF AND EQ PUSH2 0x3FD JUMPI PUSH1 0x0 DUP1 REVERT JUMPDEST PUSH1 0x0 PUSH1 0x40 MLOAD DUP1 PUSH1 0x60 ADD PUSH1 0x40 MSTORE DUP1 DUP5 DUP2 MSTORE PUSH1 0x20 ADD DUP4 DUP2 MSTORE PUSH1 0x20 ADD PUSH1 0x0 DUP2 MSTORE POP SWAP1 POP PUSH1 0x2 DUP2 SWAP1 DUP1 PUSH1 0x1 DUP2 SLOAD ADD DUP1 DUP3 SSTORE DUP1 SWAP2 POP POP PUSH1 0x1 SWAP1 SUB SWAP1 PUSH1 0x0 MSTORE PUSH1 0x20 PUSH1 0x0 KECCAK256 SWAP1 PUSH1 0x3 MUL ADD PUSH1 0x0 SWAP1 SWAP2 SWAP1 SWAP2 SWAP1 SWAP2 POP PUSH1 0x0 DUP3 ADD MLOAD DUP2 PUSH1 0x0 ADD SWAP1 DUP1 MLOAD SWAP1 PUSH1 0x20 ADD SWAP1 PUSH2 0x465 SWAP3 SWAP2 SWAP1 PUSH2 0x7C1 JUMP JUMPDEST POP PUSH1 0x20 DUP3 ADD MLOAD DUP2 PUSH1 0x1 ADD SWAP1 DUP1 MLOAD SWAP1 PUSH1 0x20 ADD SWAP1 PUSH2 0x482 SWAP3 SWAP2 SWAP1 PUSH2 0x7C1 JUMP JUMPDEST POP PUSH1 0x40 DUP3 ADD MLOAD DUP2 PUSH1 0x2 ADD SSTORE POP POP POP POP POP JUMP JUMPDEST PUSH1 0x0 DUP1 SLOAD SWAP1 PUSH2 0x100 EXP SWAP1 DIV PUSH20 0xFFFFFFFFFFFFFFFFFFFFFFFFFFFFFFFFFFFFFFFF AND DUP2 JUMP JUMPDEST PUSH1 0x0 DUP1 SLOAD SWAP1 PUSH2 0x100 EXP SWAP1 DIV PUSH20 0xFFFFFFFFFFFFFFFFFFFFFFFFFFFFFFFFFFFFFFFF AND PUSH20 0xFFFFFFFFFFFFFFFFFFFFFFFFFFFFFFFFFFFFFFFF AND CALLER PUSH20 0xFFFFFFFFFFFFFFFFFFFFFFFFFFFFFFFFFFFFFFFF AND EQ PUSH2 0x510 JUMPI PUSH1 0x0 DUP1 REVERT JUMPDEST PUSH1 0x0 DUP1 DUP1 PUSH1 0x0 SWAP1 POP JUMPDEST PUSH1 0x2 DUP1 SLOAD SWAP1 POP DUP2 LT ISZERO PUSH2 0x592 JUMPI DUP3 PUSH1 0x2 DUP3 DUP2 SLOAD DUP2 LT PUSH2 0x53B JUMPI PUSH2 0x53A PUSH2 0xE45 JUMP JUMPDEST JUMPDEST SWAP1 PUSH1 0x0 MSTORE PUSH1 0x20 PUSH1 0x0 KECCAK256 SWAP1 PUSH1 0x3 MUL ADD PUSH1 0x2 ADD SLOAD GT ISZERO PUSH2 0x57F JUMPI PUSH1 0x2 DUP2 DUP2 SLOAD DUP2 LT PUSH2 0x567 JUMPI PUSH2 0x566 PUSH2 0xE45 JUMP JUMPDEST JUMPDEST SWAP1 PUSH1 0x0 MSTORE PUSH1 0x20 PUSH1 0x0 KECCAK256 SWAP1 PUSH1 0x3 MUL ADD PUSH1 0x2 ADD SLOAD SWAP3 POP DUP1 SWAP2 POP JUMPDEST DUP1 DUP1 PUSH2 0x58A SWAP1 PUSH2 0xD9E JUMP JUMPDEST SWAP2 POP POP PUSH2 0x519 JUMP JUMPDEST POP PUSH1 0x0 DUP3 GT PUSH2 0x5A0 JUMPI PUSH1 0x0 DUP1 REVERT JUMPDEST PUSH1 0x2 DUP2 DUP2 SLOAD DUP2 LT PUSH2 0x5B4 JUMPI PUSH2 0x5B3 PUSH2 0xE45 JUMP JUMPDEST JUMPDEST SWAP1 PUSH1 0x0 MSTORE PUSH1 0x20 PUSH1 0x0 KECCAK256 SWAP1 PUSH1 0x3 MUL ADD PUSH1 0x3 PUSH1 0x0 DUP3 ADD DUP2 PUSH1 0x0 ADD SWAP1 DUP1 SLOAD PUSH2 0x5D8 SWAP1 PUSH2 0xD3B JUMP JUMPDEST PUSH2 0x5E3 SWAP3 SWAP2 SWAP1 PUSH2 0x847 JUMP JUMPDEST POP PUSH1 0x1 DUP3 ADD DUP2 PUSH1 0x1 ADD SWAP1 DUP1 SLOAD PUSH2 0x5F8 SWAP1 PUSH2 0xD3B JUMP JUMPDEST PUSH2 0x603 SWAP3 SWAP2 SWAP1 PUSH2 0x847 JUMP JUMPDEST POP PUSH1 0x2 DUP3 ADD SLOAD DUP2 PUSH1 0x2 ADD SSTORE SWAP1 POP POP POP POP JUMP JUMPDEST PUSH1 0x1 PUSH1 0x20 MSTORE DUP1 PUSH1 0x0 MSTORE PUSH1 0x40 PUSH1 0x0 KECCAK256 PUSH1 0x0 SWAP2 POP SWAP1 POP DUP1 PUSH1 0x0 ADD PUSH1 0x0 SWAP1 SLOAD SWAP1 PUSH2 0x100 EXP SWAP1 DIV PUSH20 0xFFFFFFFFFFFFFFFFFFFFFFFFFFFFFFFFFFFFFFFF AND SWAP1 DUP1 PUSH1 0x0 ADD PUSH1 0x14 SWAP1 SLOAD SWAP1 PUSH2 0x100 EXP SWAP1 DIV PUSH1 0xFF AND SWAP1 POP DUP3 JUMP JUMPDEST PUSH2 0x66E PUSH2 0x8D4 JUMP JUMPDEST PUSH1 0x0 PUSH1 0x3 PUSH1 0x2 ADD SLOAD EQ ISZERO PUSH2 0x681 JUMPI PUSH1 0x0 DUP1 REVERT JUMPDEST PUSH1 0x3 PUSH1 0x40 MLOAD DUP1 PUSH1 0x60 ADD PUSH1 0x40 MSTORE SWAP1 DUP2 PUSH1 0x0 DUP3 ADD DUP1 SLOAD PUSH2 0x69E SWAP1 PUSH2 0xD3B JUMP JUMPDEST DUP1 PUSH1 0x1F ADD PUSH1 0x20 DUP1 SWAP2 DIV MUL PUSH1 0x20 ADD PUSH1 0x40 MLOAD SWAP1 DUP2 ADD PUSH1 0x40 MSTORE DUP1 SWAP3 SWAP2 SWAP1 DUP2 DUP2 MSTORE PUSH1 0x20 ADD DUP3 DUP1 SLOAD PUSH2 0x6CA SWAP1 PUSH2 0xD3B JUMP JUMPDEST DUP1 ISZERO PUSH2 0x717 JUMPI DUP1 PUSH1 0x1F LT PUSH2 0x6EC JUMPI PUSH2 0x100 DUP1 DUP4 SLOAD DIV MUL DUP4 MSTORE SWAP2 PUSH1 0x20 ADD SWAP2 PUSH2 0x717 JUMP JUMPDEST DUP3 ADD SWAP2 SWAP1 PUSH1 0x0 MSTORE PUSH1 0x20 PUSH1 0x0 KECCAK256 SWAP1 JUMPDEST DUP2 SLOAD DUP2 MSTORE SWAP1 PUSH1 0x1 ADD SWAP1 PUSH1 0x20 ADD DUP1 DUP4 GT PUSH2 0x6FA JUMPI DUP3 SWAP1 SUB PUSH1 0x1F AND DUP3 ADD SWAP2 JUMPDEST POP POP POP POP POP DUP2 MSTORE PUSH1 0x20 ADD PUSH1 0x1 DUP3 ADD DUP1 SLOAD PUSH2 0x730 SWAP1 PUSH2 0xD3B JUMP JUMPDEST DUP1 PUSH1 0x1F ADD PUSH1 0x20 DUP1 SWAP2 DIV MUL PUSH1 0x20 ADD PUSH1 0x40 MLOAD SWAP1 DUP2 ADD PUSH1 0x40 MSTORE DUP1 SWAP3 SWAP2 SWAP1 DUP2 DUP2 MSTORE PUSH1 0x20 ADD DUP3 DUP1 SLOAD PUSH2 0x75C SWAP1 PUSH2 0xD3B JUMP JUMPDEST DUP1 ISZERO PUSH2 0x7A9 JUMPI DUP1 PUSH1 0x1F LT PUSH2 0x77E JUMPI PUSH2 0x100 DUP1 DUP4 SLOAD DIV MUL DUP4 MSTORE SWAP2 PUSH1 0x20 ADD SWAP2 PUSH2 0x7A9 JUMP JUMPDEST DUP3 ADD SWAP2 SWAP1 PUSH1 0x0 MSTORE PUSH1 0x20 PUSH1 0x0 KECCAK256 SWAP1 JUMPDEST DUP2 SLOAD DUP2 MSTORE SWAP1 PUSH1 0x1 ADD SWAP1 PUSH1 0x20 ADD DUP1 DUP4 GT PUSH2 0x78C JUMPI DUP3 SWAP1 SUB PUSH1 0x1F AND DUP3 ADD SWAP2 JUMPDEST POP POP POP POP POP DUP2 MSTORE PUSH1 0x20 ADD PUSH1 0x2 DUP3 ADD SLOAD DUP2 MSTORE POP POP SWAP1 POP SWAP1 JUMP JUMPDEST DUP3 DUP1 SLOAD PUSH2 0x7CD SWAP1 PUSH2 0xD3B JUMP JUMPDEST SWAP1 PUSH1 0x0 MSTORE PUSH1 0x20 PUSH1 0x0 KECCAK256 SWAP1 PUSH1 0x1F ADD PUSH1 0x20 SWAP1 DIV DUP2 ADD SWAP3 DUP3 PUSH2 0x7EF JUMPI PUSH1 0x0 DUP6 SSTORE PUSH2 0x836 JUMP JUMPDEST DUP3 PUSH1 0x1F LT PUSH2 0x808 JUMPI DUP1 MLOAD PUSH1 0xFF NOT AND DUP4 DUP1 ADD OR DUP6 SSTORE PUSH2 0x836 JUMP JUMPDEST DUP3 DUP1 ADD PUSH1 0x1 ADD DUP6 SSTORE DUP3 ISZERO PUSH2 0x836 JUMPI SWAP2 DUP3 ADD JUMPDEST DUP3 DUP2 GT ISZERO PUSH2 0x835 JUMPI DUP3 MLOAD DUP3 SSTORE SWAP2 PUSH1 0x20 ADD SWAP2 SWAP1 PUSH1 0x1 ADD SWAP1 PUSH2 0x81A JUMP JUMPDEST JUMPDEST POP SWAP1 POP PUSH2 0x843 SWAP2 SWAP1 PUSH2 0x8F5 JUMP JUMPDEST POP SWAP1 JUMP JUMPDEST DUP3 DUP1 SLOAD PUSH2 0x853 SWAP1 PUSH2 0xD3B JUMP JUMPDEST SWAP1 PUSH1 0x0 MSTORE PUSH1 0x20 PUSH1 0x0 KECCAK256 SWAP1 PUSH1 0x1F ADD PUSH1 0x20 SWAP1 DIV DUP2 ADD SWAP3 DUP3 PUSH2 0x875 JUMPI PUSH1 0x0 DUP6 SSTORE PUSH2 0x8C3 JUMP JUMPDEST DUP3 PUSH1 0x1F LT PUSH2 0x886 JUMPI DUP1 SLOAD DUP6 SSTORE PUSH2 0x8C3 JUMP JUMPDEST DUP3 DUP1 ADD PUSH1 0x1 ADD DUP6 SSTORE DUP3 ISZERO PUSH2 0x8C3 JUMPI PUSH1 0x0 MSTORE PUSH1 0x20 PUSH1 0x0 KECCAK256 SWAP2 PUSH1 0x1F ADD PUSH1 0x20 SWAP1 DIV DUP3 ADD JUMPDEST DUP3 DUP2 GT ISZERO PUSH2 0x8C2 JUMPI DUP3 SLOAD DUP3 SSTORE SWAP2 PUSH1 0x1 ADD SWAP2 SWAP1 PUSH1 0x1 ADD SWAP1 PUSH2 0x8A7 JUMP JUMPDEST JUMPDEST POP SWAP1 POP PUSH2 0x8D0 SWAP2 SWAP1 PUSH2 0x8F5 JUMP JUMPDEST POP SWAP1 JUMP JUMPDEST PUSH1 0x40 MLOAD DUP1 PUSH1 0x60 ADD PUSH1 0x40 MSTORE DUP1 PUSH1 0x60 DUP2 MSTORE PUSH1 0x20 ADD PUSH1 0x60 DUP2 MSTORE PUSH1 0x20 ADD PUSH1 0x0 DUP2 MSTORE POP SWAP1 JUMP JUMPDEST JUMPDEST DUP1 DUP3 GT ISZERO PUSH2 0x90E JUMPI PUSH1 0x0 DUP2 PUSH1 0x0 SWAP1 SSTORE POP PUSH1 0x1 ADD PUSH2 0x8F6 JUMP JUMPDEST POP SWAP1 JUMP JUMPDEST PUSH1 0x0 PUSH2 0x925 PUSH2 0x920 DUP5 PUSH2 0xC53 JUMP JUMPDEST PUSH2 0xC2E JUMP JUMPDEST SWAP1 POP DUP3 DUP2 MSTORE PUSH1 0x20 DUP2 ADD DUP5 DUP5 DUP5 ADD GT ISZERO PUSH2 0x941 JUMPI PUSH2 0x940 PUSH2 0xEA8 JUMP JUMPDEST JUMPDEST PUSH2 0x94C DUP5 DUP3 DUP6 PUSH2 0xCF9 JUMP JUMPDEST POP SWAP4 SWAP3 POP POP POP JUMP JUMPDEST PUSH1 0x0 DUP2 CALLDATALOAD SWAP1 POP PUSH2 0x963 DUP2 PUSH2 0xEC8 JUMP JUMPDEST SWAP3 SWAP2 POP POP JUMP JUMPDEST PUSH1 0x0 DUP3 PUSH1 0x1F DUP4 ADD SLT PUSH2 0x97E JUMPI PUSH2 0x97D PUSH2 0xEA3 JUMP JUMPDEST JUMPDEST DUP2 CALLDATALOAD PUSH2 0x98E DUP5 DUP3 PUSH1 0x20 DUP7 ADD PUSH2 0x912 JUMP JUMPDEST SWAP2 POP POP SWAP3 SWAP2 POP POP JUMP JUMPDEST PUSH1 0x0 DUP2 CALLDATALOAD SWAP1 POP PUSH2 0x9A6 DUP2 PUSH2 0xEDF JUMP JUMPDEST SWAP3 SWAP2 POP POP JUMP JUMPDEST PUSH1 0x0 PUSH1 0x20 DUP3 DUP5 SUB SLT ISZERO PUSH2 0x9C2 JUMPI PUSH2 0x9C1 PUSH2 0xEB2 JUMP JUMPDEST JUMPDEST PUSH1 0x0 PUSH2 0x9D0 DUP5 DUP3 DUP6 ADD PUSH2 0x954 JUMP JUMPDEST SWAP2 POP POP SWAP3 SWAP2 POP POP JUMP JUMPDEST PUSH1 0x0 DUP1 PUSH1 0x40 DUP4 DUP6 SUB SLT ISZERO PUSH2 0x9F0 JUMPI PUSH2 0x9EF PUSH2 0xEB2 JUMP JUMPDEST JUMPDEST PUSH1 0x0 DUP4 ADD CALLDATALOAD PUSH8 0xFFFFFFFFFFFFFFFF DUP2 GT ISZERO PUSH2 0xA0E JUMPI PUSH2 0xA0D PUSH2 0xEAD JUMP JUMPDEST JUMPDEST PUSH2 0xA1A DUP6 DUP3 DUP7 ADD PUSH2 0x969 JUMP JUMPDEST SWAP3 POP POP PUSH1 0x20 DUP4 ADD CALLDATALOAD PUSH8 0xFFFFFFFFFFFFFFFF DUP2 GT ISZERO PUSH2 0xA3B JUMPI PUSH2 0xA3A PUSH2 0xEAD JUMP JUMPDEST JUMPDEST PUSH2 0xA47 DUP6 DUP3 DUP7 ADD PUSH2 0x969 JUMP JUMPDEST SWAP2 POP POP SWAP3 POP SWAP3 SWAP1 POP JUMP JUMPDEST PUSH1 0x0 PUSH1 0x20 DUP3 DUP5 SUB SLT ISZERO PUSH2 0xA67 JUMPI PUSH2 0xA66 PUSH2 0xEB2 JUMP JUMPDEST JUMPDEST PUSH1 0x0 PUSH2 0xA75 DUP5 DUP3 DUP6 ADD PUSH2 0x997 JUMP JUMPDEST SWAP2 POP POP SWAP3 SWAP2 POP POP JUMP JUMPDEST PUSH2 0xA87 DUP2 PUSH2 0xCB1 JUMP JUMPDEST DUP3 MSTORE POP POP JUMP JUMPDEST PUSH2 0xA96 DUP2 PUSH2 0xCC3 JUMP JUMPDEST DUP3 MSTORE POP POP JUMP JUMPDEST PUSH1 0x0 PUSH2 0xAA7 DUP3 PUSH2 0xC84 JUMP JUMPDEST PUSH2 0xAB1 DUP2 DUP6 PUSH2 0xC8F JUMP JUMPDEST SWAP4 POP PUSH2 0xAC1 DUP2 DUP6 PUSH1 0x20 DUP7 ADD PUSH2 0xD08 JUMP JUMPDEST PUSH2 0xACA DUP2 PUSH2 0xEB7 JUMP JUMPDEST DUP5 ADD SWAP2 POP POP SWAP3 SWAP2 POP POP JUMP JUMPDEST PUSH1 0x0 PUSH2 0xAE0 DUP3 PUSH2 0xC84 JUMP JUMPDEST PUSH2 0xAEA DUP2 DUP6 PUSH2 0xCA0 JUMP JUMPDEST SWAP4 POP PUSH2 0xAFA DUP2 DUP6 PUSH1 0x20 DUP7 ADD PUSH2 0xD08 JUMP JUMPDEST PUSH2 0xB03 DUP2 PUSH2 0xEB7 JUMP JUMPDEST DUP5 ADD SWAP2 POP POP SWAP3 SWAP2 POP POP JUMP JUMPDEST PUSH1 0x0 PUSH1 0x60 DUP4 ADD PUSH1 0x0 DUP4 ADD MLOAD DUP5 DUP3 SUB PUSH1 0x0 DUP7 ADD MSTORE PUSH2 0xB2B DUP3 DUP3 PUSH2 0xA9C JUMP JUMPDEST SWAP2 POP POP PUSH1 0x20 DUP4 ADD MLOAD DUP5 DUP3 SUB PUSH1 0x20 DUP7 ADD MSTORE PUSH2 0xB45 DUP3 DUP3 PUSH2 0xA9C JUMP JUMPDEST SWAP2 POP POP PUSH1 0x40 DUP4 ADD MLOAD PUSH2 0xB5A PUSH1 0x40 DUP7 ADD DUP3 PUSH2 0xB65 JUMP JUMPDEST POP DUP1 SWAP2 POP POP SWAP3 SWAP2 POP POP JUMP JUMPDEST PUSH2 0xB6E DUP2 PUSH2 0xCEF JUMP JUMPDEST DUP3 MSTORE POP POP JUMP JUMPDEST PUSH2 0xB7D DUP2 PUSH2 0xCEF JUMP JUMPDEST DUP3 MSTORE POP POP JUMP JUMPDEST PUSH1 0x0 PUSH1 0x20 DUP3 ADD SWAP1 POP PUSH2 0xB98 PUSH1 0x0 DUP4 ADD DUP5 PUSH2 0xA7E JUMP JUMPDEST SWAP3 SWAP2 POP POP JUMP JUMPDEST PUSH1 0x0 PUSH1 0x40 DUP3 ADD SWAP1 POP PUSH2 0xBB3 PUSH1 0x0 DUP4 ADD DUP6 PUSH2 0xA7E JUMP JUMPDEST PUSH2 0xBC0 PUSH1 0x20 DUP4 ADD DUP5 PUSH2 0xA8D JUMP JUMPDEST SWAP4 SWAP3 POP POP POP JUMP JUMPDEST PUSH1 0x0 PUSH1 0x60 DUP3 ADD SWAP1 POP DUP2 DUP2 SUB PUSH1 0x0 DUP4 ADD MSTORE PUSH2 0xBE1 DUP2 DUP7 PUSH2 0xAD5 JUMP JUMPDEST SWAP1 POP DUP2 DUP2 SUB PUSH1 0x20 DUP4 ADD MSTORE PUSH2 0xBF5 DUP2 DUP6 PUSH2 0xAD5 JUMP JUMPDEST SWAP1 POP PUSH2 0xC04 PUSH1 0x40 DUP4 ADD DUP5 PUSH2 0xB74 JUMP JUMPDEST SWAP5 SWAP4 POP POP POP POP JUMP JUMPDEST PUSH1 0x0 PUSH1 0x20 DUP3 ADD SWAP1 POP DUP2 DUP2 SUB PUSH1 0x0 DUP4 ADD MSTORE PUSH2 0xC26 DUP2 DUP5 PUSH2 0xB0E JUMP JUMPDEST SWAP1 POP SWAP3 SWAP2 POP POP JUMP JUMPDEST PUSH1 0x0 PUSH2 0xC38 PUSH2 0xC49 JUMP JUMPDEST SWAP1 POP PUSH2 0xC44 DUP3 DUP3 PUSH2 0xD6D JUMP JUMPDEST SWAP2 SWAP1 POP JUMP JUMPDEST PUSH1 0x0 PUSH1 0x40 MLOAD SWAP1 POP SWAP1 JUMP JUMPDEST PUSH1 0x0 PUSH8 0xFFFFFFFFFFFFFFFF DUP3 GT ISZERO PUSH2 0xC6E JUMPI PUSH2 0xC6D PUSH2 0xE74 JUMP JUMPDEST JUMPDEST PUSH2 0xC77 DUP3 PUSH2 0xEB7 JUMP JUMPDEST SWAP1 POP PUSH1 0x20 DUP2 ADD SWAP1 POP SWAP2 SWAP1 POP JUMP JUMPDEST PUSH1 0x0 DUP2 MLOAD SWAP1 POP SWAP2 SWAP1 POP JUMP JUMPDEST PUSH1 0x0 DUP3 DUP3 MSTORE PUSH1 0x20 DUP3 ADD SWAP1 POP SWAP3 SWAP2 POP POP JUMP JUMPDEST PUSH1 0x0 DUP3 DUP3 MSTORE PUSH1 0x20 DUP3 ADD SWAP1 POP SWAP3 SWAP2 POP POP JUMP JUMPDEST PUSH1 0x0 PUSH2 0xCBC DUP3 PUSH2 0xCCF JUMP JUMPDEST SWAP1 POP SWAP2 SWAP1 POP JUMP JUMPDEST PUSH1 0x0 DUP2 ISZERO ISZERO SWAP1 POP SWAP2 SWAP1 POP JUMP JUMPDEST PUSH1 0x0 PUSH20 0xFFFFFFFFFFFFFFFFFFFFFFFFFFFFFFFFFFFFFFFF DUP3 AND SWAP1 POP SWAP2 SWAP1 POP JUMP JUMPDEST PUSH1 0x0 DUP2 SWAP1 POP SWAP2 SWAP1 POP JUMP JUMPDEST DUP3 DUP2 DUP4 CALLDATACOPY PUSH1 0x0 DUP4 DUP4 ADD MSTORE POP POP POP JUMP JUMPDEST PUSH1 0x0 JUMPDEST DUP4 DUP2 LT ISZERO PUSH2 0xD26 JUMPI DUP1 DUP3 ADD MLOAD DUP2 DUP5 ADD MSTORE PUSH1 0x20 DUP2 ADD SWAP1 POP PUSH2 0xD0B JUMP JUMPDEST DUP4 DUP2 GT ISZERO PUSH2 0xD35 JUMPI PUSH1 0x0 DUP5 DUP5 ADD MSTORE JUMPDEST POP POP POP POP JUMP JUMPDEST PUSH1 0x0 PUSH1 0x2 DUP3 DIV SWAP1 POP PUSH1 0x1 DUP3 AND DUP1 PUSH2 0xD53 JUMPI PUSH1 0x7F DUP3 AND SWAP2 POP JUMPDEST PUSH1 0x20 DUP3 LT DUP2 EQ ISZERO PUSH2 0xD67 JUMPI PUSH2 0xD66 PUSH2 0xE16 JUMP JUMPDEST JUMPDEST POP SWAP2 SWAP1 POP JUMP JUMPDEST PUSH2 0xD76 DUP3 PUSH2 0xEB7 JUMP JUMPDEST DUP2 ADD DUP2 DUP2 LT PUSH8 0xFFFFFFFFFFFFFFFF DUP3 GT OR ISZERO PUSH2 0xD95 JUMPI PUSH2 0xD94 PUSH2 0xE74 JUMP JUMPDEST JUMPDEST DUP1 PUSH1 0x40 MSTORE POP POP POP JUMP JUMPDEST PUSH1 0x0 PUSH2 0xDA9 DUP3 PUSH2 0xCEF JUMP JUMPDEST SWAP2 POP PUSH32 0xFFFFFFFFFFFFFFFFFFFFFFFFFFFFFFFFFFFFFFFFFFFFFFFFFFFFFFFFFFFFFFFF DUP3 EQ ISZERO PUSH2 0xDDC JUMPI PUSH2 0xDDB PUSH2 0xDE7 JUMP JUMPDEST JUMPDEST PUSH1 0x1 DUP3 ADD SWAP1 POP SWAP2 SWAP1 POP JUMP JUMPDEST PUSH32 0x4E487B7100000000000000000000000000000000000000000000000000000000 PUSH1 0x0 MSTORE PUSH1 0x11 PUSH1 0x4 MSTORE PUSH1 0x24 PUSH1 0x0 REVERT JUMPDEST PUSH32 0x4E487B7100000000000000000000000000000000000000000000000000000000 PUSH1 0x0 MSTORE PUSH1 0x22 PUSH1 0x4 MSTORE PUSH1 0x24 PUSH1 0x0 REVERT JUMPDEST PUSH32 0x4E487B7100000000000000000000000000000000000000000000000000000000 PUSH1 0x0 MSTORE PUSH1 0x32 PUSH1 0x4 MSTORE PUSH1 0x24 PUSH1 0x0 REVERT JUMPDEST PUSH32 0x4E487B7100000000000000000000000000000000000000000000000000000000 PUSH1 0x0 MSTORE PUSH1 0x41 PUSH1 0x4 MSTORE PUSH1 0x24 PUSH1 0x0 REVERT JUMPDEST PUSH1 0x0 DUP1 REVERT JUMPDEST PUSH1 0x0 DUP1 REVERT JUMPDEST PUSH1 0x0 DUP1 REVERT JUMPDEST PUSH1 0x0 DUP1 REVERT JUMPDEST PUSH1 0x0 PUSH1 0x1F NOT PUSH1 0x1F DUP4 ADD AND SWAP1 POP SWAP2 SWAP1 POP JUMP JUMPDEST PUSH2 0xED1 DUP2 PUSH2 0xCB1 JUMP JUMPDEST DUP2 EQ PUSH2 0xEDC JUMPI PUSH1 0x0 DUP1 REVERT JUMPDEST POP JUMP JUMPDEST PUSH2 0xEE8 DUP2 PUSH2 0xCEF JUMP JUMPDEST DUP2 EQ PUSH2 0xEF3 JUMPI PUSH1 0x0 DUP1 REVERT JUMPDEST POP JUMP INVALID LOG2 PUSH5 0x6970667358 0x22 SLT KECCAK256 JUMP CREATE2 0xC4 0xB8 0xF9 PUSH23 0xAA7BB094405C6044B3654C6C2ECC3529338F18B5EC0D6B 0xEA PUSH13 0xC464736F6C6343000807003300 "
    },
    "gasEstimates": {
      "creation": {
        "codeDepositCost": "776800",
        "executionCost": "infinite",
        "totalCost": "infinite"
      },
      "external": {
        "addProposal(string,string)": "infinite",
        "getWinningProposal()": "infinite",
        "manager()": "2511",
        "pickWinner()": "infinite",
        "proposals(uint256)": "infinite",
        "vote(uint256)": "infinite",
        "voters(address)": "infinite"
      }
    },
    "methodIdentifiers": {
      "addProposal(string,string)": "23d1c95e",
      "getWinningProposal()": "a5134620",
      "manager()": "481c6a75",
      "pickWinner()": "5d495aea",
      "proposals(uint256)": "013cf08b",
      "vote(uint256)": "0121b93f",
      "voters(address)": "a3ec138d"
    }
  },
  "storageLayout": {
    "storage": [
      {
        "astId": 53,
        "contract": "Election.sol:Election",
        "label": "manager",
        "offset": 0,
        "slot": "0",
        "type": "t_address"
      },
      {
        "astId": 58,
        "contract": "Election.sol:Election",
        "label": "voters",
        "offset": 0,
        "slot": "1",
        "type": "t_mapping(t_address,t_struct(Voter)44_storage)"
      },
      {
        "astId": 62,
        "contract": "Election.sol:Election",
        "label": "proposals",
        "offset": 0,
        "slot": "2",
        "type": "t_array(t_struct(Proposal)51_storage)dyn_storage"
      },
      {
        "astId": 65,
        "contract": "Election.sol:Election",
        "label": "winningProposal",
        "offset": 0,
        "slot": "3",
        "type": "t_struct(Proposal)51_storage"
      },
      {
        "astId": 67,
        "contract": "Election.sol:Election",
        "label": "name",
        "offset": 0,
        "slot": "6",
        "type": "t_string_storage"
      }
    ],
    "types": {
      "t_address": {
        "encoding": "inplace",
        "label": "address",
        "numberOfBytes": "20"
      },
      "t_array(t_struct(Proposal)51_storage)dyn_storage": {
        "base": "t_struct(Proposal)51_storage",
        "encoding": "dynamic_array",
        "label": "struct Election.Proposal[]",
        "numberOfBytes": "32"
      },
      "t_bool": {
        "encoding": "inplace",
        "label": "bool",
        "numberOfBytes": "1"
      },
      "t_mapping(t_address,t_struct(Voter)44_storage)": {
        "encoding": "mapping",
        "key": "t_address",
        "label": "mapping(address => struct Election.Voter)",
        "numberOfBytes": "32",
        "value": "t_struct(Voter)44_storage"
      },
      "t_string_storage": {
        "encoding": "bytes",
        "label": "string",
        "numberOfBytes": "32"
      },
      "t_struct(Proposal)51_storage": {
        "encoding": "inplace",
        "label": "struct Election.Proposal",
        "members": [
          {
            "astId": 46,
            "contract": "Election.sol:Election",
            "label": "name",
            "offset": 0,
            "slot": "0",
            "type": "t_string_storage"
          },
          {
            "astId": 48,
            "contract": "Election.sol:Election",
            "label": "description",
            "offset": 0,
            "slot": "1",
            "type": "t_string_storage"
          },
          {
            "astId": 50,
            "contract": "Election.sol:Election",
            "label": "voteCount",
            "offset": 0,
            "slot": "2",
            "type": "t_uint256"
          }
        ],
        "numberOfBytes": "96"
      },
      "t_struct(Voter)44_storage": {
        "encoding": "inplace",
        "label": "struct Election.Voter",
        "members": [
          {
            "astId": 41,
            "contract": "Election.sol:Election",
            "label": "delegate",
            "offset": 0,
            "slot": "0",
            "type": "t_address"
          },
          {
            "astId": 43,
            "contract": "Election.sol:Election",
            "label": "voted",
            "offset": 20,
            "slot": "0",
            "type": "t_bool"
          }
        ],
        "numberOfBytes": "32"
      },
      "t_uint256": {
        "encoding": "inplace",
        "label": "uint256",
        "numberOfBytes": "32"
      }
    }
  },
  "userdoc": {
    "kind": "user",
    "methods": {},
    "version": 1
  }
}